{
	"contracts/Base.sol": {
		"TokenFactory": {
			"abi": [
				{
					"anonymous": false,
					"inputs": [
						{
							"indexed": true,
							"internalType": "address",
							"name": "tokenAddress",
							"type": "address"
						},
						{
							"indexed": false,
							"internalType": "string",
							"name": "name",
							"type": "string"
						},
						{
							"indexed": false,
							"internalType": "string",
							"name": "symbol",
							"type": "string"
						},
						{
							"indexed": false,
							"internalType": "uint256",
							"name": "supply",
							"type": "uint256"
						},
						{
							"indexed": false,
							"internalType": "address",
							"name": "owner",
							"type": "address"
						}
					],
					"name": "TokenCreated",
					"type": "event"
				},
				{
					"inputs": [
						{
							"internalType": "uint256",
							"name": "initialSupply",
							"type": "uint256"
						}
					],
					"name": "createToken",
					"outputs": [
						{
							"internalType": "address",
							"name": "",
							"type": "address"
						}
					],
					"stateMutability": "nonpayable",
					"type": "function"
				}
			],
			"devdoc": {
				"kind": "dev",
				"methods": {},
				"version": 1
			},
			"evm": {
				"assembly": "    /* \"contracts/Base.sol\":550:2828  contract TokenFactory {... */\n  mstore(0x40, 0x80)\n    /* \"contracts/Base.sol\":637:807  string[] private prefixes = [\"AE\", \"BO\", \"CRI\", \"DRA\", \"EX\", \"FEN\", \"GOR\", \"HY\", \"IN\", \"JO\", \"KO\", \"LU\", \"MY\", \"NY\", \"OR\", \"PY\", \"QU\", \"RA\", \"SY\", \"TY\", \"VE\", \"XE\", \"ZE\"] */\n  mload(0x40)\n  dup1\n  0x02e0\n  add\n  0x40\n  mstore\n  dup1\n  mload(0x40)\n  dup1\n  0x40\n  add\n  0x40\n  mstore\n  dup1\n  0x02\n  dup2\n  mstore\n  0x20\n  add\n  0x4145000000000000000000000000000000000000000000000000000000000000\n  dup2\n  mstore\n  pop\n  dup2\n  mstore\n  0x20\n  add\n  mload(0x40)\n  dup1\n  0x40\n  add\n  0x40\n  mstore\n  dup1\n  0x02\n  dup2\n  mstore\n  0x20\n  add\n  0x424f000000000000000000000000000000000000000000000000000000000000\n  dup2\n  mstore\n  pop\n  dup2\n  mstore\n  0x20\n  add\n  mload(0x40)\n  dup1\n  0x40\n  add\n  0x40\n  mstore\n  dup1\n  0x03\n  dup2\n  mstore\n  0x20\n  add\n  0x4352490000000000000000000000000000000000000000000000000000000000\n  dup2\n  mstore\n  pop\n  dup2\n  mstore\n  0x20\n  add\n  mload(0x40)\n  dup1\n  0x40\n  add\n  0x40\n  mstore\n  dup1\n  0x03\n  dup2\n  mstore\n  0x20\n  add\n  0x4452410000000000000000000000000000000000000000000000000000000000\n  dup2\n  mstore\n  pop\n  dup2\n  mstore\n  0x20\n  add\n  mload(0x40)\n  dup1\n  0x40\n  add\n  0x40\n  mstore\n  dup1\n  0x02\n  dup2\n  mstore\n  0x20\n  add\n  0x4558000000000000000000000000000000000000000000000000000000000000\n  dup2\n  mstore\n  pop\n  dup2\n  mstore\n  0x20\n  add\n  mload(0x40)\n  dup1\n  0x40\n  add\n  0x40\n  mstore\n  dup1\n  0x03\n  dup2\n  mstore\n  0x20\n  add\n  0x46454e0000000000000000000000000000000000000000000000000000000000\n  dup2\n  mstore\n  pop\n  dup2\n  mstore\n  0x20\n  add\n  mload(0x40)\n  dup1\n  0x40\n  add\n  0x40\n  mstore\n  dup1\n  0x03\n  dup2\n  mstore\n  0x20\n  add\n  0x474f520000000000000000000000000000000000000000000000000000000000\n  dup2\n  mstore\n  pop\n  dup2\n  mstore\n  0x20\n  add\n  mload(0x40)\n  dup1\n  0x40\n  add\n  0x40\n  mstore\n  dup1\n  0x02\n  dup2\n  mstore\n  0x20\n  add\n  0x4859000000000000000000000000000000000000000000000000000000000000\n  dup2\n  mstore\n  pop\n  dup2\n  mstore\n  0x20\n  add\n  mload(0x40)\n  dup1\n  0x40\n  add\n  0x40\n  mstore\n  dup1\n  0x02\n  dup2\n  mstore\n  0x20\n  add\n  0x494e000000000000000000000000000000000000000000000000000000000000\n  dup2\n  mstore\n  pop\n  dup2\n  mstore\n  0x20\n  add\n  mload(0x40)\n  dup1\n  0x40\n  add\n  0x40\n  mstore\n  dup1\n  0x02\n  dup2\n  mstore\n  0x20\n  add\n  0x4a4f000000000000000000000000000000000000000000000000000000000000\n  dup2\n  mstore\n  pop\n  dup2\n  mstore\n  0x20\n  add\n  mload(0x40)\n  dup1\n  0x40\n  add\n  0x40\n  mstore\n  dup1\n  0x02\n  dup2\n  mstore\n  0x20\n  add\n  0x4b4f000000000000000000000000000000000000000000000000000000000000\n  dup2\n  mstore\n  pop\n  dup2\n  mstore\n  0x20\n  add\n  mload(0x40)\n  dup1\n  0x40\n  add\n  0x40\n  mstore\n  dup1\n  0x02\n  dup2\n  mstore\n  0x20\n  add\n  0x4c55000000000000000000000000000000000000000000000000000000000000\n  dup2\n  mstore\n  pop\n  dup2\n  mstore\n  0x20\n  add\n  mload(0x40)\n  dup1\n  0x40\n  add\n  0x40\n  mstore\n  dup1\n  0x02\n  dup2\n  mstore\n  0x20\n  add\n  0x4d59000000000000000000000000000000000000000000000000000000000000\n  dup2\n  mstore\n  pop\n  dup2\n  mstore\n  0x20\n  add\n  mload(0x40)\n  dup1\n  0x40\n  add\n  0x40\n  mstore\n  dup1\n  0x02\n  dup2\n  mstore\n  0x20\n  add\n  0x4e59000000000000000000000000000000000000000000000000000000000000\n  dup2\n  mstore\n  pop\n  dup2\n  mstore\n  0x20\n  add\n  mload(0x40)\n  dup1\n  0x40\n  add\n  0x40\n  mstore\n  dup1\n  0x02\n  dup2\n  mstore\n  0x20\n  add\n  0x4f52000000000000000000000000000000000000000000000000000000000000\n  dup2\n  mstore\n  pop\n  dup2\n  mstore\n  0x20\n  add\n  mload(0x40)\n  dup1\n  0x40\n  add\n  0x40\n  mstore\n  dup1\n  0x02\n  dup2\n  mstore\n  0x20\n  add\n  0x5059000000000000000000000000000000000000000000000000000000000000\n  dup2\n  mstore\n  pop\n  dup2\n  mstore\n  0x20\n  add\n  mload(0x40)\n  dup1\n  0x40\n  add\n  0x40\n  mstore\n  dup1\n  0x02\n  dup2\n  mstore\n  0x20\n  add\n  0x5155000000000000000000000000000000000000000000000000000000000000\n  dup2\n  mstore\n  pop\n  dup2\n  mstore\n  0x20\n  add\n  mload(0x40)\n  dup1\n  0x40\n  add\n  0x40\n  mstore\n  dup1\n  0x02\n  dup2\n  mstore\n  0x20\n  add\n  0x5241000000000000000000000000000000000000000000000000000000000000\n  dup2\n  mstore\n  pop\n  dup2\n  mstore\n  0x20\n  add\n  mload(0x40)\n  dup1\n  0x40\n  add\n  0x40\n  mstore\n  dup1\n  0x02\n  dup2\n  mstore\n  0x20\n  add\n  0x5359000000000000000000000000000000000000000000000000000000000000\n  dup2\n  mstore\n  pop\n  dup2\n  mstore\n  0x20\n  add\n  mload(0x40)\n  dup1\n  0x40\n  add\n  0x40\n  mstore\n  dup1\n  0x02\n  dup2\n  mstore\n  0x20\n  add\n  0x5459000000000000000000000000000000000000000000000000000000000000\n  dup2\n  mstore\n  pop\n  dup2\n  mstore\n  0x20\n  add\n  mload(0x40)\n  dup1\n  0x40\n  add\n  0x40\n  mstore\n  dup1\n  0x02\n  dup2\n  mstore\n  0x20\n  add\n  0x5645000000000000000000000000000000000000000000000000000000000000\n  dup2\n  mstore\n  pop\n  dup2\n  mstore\n  0x20\n  add\n  mload(0x40)\n  dup1\n  0x40\n  add\n  0x40\n  mstore\n  dup1\n  0x02\n  dup2\n  mstore\n  0x20\n  add\n  0x5845000000000000000000000000000000000000000000000000000000000000\n  dup2\n  mstore\n  pop\n  dup2\n  mstore\n  0x20\n  add\n  mload(0x40)\n  dup1\n  0x40\n  add\n  0x40\n  mstore\n  dup1\n  0x02\n  dup2\n  mstore\n  0x20\n  add\n  0x5a45000000000000000000000000000000000000000000000000000000000000\n  dup2\n  mstore\n  pop\n  dup2\n  mstore\n  pop\n  0x00\n  swap1\n  0x17\n  tag_1\n  swap3\n  swap2\n  swap1\n  tag_2\n  jump\t// in\ntag_1:\n  pop\n    /* \"contracts/Base.sol\":813:917  string[] private middles = [\"LAN\", \"MAR\", \"NER\", \"PIX\", \"ROS\", \"SEN\", \"TOR\", \"VIS\", \"WEN\", \"XIR\", \"ZOR\"] */\n  mload(0x40)\n  dup1\n  0x0160\n  add\n  0x40\n  mstore\n  dup1\n  mload(0x40)\n  dup1\n  0x40\n  add\n  0x40\n  mstore\n  dup1\n  0x03\n  dup2\n  mstore\n  0x20\n  add\n  0x4c414e0000000000000000000000000000000000000000000000000000000000\n  dup2\n  mstore\n  pop\n  dup2\n  mstore\n  0x20\n  add\n  mload(0x40)\n  dup1\n  0x40\n  add\n  0x40\n  mstore\n  dup1\n  0x03\n  dup2\n  mstore\n  0x20\n  add\n  0x4d41520000000000000000000000000000000000000000000000000000000000\n  dup2\n  mstore\n  pop\n  dup2\n  mstore\n  0x20\n  add\n  mload(0x40)\n  dup1\n  0x40\n  add\n  0x40\n  mstore\n  dup1\n  0x03\n  dup2\n  mstore\n  0x20\n  add\n  0x4e45520000000000000000000000000000000000000000000000000000000000\n  dup2\n  mstore\n  pop\n  dup2\n  mstore\n  0x20\n  add\n  mload(0x40)\n  dup1\n  0x40\n  add\n  0x40\n  mstore\n  dup1\n  0x03\n  dup2\n  mstore\n  0x20\n  add\n  0x5049580000000000000000000000000000000000000000000000000000000000\n  dup2\n  mstore\n  pop\n  dup2\n  mstore\n  0x20\n  add\n  mload(0x40)\n  dup1\n  0x40\n  add\n  0x40\n  mstore\n  dup1\n  0x03\n  dup2\n  mstore\n  0x20\n  add\n  0x524f530000000000000000000000000000000000000000000000000000000000\n  dup2\n  mstore\n  pop\n  dup2\n  mstore\n  0x20\n  add\n  mload(0x40)\n  dup1\n  0x40\n  add\n  0x40\n  mstore\n  dup1\n  0x03\n  dup2\n  mstore\n  0x20\n  add\n  0x53454e0000000000000000000000000000000000000000000000000000000000\n  dup2\n  mstore\n  pop\n  dup2\n  mstore\n  0x20\n  add\n  mload(0x40)\n  dup1\n  0x40\n  add\n  0x40\n  mstore\n  dup1\n  0x03\n  dup2\n  mstore\n  0x20\n  add\n  0x544f520000000000000000000000000000000000000000000000000000000000\n  dup2\n  mstore\n  pop\n  dup2\n  mstore\n  0x20\n  add\n  mload(0x40)\n  dup1\n  0x40\n  add\n  0x40\n  mstore\n  dup1\n  0x03\n  dup2\n  mstore\n  0x20\n  add\n  0x5649530000000000000000000000000000000000000000000000000000000000\n  dup2\n  mstore\n  pop\n  dup2\n  mstore\n  0x20\n  add\n  mload(0x40)\n  dup1\n  0x40\n  add\n  0x40\n  mstore\n  dup1\n  0x03\n  dup2\n  mstore\n  0x20\n  add\n  0x57454e0000000000000000000000000000000000000000000000000000000000\n  dup2\n  mstore\n  pop\n  dup2\n  mstore\n  0x20\n  add\n  mload(0x40)\n  dup1\n  0x40\n  add\n  0x40\n  mstore\n  dup1\n  0x03\n  dup2\n  mstore\n  0x20\n  add\n  0x5849520000000000000000000000000000000000000000000000000000000000\n  dup2\n  mstore\n  pop\n  dup2\n  mstore\n  0x20\n  add\n  mload(0x40)\n  dup1\n  0x40\n  add\n  0x40\n  mstore\n  dup1\n  0x03\n  dup2\n  mstore\n  0x20\n  add\n  0x5a4f520000000000000000000000000000000000000000000000000000000000\n  dup2\n  mstore\n  pop\n  dup2\n  mstore\n  pop\n  0x01\n  swap1\n  0x0b\n  tag_3\n  swap3\n  swap2\n  swap1\n  tag_4\n  jump\t// in\ntag_3:\n  pop\n    /* \"contracts/Base.sol\":923:1016  string[] private suffixes = [\"A\", \"AX\", \"EX\", \"IX\", \"OX\", \"US\", \"UM\", \"IA\", \"ON\", \"IO\", \"OR\"] */\n  mload(0x40)\n  dup1\n  0x0160\n  add\n  0x40\n  mstore\n  dup1\n  mload(0x40)\n  dup1\n  0x40\n  add\n  0x40\n  mstore\n  dup1\n  0x01\n  dup2\n  mstore\n  0x20\n  add\n  0x4100000000000000000000000000000000000000000000000000000000000000\n  dup2\n  mstore\n  pop\n  dup2\n  mstore\n  0x20\n  add\n  mload(0x40)\n  dup1\n  0x40\n  add\n  0x40\n  mstore\n  dup1\n  0x02\n  dup2\n  mstore\n  0x20\n  add\n  0x4158000000000000000000000000000000000000000000000000000000000000\n  dup2\n  mstore\n  pop\n  dup2\n  mstore\n  0x20\n  add\n  mload(0x40)\n  dup1\n  0x40\n  add\n  0x40\n  mstore\n  dup1\n  0x02\n  dup2\n  mstore\n  0x20\n  add\n  0x4558000000000000000000000000000000000000000000000000000000000000\n  dup2\n  mstore\n  pop\n  dup2\n  mstore\n  0x20\n  add\n  mload(0x40)\n  dup1\n  0x40\n  add\n  0x40\n  mstore\n  dup1\n  0x02\n  dup2\n  mstore\n  0x20\n  add\n  0x4958000000000000000000000000000000000000000000000000000000000000\n  dup2\n  mstore\n  pop\n  dup2\n  mstore\n  0x20\n  add\n  mload(0x40)\n  dup1\n  0x40\n  add\n  0x40\n  mstore\n  dup1\n  0x02\n  dup2\n  mstore\n  0x20\n  add\n  0x4f58000000000000000000000000000000000000000000000000000000000000\n  dup2\n  mstore\n  pop\n  dup2\n  mstore\n  0x20\n  add\n  mload(0x40)\n  dup1\n  0x40\n  add\n  0x40\n  mstore\n  dup1\n  0x02\n  dup2\n  mstore\n  0x20\n  add\n  0x5553000000000000000000000000000000000000000000000000000000000000\n  dup2\n  mstore\n  pop\n  dup2\n  mstore\n  0x20\n  add\n  mload(0x40)\n  dup1\n  0x40\n  add\n  0x40\n  mstore\n  dup1\n  0x02\n  dup2\n  mstore\n  0x20\n  add\n  0x554d000000000000000000000000000000000000000000000000000000000000\n  dup2\n  mstore\n  pop\n  dup2\n  mstore\n  0x20\n  add\n  mload(0x40)\n  dup1\n  0x40\n  add\n  0x40\n  mstore\n  dup1\n  0x02\n  dup2\n  mstore\n  0x20\n  add\n  0x4941000000000000000000000000000000000000000000000000000000000000\n  dup2\n  mstore\n  pop\n  dup2\n  mstore\n  0x20\n  add\n  mload(0x40)\n  dup1\n  0x40\n  add\n  0x40\n  mstore\n  dup1\n  0x02\n  dup2\n  mstore\n  0x20\n  add\n  0x4f4e000000000000000000000000000000000000000000000000000000000000\n  dup2\n  mstore\n  pop\n  dup2\n  mstore\n  0x20\n  add\n  mload(0x40)\n  dup1\n  0x40\n  add\n  0x40\n  mstore\n  dup1\n  0x02\n  dup2\n  mstore\n  0x20\n  add\n  0x494f000000000000000000000000000000000000000000000000000000000000\n  dup2\n  mstore\n  pop\n  dup2\n  mstore\n  0x20\n  add\n  mload(0x40)\n  dup1\n  0x40\n  add\n  0x40\n  mstore\n  dup1\n  0x02\n  dup2\n  mstore\n  0x20\n  add\n  0x4f52000000000000000000000000000000000000000000000000000000000000\n  dup2\n  mstore\n  pop\n  dup2\n  mstore\n  pop\n  0x02\n  swap1\n  0x0b\n  tag_5\n  swap3\n  swap2\n  swap1\n  tag_4\n  jump\t// in\ntag_5:\n  pop\n    /* \"contracts/Base.sol\":550:2828  contract TokenFactory {... */\n  callvalue\n  dup1\n  iszero\n  tag_6\n  jumpi\n  revert(0x00, 0x00)\ntag_6:\n  pop\n  jump(tag_7)\ntag_2:\n  dup3\n  dup1\n  sload\n  dup3\n  dup3\n  sstore\n  swap1\n  0x00\n  mstore\n  keccak256(0x00, 0x20)\n  swap1\n  dup2\n  add\n  swap3\n  dup3\n  iszero\n  tag_8\n  jumpi\n  swap2\n  0x20\n  mul\n  dup3\n  add\ntag_9:\n  dup3\n  dup2\n  gt\n  iszero\n  tag_10\n  jumpi\n  dup3\n  mload\n  dup3\n  swap1\n  dup2\n  tag_11\n  swap2\n  swap1\n  tag_12\n  jump\t// in\ntag_11:\n  pop\n  swap2\n  0x20\n  add\n  swap2\n  swap1\n  0x01\n  add\n  swap1\n  jump(tag_9)\ntag_10:\ntag_8:\n  pop\n  swap1\n  pop\n  tag_13\n  swap2\n  swap1\n  tag_14\n  jump\t// in\ntag_13:\n  pop\n  swap1\n  jump\t// out\ntag_4:\n  dup3\n  dup1\n  sload\n  dup3\n  dup3\n  sstore\n  swap1\n  0x00\n  mstore\n  keccak256(0x00, 0x20)\n  swap1\n  dup2\n  add\n  swap3\n  dup3\n  iszero\n  tag_15\n  jumpi\n  swap2\n  0x20\n  mul\n  dup3\n  add\ntag_16:\n  dup3\n  dup2\n  gt\n  iszero\n  tag_17\n  jumpi\n  dup3\n  mload\n  dup3\n  swap1\n  dup2\n  tag_18\n  swap2\n  swap1\n  tag_12\n  jump\t// in\ntag_18:\n  pop\n  swap2\n  0x20\n  add\n  swap2\n  swap1\n  0x01\n  add\n  swap1\n  jump(tag_16)\ntag_17:\ntag_15:\n  pop\n  swap1\n  pop\n  tag_19\n  swap2\n  swap1\n  tag_14\n  jump\t// in\ntag_19:\n  pop\n  swap1\n  jump\t// out\ntag_14:\ntag_20:\n  dup1\n  dup3\n  gt\n  iszero\n  tag_21\n  jumpi\n  0x00\n  dup2\n  dup2\n  tag_22\n  swap2\n  swap1\n  tag_23\n  jump\t// in\ntag_22:\n  pop\n  0x01\n  add\n  jump(tag_20)\ntag_21:\n  pop\n  swap1\n  jump\t// out\ntag_23:\n  pop\n  dup1\n  sload\n  tag_24\n  swap1\n  tag_25\n  jump\t// in\ntag_24:\n  0x00\n  dup3\n  sstore\n  dup1\n  0x1f\n  lt\n  tag_27\n  jumpi\n  pop\n  jump(tag_26)\ntag_27:\n  0x1f\n  add\n  0x20\n  swap1\n  div\n  swap1\n  0x00\n  mstore\n  keccak256(0x00, 0x20)\n  swap1\n  dup2\n  add\n  swap1\n  tag_28\n  swap2\n  swap1\n  tag_29\n  jump\t// in\ntag_28:\ntag_26:\n  pop\n  jump\t// out\ntag_29:\ntag_30:\n  dup1\n  dup3\n  gt\n  iszero\n  tag_31\n  jumpi\n  0x00\n  dup2\n  0x00\n  swap1\n  sstore\n  pop\n  0x01\n  add\n  jump(tag_30)\ntag_31:\n  pop\n  swap1\n  jump\t// out\n    /* \"#utility.yul\":7:106   */\ntag_32:\n    /* \"#utility.yul\":59:65   */\n  0x00\n    /* \"#utility.yul\":93:98   */\n  dup2\n    /* \"#utility.yul\":87:99   */\n  mload\n    /* \"#utility.yul\":77:99   */\n  swap1\n  pop\n    /* \"#utility.yul\":7:106   */\n  swap2\n  swap1\n  pop\n  jump\t// out\n    /* \"#utility.yul\":112:292   */\ntag_33:\n    /* \"#utility.yul\":160:237   */\n  0x4e487b7100000000000000000000000000000000000000000000000000000000\n    /* \"#utility.yul\":157:158   */\n  0x00\n    /* \"#utility.yul\":150:238   */\n  mstore\n    /* \"#utility.yul\":257:261   */\n  0x41\n    /* \"#utility.yul\":254:255   */\n  0x04\n    /* \"#utility.yul\":247:262   */\n  mstore\n    /* \"#utility.yul\":281:285   */\n  0x24\n    /* \"#utility.yul\":278:279   */\n  0x00\n    /* \"#utility.yul\":271:286   */\n  revert\n    /* \"#utility.yul\":298:478   */\ntag_34:\n    /* \"#utility.yul\":346:423   */\n  0x4e487b7100000000000000000000000000000000000000000000000000000000\n    /* \"#utility.yul\":343:344   */\n  0x00\n    /* \"#utility.yul\":336:424   */\n  mstore\n    /* \"#utility.yul\":443:447   */\n  0x22\n    /* \"#utility.yul\":440:441   */\n  0x04\n    /* \"#utility.yul\":433:448   */\n  mstore\n    /* \"#utility.yul\":467:471   */\n  0x24\n    /* \"#utility.yul\":464:465   */\n  0x00\n    /* \"#utility.yul\":457:472   */\n  revert\n    /* \"#utility.yul\":484:804   */\ntag_25:\n    /* \"#utility.yul\":528:534   */\n  0x00\n    /* \"#utility.yul\":565:566   */\n  0x02\n    /* \"#utility.yul\":559:563   */\n  dup3\n    /* \"#utility.yul\":555:567   */\n  div\n    /* \"#utility.yul\":545:567   */\n  swap1\n  pop\n    /* \"#utility.yul\":612:613   */\n  0x01\n    /* \"#utility.yul\":606:610   */\n  dup3\n    /* \"#utility.yul\":602:614   */\n  and\n    /* \"#utility.yul\":633:651   */\n  dup1\n    /* \"#utility.yul\":623:704   */\n  tag_56\n  jumpi\n    /* \"#utility.yul\":689:693   */\n  0x7f\n    /* \"#utility.yul\":681:687   */\n  dup3\n    /* \"#utility.yul\":677:694   */\n  and\n    /* \"#utility.yul\":667:694   */\n  swap2\n  pop\n    /* \"#utility.yul\":623:704   */\ntag_56:\n    /* \"#utility.yul\":751:753   */\n  0x20\n    /* \"#utility.yul\":743:749   */\n  dup3\n    /* \"#utility.yul\":740:754   */\n  lt\n    /* \"#utility.yul\":720:738   */\n  dup2\n    /* \"#utility.yul\":717:755   */\n  sub\n    /* \"#utility.yul\":714:798   */\n  tag_57\n  jumpi\n    /* \"#utility.yul\":770:788   */\n  tag_58\n  tag_34\n  jump\t// in\ntag_58:\n    /* \"#utility.yul\":714:798   */\ntag_57:\n    /* \"#utility.yul\":535:804   */\n  pop\n    /* \"#utility.yul\":484:804   */\n  swap2\n  swap1\n  pop\n  jump\t// out\n    /* \"#utility.yul\":810:951   */\ntag_35:\n    /* \"#utility.yul\":859:863   */\n  0x00\n    /* \"#utility.yul\":882:885   */\n  dup2\n    /* \"#utility.yul\":874:885   */\n  swap1\n  pop\n    /* \"#utility.yul\":905:908   */\n  dup2\n    /* \"#utility.yul\":902:903   */\n  0x00\n    /* \"#utility.yul\":895:909   */\n  mstore\n    /* \"#utility.yul\":939:943   */\n  0x20\n    /* \"#utility.yul\":936:937   */\n  0x00\n    /* \"#utility.yul\":926:944   */\n  keccak256\n    /* \"#utility.yul\":918:944   */\n  swap1\n  pop\n    /* \"#utility.yul\":810:951   */\n  swap2\n  swap1\n  pop\n  jump\t// out\n    /* \"#utility.yul\":957:1050   */\ntag_36:\n    /* \"#utility.yul\":994:1000   */\n  0x00\n    /* \"#utility.yul\":1041:1043   */\n  0x20\n    /* \"#utility.yul\":1036:1038   */\n  0x1f\n    /* \"#utility.yul\":1029:1034   */\n  dup4\n    /* \"#utility.yul\":1025:1039   */\n  add\n    /* \"#utility.yul\":1021:1044   */\n  div\n    /* \"#utility.yul\":1011:1044   */\n  swap1\n  pop\n    /* \"#utility.yul\":957:1050   */\n  swap2\n  swap1\n  pop\n  jump\t// out\n    /* \"#utility.yul\":1056:1163   */\ntag_37:\n    /* \"#utility.yul\":1100:1108   */\n  0x00\n    /* \"#utility.yul\":1150:1155   */\n  dup3\n    /* \"#utility.yul\":1144:1148   */\n  dup3\n    /* \"#utility.yul\":1140:1156   */\n  shl\n    /* \"#utility.yul\":1119:1156   */\n  swap1\n  pop\n    /* \"#utility.yul\":1056:1163   */\n  swap3\n  swap2\n  pop\n  pop\n  jump\t// out\n    /* \"#utility.yul\":1169:1562   */\ntag_38:\n    /* \"#utility.yul\":1238:1244   */\n  0x00\n    /* \"#utility.yul\":1288:1289   */\n  0x08\n    /* \"#utility.yul\":1276:1286   */\n  dup4\n    /* \"#utility.yul\":1272:1290   */\n  mul\n    /* \"#utility.yul\":1311:1408   */\n  tag_63\n    /* \"#utility.yul\":1341:1407   */\n  0xffffffffffffffffffffffffffffffffffffffffffffffffffffffffffffffff\n    /* \"#utility.yul\":1330:1339   */\n  dup3\n    /* \"#utility.yul\":1311:1408   */\n  tag_37\n  jump\t// in\ntag_63:\n    /* \"#utility.yul\":1429:1468   */\n  tag_64\n    /* \"#utility.yul\":1459:1467   */\n  dup7\n    /* \"#utility.yul\":1448:1457   */\n  dup4\n    /* \"#utility.yul\":1429:1468   */\n  tag_37\n  jump\t// in\ntag_64:\n    /* \"#utility.yul\":1417:1468   */\n  swap6\n  pop\n    /* \"#utility.yul\":1501:1505   */\n  dup1\n    /* \"#utility.yul\":1497:1506   */\n  not\n    /* \"#utility.yul\":1490:1495   */\n  dup5\n    /* \"#utility.yul\":1486:1507   */\n  and\n    /* \"#utility.yul\":1477:1507   */\n  swap4\n  pop\n    /* \"#utility.yul\":1550:1554   */\n  dup1\n    /* \"#utility.yul\":1540:1548   */\n  dup7\n    /* \"#utility.yul\":1536:1555   */\n  and\n    /* \"#utility.yul\":1529:1534   */\n  dup5\n    /* \"#utility.yul\":1526:1556   */\n  or\n    /* \"#utility.yul\":1516:1556   */\n  swap3\n  pop\n    /* \"#utility.yul\":1245:1562   */\n  pop\n  pop\n    /* \"#utility.yul\":1169:1562   */\n  swap4\n  swap3\n  pop\n  pop\n  pop\n  jump\t// out\n    /* \"#utility.yul\":1568:1645   */\ntag_39:\n    /* \"#utility.yul\":1605:1612   */\n  0x00\n    /* \"#utility.yul\":1634:1639   */\n  dup2\n    /* \"#utility.yul\":1623:1639   */\n  swap1\n  pop\n    /* \"#utility.yul\":1568:1645   */\n  swap2\n  swap1\n  pop\n  jump\t// out\n    /* \"#utility.yul\":1651:1711   */\ntag_40:\n    /* \"#utility.yul\":1679:1682   */\n  0x00\n    /* \"#utility.yul\":1700:1705   */\n  dup2\n    /* \"#utility.yul\":1693:1705   */\n  swap1\n  pop\n    /* \"#utility.yul\":1651:1711   */\n  swap2\n  swap1\n  pop\n  jump\t// out\n    /* \"#utility.yul\":1717:1859   */\ntag_41:\n    /* \"#utility.yul\":1767:1776   */\n  0x00\n    /* \"#utility.yul\":1800:1853   */\n  tag_68\n    /* \"#utility.yul\":1818:1852   */\n  tag_69\n    /* \"#utility.yul\":1827:1851   */\n  tag_70\n    /* \"#utility.yul\":1845:1850   */\n  dup5\n    /* \"#utility.yul\":1827:1851   */\n  tag_39\n  jump\t// in\ntag_70:\n    /* \"#utility.yul\":1818:1852   */\n  tag_40\n  jump\t// in\ntag_69:\n    /* \"#utility.yul\":1800:1853   */\n  tag_39\n  jump\t// in\ntag_68:\n    /* \"#utility.yul\":1787:1853   */\n  swap1\n  pop\n    /* \"#utility.yul\":1717:1859   */\n  swap2\n  swap1\n  pop\n  jump\t// out\n    /* \"#utility.yul\":1865:1940   */\ntag_42:\n    /* \"#utility.yul\":1908:1911   */\n  0x00\n    /* \"#utility.yul\":1929:1934   */\n  dup2\n    /* \"#utility.yul\":1922:1934   */\n  swap1\n  pop\n    /* \"#utility.yul\":1865:1940   */\n  swap2\n  swap1\n  pop\n  jump\t// out\n    /* \"#utility.yul\":1946:2215   */\ntag_43:\n    /* \"#utility.yul\":2056:2095   */\n  tag_73\n    /* \"#utility.yul\":2087:2094   */\n  dup4\n    /* \"#utility.yul\":2056:2095   */\n  tag_41\n  jump\t// in\ntag_73:\n    /* \"#utility.yul\":2117:2208   */\n  tag_74\n    /* \"#utility.yul\":2166:2207   */\n  tag_75\n    /* \"#utility.yul\":2190:2206   */\n  dup3\n    /* \"#utility.yul\":2166:2207   */\n  tag_42\n  jump\t// in\ntag_75:\n    /* \"#utility.yul\":2158:2164   */\n  dup5\n    /* \"#utility.yul\":2151:2155   */\n  dup5\n    /* \"#utility.yul\":2145:2156   */\n  sload\n    /* \"#utility.yul\":2117:2208   */\n  tag_38\n  jump\t// in\ntag_74:\n    /* \"#utility.yul\":2111:2115   */\n  dup3\n    /* \"#utility.yul\":2104:2209   */\n  sstore\n    /* \"#utility.yul\":2022:2215   */\n  pop\n    /* \"#utility.yul\":1946:2215   */\n  pop\n  pop\n  pop\n  jump\t// out\n    /* \"#utility.yul\":2221:2294   */\ntag_44:\n    /* \"#utility.yul\":2266:2269   */\n  0x00\n    /* \"#utility.yul\":2287:2288   */\n  0x00\n    /* \"#utility.yul\":2280:2288   */\n  swap1\n  pop\n    /* \"#utility.yul\":2221:2294   */\n  swap1\n  jump\t// out\n    /* \"#utility.yul\":2300:2489   */\ntag_45:\n    /* \"#utility.yul\":2377:2409   */\n  tag_78\n  tag_44\n  jump\t// in\ntag_78:\n    /* \"#utility.yul\":2418:2483   */\n  tag_79\n    /* \"#utility.yul\":2476:2482   */\n  dup2\n    /* \"#utility.yul\":2468:2474   */\n  dup5\n    /* \"#utility.yul\":2462:2466   */\n  dup5\n    /* \"#utility.yul\":2418:2483   */\n  tag_43\n  jump\t// in\ntag_79:\n    /* \"#utility.yul\":2353:2489   */\n  pop\n    /* \"#utility.yul\":2300:2489   */\n  pop\n  pop\n  jump\t// out\n    /* \"#utility.yul\":2495:2681   */\ntag_46:\n    /* \"#utility.yul\":2555:2675   */\ntag_81:\n    /* \"#utility.yul\":2572:2575   */\n  dup2\n    /* \"#utility.yul\":2565:2570   */\n  dup2\n    /* \"#utility.yul\":2562:2576   */\n  lt\n    /* \"#utility.yul\":2555:2675   */\n  iszero\n  tag_83\n  jumpi\n    /* \"#utility.yul\":2626:2665   */\n  tag_84\n    /* \"#utility.yul\":2663:2664   */\n  0x00\n    /* \"#utility.yul\":2656:2661   */\n  dup3\n    /* \"#utility.yul\":2626:2665   */\n  tag_45\n  jump\t// in\ntag_84:\n    /* \"#utility.yul\":2599:2600   */\n  0x01\n    /* \"#utility.yul\":2592:2597   */\n  dup2\n    /* \"#utility.yul\":2588:2601   */\n  add\n    /* \"#utility.yul\":2579:2601   */\n  swap1\n  pop\n    /* \"#utility.yul\":2555:2675   */\n  jump(tag_81)\ntag_83:\n    /* \"#utility.yul\":2495:2681   */\n  pop\n  pop\n  jump\t// out\n    /* \"#utility.yul\":2687:3230   */\ntag_47:\n    /* \"#utility.yul\":2788:2790   */\n  0x1f\n    /* \"#utility.yul\":2783:2786   */\n  dup3\n    /* \"#utility.yul\":2780:2791   */\n  gt\n    /* \"#utility.yul\":2777:3223   */\n  iszero\n  tag_86\n  jumpi\n    /* \"#utility.yul\":2822:2860   */\n  tag_87\n    /* \"#utility.yul\":2854:2859   */\n  dup2\n    /* \"#utility.yul\":2822:2860   */\n  tag_35\n  jump\t// in\ntag_87:\n    /* \"#utility.yul\":2906:2935   */\n  tag_88\n    /* \"#utility.yul\":2924:2934   */\n  dup5\n    /* \"#utility.yul\":2906:2935   */\n  tag_36\n  jump\t// in\ntag_88:\n    /* \"#utility.yul\":2896:2904   */\n  dup2\n    /* \"#utility.yul\":2892:2936   */\n  add\n    /* \"#utility.yul\":3089:3091   */\n  0x20\n    /* \"#utility.yul\":3077:3087   */\n  dup6\n    /* \"#utility.yul\":3074:3092   */\n  lt\n    /* \"#utility.yul\":3071:3120   */\n  iszero\n  tag_89\n  jumpi\n    /* \"#utility.yul\":3110:3118   */\n  dup2\n    /* \"#utility.yul\":3095:3118   */\n  swap1\n  pop\n    /* \"#utility.yul\":3071:3120   */\ntag_89:\n    /* \"#utility.yul\":3133:3213   */\n  tag_90\n    /* \"#utility.yul\":3189:3211   */\n  tag_91\n    /* \"#utility.yul\":3207:3210   */\n  dup6\n    /* \"#utility.yul\":3189:3211   */\n  tag_36\n  jump\t// in\ntag_91:\n    /* \"#utility.yul\":3179:3187   */\n  dup4\n    /* \"#utility.yul\":3175:3212   */\n  add\n    /* \"#utility.yul\":3162:3173   */\n  dup3\n    /* \"#utility.yul\":3133:3213   */\n  tag_46\n  jump\t// in\ntag_90:\n    /* \"#utility.yul\":2792:3223   */\n  pop\n  pop\n    /* \"#utility.yul\":2777:3223   */\ntag_86:\n    /* \"#utility.yul\":2687:3230   */\n  pop\n  pop\n  pop\n  jump\t// out\n    /* \"#utility.yul\":3236:3353   */\ntag_48:\n    /* \"#utility.yul\":3290:3298   */\n  0x00\n    /* \"#utility.yul\":3340:3345   */\n  dup3\n    /* \"#utility.yul\":3334:3338   */\n  dup3\n    /* \"#utility.yul\":3330:3346   */\n  shr\n    /* \"#utility.yul\":3309:3346   */\n  swap1\n  pop\n    /* \"#utility.yul\":3236:3353   */\n  swap3\n  swap2\n  pop\n  pop\n  jump\t// out\n    /* \"#utility.yul\":3359:3528   */\ntag_49:\n    /* \"#utility.yul\":3403:3409   */\n  0x00\n    /* \"#utility.yul\":3436:3487   */\n  tag_94\n    /* \"#utility.yul\":3484:3485   */\n  0x00\n    /* \"#utility.yul\":3480:3486   */\n  not\n    /* \"#utility.yul\":3472:3477   */\n  dup5\n    /* \"#utility.yul\":3469:3470   */\n  0x08\n    /* \"#utility.yul\":3465:3478   */\n  mul\n    /* \"#utility.yul\":3436:3487   */\n  tag_48\n  jump\t// in\ntag_94:\n    /* \"#utility.yul\":3432:3488   */\n  not\n    /* \"#utility.yul\":3517:3521   */\n  dup1\n    /* \"#utility.yul\":3511:3515   */\n  dup4\n    /* \"#utility.yul\":3507:3522   */\n  and\n    /* \"#utility.yul\":3497:3522   */\n  swap2\n  pop\n    /* \"#utility.yul\":3410:3528   */\n  pop\n    /* \"#utility.yul\":3359:3528   */\n  swap3\n  swap2\n  pop\n  pop\n  jump\t// out\n    /* \"#utility.yul\":3533:3828   */\ntag_50:\n    /* \"#utility.yul\":3609:3613   */\n  0x00\n    /* \"#utility.yul\":3755:3784   */\n  tag_96\n    /* \"#utility.yul\":3780:3783   */\n  dup4\n    /* \"#utility.yul\":3774:3778   */\n  dup4\n    /* \"#utility.yul\":3755:3784   */\n  tag_49\n  jump\t// in\ntag_96:\n    /* \"#utility.yul\":3747:3784   */\n  swap2\n  pop\n    /* \"#utility.yul\":3817:3820   */\n  dup3\n    /* \"#utility.yul\":3814:3815   */\n  0x02\n    /* \"#utility.yul\":3810:3821   */\n  mul\n    /* \"#utility.yul\":3804:3808   */\n  dup3\n    /* \"#utility.yul\":3801:3822   */\n  or\n    /* \"#utility.yul\":3793:3822   */\n  swap1\n  pop\n    /* \"#utility.yul\":3533:3828   */\n  swap3\n  swap2\n  pop\n  pop\n  jump\t// out\n    /* \"#utility.yul\":3833:5228   */\ntag_12:\n    /* \"#utility.yul\":3950:3987   */\n  tag_98\n    /* \"#utility.yul\":3983:3986   */\n  dup3\n    /* \"#utility.yul\":3950:3987   */\n  tag_32\n  jump\t// in\ntag_98:\n    /* \"#utility.yul\":4052:4070   */\n  0xffffffffffffffff\n    /* \"#utility.yul\":4044:4050   */\n  dup2\n    /* \"#utility.yul\":4041:4071   */\n  gt\n    /* \"#utility.yul\":4038:4094   */\n  iszero\n  tag_99\n  jumpi\n    /* \"#utility.yul\":4074:4092   */\n  tag_100\n  tag_33\n  jump\t// in\ntag_100:\n    /* \"#utility.yul\":4038:4094   */\ntag_99:\n    /* \"#utility.yul\":4118:4156   */\n  tag_101\n    /* \"#utility.yul\":4150:4154   */\n  dup3\n    /* \"#utility.yul\":4144:4155   */\n  sload\n    /* \"#utility.yul\":4118:4156   */\n  tag_25\n  jump\t// in\ntag_101:\n    /* \"#utility.yul\":4203:4270   */\n  tag_102\n    /* \"#utility.yul\":4263:4269   */\n  dup3\n    /* \"#utility.yul\":4255:4261   */\n  dup3\n    /* \"#utility.yul\":4249:4253   */\n  dup6\n    /* \"#utility.yul\":4203:4270   */\n  tag_47\n  jump\t// in\ntag_102:\n    /* \"#utility.yul\":4297:4298   */\n  0x00\n    /* \"#utility.yul\":4321:4325   */\n  0x20\n    /* \"#utility.yul\":4308:4325   */\n  swap1\n  pop\n    /* \"#utility.yul\":4353:4355   */\n  0x1f\n    /* \"#utility.yul\":4345:4351   */\n  dup4\n    /* \"#utility.yul\":4342:4356   */\n  gt\n    /* \"#utility.yul\":4370:4371   */\n  0x01\n    /* \"#utility.yul\":4365:4983   */\n  dup2\n  eq\n  tag_104\n  jumpi\n    /* \"#utility.yul\":5027:5028   */\n  0x00\n    /* \"#utility.yul\":5044:5050   */\n  dup5\n    /* \"#utility.yul\":5041:5118   */\n  iszero\n  tag_105\n  jumpi\n    /* \"#utility.yul\":5093:5102   */\n  dup3\n    /* \"#utility.yul\":5088:5091   */\n  dup8\n    /* \"#utility.yul\":5084:5103   */\n  add\n    /* \"#utility.yul\":5078:5104   */\n  mload\n    /* \"#utility.yul\":5069:5104   */\n  swap1\n  pop\n    /* \"#utility.yul\":5041:5118   */\ntag_105:\n    /* \"#utility.yul\":5144:5211   */\n  tag_106\n    /* \"#utility.yul\":5204:5210   */\n  dup6\n    /* \"#utility.yul\":5197:5202   */\n  dup3\n    /* \"#utility.yul\":5144:5211   */\n  tag_50\n  jump\t// in\ntag_106:\n    /* \"#utility.yul\":5138:5142   */\n  dup7\n    /* \"#utility.yul\":5131:5212   */\n  sstore\n    /* \"#utility.yul\":5000:5222   */\n  pop\n    /* \"#utility.yul\":4335:5222   */\n  jump(tag_103)\n    /* \"#utility.yul\":4365:4983   */\ntag_104:\n    /* \"#utility.yul\":4417:4421   */\n  0x1f\n    /* \"#utility.yul\":4413:4422   */\n  not\n    /* \"#utility.yul\":4405:4411   */\n  dup5\n    /* \"#utility.yul\":4401:4423   */\n  and\n    /* \"#utility.yul\":4451:4488   */\n  tag_107\n    /* \"#utility.yul\":4483:4487   */\n  dup7\n    /* \"#utility.yul\":4451:4488   */\n  tag_35\n  jump\t// in\ntag_107:\n    /* \"#utility.yul\":4510:4511   */\n  0x00\n    /* \"#utility.yul\":4524:4732   */\ntag_108:\n    /* \"#utility.yul\":4538:4545   */\n  dup3\n    /* \"#utility.yul\":4535:4536   */\n  dup2\n    /* \"#utility.yul\":4532:4546   */\n  lt\n    /* \"#utility.yul\":4524:4732   */\n  iszero\n  tag_110\n  jumpi\n    /* \"#utility.yul\":4617:4626   */\n  dup5\n    /* \"#utility.yul\":4612:4615   */\n  dup10\n    /* \"#utility.yul\":4608:4627   */\n  add\n    /* \"#utility.yul\":4602:4628   */\n  mload\n    /* \"#utility.yul\":4594:4600   */\n  dup3\n    /* \"#utility.yul\":4587:4629   */\n  sstore\n    /* \"#utility.yul\":4668:4669   */\n  0x01\n    /* \"#utility.yul\":4660:4666   */\n  dup3\n    /* \"#utility.yul\":4656:4670   */\n  add\n    /* \"#utility.yul\":4646:4670   */\n  swap2\n  pop\n    /* \"#utility.yul\":4715:4717   */\n  0x20\n    /* \"#utility.yul\":4704:4713   */\n  dup6\n    /* \"#utility.yul\":4700:4718   */\n  add\n    /* \"#utility.yul\":4687:4718   */\n  swap5\n  pop\n    /* \"#utility.yul\":4561:4565   */\n  0x20\n    /* \"#utility.yul\":4558:4559   */\n  dup2\n    /* \"#utility.yul\":4554:4566   */\n  add\n    /* \"#utility.yul\":4549:4566   */\n  swap1\n  pop\n    /* \"#utility.yul\":4524:4732   */\n  jump(tag_108)\ntag_110:\n    /* \"#utility.yul\":4760:4766   */\n  dup7\n    /* \"#utility.yul\":4751:4758   */\n  dup4\n    /* \"#utility.yul\":4748:4767   */\n  lt\n    /* \"#utility.yul\":4745:4924   */\n  iszero\n  tag_111\n  jumpi\n    /* \"#utility.yul\":4818:4827   */\n  dup5\n    /* \"#utility.yul\":4813:4816   */\n  dup10\n    /* \"#utility.yul\":4809:4828   */\n  add\n    /* \"#utility.yul\":4803:4829   */\n  mload\n    /* \"#utility.yul\":4861:4909   */\n  tag_112\n    /* \"#utility.yul\":4903:4907   */\n  0x1f\n    /* \"#utility.yul\":4895:4901   */\n  dup10\n    /* \"#utility.yul\":4891:4908   */\n  and\n    /* \"#utility.yul\":4880:4889   */\n  dup3\n    /* \"#utility.yul\":4861:4909   */\n  tag_49\n  jump\t// in\ntag_112:\n    /* \"#utility.yul\":4853:4859   */\n  dup4\n    /* \"#utility.yul\":4846:4910   */\n  sstore\n    /* \"#utility.yul\":4768:4924   */\n  pop\n    /* \"#utility.yul\":4745:4924   */\ntag_111:\n    /* \"#utility.yul\":4970:4971   */\n  0x01\n    /* \"#utility.yul\":4966:4967   */\n  0x02\n    /* \"#utility.yul\":4958:4964   */\n  dup9\n    /* \"#utility.yul\":4954:4968   */\n  mul\n    /* \"#utility.yul\":4950:4972   */\n  add\n    /* \"#utility.yul\":4944:4948   */\n  dup9\n    /* \"#utility.yul\":4937:4973   */\n  sstore\n    /* \"#utility.yul\":4372:4983   */\n  pop\n  pop\n  pop\n    /* \"#utility.yul\":4335:5222   */\ntag_103:\n  pop\n    /* \"#utility.yul\":3925:5228   */\n  pop\n  pop\n  pop\n    /* \"#utility.yul\":3833:5228   */\n  pop\n  pop\n  jump\t// out\n    /* \"contracts/Base.sol\":550:2828  contract TokenFactory {... */\ntag_7:\n  dataSize(sub_0)\n  dup1\n  dataOffset(sub_0)\n  0x00\n  codecopy\n  0x00\n  return\nstop\n\nsub_0: assembly {\n        /* \"contracts/Base.sol\":550:2828  contract TokenFactory {... */\n      mstore(0x40, 0x80)\n      callvalue\n      dup1\n      iszero\n      tag_1\n      jumpi\n      revert(0x00, 0x00)\n    tag_1:\n      pop\n      jumpi(tag_2, lt(calldatasize, 0x04))\n      shr(0xe0, calldataload(0x00))\n      dup1\n      0x2d571cc4\n      eq\n      tag_3\n      jumpi\n    tag_2:\n      revert(0x00, 0x00)\n        /* \"contracts/Base.sol\":1171:1716  function createToken(uint256 initialSupply) public returns (address) {... */\n    tag_3:\n      tag_4\n      0x04\n      dup1\n      calldatasize\n      sub\n      dup2\n      add\n      swap1\n      tag_5\n      swap2\n      swap1\n      tag_6\n      jump\t// in\n    tag_5:\n      tag_7\n      jump\t// in\n    tag_4:\n      mload(0x40)\n      tag_8\n      swap2\n      swap1\n      tag_9\n      jump\t// in\n    tag_8:\n      mload(0x40)\n      dup1\n      swap2\n      sub\n      swap1\n      return\n    tag_7:\n        /* \"contracts/Base.sol\":1231:1238  address */\n      0x00\n        /* \"contracts/Base.sol\":1282:1306  string memory randomName */\n      0x00\n        /* \"contracts/Base.sol\":1309:1329  generateRandomName() */\n      tag_11\n        /* \"contracts/Base.sol\":1309:1327  generateRandomName */\n      tag_12\n        /* \"contracts/Base.sol\":1309:1329  generateRandomName() */\n      jump\t// in\n    tag_11:\n        /* \"contracts/Base.sol\":1282:1329  string memory randomName = generateRandomName() */\n      swap1\n      pop\n        /* \"contracts/Base.sol\":1389:1415  string memory randomSymbol */\n      0x00\n        /* \"contracts/Base.sol\":1418:1444  generateSymbol(randomName) */\n      tag_13\n        /* \"contracts/Base.sol\":1433:1443  randomName */\n      dup3\n        /* \"contracts/Base.sol\":1418:1432  generateSymbol */\n      tag_14\n        /* \"contracts/Base.sol\":1418:1444  generateSymbol(randomName) */\n      jump\t// in\n    tag_13:\n        /* \"contracts/Base.sol\":1389:1444  string memory randomSymbol = generateSymbol(randomName) */\n      swap1\n      pop\n        /* \"contracts/Base.sol\":1483:1503  RandomToken newToken */\n      0x00\n        /* \"contracts/Base.sol\":1522:1532  randomName */\n      dup3\n        /* \"contracts/Base.sol\":1534:1546  randomSymbol */\n      dup3\n        /* \"contracts/Base.sol\":1548:1561  initialSupply */\n      dup7\n        /* \"contracts/Base.sol\":1563:1573  msg.sender */\n      caller\n        /* \"contracts/Base.sol\":1506:1574  new RandomToken(randomName, randomSymbol, initialSupply, msg.sender) */\n      mload(0x40)\n      tag_15\n      swap1\n      tag_16\n      jump\t// in\n    tag_15:\n      tag_17\n      swap5\n      swap4\n      swap3\n      swap2\n      swap1\n      tag_18\n      jump\t// in\n    tag_17:\n      mload(0x40)\n      dup1\n      swap2\n      sub\n      swap1\n      0x00\n      create\n      dup1\n      iszero\n      dup1\n      iszero\n      tag_19\n      jumpi\n      returndatacopy(0x00, 0x00, returndatasize)\n      revert(0x00, returndatasize)\n    tag_19:\n      pop\n        /* \"contracts/Base.sol\":1483:1574  RandomToken newToken = new RandomToken(randomName, randomSymbol, initialSupply, msg.sender) */\n      swap1\n      pop\n        /* \"contracts/Base.sol\":1611:1619  newToken */\n      dup1\n        /* \"contracts/Base.sol\":1590:1674  TokenCreated(address(newToken), randomName, randomSymbol, initialSupply, msg.sender) */\n      0xffffffffffffffffffffffffffffffffffffffff\n      and\n      0xb7d8fd3c9d56d12c15c8e139bc4e6febd6ad2349b3ebe6a1a91c0a9e7797710d\n        /* \"contracts/Base.sol\":1622:1632  randomName */\n      dup5\n        /* \"contracts/Base.sol\":1634:1646  randomSymbol */\n      dup5\n        /* \"contracts/Base.sol\":1648:1661  initialSupply */\n      dup9\n        /* \"contracts/Base.sol\":1663:1673  msg.sender */\n      caller\n        /* \"contracts/Base.sol\":1590:1674  TokenCreated(address(newToken), randomName, randomSymbol, initialSupply, msg.sender) */\n      mload(0x40)\n      tag_20\n      swap5\n      swap4\n      swap3\n      swap2\n      swap1\n      tag_18\n      jump\t// in\n    tag_20:\n      mload(0x40)\n      dup1\n      swap2\n      sub\n      swap1\n      log2\n        /* \"contracts/Base.sol\":1700:1708  newToken */\n      dup1\n        /* \"contracts/Base.sol\":1685:1709  return address(newToken) */\n      swap4\n      pop\n      pop\n      pop\n      pop\n        /* \"contracts/Base.sol\":1171:1716  function createToken(uint256 initialSupply) public returns (address) {... */\n      swap2\n      swap1\n      pop\n      jump\t// out\n        /* \"contracts/Base.sol\":1769:2497  function generateRandomName() private view returns (string memory) {... */\n    tag_12:\n        /* \"contracts/Base.sol\":1821:1834  string memory */\n      0x60\n        /* \"contracts/Base.sol\":1912:1924  uint256 seed */\n      0x00\n        /* \"contracts/Base.sol\":1962:1977  block.timestamp */\n      timestamp\n        /* \"contracts/Base.sol\":1979:1995  block.prevrandao */\n      prevrandao\n        /* \"contracts/Base.sol\":1997:2007  msg.sender */\n      caller\n        /* \"contracts/Base.sol\":1945:2008  abi.encodePacked(block.timestamp, block.prevrandao, msg.sender) */\n      add(0x20, mload(0x40))\n      tag_22\n      swap4\n      swap3\n      swap2\n      swap1\n      tag_23\n      jump\t// in\n    tag_22:\n      mload(0x40)\n      0x20\n      dup2\n      dup4\n      sub\n      sub\n      dup2\n      mstore\n      swap1\n      0x40\n      mstore\n        /* \"contracts/Base.sol\":1935:2009  keccak256(abi.encodePacked(block.timestamp, block.prevrandao, msg.sender)) */\n      dup1\n      mload\n      swap1\n      0x20\n      add\n      keccak256\n        /* \"contracts/Base.sol\":1927:2010  uint256(keccak256(abi.encodePacked(block.timestamp, block.prevrandao, msg.sender))) */\n      0x00\n      shr\n        /* \"contracts/Base.sol\":1912:2010  uint256 seed = uint256(keccak256(abi.encodePacked(block.timestamp, block.prevrandao, msg.sender))) */\n      swap1\n      pop\n        /* \"contracts/Base.sol\":2029:2048  string memory part1 */\n      0x00\n        /* \"contracts/Base.sol\":2051:2059  prefixes */\n      0x00\n        /* \"contracts/Base.sol\":2067:2075  prefixes */\n      0x00\n        /* \"contracts/Base.sol\":2067:2082  prefixes.length */\n      dup1\n      sload\n      swap1\n      pop\n        /* \"contracts/Base.sol\":2060:2064  seed */\n      dup4\n        /* \"contracts/Base.sol\":2060:2082  seed % prefixes.length */\n      tag_24\n      swap2\n      swap1\n      tag_25\n      jump\t// in\n    tag_24:\n        /* \"contracts/Base.sol\":2051:2083  prefixes[seed % prefixes.length] */\n      dup2\n      sload\n      dup2\n      lt\n      tag_26\n      jumpi\n      tag_27\n      tag_28\n      jump\t// in\n    tag_27:\n    tag_26:\n      swap1\n      0x00\n      mstore\n      keccak256(0x00, 0x20)\n      add\n        /* \"contracts/Base.sol\":2029:2083  string memory part1 = prefixes[seed % prefixes.length] */\n      dup1\n      sload\n      tag_30\n      swap1\n      tag_31\n      jump\t// in\n    tag_30:\n      dup1\n      0x1f\n      add\n      0x20\n      dup1\n      swap2\n      div\n      mul\n      0x20\n      add\n      mload(0x40)\n      swap1\n      dup2\n      add\n      0x40\n      mstore\n      dup1\n      swap3\n      swap2\n      swap1\n      dup2\n      dup2\n      mstore\n      0x20\n      add\n      dup3\n      dup1\n      sload\n      tag_32\n      swap1\n      tag_31\n      jump\t// in\n    tag_32:\n      dup1\n      iszero\n      tag_33\n      jumpi\n      dup1\n      0x1f\n      lt\n      tag_34\n      jumpi\n      0x0100\n      dup1\n      dup4\n      sload\n      div\n      mul\n      dup4\n      mstore\n      swap2\n      0x20\n      add\n      swap2\n      jump(tag_33)\n    tag_34:\n      dup3\n      add\n      swap2\n      swap1\n      0x00\n      mstore\n      keccak256(0x00, 0x20)\n      swap1\n    tag_35:\n      dup2\n      sload\n      dup2\n      mstore\n      swap1\n      0x01\n      add\n      swap1\n      0x20\n      add\n      dup1\n      dup4\n      gt\n      tag_35\n      jumpi\n      dup3\n      swap1\n      sub\n      0x1f\n      and\n      dup3\n      add\n      swap2\n    tag_33:\n      pop\n      pop\n      pop\n      pop\n      pop\n      swap1\n      pop\n        /* \"contracts/Base.sol\":2093:2112  string memory part2 */\n      0x00\n        /* \"contracts/Base.sol\":2115:2122  middles */\n      0x01\n        /* \"contracts/Base.sol\":2136:2143  middles */\n      dup1\n        /* \"contracts/Base.sol\":2136:2150  middles.length */\n      dup1\n      sload\n      swap1\n      pop\n        /* \"contracts/Base.sol\":2131:2132  2 */\n      0x02\n        /* \"contracts/Base.sol\":2124:2128  seed */\n      dup6\n        /* \"contracts/Base.sol\":2124:2132  seed / 2 */\n      tag_36\n      swap2\n      swap1\n      tag_37\n      jump\t// in\n    tag_36:\n        /* \"contracts/Base.sol\":2123:2150  (seed / 2) % middles.length */\n      tag_38\n      swap2\n      swap1\n      tag_25\n      jump\t// in\n    tag_38:\n        /* \"contracts/Base.sol\":2115:2151  middles[(seed / 2) % middles.length] */\n      dup2\n      sload\n      dup2\n      lt\n      tag_39\n      jumpi\n      tag_40\n      tag_28\n      jump\t// in\n    tag_40:\n    tag_39:\n      swap1\n      0x00\n      mstore\n      keccak256(0x00, 0x20)\n      add\n        /* \"contracts/Base.sol\":2093:2151  string memory part2 = middles[(seed / 2) % middles.length] */\n      dup1\n      sload\n      tag_42\n      swap1\n      tag_31\n      jump\t// in\n    tag_42:\n      dup1\n      0x1f\n      add\n      0x20\n      dup1\n      swap2\n      div\n      mul\n      0x20\n      add\n      mload(0x40)\n      swap1\n      dup2\n      add\n      0x40\n      mstore\n      dup1\n      swap3\n      swap2\n      swap1\n      dup2\n      dup2\n      mstore\n      0x20\n      add\n      dup3\n      dup1\n      sload\n      tag_43\n      swap1\n      tag_31\n      jump\t// in\n    tag_43:\n      dup1\n      iszero\n      tag_44\n      jumpi\n      dup1\n      0x1f\n      lt\n      tag_45\n      jumpi\n      0x0100\n      dup1\n      dup4\n      sload\n      div\n      mul\n      dup4\n      mstore\n      swap2\n      0x20\n      add\n      swap2\n      jump(tag_44)\n    tag_45:\n      dup3\n      add\n      swap2\n      swap1\n      0x00\n      mstore\n      keccak256(0x00, 0x20)\n      swap1\n    tag_46:\n      dup2\n      sload\n      dup2\n      mstore\n      swap1\n      0x01\n      add\n      swap1\n      0x20\n      add\n      dup1\n      dup4\n      gt\n      tag_46\n      jumpi\n      dup3\n      swap1\n      sub\n      0x1f\n      and\n      dup3\n      add\n      swap2\n    tag_44:\n      pop\n      pop\n      pop\n      pop\n      pop\n      swap1\n      pop\n        /* \"contracts/Base.sol\":2161:2180  string memory part3 */\n      0x00\n        /* \"contracts/Base.sol\":2183:2191  suffixes */\n      0x02\n        /* \"contracts/Base.sol\":2205:2213  suffixes */\n      dup1\n        /* \"contracts/Base.sol\":2205:2220  suffixes.length */\n      dup1\n      sload\n      swap1\n      pop\n        /* \"contracts/Base.sol\":2200:2201  3 */\n      0x03\n        /* \"contracts/Base.sol\":2193:2197  seed */\n      dup7\n        /* \"contracts/Base.sol\":2193:2201  seed / 3 */\n      tag_47\n      swap2\n      swap1\n      tag_37\n      jump\t// in\n    tag_47:\n        /* \"contracts/Base.sol\":2192:2220  (seed / 3) % suffixes.length */\n      tag_48\n      swap2\n      swap1\n      tag_25\n      jump\t// in\n    tag_48:\n        /* \"contracts/Base.sol\":2183:2221  suffixes[(seed / 3) % suffixes.length] */\n      dup2\n      sload\n      dup2\n      lt\n      tag_49\n      jumpi\n      tag_50\n      tag_28\n      jump\t// in\n    tag_50:\n    tag_49:\n      swap1\n      0x00\n      mstore\n      keccak256(0x00, 0x20)\n      add\n        /* \"contracts/Base.sol\":2161:2221  string memory part3 = suffixes[(seed / 3) % suffixes.length] */\n      dup1\n      sload\n      tag_52\n      swap1\n      tag_31\n      jump\t// in\n    tag_52:\n      dup1\n      0x1f\n      add\n      0x20\n      dup1\n      swap2\n      div\n      mul\n      0x20\n      add\n      mload(0x40)\n      swap1\n      dup2\n      add\n      0x40\n      mstore\n      dup1\n      swap3\n      swap2\n      swap1\n      dup2\n      dup2\n      mstore\n      0x20\n      add\n      dup3\n      dup1\n      sload\n      tag_53\n      swap1\n      tag_31\n      jump\t// in\n    tag_53:\n      dup1\n      iszero\n      tag_54\n      jumpi\n      dup1\n      0x1f\n      lt\n      tag_55\n      jumpi\n      0x0100\n      dup1\n      dup4\n      sload\n      div\n      mul\n      dup4\n      mstore\n      swap2\n      0x20\n      add\n      swap2\n      jump(tag_54)\n    tag_55:\n      dup3\n      add\n      swap2\n      swap1\n      0x00\n      mstore\n      keccak256(0x00, 0x20)\n      swap1\n    tag_56:\n      dup2\n      sload\n      dup2\n      mstore\n      swap1\n      0x01\n      add\n      swap1\n      0x20\n      add\n      dup1\n      dup4\n      gt\n      tag_56\n      jumpi\n      dup3\n      swap1\n      sub\n      0x1f\n      and\n      dup3\n      add\n      swap2\n    tag_54:\n      pop\n      pop\n      pop\n      pop\n      pop\n      swap1\n      pop\n        /* \"contracts/Base.sol\":2303:2304  5 */\n      0x05\n        /* \"contracts/Base.sol\":2297:2299  10 */\n      0x0a\n        /* \"contracts/Base.sol\":2290:2294  seed */\n      dup6\n        /* \"contracts/Base.sol\":2290:2299  seed % 10 */\n      tag_57\n      swap2\n      swap1\n      tag_25\n      jump\t// in\n    tag_57:\n        /* \"contracts/Base.sol\":2289:2304  (seed % 10) > 5 */\n      gt\n        /* \"contracts/Base.sol\":2285:2491  if ((seed % 10) > 5) {... */\n      iszero\n      tag_58\n      jumpi\n        /* \"contracts/Base.sol\":2351:2356  part1 */\n      dup3\n        /* \"contracts/Base.sol\":2358:2363  part3 */\n      dup2\n        /* \"contracts/Base.sol\":2334:2364  abi.encodePacked(part1, part3) */\n      add(0x20, mload(0x40))\n      tag_59\n      swap3\n      swap2\n      swap1\n      tag_60\n      jump\t// in\n    tag_59:\n      mload(0x40)\n      0x20\n      dup2\n      dup4\n      sub\n      sub\n      dup2\n      mstore\n      swap1\n      0x40\n      mstore\n        /* \"contracts/Base.sol\":2320:2365  return string(abi.encodePacked(part1, part3)) */\n      swap5\n      pop\n      pop\n      pop\n      pop\n      pop\n      jump(tag_21)\n        /* \"contracts/Base.sol\":2285:2491  if ((seed % 10) > 5) {... */\n    tag_58:\n        /* \"contracts/Base.sol\":2442:2447  part1 */\n      dup3\n        /* \"contracts/Base.sol\":2449:2454  part2 */\n      dup3\n        /* \"contracts/Base.sol\":2456:2461  part3 */\n      dup3\n        /* \"contracts/Base.sol\":2425:2462  abi.encodePacked(part1, part2, part3) */\n      add(0x20, mload(0x40))\n      tag_62\n      swap4\n      swap3\n      swap2\n      swap1\n      tag_63\n      jump\t// in\n    tag_62:\n      mload(0x40)\n      0x20\n      dup2\n      dup4\n      sub\n      sub\n      dup2\n      mstore\n      swap1\n      0x40\n      mstore\n        /* \"contracts/Base.sol\":2411:2463  return string(abi.encodePacked(part1, part2, part3)) */\n      swap5\n      pop\n      pop\n      pop\n      pop\n      pop\n        /* \"contracts/Base.sol\":1769:2497  function generateRandomName() private view returns (string memory) {... */\n    tag_21:\n      swap1\n      jump\t// out\n        /* \"contracts/Base.sol\":2503:2826  function generateSymbol(string memory name) private pure returns (string memory) {... */\n    tag_14:\n        /* \"contracts/Base.sol\":2569:2582  string memory */\n      0x60\n        /* \"contracts/Base.sol\":2594:2616  bytes memory nameBytes */\n      0x00\n        /* \"contracts/Base.sol\":2625:2629  name */\n      dup3\n        /* \"contracts/Base.sol\":2594:2630  bytes memory nameBytes = bytes(name) */\n      swap1\n      pop\n        /* \"contracts/Base.sol\":2696:2697  3 */\n      0x03\n        /* \"contracts/Base.sol\":2676:2685  nameBytes */\n      dup2\n        /* \"contracts/Base.sol\":2676:2692  nameBytes.length */\n      mload\n        /* \"contracts/Base.sol\":2676:2697  nameBytes.length >= 3 */\n      lt\n        /* \"contracts/Base.sol\":2672:2798  if (nameBytes.length >= 3) {... */\n      tag_65\n      jumpi\n        /* \"contracts/Base.sol\":2745:2754  nameBytes */\n      dup1\n        /* \"contracts/Base.sol\":2755:2756  0 */\n      0x00\n        /* \"contracts/Base.sol\":2745:2757  nameBytes[0] */\n      dup2\n      mload\n      dup2\n      lt\n      tag_66\n      jumpi\n      tag_67\n      tag_28\n      jump\t// in\n    tag_67:\n    tag_66:\n      0x20\n      add\n      add\n      mload\n      0xf8\n      shr\n      0xf8\n      shl\n        /* \"contracts/Base.sol\":2759:2768  nameBytes */\n      dup2\n        /* \"contracts/Base.sol\":2769:2770  1 */\n      0x01\n        /* \"contracts/Base.sol\":2759:2771  nameBytes[1] */\n      dup2\n      mload\n      dup2\n      lt\n      tag_68\n      jumpi\n      tag_69\n      tag_28\n      jump\t// in\n    tag_69:\n    tag_68:\n      0x20\n      add\n      add\n      mload\n      0xf8\n      shr\n      0xf8\n      shl\n        /* \"contracts/Base.sol\":2773:2782  nameBytes */\n      dup3\n        /* \"contracts/Base.sol\":2783:2784  2 */\n      0x02\n        /* \"contracts/Base.sol\":2773:2785  nameBytes[2] */\n      dup2\n      mload\n      dup2\n      lt\n      tag_70\n      jumpi\n      tag_71\n      tag_28\n      jump\t// in\n    tag_71:\n    tag_70:\n      0x20\n      add\n      add\n      mload\n      0xf8\n      shr\n      0xf8\n      shl\n        /* \"contracts/Base.sol\":2728:2786  abi.encodePacked(nameBytes[0], nameBytes[1], nameBytes[2]) */\n      add(0x20, mload(0x40))\n      tag_72\n      swap4\n      swap3\n      swap2\n      swap1\n      tag_73\n      jump\t// in\n    tag_72:\n      mload(0x40)\n      0x20\n      dup2\n      dup4\n      sub\n      sub\n      dup2\n      mstore\n      swap1\n      0x40\n      mstore\n        /* \"contracts/Base.sol\":2714:2787  return string(abi.encodePacked(nameBytes[0], nameBytes[1], nameBytes[2])) */\n      swap2\n      pop\n      pop\n      jump(tag_64)\n        /* \"contracts/Base.sol\":2672:2798  if (nameBytes.length >= 3) {... */\n    tag_65:\n        /* \"contracts/Base.sol\":2807:2819  return \"RND\" */\n      mload(0x40)\n      dup1\n      0x40\n      add\n      0x40\n      mstore\n      dup1\n      0x03\n      dup2\n      mstore\n      0x20\n      add\n      0x524e440000000000000000000000000000000000000000000000000000000000\n      dup2\n      mstore\n      pop\n      swap2\n      pop\n      pop\n        /* \"contracts/Base.sol\":2503:2826  function generateSymbol(string memory name) private pure returns (string memory) {... */\n    tag_64:\n      swap2\n      swap1\n      pop\n      jump\t// out\n    tag_16:\n      dataSize(sub_0)\n      dup1\n      dataOffset(sub_0)\n      dup4\n      codecopy\n      add\n      swap1\n      jump\t// out\n        /* \"#utility.yul\":88:205   */\n    tag_75:\n        /* \"#utility.yul\":197:198   */\n      0x00\n        /* \"#utility.yul\":194:195   */\n      0x00\n        /* \"#utility.yul\":187:199   */\n      revert\n        /* \"#utility.yul\":334:411   */\n    tag_77:\n        /* \"#utility.yul\":371:378   */\n      0x00\n        /* \"#utility.yul\":400:405   */\n      dup2\n        /* \"#utility.yul\":389:405   */\n      swap1\n      pop\n        /* \"#utility.yul\":334:411   */\n      swap2\n      swap1\n      pop\n      jump\t// out\n        /* \"#utility.yul\":417:539   */\n    tag_78:\n        /* \"#utility.yul\":490:514   */\n      tag_109\n        /* \"#utility.yul\":508:513   */\n      dup2\n        /* \"#utility.yul\":490:514   */\n      tag_77\n      jump\t// in\n    tag_109:\n        /* \"#utility.yul\":483:488   */\n      dup2\n        /* \"#utility.yul\":480:515   */\n      eq\n        /* \"#utility.yul\":470:533   */\n      tag_110\n      jumpi\n        /* \"#utility.yul\":529:530   */\n      0x00\n        /* \"#utility.yul\":526:527   */\n      0x00\n        /* \"#utility.yul\":519:531   */\n      revert\n        /* \"#utility.yul\":470:533   */\n    tag_110:\n        /* \"#utility.yul\":417:539   */\n      pop\n      jump\t// out\n        /* \"#utility.yul\":545:684   */\n    tag_79:\n        /* \"#utility.yul\":591:596   */\n      0x00\n        /* \"#utility.yul\":629:635   */\n      dup2\n        /* \"#utility.yul\":616:636   */\n      calldataload\n        /* \"#utility.yul\":607:636   */\n      swap1\n      pop\n        /* \"#utility.yul\":645:678   */\n      tag_112\n        /* \"#utility.yul\":672:677   */\n      dup2\n        /* \"#utility.yul\":645:678   */\n      tag_78\n      jump\t// in\n    tag_112:\n        /* \"#utility.yul\":545:684   */\n      swap3\n      swap2\n      pop\n      pop\n      jump\t// out\n        /* \"#utility.yul\":690:1019   */\n    tag_6:\n        /* \"#utility.yul\":749:755   */\n      0x00\n        /* \"#utility.yul\":798:800   */\n      0x20\n        /* \"#utility.yul\":786:795   */\n      dup3\n        /* \"#utility.yul\":777:784   */\n      dup5\n        /* \"#utility.yul\":773:796   */\n      sub\n        /* \"#utility.yul\":769:801   */\n      slt\n        /* \"#utility.yul\":766:885   */\n      iszero\n      tag_114\n      jumpi\n        /* \"#utility.yul\":804:883   */\n      tag_115\n      tag_75\n      jump\t// in\n    tag_115:\n        /* \"#utility.yul\":766:885   */\n    tag_114:\n        /* \"#utility.yul\":924:925   */\n      0x00\n        /* \"#utility.yul\":949:1002   */\n      tag_116\n        /* \"#utility.yul\":994:1001   */\n      dup5\n        /* \"#utility.yul\":985:991   */\n      dup3\n        /* \"#utility.yul\":974:983   */\n      dup6\n        /* \"#utility.yul\":970:992   */\n      add\n        /* \"#utility.yul\":949:1002   */\n      tag_79\n      jump\t// in\n    tag_116:\n        /* \"#utility.yul\":939:1002   */\n      swap2\n      pop\n        /* \"#utility.yul\":895:1012   */\n      pop\n        /* \"#utility.yul\":690:1019   */\n      swap3\n      swap2\n      pop\n      pop\n      jump\t// out\n        /* \"#utility.yul\":1025:1151   */\n    tag_80:\n        /* \"#utility.yul\":1062:1069   */\n      0x00\n        /* \"#utility.yul\":1102:1144   */\n      0xffffffffffffffffffffffffffffffffffffffff\n        /* \"#utility.yul\":1095:1100   */\n      dup3\n        /* \"#utility.yul\":1091:1145   */\n      and\n        /* \"#utility.yul\":1080:1145   */\n      swap1\n      pop\n        /* \"#utility.yul\":1025:1151   */\n      swap2\n      swap1\n      pop\n      jump\t// out\n        /* \"#utility.yul\":1157:1253   */\n    tag_81:\n        /* \"#utility.yul\":1194:1201   */\n      0x00\n        /* \"#utility.yul\":1223:1247   */\n      tag_119\n        /* \"#utility.yul\":1241:1246   */\n      dup3\n        /* \"#utility.yul\":1223:1247   */\n      tag_80\n      jump\t// in\n    tag_119:\n        /* \"#utility.yul\":1212:1247   */\n      swap1\n      pop\n        /* \"#utility.yul\":1157:1253   */\n      swap2\n      swap1\n      pop\n      jump\t// out\n        /* \"#utility.yul\":1259:1377   */\n    tag_82:\n        /* \"#utility.yul\":1346:1370   */\n      tag_121\n        /* \"#utility.yul\":1364:1369   */\n      dup2\n        /* \"#utility.yul\":1346:1370   */\n      tag_81\n      jump\t// in\n    tag_121:\n        /* \"#utility.yul\":1341:1344   */\n      dup3\n        /* \"#utility.yul\":1334:1371   */\n      mstore\n        /* \"#utility.yul\":1259:1377   */\n      pop\n      pop\n      jump\t// out\n        /* \"#utility.yul\":1383:1605   */\n    tag_9:\n        /* \"#utility.yul\":1476:1480   */\n      0x00\n        /* \"#utility.yul\":1514:1516   */\n      0x20\n        /* \"#utility.yul\":1503:1512   */\n      dup3\n        /* \"#utility.yul\":1499:1517   */\n      add\n        /* \"#utility.yul\":1491:1517   */\n      swap1\n      pop\n        /* \"#utility.yul\":1527:1598   */\n      tag_123\n        /* \"#utility.yul\":1595:1596   */\n      0x00\n        /* \"#utility.yul\":1584:1593   */\n      dup4\n        /* \"#utility.yul\":1580:1597   */\n      add\n        /* \"#utility.yul\":1571:1577   */\n      dup5\n        /* \"#utility.yul\":1527:1598   */\n      tag_82\n      jump\t// in\n    tag_123:\n        /* \"#utility.yul\":1383:1605   */\n      swap3\n      swap2\n      pop\n      pop\n      jump\t// out\n        /* \"#utility.yul\":1611:1710   */\n    tag_83:\n        /* \"#utility.yul\":1663:1669   */\n      0x00\n        /* \"#utility.yul\":1697:1702   */\n      dup2\n        /* \"#utility.yul\":1691:1703   */\n      mload\n        /* \"#utility.yul\":1681:1703   */\n      swap1\n      pop\n        /* \"#utility.yul\":1611:1710   */\n      swap2\n      swap1\n      pop\n      jump\t// out\n        /* \"#utility.yul\":1716:1885   */\n    tag_84:\n        /* \"#utility.yul\":1800:1811   */\n      0x00\n        /* \"#utility.yul\":1834:1840   */\n      dup3\n        /* \"#utility.yul\":1829:1832   */\n      dup3\n        /* \"#utility.yul\":1822:1841   */\n      mstore\n        /* \"#utility.yul\":1874:1878   */\n      0x20\n        /* \"#utility.yul\":1869:1872   */\n      dup3\n        /* \"#utility.yul\":1865:1879   */\n      add\n        /* \"#utility.yul\":1850:1879   */\n      swap1\n      pop\n        /* \"#utility.yul\":1716:1885   */\n      swap3\n      swap2\n      pop\n      pop\n      jump\t// out\n        /* \"#utility.yul\":1891:2030   */\n    tag_85:\n        /* \"#utility.yul\":1980:1986   */\n      dup3\n        /* \"#utility.yul\":1975:1978   */\n      dup2\n        /* \"#utility.yul\":1970:1973   */\n      dup4\n        /* \"#utility.yul\":1964:1987   */\n      mcopy\n        /* \"#utility.yul\":2021:2022   */\n      0x00\n        /* \"#utility.yul\":2012:2018   */\n      dup4\n        /* \"#utility.yul\":2007:2010   */\n      dup4\n        /* \"#utility.yul\":2003:2019   */\n      add\n        /* \"#utility.yul\":1996:2023   */\n      mstore\n        /* \"#utility.yul\":1891:2030   */\n      pop\n      pop\n      pop\n      jump\t// out\n        /* \"#utility.yul\":2036:2138   */\n    tag_86:\n        /* \"#utility.yul\":2077:2083   */\n      0x00\n        /* \"#utility.yul\":2128:2130   */\n      0x1f\n        /* \"#utility.yul\":2124:2131   */\n      not\n        /* \"#utility.yul\":2119:2121   */\n      0x1f\n        /* \"#utility.yul\":2112:2117   */\n      dup4\n        /* \"#utility.yul\":2108:2122   */\n      add\n        /* \"#utility.yul\":2104:2132   */\n      and\n        /* \"#utility.yul\":2094:2132   */\n      swap1\n      pop\n        /* \"#utility.yul\":2036:2138   */\n      swap2\n      swap1\n      pop\n      jump\t// out\n        /* \"#utility.yul\":2144:2521   */\n    tag_87:\n        /* \"#utility.yul\":2232:2235   */\n      0x00\n        /* \"#utility.yul\":2260:2299   */\n      tag_129\n        /* \"#utility.yul\":2293:2298   */\n      dup3\n        /* \"#utility.yul\":2260:2299   */\n      tag_83\n      jump\t// in\n    tag_129:\n        /* \"#utility.yul\":2315:2386   */\n      tag_130\n        /* \"#utility.yul\":2379:2385   */\n      dup2\n        /* \"#utility.yul\":2374:2377   */\n      dup6\n        /* \"#utility.yul\":2315:2386   */\n      tag_84\n      jump\t// in\n    tag_130:\n        /* \"#utility.yul\":2308:2386   */\n      swap4\n      pop\n        /* \"#utility.yul\":2395:2460   */\n      tag_131\n        /* \"#utility.yul\":2453:2459   */\n      dup2\n        /* \"#utility.yul\":2448:2451   */\n      dup6\n        /* \"#utility.yul\":2441:2445   */\n      0x20\n        /* \"#utility.yul\":2434:2439   */\n      dup7\n        /* \"#utility.yul\":2430:2446   */\n      add\n        /* \"#utility.yul\":2395:2460   */\n      tag_85\n      jump\t// in\n    tag_131:\n        /* \"#utility.yul\":2485:2514   */\n      tag_132\n        /* \"#utility.yul\":2507:2513   */\n      dup2\n        /* \"#utility.yul\":2485:2514   */\n      tag_86\n      jump\t// in\n    tag_132:\n        /* \"#utility.yul\":2480:2483   */\n      dup5\n        /* \"#utility.yul\":2476:2515   */\n      add\n        /* \"#utility.yul\":2469:2515   */\n      swap2\n      pop\n        /* \"#utility.yul\":2236:2521   */\n      pop\n        /* \"#utility.yul\":2144:2521   */\n      swap3\n      swap2\n      pop\n      pop\n      jump\t// out\n        /* \"#utility.yul\":2527:2645   */\n    tag_88:\n        /* \"#utility.yul\":2614:2638   */\n      tag_134\n        /* \"#utility.yul\":2632:2637   */\n      dup2\n        /* \"#utility.yul\":2614:2638   */\n      tag_77\n      jump\t// in\n    tag_134:\n        /* \"#utility.yul\":2609:2612   */\n      dup3\n        /* \"#utility.yul\":2602:2639   */\n      mstore\n        /* \"#utility.yul\":2527:2645   */\n      pop\n      pop\n      jump\t// out\n        /* \"#utility.yul\":2651:3386   */\n    tag_18:\n        /* \"#utility.yul\":2868:2872   */\n      0x00\n        /* \"#utility.yul\":2906:2909   */\n      0x80\n        /* \"#utility.yul\":2895:2904   */\n      dup3\n        /* \"#utility.yul\":2891:2910   */\n      add\n        /* \"#utility.yul\":2883:2910   */\n      swap1\n      pop\n        /* \"#utility.yul\":2956:2965   */\n      dup2\n        /* \"#utility.yul\":2950:2954   */\n      dup2\n        /* \"#utility.yul\":2946:2966   */\n      sub\n        /* \"#utility.yul\":2942:2943   */\n      0x00\n        /* \"#utility.yul\":2931:2940   */\n      dup4\n        /* \"#utility.yul\":2927:2944   */\n      add\n        /* \"#utility.yul\":2920:2967   */\n      mstore\n        /* \"#utility.yul\":2984:3062   */\n      tag_136\n        /* \"#utility.yul\":3057:3061   */\n      dup2\n        /* \"#utility.yul\":3048:3054   */\n      dup8\n        /* \"#utility.yul\":2984:3062   */\n      tag_87\n      jump\t// in\n    tag_136:\n        /* \"#utility.yul\":2976:3062   */\n      swap1\n      pop\n        /* \"#utility.yul\":3109:3118   */\n      dup2\n        /* \"#utility.yul\":3103:3107   */\n      dup2\n        /* \"#utility.yul\":3099:3119   */\n      sub\n        /* \"#utility.yul\":3094:3096   */\n      0x20\n        /* \"#utility.yul\":3083:3092   */\n      dup4\n        /* \"#utility.yul\":3079:3097   */\n      add\n        /* \"#utility.yul\":3072:3120   */\n      mstore\n        /* \"#utility.yul\":3137:3215   */\n      tag_137\n        /* \"#utility.yul\":3210:3214   */\n      dup2\n        /* \"#utility.yul\":3201:3207   */\n      dup7\n        /* \"#utility.yul\":3137:3215   */\n      tag_87\n      jump\t// in\n    tag_137:\n        /* \"#utility.yul\":3129:3215   */\n      swap1\n      pop\n        /* \"#utility.yul\":3225:3297   */\n      tag_138\n        /* \"#utility.yul\":3293:3295   */\n      0x40\n        /* \"#utility.yul\":3282:3291   */\n      dup4\n        /* \"#utility.yul\":3278:3296   */\n      add\n        /* \"#utility.yul\":3269:3275   */\n      dup6\n        /* \"#utility.yul\":3225:3297   */\n      tag_88\n      jump\t// in\n    tag_138:\n        /* \"#utility.yul\":3307:3379   */\n      tag_139\n        /* \"#utility.yul\":3375:3377   */\n      0x60\n        /* \"#utility.yul\":3364:3373   */\n      dup4\n        /* \"#utility.yul\":3360:3378   */\n      add\n        /* \"#utility.yul\":3351:3357   */\n      dup5\n        /* \"#utility.yul\":3307:3379   */\n      tag_82\n      jump\t// in\n    tag_139:\n        /* \"#utility.yul\":2651:3386   */\n      swap6\n      swap5\n      pop\n      pop\n      pop\n      pop\n      pop\n      jump\t// out\n        /* \"#utility.yul\":3392:3471   */\n    tag_89:\n        /* \"#utility.yul\":3431:3438   */\n      0x00\n        /* \"#utility.yul\":3460:3465   */\n      dup2\n        /* \"#utility.yul\":3449:3465   */\n      swap1\n      pop\n        /* \"#utility.yul\":3392:3471   */\n      swap2\n      swap1\n      pop\n      jump\t// out\n        /* \"#utility.yul\":3477:3634   */\n    tag_90:\n        /* \"#utility.yul\":3582:3627   */\n      tag_142\n        /* \"#utility.yul\":3602:3626   */\n      tag_143\n        /* \"#utility.yul\":3620:3625   */\n      dup3\n        /* \"#utility.yul\":3602:3626   */\n      tag_77\n      jump\t// in\n    tag_143:\n        /* \"#utility.yul\":3582:3627   */\n      tag_89\n      jump\t// in\n    tag_142:\n        /* \"#utility.yul\":3577:3580   */\n      dup3\n        /* \"#utility.yul\":3570:3628   */\n      mstore\n        /* \"#utility.yul\":3477:3634   */\n      pop\n      pop\n      jump\t// out\n        /* \"#utility.yul\":3640:3734   */\n    tag_91:\n        /* \"#utility.yul\":3673:3681   */\n      0x00\n        /* \"#utility.yul\":3721:3726   */\n      dup2\n        /* \"#utility.yul\":3717:3719   */\n      0x60\n        /* \"#utility.yul\":3713:3727   */\n      shl\n        /* \"#utility.yul\":3692:3727   */\n      swap1\n      pop\n        /* \"#utility.yul\":3640:3734   */\n      swap2\n      swap1\n      pop\n      jump\t// out\n        /* \"#utility.yul\":3740:3834   */\n    tag_92:\n        /* \"#utility.yul\":3779:3786   */\n      0x00\n        /* \"#utility.yul\":3808:3828   */\n      tag_146\n        /* \"#utility.yul\":3822:3827   */\n      dup3\n        /* \"#utility.yul\":3808:3828   */\n      tag_91\n      jump\t// in\n    tag_146:\n        /* \"#utility.yul\":3797:3828   */\n      swap1\n      pop\n        /* \"#utility.yul\":3740:3834   */\n      swap2\n      swap1\n      pop\n      jump\t// out\n        /* \"#utility.yul\":3840:3940   */\n    tag_93:\n        /* \"#utility.yul\":3879:3886   */\n      0x00\n        /* \"#utility.yul\":3908:3934   */\n      tag_148\n        /* \"#utility.yul\":3928:3933   */\n      dup3\n        /* \"#utility.yul\":3908:3934   */\n      tag_92\n      jump\t// in\n    tag_148:\n        /* \"#utility.yul\":3897:3934   */\n      swap1\n      pop\n        /* \"#utility.yul\":3840:3940   */\n      swap2\n      swap1\n      pop\n      jump\t// out\n        /* \"#utility.yul\":3946:4103   */\n    tag_94:\n        /* \"#utility.yul\":4051:4096   */\n      tag_150\n        /* \"#utility.yul\":4071:4095   */\n      tag_151\n        /* \"#utility.yul\":4089:4094   */\n      dup3\n        /* \"#utility.yul\":4071:4095   */\n      tag_81\n      jump\t// in\n    tag_151:\n        /* \"#utility.yul\":4051:4096   */\n      tag_93\n      jump\t// in\n    tag_150:\n        /* \"#utility.yul\":4046:4049   */\n      dup3\n        /* \"#utility.yul\":4039:4097   */\n      mstore\n        /* \"#utility.yul\":3946:4103   */\n      pop\n      pop\n      jump\t// out\n        /* \"#utility.yul\":4109:4647   */\n    tag_23:\n        /* \"#utility.yul\":4277:4280   */\n      0x00\n        /* \"#utility.yul\":4292:4367   */\n      tag_153\n        /* \"#utility.yul\":4363:4366   */\n      dup3\n        /* \"#utility.yul\":4354:4360   */\n      dup7\n        /* \"#utility.yul\":4292:4367   */\n      tag_90\n      jump\t// in\n    tag_153:\n        /* \"#utility.yul\":4392:4394   */\n      0x20\n        /* \"#utility.yul\":4387:4390   */\n      dup3\n        /* \"#utility.yul\":4383:4395   */\n      add\n        /* \"#utility.yul\":4376:4395   */\n      swap2\n      pop\n        /* \"#utility.yul\":4405:4480   */\n      tag_154\n        /* \"#utility.yul\":4476:4479   */\n      dup3\n        /* \"#utility.yul\":4467:4473   */\n      dup6\n        /* \"#utility.yul\":4405:4480   */\n      tag_90\n      jump\t// in\n    tag_154:\n        /* \"#utility.yul\":4505:4507   */\n      0x20\n        /* \"#utility.yul\":4500:4503   */\n      dup3\n        /* \"#utility.yul\":4496:4508   */\n      add\n        /* \"#utility.yul\":4489:4508   */\n      swap2\n      pop\n        /* \"#utility.yul\":4518:4593   */\n      tag_155\n        /* \"#utility.yul\":4589:4592   */\n      dup3\n        /* \"#utility.yul\":4580:4586   */\n      dup5\n        /* \"#utility.yul\":4518:4593   */\n      tag_94\n      jump\t// in\n    tag_155:\n        /* \"#utility.yul\":4618:4620   */\n      0x14\n        /* \"#utility.yul\":4613:4616   */\n      dup3\n        /* \"#utility.yul\":4609:4621   */\n      add\n        /* \"#utility.yul\":4602:4621   */\n      swap2\n      pop\n        /* \"#utility.yul\":4638:4641   */\n      dup2\n        /* \"#utility.yul\":4631:4641   */\n      swap1\n      pop\n        /* \"#utility.yul\":4109:4647   */\n      swap5\n      swap4\n      pop\n      pop\n      pop\n      pop\n      jump\t// out\n        /* \"#utility.yul\":4653:4833   */\n    tag_95:\n        /* \"#utility.yul\":4701:4778   */\n      0x4e487b7100000000000000000000000000000000000000000000000000000000\n        /* \"#utility.yul\":4698:4699   */\n      0x00\n        /* \"#utility.yul\":4691:4779   */\n      mstore\n        /* \"#utility.yul\":4798:4802   */\n      0x12\n        /* \"#utility.yul\":4795:4796   */\n      0x04\n        /* \"#utility.yul\":4788:4803   */\n      mstore\n        /* \"#utility.yul\":4822:4826   */\n      0x24\n        /* \"#utility.yul\":4819:4820   */\n      0x00\n        /* \"#utility.yul\":4812:4827   */\n      revert\n        /* \"#utility.yul\":4839:5015   */\n    tag_25:\n        /* \"#utility.yul\":4871:4872   */\n      0x00\n        /* \"#utility.yul\":4888:4908   */\n      tag_158\n        /* \"#utility.yul\":4906:4907   */\n      dup3\n        /* \"#utility.yul\":4888:4908   */\n      tag_77\n      jump\t// in\n    tag_158:\n        /* \"#utility.yul\":4883:4908   */\n      swap2\n      pop\n        /* \"#utility.yul\":4922:4942   */\n      tag_159\n        /* \"#utility.yul\":4940:4941   */\n      dup4\n        /* \"#utility.yul\":4922:4942   */\n      tag_77\n      jump\t// in\n    tag_159:\n        /* \"#utility.yul\":4917:4942   */\n      swap3\n      pop\n        /* \"#utility.yul\":4961:4962   */\n      dup3\n        /* \"#utility.yul\":4951:4986   */\n      tag_160\n      jumpi\n        /* \"#utility.yul\":4966:4984   */\n      tag_161\n      tag_95\n      jump\t// in\n    tag_161:\n        /* \"#utility.yul\":4951:4986   */\n    tag_160:\n        /* \"#utility.yul\":5007:5008   */\n      dup3\n        /* \"#utility.yul\":5004:5005   */\n      dup3\n        /* \"#utility.yul\":5000:5009   */\n      mod\n        /* \"#utility.yul\":4995:5009   */\n      swap1\n      pop\n        /* \"#utility.yul\":4839:5015   */\n      swap3\n      swap2\n      pop\n      pop\n      jump\t// out\n        /* \"#utility.yul\":5021:5201   */\n    tag_28:\n        /* \"#utility.yul\":5069:5146   */\n      0x4e487b7100000000000000000000000000000000000000000000000000000000\n        /* \"#utility.yul\":5066:5067   */\n      0x00\n        /* \"#utility.yul\":5059:5147   */\n      mstore\n        /* \"#utility.yul\":5166:5170   */\n      0x32\n        /* \"#utility.yul\":5163:5164   */\n      0x04\n        /* \"#utility.yul\":5156:5171   */\n      mstore\n        /* \"#utility.yul\":5190:5194   */\n      0x24\n        /* \"#utility.yul\":5187:5188   */\n      0x00\n        /* \"#utility.yul\":5180:5195   */\n      revert\n        /* \"#utility.yul\":5207:5387   */\n    tag_96:\n        /* \"#utility.yul\":5255:5332   */\n      0x4e487b7100000000000000000000000000000000000000000000000000000000\n        /* \"#utility.yul\":5252:5253   */\n      0x00\n        /* \"#utility.yul\":5245:5333   */\n      mstore\n        /* \"#utility.yul\":5352:5356   */\n      0x22\n        /* \"#utility.yul\":5349:5350   */\n      0x04\n        /* \"#utility.yul\":5342:5357   */\n      mstore\n        /* \"#utility.yul\":5376:5380   */\n      0x24\n        /* \"#utility.yul\":5373:5374   */\n      0x00\n        /* \"#utility.yul\":5366:5381   */\n      revert\n        /* \"#utility.yul\":5393:5713   */\n    tag_31:\n        /* \"#utility.yul\":5437:5443   */\n      0x00\n        /* \"#utility.yul\":5474:5475   */\n      0x02\n        /* \"#utility.yul\":5468:5472   */\n      dup3\n        /* \"#utility.yul\":5464:5476   */\n      div\n        /* \"#utility.yul\":5454:5476   */\n      swap1\n      pop\n        /* \"#utility.yul\":5521:5522   */\n      0x01\n        /* \"#utility.yul\":5515:5519   */\n      dup3\n        /* \"#utility.yul\":5511:5523   */\n      and\n        /* \"#utility.yul\":5542:5560   */\n      dup1\n        /* \"#utility.yul\":5532:5613   */\n      tag_165\n      jumpi\n        /* \"#utility.yul\":5598:5602   */\n      0x7f\n        /* \"#utility.yul\":5590:5596   */\n      dup3\n        /* \"#utility.yul\":5586:5603   */\n      and\n        /* \"#utility.yul\":5576:5603   */\n      swap2\n      pop\n        /* \"#utility.yul\":5532:5613   */\n    tag_165:\n        /* \"#utility.yul\":5660:5662   */\n      0x20\n        /* \"#utility.yul\":5652:5658   */\n      dup3\n        /* \"#utility.yul\":5649:5663   */\n      lt\n        /* \"#utility.yul\":5629:5647   */\n      dup2\n        /* \"#utility.yul\":5626:5664   */\n      sub\n        /* \"#utility.yul\":5623:5707   */\n      tag_166\n      jumpi\n        /* \"#utility.yul\":5679:5697   */\n      tag_167\n      tag_96\n      jump\t// in\n    tag_167:\n        /* \"#utility.yul\":5623:5707   */\n    tag_166:\n        /* \"#utility.yul\":5444:5713   */\n      pop\n        /* \"#utility.yul\":5393:5713   */\n      swap2\n      swap1\n      pop\n      jump\t// out\n        /* \"#utility.yul\":5905:6090   */\n    tag_37:\n        /* \"#utility.yul\":5945:5946   */\n      0x00\n        /* \"#utility.yul\":5962:5982   */\n      tag_170\n        /* \"#utility.yul\":5980:5981   */\n      dup3\n        /* \"#utility.yul\":5962:5982   */\n      tag_77\n      jump\t// in\n    tag_170:\n        /* \"#utility.yul\":5957:5982   */\n      swap2\n      pop\n        /* \"#utility.yul\":5996:6016   */\n      tag_171\n        /* \"#utility.yul\":6014:6015   */\n      dup4\n        /* \"#utility.yul\":5996:6016   */\n      tag_77\n      jump\t// in\n    tag_171:\n        /* \"#utility.yul\":5991:6016   */\n      swap3\n      pop\n        /* \"#utility.yul\":6035:6036   */\n      dup3\n        /* \"#utility.yul\":6025:6060   */\n      tag_172\n      jumpi\n        /* \"#utility.yul\":6040:6058   */\n      tag_173\n      tag_95\n      jump\t// in\n    tag_173:\n        /* \"#utility.yul\":6025:6060   */\n    tag_172:\n        /* \"#utility.yul\":6082:6083   */\n      dup3\n        /* \"#utility.yul\":6079:6080   */\n      dup3\n        /* \"#utility.yul\":6075:6084   */\n      div\n        /* \"#utility.yul\":6070:6084   */\n      swap1\n      pop\n        /* \"#utility.yul\":5905:6090   */\n      swap3\n      swap2\n      pop\n      pop\n      jump\t// out\n        /* \"#utility.yul\":6096:6244   */\n    tag_98:\n        /* \"#utility.yul\":6198:6209   */\n      0x00\n        /* \"#utility.yul\":6235:6238   */\n      dup2\n        /* \"#utility.yul\":6220:6238   */\n      swap1\n      pop\n        /* \"#utility.yul\":6096:6244   */\n      swap3\n      swap2\n      pop\n      pop\n      jump\t// out\n        /* \"#utility.yul\":6250:6640   */\n    tag_99:\n        /* \"#utility.yul\":6356:6359   */\n      0x00\n        /* \"#utility.yul\":6384:6423   */\n      tag_176\n        /* \"#utility.yul\":6417:6422   */\n      dup3\n        /* \"#utility.yul\":6384:6423   */\n      tag_83\n      jump\t// in\n    tag_176:\n        /* \"#utility.yul\":6439:6528   */\n      tag_177\n        /* \"#utility.yul\":6521:6527   */\n      dup2\n        /* \"#utility.yul\":6516:6519   */\n      dup6\n        /* \"#utility.yul\":6439:6528   */\n      tag_98\n      jump\t// in\n    tag_177:\n        /* \"#utility.yul\":6432:6528   */\n      swap4\n      pop\n        /* \"#utility.yul\":6537:6602   */\n      tag_178\n        /* \"#utility.yul\":6595:6601   */\n      dup2\n        /* \"#utility.yul\":6590:6593   */\n      dup6\n        /* \"#utility.yul\":6583:6587   */\n      0x20\n        /* \"#utility.yul\":6576:6581   */\n      dup7\n        /* \"#utility.yul\":6572:6588   */\n      add\n        /* \"#utility.yul\":6537:6602   */\n      tag_85\n      jump\t// in\n    tag_178:\n        /* \"#utility.yul\":6627:6633   */\n      dup1\n        /* \"#utility.yul\":6622:6625   */\n      dup5\n        /* \"#utility.yul\":6618:6634   */\n      add\n        /* \"#utility.yul\":6611:6634   */\n      swap2\n      pop\n        /* \"#utility.yul\":6360:6640   */\n      pop\n        /* \"#utility.yul\":6250:6640   */\n      swap3\n      swap2\n      pop\n      pop\n      jump\t// out\n        /* \"#utility.yul\":6646:7081   */\n    tag_60:\n        /* \"#utility.yul\":6826:6829   */\n      0x00\n        /* \"#utility.yul\":6848:6943   */\n      tag_180\n        /* \"#utility.yul\":6939:6942   */\n      dup3\n        /* \"#utility.yul\":6930:6936   */\n      dup6\n        /* \"#utility.yul\":6848:6943   */\n      tag_99\n      jump\t// in\n    tag_180:\n        /* \"#utility.yul\":6841:6943   */\n      swap2\n      pop\n        /* \"#utility.yul\":6960:7055   */\n      tag_181\n        /* \"#utility.yul\":7051:7054   */\n      dup3\n        /* \"#utility.yul\":7042:7048   */\n      dup5\n        /* \"#utility.yul\":6960:7055   */\n      tag_99\n      jump\t// in\n    tag_181:\n        /* \"#utility.yul\":6953:7055   */\n      swap2\n      pop\n        /* \"#utility.yul\":7072:7075   */\n      dup2\n        /* \"#utility.yul\":7065:7075   */\n      swap1\n      pop\n        /* \"#utility.yul\":6646:7081   */\n      swap4\n      swap3\n      pop\n      pop\n      pop\n      jump\t// out\n        /* \"#utility.yul\":7087:7682   */\n    tag_63:\n        /* \"#utility.yul\":7315:7318   */\n      0x00\n        /* \"#utility.yul\":7337:7432   */\n      tag_183\n        /* \"#utility.yul\":7428:7431   */\n      dup3\n        /* \"#utility.yul\":7419:7425   */\n      dup7\n        /* \"#utility.yul\":7337:7432   */\n      tag_99\n      jump\t// in\n    tag_183:\n        /* \"#utility.yul\":7330:7432   */\n      swap2\n      pop\n        /* \"#utility.yul\":7449:7544   */\n      tag_184\n        /* \"#utility.yul\":7540:7543   */\n      dup3\n        /* \"#utility.yul\":7531:7537   */\n      dup6\n        /* \"#utility.yul\":7449:7544   */\n      tag_99\n      jump\t// in\n    tag_184:\n        /* \"#utility.yul\":7442:7544   */\n      swap2\n      pop\n        /* \"#utility.yul\":7561:7656   */\n      tag_185\n        /* \"#utility.yul\":7652:7655   */\n      dup3\n        /* \"#utility.yul\":7643:7649   */\n      dup5\n        /* \"#utility.yul\":7561:7656   */\n      tag_99\n      jump\t// in\n    tag_185:\n        /* \"#utility.yul\":7554:7656   */\n      swap2\n      pop\n        /* \"#utility.yul\":7673:7676   */\n      dup2\n        /* \"#utility.yul\":7666:7676   */\n      swap1\n      pop\n        /* \"#utility.yul\":7087:7682   */\n      swap5\n      swap4\n      pop\n      pop\n      pop\n      pop\n      jump\t// out\n        /* \"#utility.yul\":7688:7837   */\n    tag_100:\n        /* \"#utility.yul\":7724:7731   */\n      0x00\n        /* \"#utility.yul\":7764:7830   */\n      0xff00000000000000000000000000000000000000000000000000000000000000\n        /* \"#utility.yul\":7757:7762   */\n      dup3\n        /* \"#utility.yul\":7753:7831   */\n      and\n        /* \"#utility.yul\":7742:7831   */\n      swap1\n      pop\n        /* \"#utility.yul\":7688:7837   */\n      swap2\n      swap1\n      pop\n      jump\t// out\n        /* \"#utility.yul\":7843:7921   */\n    tag_101:\n        /* \"#utility.yul\":7881:7888   */\n      0x00\n        /* \"#utility.yul\":7910:7915   */\n      dup2\n        /* \"#utility.yul\":7899:7915   */\n      swap1\n      pop\n        /* \"#utility.yul\":7843:7921   */\n      swap2\n      swap1\n      pop\n      jump\t// out\n        /* \"#utility.yul\":7927:8080   */\n    tag_102:\n        /* \"#utility.yul\":8030:8073   */\n      tag_189\n        /* \"#utility.yul\":8049:8072   */\n      tag_190\n        /* \"#utility.yul\":8066:8071   */\n      dup3\n        /* \"#utility.yul\":8049:8072   */\n      tag_100\n      jump\t// in\n    tag_190:\n        /* \"#utility.yul\":8030:8073   */\n      tag_101\n      jump\t// in\n    tag_189:\n        /* \"#utility.yul\":8025:8028   */\n      dup3\n        /* \"#utility.yul\":8018:8074   */\n      mstore\n        /* \"#utility.yul\":7927:8080   */\n      pop\n      pop\n      jump\t// out\n        /* \"#utility.yul\":8086:8609   */\n    tag_73:\n        /* \"#utility.yul\":8248:8251   */\n      0x00\n        /* \"#utility.yul\":8263:8336   */\n      tag_192\n        /* \"#utility.yul\":8332:8335   */\n      dup3\n        /* \"#utility.yul\":8323:8329   */\n      dup7\n        /* \"#utility.yul\":8263:8336   */\n      tag_102\n      jump\t// in\n    tag_192:\n        /* \"#utility.yul\":8361:8362   */\n      0x01\n        /* \"#utility.yul\":8356:8359   */\n      dup3\n        /* \"#utility.yul\":8352:8363   */\n      add\n        /* \"#utility.yul\":8345:8363   */\n      swap2\n      pop\n        /* \"#utility.yul\":8373:8446   */\n      tag_193\n        /* \"#utility.yul\":8442:8445   */\n      dup3\n        /* \"#utility.yul\":8433:8439   */\n      dup6\n        /* \"#utility.yul\":8373:8446   */\n      tag_102\n      jump\t// in\n    tag_193:\n        /* \"#utility.yul\":8471:8472   */\n      0x01\n        /* \"#utility.yul\":8466:8469   */\n      dup3\n        /* \"#utility.yul\":8462:8473   */\n      add\n        /* \"#utility.yul\":8455:8473   */\n      swap2\n      pop\n        /* \"#utility.yul\":8483:8556   */\n      tag_194\n        /* \"#utility.yul\":8552:8555   */\n      dup3\n        /* \"#utility.yul\":8543:8549   */\n      dup5\n        /* \"#utility.yul\":8483:8556   */\n      tag_102\n      jump\t// in\n    tag_194:\n        /* \"#utility.yul\":8581:8582   */\n      0x01\n        /* \"#utility.yul\":8576:8579   */\n      dup3\n        /* \"#utility.yul\":8572:8583   */\n      add\n        /* \"#utility.yul\":8565:8583   */\n      swap2\n      pop\n        /* \"#utility.yul\":8600:8603   */\n      dup2\n        /* \"#utility.yul\":8593:8603   */\n      swap1\n      pop\n        /* \"#utility.yul\":8086:8609   */\n      swap5\n      swap4\n      pop\n      pop\n      pop\n      pop\n      jump\t// out\n    stop\n\n    sub_0: assembly {\n            /* \"contracts/Base.sol\":189:523  contract RandomToken is ERC20, Ownable {... */\n          mstore(0x40, 0x80)\n            /* \"contracts/Base.sol\":234:521  constructor(... */\n          callvalue\n          dup1\n          iszero\n          tag_1\n          jumpi\n          revert(0x00, 0x00)\n        tag_1:\n          pop\n          mload(0x40)\n          sub(codesize, bytecodeSize)\n          dup1\n          bytecodeSize\n          dup4\n          codecopy\n          dup2\n          dup2\n          add\n          0x40\n          mstore\n          dup2\n          add\n          swap1\n          tag_2\n          swap2\n          swap1\n          tag_3\n          jump\t// in\n        tag_2:\n            /* \"contracts/Base.sol\":398:406  receiver */\n          dup1\n            /* \"contracts/Base.sol\":376:380  name */\n          dup5\n            /* \"contracts/Base.sol\":382:388  symbol */\n          dup5\n            /* \"@openzeppelin/contracts/token/ERC20/ERC20.sol\":1656:1661  name_ */\n          dup2\n            /* \"@openzeppelin/contracts/token/ERC20/ERC20.sol\":1648:1653  _name */\n          0x03\n            /* \"@openzeppelin/contracts/token/ERC20/ERC20.sol\":1648:1661  _name = name_ */\n          swap1\n          dup2\n          tag_8\n          swap2\n          swap1\n          tag_9\n          jump\t// in\n        tag_8:\n          pop\n            /* \"@openzeppelin/contracts/token/ERC20/ERC20.sol\":1681:1688  symbol_ */\n          dup1\n            /* \"@openzeppelin/contracts/token/ERC20/ERC20.sol\":1671:1678  _symbol */\n          0x04\n            /* \"@openzeppelin/contracts/token/ERC20/ERC20.sol\":1671:1688  _symbol = symbol_ */\n          swap1\n          dup2\n          tag_10\n          swap2\n          swap1\n          tag_9\n          jump\t// in\n        tag_10:\n          pop\n            /* \"@openzeppelin/contracts/token/ERC20/ERC20.sol\":1582:1695  constructor(string memory name_, string memory symbol_) {... */\n          pop\n          pop\n            /* \"@openzeppelin/contracts/access/Ownable.sol\":1297:1298  0 */\n          0x00\n            /* \"@openzeppelin/contracts/access/Ownable.sol\":1273:1299  initialOwner == address(0) */\n          0xffffffffffffffffffffffffffffffffffffffff\n          and\n            /* \"@openzeppelin/contracts/access/Ownable.sol\":1273:1285  initialOwner */\n          dup2\n            /* \"@openzeppelin/contracts/access/Ownable.sol\":1273:1299  initialOwner == address(0) */\n          0xffffffffffffffffffffffffffffffffffffffff\n          and\n          sub\n            /* \"@openzeppelin/contracts/access/Ownable.sol\":1269:1364  if (initialOwner == address(0)) {... */\n          tag_12\n          jumpi\n            /* \"@openzeppelin/contracts/access/Ownable.sol\":1350:1351  0 */\n          0x00\n            /* \"@openzeppelin/contracts/access/Ownable.sol\":1322:1353  OwnableInvalidOwner(address(0)) */\n          mload(0x40)\n          0x1e4fbdf700000000000000000000000000000000000000000000000000000000\n          dup2\n          mstore\n          0x04\n          add\n          tag_13\n          swap2\n          swap1\n          tag_14\n          jump\t// in\n        tag_13:\n          mload(0x40)\n          dup1\n          swap2\n          sub\n          swap1\n          revert\n            /* \"@openzeppelin/contracts/access/Ownable.sol\":1269:1364  if (initialOwner == address(0)) {... */\n        tag_12:\n            /* \"@openzeppelin/contracts/access/Ownable.sol\":1373:1405  _transferOwnership(initialOwner) */\n          tag_15\n            /* \"@openzeppelin/contracts/access/Ownable.sol\":1392:1404  initialOwner */\n          dup2\n            /* \"@openzeppelin/contracts/access/Ownable.sol\":1373:1391  _transferOwnership */\n          shl(0x20, tag_16)\n            /* \"@openzeppelin/contracts/access/Ownable.sol\":1373:1405  _transferOwnership(initialOwner) */\n          0x20\n          shr\n          jump\t// in\n        tag_15:\n            /* \"@openzeppelin/contracts/access/Ownable.sol\":1225:1412  constructor(address initialOwner) {... */\n          pop\n            /* \"contracts/Base.sol\":465:514  _mint(receiver, initialSupply * 10 ** decimals()) */\n          tag_18\n            /* \"contracts/Base.sol\":471:479  receiver */\n          dup2\n            /* \"contracts/Base.sol\":503:513  decimals() */\n          tag_19\n            /* \"contracts/Base.sol\":503:511  decimals */\n          shl(0x20, tag_20)\n            /* \"contracts/Base.sol\":503:513  decimals() */\n          0x20\n          shr\n          jump\t// in\n        tag_19:\n            /* \"contracts/Base.sol\":497:499  10 */\n          0x0a\n            /* \"contracts/Base.sol\":497:513  10 ** decimals() */\n          tag_21\n          swap2\n          swap1\n          tag_22\n          jump\t// in\n        tag_21:\n            /* \"contracts/Base.sol\":481:494  initialSupply */\n          dup5\n            /* \"contracts/Base.sol\":481:513  initialSupply * 10 ** decimals() */\n          tag_23\n          swap2\n          swap1\n          tag_24\n          jump\t// in\n        tag_23:\n            /* \"contracts/Base.sol\":465:470  _mint */\n          shl(0x20, tag_25)\n            /* \"contracts/Base.sol\":465:514  _mint(receiver, initialSupply * 10 ** decimals()) */\n          0x20\n          shr\n          jump\t// in\n        tag_18:\n            /* \"contracts/Base.sol\":234:521  constructor(... */\n          pop\n          pop\n          pop\n          pop\n            /* \"contracts/Base.sol\":189:523  contract RandomToken is ERC20, Ownable {... */\n          jump(tag_26)\n            /* \"@openzeppelin/contracts/access/Ownable.sol\":2912:3099  function _transferOwnership(address newOwner) internal virtual {... */\n        tag_16:\n            /* \"@openzeppelin/contracts/access/Ownable.sol\":2985:3001  address oldOwner */\n          0x00\n            /* \"@openzeppelin/contracts/access/Ownable.sol\":3004:3010  _owner */\n          0x05\n          0x00\n          swap1\n          sload\n          swap1\n          0x0100\n          exp\n          swap1\n          div\n          0xffffffffffffffffffffffffffffffffffffffff\n          and\n            /* \"@openzeppelin/contracts/access/Ownable.sol\":2985:3010  address oldOwner = _owner */\n          swap1\n          pop\n            /* \"@openzeppelin/contracts/access/Ownable.sol\":3029:3037  newOwner */\n          dup2\n            /* \"@openzeppelin/contracts/access/Ownable.sol\":3020:3026  _owner */\n          0x05\n          0x00\n            /* \"@openzeppelin/contracts/access/Ownable.sol\":3020:3037  _owner = newOwner */\n          0x0100\n          exp\n          dup2\n          sload\n          dup2\n          0xffffffffffffffffffffffffffffffffffffffff\n          mul\n          not\n          and\n          swap1\n          dup4\n          0xffffffffffffffffffffffffffffffffffffffff\n          and\n          mul\n          or\n          swap1\n          sstore\n          pop\n            /* \"@openzeppelin/contracts/access/Ownable.sol\":3083:3091  newOwner */\n          dup2\n            /* \"@openzeppelin/contracts/access/Ownable.sol\":3052:3092  OwnershipTransferred(oldOwner, newOwner) */\n          0xffffffffffffffffffffffffffffffffffffffff\n          and\n            /* \"@openzeppelin/contracts/access/Ownable.sol\":3073:3081  oldOwner */\n          dup2\n            /* \"@openzeppelin/contracts/access/Ownable.sol\":3052:3092  OwnershipTransferred(oldOwner, newOwner) */\n          0xffffffffffffffffffffffffffffffffffffffff\n          and\n          0x8be0079c531659141344cd1fd0a4f28419497f9722a3daafe3b4186f6b6457e0\n          mload(0x40)\n          mload(0x40)\n          dup1\n          swap2\n          sub\n          swap1\n          log3\n            /* \"@openzeppelin/contracts/access/Ownable.sol\":2975:3099  {... */\n          pop\n            /* \"@openzeppelin/contracts/access/Ownable.sol\":2912:3099  function _transferOwnership(address newOwner) internal virtual {... */\n          pop\n          jump\t// out\n            /* \"@openzeppelin/contracts/token/ERC20/ERC20.sol\":2688:2770  function decimals() public view virtual returns (uint8) {... */\n        tag_20:\n            /* \"@openzeppelin/contracts/token/ERC20/ERC20.sol\":2737:2742  uint8 */\n          0x00\n            /* \"@openzeppelin/contracts/token/ERC20/ERC20.sol\":2761:2763  18 */\n          0x12\n            /* \"@openzeppelin/contracts/token/ERC20/ERC20.sol\":2754:2763  return 18 */\n          swap1\n          pop\n            /* \"@openzeppelin/contracts/token/ERC20/ERC20.sol\":2688:2770  function decimals() public view virtual returns (uint8) {... */\n          swap1\n          jump\t// out\n            /* \"@openzeppelin/contracts/token/ERC20/ERC20.sol\":7362:7570  function _mint(address account, uint256 value) internal {... */\n        tag_25:\n            /* \"@openzeppelin/contracts/token/ERC20/ERC20.sol\":7451:7452  0 */\n          0x00\n            /* \"@openzeppelin/contracts/token/ERC20/ERC20.sol\":7432:7453  account == address(0) */\n          0xffffffffffffffffffffffffffffffffffffffff\n          and\n            /* \"@openzeppelin/contracts/token/ERC20/ERC20.sol\":7432:7439  account */\n          dup3\n            /* \"@openzeppelin/contracts/token/ERC20/ERC20.sol\":7432:7453  account == address(0) */\n          0xffffffffffffffffffffffffffffffffffffffff\n          and\n          sub\n            /* \"@openzeppelin/contracts/token/ERC20/ERC20.sol\":7428:7519  if (account == address(0)) {... */\n          tag_30\n          jumpi\n            /* \"@openzeppelin/contracts/token/ERC20/ERC20.sol\":7505:7506  0 */\n          0x00\n            /* \"@openzeppelin/contracts/token/ERC20/ERC20.sol\":7476:7508  ERC20InvalidReceiver(address(0)) */\n          mload(0x40)\n          0xec442f0500000000000000000000000000000000000000000000000000000000\n          dup2\n          mstore\n          0x04\n          add\n          tag_31\n          swap2\n          swap1\n          tag_14\n          jump\t// in\n        tag_31:\n          mload(0x40)\n          dup1\n          swap2\n          sub\n          swap1\n          revert\n            /* \"@openzeppelin/contracts/token/ERC20/ERC20.sol\":7428:7519  if (account == address(0)) {... */\n        tag_30:\n            /* \"@openzeppelin/contracts/token/ERC20/ERC20.sol\":7528:7563  _update(address(0), account, value) */\n          tag_32\n            /* \"@openzeppelin/contracts/token/ERC20/ERC20.sol\":7544:7545  0 */\n          0x00\n            /* \"@openzeppelin/contracts/token/ERC20/ERC20.sol\":7548:7555  account */\n          dup4\n            /* \"@openzeppelin/contracts/token/ERC20/ERC20.sol\":7557:7562  value */\n          dup4\n            /* \"@openzeppelin/contracts/token/ERC20/ERC20.sol\":7528:7535  _update */\n          shl(0x20, tag_33)\n            /* \"@openzeppelin/contracts/token/ERC20/ERC20.sol\":7528:7563  _update(address(0), account, value) */\n          0x20\n          shr\n          jump\t// in\n        tag_32:\n            /* \"@openzeppelin/contracts/token/ERC20/ERC20.sol\":7362:7570  function _mint(address account, uint256 value) internal {... */\n          pop\n          pop\n          jump\t// out\n            /* \"@openzeppelin/contracts/token/ERC20/ERC20.sol\":5912:7019  function _update(address from, address to, uint256 value) internal virtual {... */\n        tag_33:\n            /* \"@openzeppelin/contracts/token/ERC20/ERC20.sol\":6017:6018  0 */\n          0x00\n            /* \"@openzeppelin/contracts/token/ERC20/ERC20.sol\":6001:6019  from == address(0) */\n          0xffffffffffffffffffffffffffffffffffffffff\n          and\n            /* \"@openzeppelin/contracts/token/ERC20/ERC20.sol\":6001:6005  from */\n          dup4\n            /* \"@openzeppelin/contracts/token/ERC20/ERC20.sol\":6001:6019  from == address(0) */\n          0xffffffffffffffffffffffffffffffffffffffff\n          and\n          sub\n            /* \"@openzeppelin/contracts/token/ERC20/ERC20.sol\":5997:6537  if (from == address(0)) {... */\n          tag_35\n          jumpi\n            /* \"@openzeppelin/contracts/token/ERC20/ERC20.sol\":6153:6158  value */\n          dup1\n            /* \"@openzeppelin/contracts/token/ERC20/ERC20.sol\":6137:6149  _totalSupply */\n          0x02\n          0x00\n            /* \"@openzeppelin/contracts/token/ERC20/ERC20.sol\":6137:6158  _totalSupply += value */\n          dup3\n          dup3\n          sload\n          tag_36\n          swap2\n          swap1\n          tag_37\n          jump\t// in\n        tag_36:\n          swap3\n          pop\n          pop\n          dup2\n          swap1\n          sstore\n          pop\n            /* \"@openzeppelin/contracts/token/ERC20/ERC20.sol\":5997:6537  if (from == address(0)) {... */\n          jump(tag_38)\n        tag_35:\n            /* \"@openzeppelin/contracts/token/ERC20/ERC20.sol\":6189:6208  uint256 fromBalance */\n          0x00\n            /* \"@openzeppelin/contracts/token/ERC20/ERC20.sol\":6211:6220  _balances */\n          0x00\n            /* \"@openzeppelin/contracts/token/ERC20/ERC20.sol\":6211:6226  _balances[from] */\n          0x00\n            /* \"@openzeppelin/contracts/token/ERC20/ERC20.sol\":6221:6225  from */\n          dup6\n            /* \"@openzeppelin/contracts/token/ERC20/ERC20.sol\":6211:6226  _balances[from] */\n          0xffffffffffffffffffffffffffffffffffffffff\n          and\n          0xffffffffffffffffffffffffffffffffffffffff\n          and\n          dup2\n          mstore\n          0x20\n          add\n          swap1\n          dup2\n          mstore\n          0x20\n          add\n          0x00\n          keccak256\n          sload\n            /* \"@openzeppelin/contracts/token/ERC20/ERC20.sol\":6189:6226  uint256 fromBalance = _balances[from] */\n          swap1\n          pop\n            /* \"@openzeppelin/contracts/token/ERC20/ERC20.sol\":6258:6263  value */\n          dup2\n            /* \"@openzeppelin/contracts/token/ERC20/ERC20.sol\":6244:6255  fromBalance */\n          dup2\n            /* \"@openzeppelin/contracts/token/ERC20/ERC20.sol\":6244:6263  fromBalance < value */\n          lt\n            /* \"@openzeppelin/contracts/token/ERC20/ERC20.sol\":6240:6355  if (fromBalance < value) {... */\n          iszero\n          tag_39\n          jumpi\n            /* \"@openzeppelin/contracts/token/ERC20/ERC20.sol\":6315:6319  from */\n          dup4\n            /* \"@openzeppelin/contracts/token/ERC20/ERC20.sol\":6321:6332  fromBalance */\n          dup2\n            /* \"@openzeppelin/contracts/token/ERC20/ERC20.sol\":6334:6339  value */\n          dup4\n            /* \"@openzeppelin/contracts/token/ERC20/ERC20.sol\":6290:6340  ERC20InsufficientBalance(from, fromBalance, value) */\n          mload(0x40)\n          0xe450d38c00000000000000000000000000000000000000000000000000000000\n          dup2\n          mstore\n          0x04\n          add\n          tag_40\n          swap4\n          swap3\n          swap2\n          swap1\n          tag_41\n          jump\t// in\n        tag_40:\n          mload(0x40)\n          dup1\n          swap2\n          sub\n          swap1\n          revert\n            /* \"@openzeppelin/contracts/token/ERC20/ERC20.sol\":6240:6355  if (fromBalance < value) {... */\n        tag_39:\n            /* \"@openzeppelin/contracts/token/ERC20/ERC20.sol\":6507:6512  value */\n          dup2\n            /* \"@openzeppelin/contracts/token/ERC20/ERC20.sol\":6493:6504  fromBalance */\n          dup2\n            /* \"@openzeppelin/contracts/token/ERC20/ERC20.sol\":6493:6512  fromBalance - value */\n          sub\n            /* \"@openzeppelin/contracts/token/ERC20/ERC20.sol\":6475:6484  _balances */\n          0x00\n            /* \"@openzeppelin/contracts/token/ERC20/ERC20.sol\":6475:6490  _balances[from] */\n          0x00\n            /* \"@openzeppelin/contracts/token/ERC20/ERC20.sol\":6485:6489  from */\n          dup7\n            /* \"@openzeppelin/contracts/token/ERC20/ERC20.sol\":6475:6490  _balances[from] */\n          0xffffffffffffffffffffffffffffffffffffffff\n          and\n          0xffffffffffffffffffffffffffffffffffffffff\n          and\n          dup2\n          mstore\n          0x20\n          add\n          swap1\n          dup2\n          mstore\n          0x20\n          add\n          0x00\n          keccak256\n            /* \"@openzeppelin/contracts/token/ERC20/ERC20.sol\":6475:6512  _balances[from] = fromBalance - value */\n          dup2\n          swap1\n          sstore\n          pop\n            /* \"@openzeppelin/contracts/token/ERC20/ERC20.sol\":6175:6537  {... */\n          pop\n            /* \"@openzeppelin/contracts/token/ERC20/ERC20.sol\":5997:6537  if (from == address(0)) {... */\n        tag_38:\n            /* \"@openzeppelin/contracts/token/ERC20/ERC20.sol\":6565:6566  0 */\n          0x00\n            /* \"@openzeppelin/contracts/token/ERC20/ERC20.sol\":6551:6567  to == address(0) */\n          0xffffffffffffffffffffffffffffffffffffffff\n          and\n            /* \"@openzeppelin/contracts/token/ERC20/ERC20.sol\":6551:6553  to */\n          dup3\n            /* \"@openzeppelin/contracts/token/ERC20/ERC20.sol\":6551:6567  to == address(0) */\n          0xffffffffffffffffffffffffffffffffffffffff\n          and\n          sub\n            /* \"@openzeppelin/contracts/token/ERC20/ERC20.sol\":6547:6972  if (to == address(0)) {... */\n          tag_42\n          jumpi\n            /* \"@openzeppelin/contracts/token/ERC20/ERC20.sol\":6730:6735  value */\n          dup1\n            /* \"@openzeppelin/contracts/token/ERC20/ERC20.sol\":6714:6726  _totalSupply */\n          0x02\n          0x00\n            /* \"@openzeppelin/contracts/token/ERC20/ERC20.sol\":6714:6735  _totalSupply -= value */\n          dup3\n          dup3\n          sload\n          sub\n          swap3\n          pop\n          pop\n          dup2\n          swap1\n          sstore\n          pop\n            /* \"@openzeppelin/contracts/token/ERC20/ERC20.sol\":6547:6972  if (to == address(0)) {... */\n          jump(tag_43)\n        tag_42:\n            /* \"@openzeppelin/contracts/token/ERC20/ERC20.sol\":6942:6947  value */\n          dup1\n            /* \"@openzeppelin/contracts/token/ERC20/ERC20.sol\":6925:6934  _balances */\n          0x00\n            /* \"@openzeppelin/contracts/token/ERC20/ERC20.sol\":6925:6938  _balances[to] */\n          0x00\n            /* \"@openzeppelin/contracts/token/ERC20/ERC20.sol\":6935:6937  to */\n          dup5\n            /* \"@openzeppelin/contracts/token/ERC20/ERC20.sol\":6925:6938  _balances[to] */\n          0xffffffffffffffffffffffffffffffffffffffff\n          and\n          0xffffffffffffffffffffffffffffffffffffffff\n          and\n          dup2\n          mstore\n          0x20\n          add\n          swap1\n          dup2\n          mstore\n          0x20\n          add\n          0x00\n          keccak256\n          0x00\n            /* \"@openzeppelin/contracts/token/ERC20/ERC20.sol\":6925:6947  _balances[to] += value */\n          dup3\n          dup3\n          sload\n          add\n          swap3\n          pop\n          pop\n          dup2\n          swap1\n          sstore\n          pop\n            /* \"@openzeppelin/contracts/token/ERC20/ERC20.sol\":6547:6972  if (to == address(0)) {... */\n        tag_43:\n            /* \"@openzeppelin/contracts/token/ERC20/ERC20.sol\":7002:7004  to */\n          dup2\n            /* \"@openzeppelin/contracts/token/ERC20/ERC20.sol\":6987:7012  Transfer(from, to, value) */\n          0xffffffffffffffffffffffffffffffffffffffff\n          and\n            /* \"@openzeppelin/contracts/token/ERC20/ERC20.sol\":6996:7000  from */\n          dup4\n            /* \"@openzeppelin/contracts/token/ERC20/ERC20.sol\":6987:7012  Transfer(from, to, value) */\n          0xffffffffffffffffffffffffffffffffffffffff\n          and\n          0xddf252ad1be2c89b69c2b068fc378daa952ba7f163c4a11628f55a4df523b3ef\n            /* \"@openzeppelin/contracts/token/ERC20/ERC20.sol\":7006:7011  value */\n          dup4\n            /* \"@openzeppelin/contracts/token/ERC20/ERC20.sol\":6987:7012  Transfer(from, to, value) */\n          mload(0x40)\n          tag_44\n          swap2\n          swap1\n          tag_45\n          jump\t// in\n        tag_44:\n          mload(0x40)\n          dup1\n          swap2\n          sub\n          swap1\n          log3\n            /* \"@openzeppelin/contracts/token/ERC20/ERC20.sol\":5912:7019  function _update(address from, address to, uint256 value) internal virtual {... */\n          pop\n          pop\n          pop\n          jump\t// out\n            /* \"#utility.yul\":7:82   */\n        tag_46:\n            /* \"#utility.yul\":40:46   */\n          0x00\n            /* \"#utility.yul\":73:75   */\n          0x40\n            /* \"#utility.yul\":67:76   */\n          mload\n            /* \"#utility.yul\":57:76   */\n          swap1\n          pop\n            /* \"#utility.yul\":7:82   */\n          swap1\n          jump\t// out\n            /* \"#utility.yul\":88:205   */\n        tag_47:\n            /* \"#utility.yul\":197:198   */\n          0x00\n            /* \"#utility.yul\":194:195   */\n          0x00\n            /* \"#utility.yul\":187:199   */\n          revert\n            /* \"#utility.yul\":211:328   */\n        tag_48:\n            /* \"#utility.yul\":320:321   */\n          0x00\n            /* \"#utility.yul\":317:318   */\n          0x00\n            /* \"#utility.yul\":310:322   */\n          revert\n            /* \"#utility.yul\":334:451   */\n        tag_49:\n            /* \"#utility.yul\":443:444   */\n          0x00\n            /* \"#utility.yul\":440:441   */\n          0x00\n            /* \"#utility.yul\":433:445   */\n          revert\n            /* \"#utility.yul\":457:574   */\n        tag_50:\n            /* \"#utility.yul\":566:567   */\n          0x00\n            /* \"#utility.yul\":563:564   */\n          0x00\n            /* \"#utility.yul\":556:568   */\n          revert\n            /* \"#utility.yul\":580:682   */\n        tag_51:\n            /* \"#utility.yul\":621:627   */\n          0x00\n            /* \"#utility.yul\":672:674   */\n          0x1f\n            /* \"#utility.yul\":668:675   */\n          not\n            /* \"#utility.yul\":663:665   */\n          0x1f\n            /* \"#utility.yul\":656:661   */\n          dup4\n            /* \"#utility.yul\":652:666   */\n          add\n            /* \"#utility.yul\":648:676   */\n          and\n            /* \"#utility.yul\":638:676   */\n          swap1\n          pop\n            /* \"#utility.yul\":580:682   */\n          swap2\n          swap1\n          pop\n          jump\t// out\n            /* \"#utility.yul\":688:868   */\n        tag_52:\n            /* \"#utility.yul\":736:813   */\n          0x4e487b7100000000000000000000000000000000000000000000000000000000\n            /* \"#utility.yul\":733:734   */\n          0x00\n            /* \"#utility.yul\":726:814   */\n          mstore\n            /* \"#utility.yul\":833:837   */\n          0x41\n            /* \"#utility.yul\":830:831   */\n          0x04\n            /* \"#utility.yul\":823:838   */\n          mstore\n            /* \"#utility.yul\":857:861   */\n          0x24\n            /* \"#utility.yul\":854:855   */\n          0x00\n            /* \"#utility.yul\":847:862   */\n          revert\n            /* \"#utility.yul\":874:1155   */\n        tag_53:\n            /* \"#utility.yul\":957:984   */\n          tag_100\n            /* \"#utility.yul\":979:983   */\n          dup3\n            /* \"#utility.yul\":957:984   */\n          tag_51\n          jump\t// in\n        tag_100:\n            /* \"#utility.yul\":949:955   */\n          dup2\n            /* \"#utility.yul\":945:985   */\n          add\n            /* \"#utility.yul\":1087:1093   */\n          dup2\n            /* \"#utility.yul\":1075:1085   */\n          dup2\n            /* \"#utility.yul\":1072:1094   */\n          lt\n            /* \"#utility.yul\":1051:1069   */\n          0xffffffffffffffff\n            /* \"#utility.yul\":1039:1049   */\n          dup3\n            /* \"#utility.yul\":1036:1070   */\n          gt\n            /* \"#utility.yul\":1033:1095   */\n          or\n            /* \"#utility.yul\":1030:1118   */\n          iszero\n          tag_101\n          jumpi\n            /* \"#utility.yul\":1098:1116   */\n          tag_102\n          tag_52\n          jump\t// in\n        tag_102:\n            /* \"#utility.yul\":1030:1118   */\n        tag_101:\n            /* \"#utility.yul\":1138:1148   */\n          dup1\n            /* \"#utility.yul\":1134:1136   */\n          0x40\n            /* \"#utility.yul\":1127:1149   */\n          mstore\n            /* \"#utility.yul\":917:1155   */\n          pop\n            /* \"#utility.yul\":874:1155   */\n          pop\n          pop\n          jump\t// out\n            /* \"#utility.yul\":1161:1290   */\n        tag_54:\n            /* \"#utility.yul\":1195:1201   */\n          0x00\n            /* \"#utility.yul\":1222:1242   */\n          tag_104\n          tag_46\n          jump\t// in\n        tag_104:\n            /* \"#utility.yul\":1212:1242   */\n          swap1\n          pop\n            /* \"#utility.yul\":1251:1284   */\n          tag_105\n            /* \"#utility.yul\":1279:1283   */\n          dup3\n            /* \"#utility.yul\":1271:1277   */\n          dup3\n            /* \"#utility.yul\":1251:1284   */\n          tag_53\n          jump\t// in\n        tag_105:\n            /* \"#utility.yul\":1161:1290   */\n          swap2\n          swap1\n          pop\n          jump\t// out\n            /* \"#utility.yul\":1296:1604   */\n        tag_55:\n            /* \"#utility.yul\":1358:1362   */\n          0x00\n            /* \"#utility.yul\":1448:1466   */\n          0xffffffffffffffff\n            /* \"#utility.yul\":1440:1446   */\n          dup3\n            /* \"#utility.yul\":1437:1467   */\n          gt\n            /* \"#utility.yul\":1434:1490   */\n          iszero\n          tag_107\n          jumpi\n            /* \"#utility.yul\":1470:1488   */\n          tag_108\n          tag_52\n          jump\t// in\n        tag_108:\n            /* \"#utility.yul\":1434:1490   */\n        tag_107:\n            /* \"#utility.yul\":1508:1537   */\n          tag_109\n            /* \"#utility.yul\":1530:1536   */\n          dup3\n            /* \"#utility.yul\":1508:1537   */\n          tag_51\n          jump\t// in\n        tag_109:\n            /* \"#utility.yul\":1500:1537   */\n          swap1\n          pop\n            /* \"#utility.yul\":1592:1596   */\n          0x20\n            /* \"#utility.yul\":1586:1590   */\n          dup2\n            /* \"#utility.yul\":1582:1597   */\n          add\n            /* \"#utility.yul\":1574:1597   */\n          swap1\n          pop\n            /* \"#utility.yul\":1296:1604   */\n          swap2\n          swap1\n          pop\n          jump\t// out\n            /* \"#utility.yul\":1610:1749   */\n        tag_56:\n            /* \"#utility.yul\":1699:1705   */\n          dup3\n            /* \"#utility.yul\":1694:1697   */\n          dup2\n            /* \"#utility.yul\":1689:1692   */\n          dup4\n            /* \"#utility.yul\":1683:1706   */\n          mcopy\n            /* \"#utility.yul\":1740:1741   */\n          0x00\n            /* \"#utility.yul\":1731:1737   */\n          dup4\n            /* \"#utility.yul\":1726:1729   */\n          dup4\n            /* \"#utility.yul\":1722:1738   */\n          add\n            /* \"#utility.yul\":1715:1742   */\n          mstore\n            /* \"#utility.yul\":1610:1749   */\n          pop\n          pop\n          pop\n          jump\t// out\n            /* \"#utility.yul\":1755:2189   */\n        tag_57:\n            /* \"#utility.yul\":1844:1849   */\n          0x00\n            /* \"#utility.yul\":1869:1935   */\n          tag_112\n            /* \"#utility.yul\":1885:1934   */\n          tag_113\n            /* \"#utility.yul\":1927:1933   */\n          dup5\n            /* \"#utility.yul\":1885:1934   */\n          tag_55\n          jump\t// in\n        tag_113:\n            /* \"#utility.yul\":1869:1935   */\n          tag_54\n          jump\t// in\n        tag_112:\n            /* \"#utility.yul\":1860:1935   */\n          swap1\n          pop\n            /* \"#utility.yul\":1958:1964   */\n          dup3\n            /* \"#utility.yul\":1951:1956   */\n          dup2\n            /* \"#utility.yul\":1944:1965   */\n          mstore\n            /* \"#utility.yul\":1996:2000   */\n          0x20\n            /* \"#utility.yul\":1989:1994   */\n          dup2\n            /* \"#utility.yul\":1985:2001   */\n          add\n            /* \"#utility.yul\":2034:2037   */\n          dup5\n            /* \"#utility.yul\":2025:2031   */\n          dup5\n            /* \"#utility.yul\":2020:2023   */\n          dup5\n            /* \"#utility.yul\":2016:2032   */\n          add\n            /* \"#utility.yul\":2013:2038   */\n          gt\n            /* \"#utility.yul\":2010:2122   */\n          iszero\n          tag_114\n          jumpi\n            /* \"#utility.yul\":2041:2120   */\n          tag_115\n          tag_50\n          jump\t// in\n        tag_115:\n            /* \"#utility.yul\":2010:2122   */\n        tag_114:\n            /* \"#utility.yul\":2131:2183   */\n          tag_116\n            /* \"#utility.yul\":2176:2182   */\n          dup5\n            /* \"#utility.yul\":2171:2174   */\n          dup3\n            /* \"#utility.yul\":2166:2169   */\n          dup6\n            /* \"#utility.yul\":2131:2183   */\n          tag_56\n          jump\t// in\n        tag_116:\n            /* \"#utility.yul\":1850:2189   */\n          pop\n            /* \"#utility.yul\":1755:2189   */\n          swap4\n          swap3\n          pop\n          pop\n          pop\n          jump\t// out\n            /* \"#utility.yul\":2209:2564   */\n        tag_58:\n            /* \"#utility.yul\":2276:2281   */\n          0x00\n            /* \"#utility.yul\":2325:2328   */\n          dup3\n            /* \"#utility.yul\":2318:2322   */\n          0x1f\n            /* \"#utility.yul\":2310:2316   */\n          dup4\n            /* \"#utility.yul\":2306:2323   */\n          add\n            /* \"#utility.yul\":2302:2329   */\n          slt\n            /* \"#utility.yul\":2292:2414   */\n          tag_118\n          jumpi\n            /* \"#utility.yul\":2333:2412   */\n          tag_119\n          tag_49\n          jump\t// in\n        tag_119:\n            /* \"#utility.yul\":2292:2414   */\n        tag_118:\n            /* \"#utility.yul\":2443:2449   */\n          dup2\n            /* \"#utility.yul\":2437:2450   */\n          mload\n            /* \"#utility.yul\":2468:2558   */\n          tag_120\n            /* \"#utility.yul\":2554:2557   */\n          dup5\n            /* \"#utility.yul\":2546:2552   */\n          dup3\n            /* \"#utility.yul\":2539:2543   */\n          0x20\n            /* \"#utility.yul\":2531:2537   */\n          dup7\n            /* \"#utility.yul\":2527:2544   */\n          add\n            /* \"#utility.yul\":2468:2558   */\n          tag_57\n          jump\t// in\n        tag_120:\n            /* \"#utility.yul\":2459:2558   */\n          swap2\n          pop\n            /* \"#utility.yul\":2282:2564   */\n          pop\n            /* \"#utility.yul\":2209:2564   */\n          swap3\n          swap2\n          pop\n          pop\n          jump\t// out\n            /* \"#utility.yul\":2570:2647   */\n        tag_59:\n            /* \"#utility.yul\":2607:2614   */\n          0x00\n            /* \"#utility.yul\":2636:2641   */\n          dup2\n            /* \"#utility.yul\":2625:2641   */\n          swap1\n          pop\n            /* \"#utility.yul\":2570:2647   */\n          swap2\n          swap1\n          pop\n          jump\t// out\n            /* \"#utility.yul\":2653:2775   */\n        tag_60:\n            /* \"#utility.yul\":2726:2750   */\n          tag_123\n            /* \"#utility.yul\":2744:2749   */\n          dup2\n            /* \"#utility.yul\":2726:2750   */\n          tag_59\n          jump\t// in\n        tag_123:\n            /* \"#utility.yul\":2719:2724   */\n          dup2\n            /* \"#utility.yul\":2716:2751   */\n          eq\n            /* \"#utility.yul\":2706:2769   */\n          tag_124\n          jumpi\n            /* \"#utility.yul\":2765:2766   */\n          0x00\n            /* \"#utility.yul\":2762:2763   */\n          0x00\n            /* \"#utility.yul\":2755:2767   */\n          revert\n            /* \"#utility.yul\":2706:2769   */\n        tag_124:\n            /* \"#utility.yul\":2653:2775   */\n          pop\n          jump\t// out\n            /* \"#utility.yul\":2781:2924   */\n        tag_61:\n            /* \"#utility.yul\":2838:2843   */\n          0x00\n            /* \"#utility.yul\":2869:2875   */\n          dup2\n            /* \"#utility.yul\":2863:2876   */\n          mload\n            /* \"#utility.yul\":2854:2876   */\n          swap1\n          pop\n            /* \"#utility.yul\":2885:2918   */\n          tag_126\n            /* \"#utility.yul\":2912:2917   */\n          dup2\n            /* \"#utility.yul\":2885:2918   */\n          tag_60\n          jump\t// in\n        tag_126:\n            /* \"#utility.yul\":2781:2924   */\n          swap3\n          swap2\n          pop\n          pop\n          jump\t// out\n            /* \"#utility.yul\":2930:3056   */\n        tag_62:\n            /* \"#utility.yul\":2967:2974   */\n          0x00\n            /* \"#utility.yul\":3007:3049   */\n          0xffffffffffffffffffffffffffffffffffffffff\n            /* \"#utility.yul\":3000:3005   */\n          dup3\n            /* \"#utility.yul\":2996:3050   */\n          and\n            /* \"#utility.yul\":2985:3050   */\n          swap1\n          pop\n            /* \"#utility.yul\":2930:3056   */\n          swap2\n          swap1\n          pop\n          jump\t// out\n            /* \"#utility.yul\":3062:3158   */\n        tag_63:\n            /* \"#utility.yul\":3099:3106   */\n          0x00\n            /* \"#utility.yul\":3128:3152   */\n          tag_129\n            /* \"#utility.yul\":3146:3151   */\n          dup3\n            /* \"#utility.yul\":3128:3152   */\n          tag_62\n          jump\t// in\n        tag_129:\n            /* \"#utility.yul\":3117:3152   */\n          swap1\n          pop\n            /* \"#utility.yul\":3062:3158   */\n          swap2\n          swap1\n          pop\n          jump\t// out\n            /* \"#utility.yul\":3164:3286   */\n        tag_64:\n            /* \"#utility.yul\":3237:3261   */\n          tag_131\n            /* \"#utility.yul\":3255:3260   */\n          dup2\n            /* \"#utility.yul\":3237:3261   */\n          tag_63\n          jump\t// in\n        tag_131:\n            /* \"#utility.yul\":3230:3235   */\n          dup2\n            /* \"#utility.yul\":3227:3262   */\n          eq\n            /* \"#utility.yul\":3217:3280   */\n          tag_132\n          jumpi\n            /* \"#utility.yul\":3276:3277   */\n          0x00\n            /* \"#utility.yul\":3273:3274   */\n          0x00\n            /* \"#utility.yul\":3266:3278   */\n          revert\n            /* \"#utility.yul\":3217:3280   */\n        tag_132:\n            /* \"#utility.yul\":3164:3286   */\n          pop\n          jump\t// out\n            /* \"#utility.yul\":3292:3435   */\n        tag_65:\n            /* \"#utility.yul\":3349:3354   */\n          0x00\n            /* \"#utility.yul\":3380:3386   */\n          dup2\n            /* \"#utility.yul\":3374:3387   */\n          mload\n            /* \"#utility.yul\":3365:3387   */\n          swap1\n          pop\n            /* \"#utility.yul\":3396:3429   */\n          tag_134\n            /* \"#utility.yul\":3423:3428   */\n          dup2\n            /* \"#utility.yul\":3396:3429   */\n          tag_64\n          jump\t// in\n        tag_134:\n            /* \"#utility.yul\":3292:3435   */\n          swap3\n          swap2\n          pop\n          pop\n          jump\t// out\n            /* \"#utility.yul\":3441:4607   */\n        tag_3:\n            /* \"#utility.yul\":3558:3564   */\n          0x00\n            /* \"#utility.yul\":3566:3572   */\n          0x00\n            /* \"#utility.yul\":3574:3580   */\n          0x00\n            /* \"#utility.yul\":3582:3588   */\n          0x00\n            /* \"#utility.yul\":3631:3634   */\n          0x80\n            /* \"#utility.yul\":3619:3628   */\n          dup6\n            /* \"#utility.yul\":3610:3617   */\n          dup8\n            /* \"#utility.yul\":3606:3629   */\n          sub\n            /* \"#utility.yul\":3602:3635   */\n          slt\n            /* \"#utility.yul\":3599:3719   */\n          iszero\n          tag_136\n          jumpi\n            /* \"#utility.yul\":3638:3717   */\n          tag_137\n          tag_47\n          jump\t// in\n        tag_137:\n            /* \"#utility.yul\":3599:3719   */\n        tag_136:\n            /* \"#utility.yul\":3779:3780   */\n          0x00\n            /* \"#utility.yul\":3768:3777   */\n          dup6\n            /* \"#utility.yul\":3764:3781   */\n          add\n            /* \"#utility.yul\":3758:3782   */\n          mload\n            /* \"#utility.yul\":3809:3827   */\n          0xffffffffffffffff\n            /* \"#utility.yul\":3801:3807   */\n          dup2\n            /* \"#utility.yul\":3798:3828   */\n          gt\n            /* \"#utility.yul\":3795:3912   */\n          iszero\n          tag_138\n          jumpi\n            /* \"#utility.yul\":3831:3910   */\n          tag_139\n          tag_48\n          jump\t// in\n        tag_139:\n            /* \"#utility.yul\":3795:3912   */\n        tag_138:\n            /* \"#utility.yul\":3936:4010   */\n          tag_140\n            /* \"#utility.yul\":4002:4009   */\n          dup8\n            /* \"#utility.yul\":3993:3999   */\n          dup3\n            /* \"#utility.yul\":3982:3991   */\n          dup9\n            /* \"#utility.yul\":3978:4000   */\n          add\n            /* \"#utility.yul\":3936:4010   */\n          tag_58\n          jump\t// in\n        tag_140:\n            /* \"#utility.yul\":3926:4010   */\n          swap5\n          pop\n            /* \"#utility.yul\":3729:4020   */\n          pop\n            /* \"#utility.yul\":4080:4082   */\n          0x20\n            /* \"#utility.yul\":4069:4078   */\n          dup6\n            /* \"#utility.yul\":4065:4083   */\n          add\n            /* \"#utility.yul\":4059:4084   */\n          mload\n            /* \"#utility.yul\":4111:4129   */\n          0xffffffffffffffff\n            /* \"#utility.yul\":4103:4109   */\n          dup2\n            /* \"#utility.yul\":4100:4130   */\n          gt\n            /* \"#utility.yul\":4097:4214   */\n          iszero\n          tag_141\n          jumpi\n            /* \"#utility.yul\":4133:4212   */\n          tag_142\n          tag_48\n          jump\t// in\n        tag_142:\n            /* \"#utility.yul\":4097:4214   */\n        tag_141:\n            /* \"#utility.yul\":4238:4312   */\n          tag_143\n            /* \"#utility.yul\":4304:4311   */\n          dup8\n            /* \"#utility.yul\":4295:4301   */\n          dup3\n            /* \"#utility.yul\":4284:4293   */\n          dup9\n            /* \"#utility.yul\":4280:4302   */\n          add\n            /* \"#utility.yul\":4238:4312   */\n          tag_58\n          jump\t// in\n        tag_143:\n            /* \"#utility.yul\":4228:4312   */\n          swap4\n          pop\n            /* \"#utility.yul\":4030:4322   */\n          pop\n            /* \"#utility.yul\":4361:4363   */\n          0x40\n            /* \"#utility.yul\":4387:4451   */\n          tag_144\n            /* \"#utility.yul\":4443:4450   */\n          dup8\n            /* \"#utility.yul\":4434:4440   */\n          dup3\n            /* \"#utility.yul\":4423:4432   */\n          dup9\n            /* \"#utility.yul\":4419:4441   */\n          add\n            /* \"#utility.yul\":4387:4451   */\n          tag_61\n          jump\t// in\n        tag_144:\n            /* \"#utility.yul\":4377:4451   */\n          swap3\n          pop\n            /* \"#utility.yul\":4332:4461   */\n          pop\n            /* \"#utility.yul\":4500:4502   */\n          0x60\n            /* \"#utility.yul\":4526:4590   */\n          tag_145\n            /* \"#utility.yul\":4582:4589   */\n          dup8\n            /* \"#utility.yul\":4573:4579   */\n          dup3\n            /* \"#utility.yul\":4562:4571   */\n          dup9\n            /* \"#utility.yul\":4558:4580   */\n          add\n            /* \"#utility.yul\":4526:4590   */\n          tag_65\n          jump\t// in\n        tag_145:\n            /* \"#utility.yul\":4516:4590   */\n          swap2\n          pop\n            /* \"#utility.yul\":4471:4600   */\n          pop\n            /* \"#utility.yul\":3441:4607   */\n          swap3\n          swap6\n          swap2\n          swap5\n          pop\n          swap3\n          pop\n          jump\t// out\n            /* \"#utility.yul\":4613:4712   */\n        tag_66:\n            /* \"#utility.yul\":4665:4671   */\n          0x00\n            /* \"#utility.yul\":4699:4704   */\n          dup2\n            /* \"#utility.yul\":4693:4705   */\n          mload\n            /* \"#utility.yul\":4683:4705   */\n          swap1\n          pop\n            /* \"#utility.yul\":4613:4712   */\n          swap2\n          swap1\n          pop\n          jump\t// out\n            /* \"#utility.yul\":4718:4898   */\n        tag_67:\n            /* \"#utility.yul\":4766:4843   */\n          0x4e487b7100000000000000000000000000000000000000000000000000000000\n            /* \"#utility.yul\":4763:4764   */\n          0x00\n            /* \"#utility.yul\":4756:4844   */\n          mstore\n            /* \"#utility.yul\":4863:4867   */\n          0x22\n            /* \"#utility.yul\":4860:4861   */\n          0x04\n            /* \"#utility.yul\":4853:4868   */\n          mstore\n            /* \"#utility.yul\":4887:4891   */\n          0x24\n            /* \"#utility.yul\":4884:4885   */\n          0x00\n            /* \"#utility.yul\":4877:4892   */\n          revert\n            /* \"#utility.yul\":4904:5224   */\n        tag_68:\n            /* \"#utility.yul\":4948:4954   */\n          0x00\n            /* \"#utility.yul\":4985:4986   */\n          0x02\n            /* \"#utility.yul\":4979:4983   */\n          dup3\n            /* \"#utility.yul\":4975:4987   */\n          div\n            /* \"#utility.yul\":4965:4987   */\n          swap1\n          pop\n            /* \"#utility.yul\":5032:5033   */\n          0x01\n            /* \"#utility.yul\":5026:5030   */\n          dup3\n            /* \"#utility.yul\":5022:5034   */\n          and\n            /* \"#utility.yul\":5053:5071   */\n          dup1\n            /* \"#utility.yul\":5043:5124   */\n          tag_149\n          jumpi\n            /* \"#utility.yul\":5109:5113   */\n          0x7f\n            /* \"#utility.yul\":5101:5107   */\n          dup3\n            /* \"#utility.yul\":5097:5114   */\n          and\n            /* \"#utility.yul\":5087:5114   */\n          swap2\n          pop\n            /* \"#utility.yul\":5043:5124   */\n        tag_149:\n            /* \"#utility.yul\":5171:5173   */\n          0x20\n            /* \"#utility.yul\":5163:5169   */\n          dup3\n            /* \"#utility.yul\":5160:5174   */\n          lt\n            /* \"#utility.yul\":5140:5158   */\n          dup2\n            /* \"#utility.yul\":5137:5175   */\n          sub\n            /* \"#utility.yul\":5134:5218   */\n          tag_150\n          jumpi\n            /* \"#utility.yul\":5190:5208   */\n          tag_151\n          tag_67\n          jump\t// in\n        tag_151:\n            /* \"#utility.yul\":5134:5218   */\n        tag_150:\n            /* \"#utility.yul\":4955:5224   */\n          pop\n            /* \"#utility.yul\":4904:5224   */\n          swap2\n          swap1\n          pop\n          jump\t// out\n            /* \"#utility.yul\":5230:5371   */\n        tag_69:\n            /* \"#utility.yul\":5279:5283   */\n          0x00\n            /* \"#utility.yul\":5302:5305   */\n          dup2\n            /* \"#utility.yul\":5294:5305   */\n          swap1\n          pop\n            /* \"#utility.yul\":5325:5328   */\n          dup2\n            /* \"#utility.yul\":5322:5323   */\n          0x00\n            /* \"#utility.yul\":5315:5329   */\n          mstore\n            /* \"#utility.yul\":5359:5363   */\n          0x20\n            /* \"#utility.yul\":5356:5357   */\n          0x00\n            /* \"#utility.yul\":5346:5364   */\n          keccak256\n            /* \"#utility.yul\":5338:5364   */\n          swap1\n          pop\n            /* \"#utility.yul\":5230:5371   */\n          swap2\n          swap1\n          pop\n          jump\t// out\n            /* \"#utility.yul\":5377:5470   */\n        tag_70:\n            /* \"#utility.yul\":5414:5420   */\n          0x00\n            /* \"#utility.yul\":5461:5463   */\n          0x20\n            /* \"#utility.yul\":5456:5458   */\n          0x1f\n            /* \"#utility.yul\":5449:5454   */\n          dup4\n            /* \"#utility.yul\":5445:5459   */\n          add\n            /* \"#utility.yul\":5441:5464   */\n          div\n            /* \"#utility.yul\":5431:5464   */\n          swap1\n          pop\n            /* \"#utility.yul\":5377:5470   */\n          swap2\n          swap1\n          pop\n          jump\t// out\n            /* \"#utility.yul\":5476:5583   */\n        tag_71:\n            /* \"#utility.yul\":5520:5528   */\n          0x00\n            /* \"#utility.yul\":5570:5575   */\n          dup3\n            /* \"#utility.yul\":5564:5568   */\n          dup3\n            /* \"#utility.yul\":5560:5576   */\n          shl\n            /* \"#utility.yul\":5539:5576   */\n          swap1\n          pop\n            /* \"#utility.yul\":5476:5583   */\n          swap3\n          swap2\n          pop\n          pop\n          jump\t// out\n            /* \"#utility.yul\":5589:5982   */\n        tag_72:\n            /* \"#utility.yul\":5658:5664   */\n          0x00\n            /* \"#utility.yul\":5708:5709   */\n          0x08\n            /* \"#utility.yul\":5696:5706   */\n          dup4\n            /* \"#utility.yul\":5692:5710   */\n          mul\n            /* \"#utility.yul\":5731:5828   */\n          tag_156\n            /* \"#utility.yul\":5761:5827   */\n          0xffffffffffffffffffffffffffffffffffffffffffffffffffffffffffffffff\n            /* \"#utility.yul\":5750:5759   */\n          dup3\n            /* \"#utility.yul\":5731:5828   */\n          tag_71\n          jump\t// in\n        tag_156:\n            /* \"#utility.yul\":5849:5888   */\n          tag_157\n            /* \"#utility.yul\":5879:5887   */\n          dup7\n            /* \"#utility.yul\":5868:5877   */\n          dup4\n            /* \"#utility.yul\":5849:5888   */\n          tag_71\n          jump\t// in\n        tag_157:\n            /* \"#utility.yul\":5837:5888   */\n          swap6\n          pop\n            /* \"#utility.yul\":5921:5925   */\n          dup1\n            /* \"#utility.yul\":5917:5926   */\n          not\n            /* \"#utility.yul\":5910:5915   */\n          dup5\n            /* \"#utility.yul\":5906:5927   */\n          and\n            /* \"#utility.yul\":5897:5927   */\n          swap4\n          pop\n            /* \"#utility.yul\":5970:5974   */\n          dup1\n            /* \"#utility.yul\":5960:5968   */\n          dup7\n            /* \"#utility.yul\":5956:5975   */\n          and\n            /* \"#utility.yul\":5949:5954   */\n          dup5\n            /* \"#utility.yul\":5946:5976   */\n          or\n            /* \"#utility.yul\":5936:5976   */\n          swap3\n          pop\n            /* \"#utility.yul\":5665:5982   */\n          pop\n          pop\n            /* \"#utility.yul\":5589:5982   */\n          swap4\n          swap3\n          pop\n          pop\n          pop\n          jump\t// out\n            /* \"#utility.yul\":5988:6048   */\n        tag_73:\n            /* \"#utility.yul\":6016:6019   */\n          0x00\n            /* \"#utility.yul\":6037:6042   */\n          dup2\n            /* \"#utility.yul\":6030:6042   */\n          swap1\n          pop\n            /* \"#utility.yul\":5988:6048   */\n          swap2\n          swap1\n          pop\n          jump\t// out\n            /* \"#utility.yul\":6054:6196   */\n        tag_74:\n            /* \"#utility.yul\":6104:6113   */\n          0x00\n            /* \"#utility.yul\":6137:6190   */\n          tag_160\n            /* \"#utility.yul\":6155:6189   */\n          tag_161\n            /* \"#utility.yul\":6164:6188   */\n          tag_162\n            /* \"#utility.yul\":6182:6187   */\n          dup5\n            /* \"#utility.yul\":6164:6188   */\n          tag_59\n          jump\t// in\n        tag_162:\n            /* \"#utility.yul\":6155:6189   */\n          tag_73\n          jump\t// in\n        tag_161:\n            /* \"#utility.yul\":6137:6190   */\n          tag_59\n          jump\t// in\n        tag_160:\n            /* \"#utility.yul\":6124:6190   */\n          swap1\n          pop\n            /* \"#utility.yul\":6054:6196   */\n          swap2\n          swap1\n          pop\n          jump\t// out\n            /* \"#utility.yul\":6202:6277   */\n        tag_75:\n            /* \"#utility.yul\":6245:6248   */\n          0x00\n            /* \"#utility.yul\":6266:6271   */\n          dup2\n            /* \"#utility.yul\":6259:6271   */\n          swap1\n          pop\n            /* \"#utility.yul\":6202:6277   */\n          swap2\n          swap1\n          pop\n          jump\t// out\n            /* \"#utility.yul\":6283:6552   */\n        tag_76:\n            /* \"#utility.yul\":6393:6432   */\n          tag_165\n            /* \"#utility.yul\":6424:6431   */\n          dup4\n            /* \"#utility.yul\":6393:6432   */\n          tag_74\n          jump\t// in\n        tag_165:\n            /* \"#utility.yul\":6454:6545   */\n          tag_166\n            /* \"#utility.yul\":6503:6544   */\n          tag_167\n            /* \"#utility.yul\":6527:6543   */\n          dup3\n            /* \"#utility.yul\":6503:6544   */\n          tag_75\n          jump\t// in\n        tag_167:\n            /* \"#utility.yul\":6495:6501   */\n          dup5\n            /* \"#utility.yul\":6488:6492   */\n          dup5\n            /* \"#utility.yul\":6482:6493   */\n          sload\n            /* \"#utility.yul\":6454:6545   */\n          tag_72\n          jump\t// in\n        tag_166:\n            /* \"#utility.yul\":6448:6452   */\n          dup3\n            /* \"#utility.yul\":6441:6546   */\n          sstore\n            /* \"#utility.yul\":6359:6552   */\n          pop\n            /* \"#utility.yul\":6283:6552   */\n          pop\n          pop\n          pop\n          jump\t// out\n            /* \"#utility.yul\":6558:6631   */\n        tag_77:\n            /* \"#utility.yul\":6603:6606   */\n          0x00\n            /* \"#utility.yul\":6624:6625   */\n          0x00\n            /* \"#utility.yul\":6617:6625   */\n          swap1\n          pop\n            /* \"#utility.yul\":6558:6631   */\n          swap1\n          jump\t// out\n            /* \"#utility.yul\":6637:6826   */\n        tag_78:\n            /* \"#utility.yul\":6714:6746   */\n          tag_170\n          tag_77\n          jump\t// in\n        tag_170:\n            /* \"#utility.yul\":6755:6820   */\n          tag_171\n            /* \"#utility.yul\":6813:6819   */\n          dup2\n            /* \"#utility.yul\":6805:6811   */\n          dup5\n            /* \"#utility.yul\":6799:6803   */\n          dup5\n            /* \"#utility.yul\":6755:6820   */\n          tag_76\n          jump\t// in\n        tag_171:\n            /* \"#utility.yul\":6690:6826   */\n          pop\n            /* \"#utility.yul\":6637:6826   */\n          pop\n          pop\n          jump\t// out\n            /* \"#utility.yul\":6832:7018   */\n        tag_79:\n            /* \"#utility.yul\":6892:7012   */\n        tag_173:\n            /* \"#utility.yul\":6909:6912   */\n          dup2\n            /* \"#utility.yul\":6902:6907   */\n          dup2\n            /* \"#utility.yul\":6899:6913   */\n          lt\n            /* \"#utility.yul\":6892:7012   */\n          iszero\n          tag_175\n          jumpi\n            /* \"#utility.yul\":6963:7002   */\n          tag_176\n            /* \"#utility.yul\":7000:7001   */\n          0x00\n            /* \"#utility.yul\":6993:6998   */\n          dup3\n            /* \"#utility.yul\":6963:7002   */\n          tag_78\n          jump\t// in\n        tag_176:\n            /* \"#utility.yul\":6936:6937   */\n          0x01\n            /* \"#utility.yul\":6929:6934   */\n          dup2\n            /* \"#utility.yul\":6925:6938   */\n          add\n            /* \"#utility.yul\":6916:6938   */\n          swap1\n          pop\n            /* \"#utility.yul\":6892:7012   */\n          jump(tag_173)\n        tag_175:\n            /* \"#utility.yul\":6832:7018   */\n          pop\n          pop\n          jump\t// out\n            /* \"#utility.yul\":7024:7567   */\n        tag_80:\n            /* \"#utility.yul\":7125:7127   */\n          0x1f\n            /* \"#utility.yul\":7120:7123   */\n          dup3\n            /* \"#utility.yul\":7117:7128   */\n          gt\n            /* \"#utility.yul\":7114:7560   */\n          iszero\n          tag_178\n          jumpi\n            /* \"#utility.yul\":7159:7197   */\n          tag_179\n            /* \"#utility.yul\":7191:7196   */\n          dup2\n            /* \"#utility.yul\":7159:7197   */\n          tag_69\n          jump\t// in\n        tag_179:\n            /* \"#utility.yul\":7243:7272   */\n          tag_180\n            /* \"#utility.yul\":7261:7271   */\n          dup5\n            /* \"#utility.yul\":7243:7272   */\n          tag_70\n          jump\t// in\n        tag_180:\n            /* \"#utility.yul\":7233:7241   */\n          dup2\n            /* \"#utility.yul\":7229:7273   */\n          add\n            /* \"#utility.yul\":7426:7428   */\n          0x20\n            /* \"#utility.yul\":7414:7424   */\n          dup6\n            /* \"#utility.yul\":7411:7429   */\n          lt\n            /* \"#utility.yul\":7408:7457   */\n          iszero\n          tag_181\n          jumpi\n            /* \"#utility.yul\":7447:7455   */\n          dup2\n            /* \"#utility.yul\":7432:7455   */\n          swap1\n          pop\n            /* \"#utility.yul\":7408:7457   */\n        tag_181:\n            /* \"#utility.yul\":7470:7550   */\n          tag_182\n            /* \"#utility.yul\":7526:7548   */\n          tag_183\n            /* \"#utility.yul\":7544:7547   */\n          dup6\n            /* \"#utility.yul\":7526:7548   */\n          tag_70\n          jump\t// in\n        tag_183:\n            /* \"#utility.yul\":7516:7524   */\n          dup4\n            /* \"#utility.yul\":7512:7549   */\n          add\n            /* \"#utility.yul\":7499:7510   */\n          dup3\n            /* \"#utility.yul\":7470:7550   */\n          tag_79\n          jump\t// in\n        tag_182:\n            /* \"#utility.yul\":7129:7560   */\n          pop\n          pop\n            /* \"#utility.yul\":7114:7560   */\n        tag_178:\n            /* \"#utility.yul\":7024:7567   */\n          pop\n          pop\n          pop\n          jump\t// out\n            /* \"#utility.yul\":7573:7690   */\n        tag_81:\n            /* \"#utility.yul\":7627:7635   */\n          0x00\n            /* \"#utility.yul\":7677:7682   */\n          dup3\n            /* \"#utility.yul\":7671:7675   */\n          dup3\n            /* \"#utility.yul\":7667:7683   */\n          shr\n            /* \"#utility.yul\":7646:7683   */\n          swap1\n          pop\n            /* \"#utility.yul\":7573:7690   */\n          swap3\n          swap2\n          pop\n          pop\n          jump\t// out\n            /* \"#utility.yul\":7696:7865   */\n        tag_82:\n            /* \"#utility.yul\":7740:7746   */\n          0x00\n            /* \"#utility.yul\":7773:7824   */\n          tag_186\n            /* \"#utility.yul\":7821:7822   */\n          0x00\n            /* \"#utility.yul\":7817:7823   */\n          not\n            /* \"#utility.yul\":7809:7814   */\n          dup5\n            /* \"#utility.yul\":7806:7807   */\n          0x08\n            /* \"#utility.yul\":7802:7815   */\n          mul\n            /* \"#utility.yul\":7773:7824   */\n          tag_81\n          jump\t// in\n        tag_186:\n            /* \"#utility.yul\":7769:7825   */\n          not\n            /* \"#utility.yul\":7854:7858   */\n          dup1\n            /* \"#utility.yul\":7848:7852   */\n          dup4\n            /* \"#utility.yul\":7844:7859   */\n          and\n            /* \"#utility.yul\":7834:7859   */\n          swap2\n          pop\n            /* \"#utility.yul\":7747:7865   */\n          pop\n            /* \"#utility.yul\":7696:7865   */\n          swap3\n          swap2\n          pop\n          pop\n          jump\t// out\n            /* \"#utility.yul\":7870:8165   */\n        tag_83:\n            /* \"#utility.yul\":7946:7950   */\n          0x00\n            /* \"#utility.yul\":8092:8121   */\n          tag_188\n            /* \"#utility.yul\":8117:8120   */\n          dup4\n            /* \"#utility.yul\":8111:8115   */\n          dup4\n            /* \"#utility.yul\":8092:8121   */\n          tag_82\n          jump\t// in\n        tag_188:\n            /* \"#utility.yul\":8084:8121   */\n          swap2\n          pop\n            /* \"#utility.yul\":8154:8157   */\n          dup3\n            /* \"#utility.yul\":8151:8152   */\n          0x02\n            /* \"#utility.yul\":8147:8158   */\n          mul\n            /* \"#utility.yul\":8141:8145   */\n          dup3\n            /* \"#utility.yul\":8138:8159   */\n          or\n            /* \"#utility.yul\":8130:8159   */\n          swap1\n          pop\n            /* \"#utility.yul\":7870:8165   */\n          swap3\n          swap2\n          pop\n          pop\n          jump\t// out\n            /* \"#utility.yul\":8170:9565   */\n        tag_9:\n            /* \"#utility.yul\":8287:8324   */\n          tag_190\n            /* \"#utility.yul\":8320:8323   */\n          dup3\n            /* \"#utility.yul\":8287:8324   */\n          tag_66\n          jump\t// in\n        tag_190:\n            /* \"#utility.yul\":8389:8407   */\n          0xffffffffffffffff\n            /* \"#utility.yul\":8381:8387   */\n          dup2\n            /* \"#utility.yul\":8378:8408   */\n          gt\n            /* \"#utility.yul\":8375:8431   */\n          iszero\n          tag_191\n          jumpi\n            /* \"#utility.yul\":8411:8429   */\n          tag_192\n          tag_52\n          jump\t// in\n        tag_192:\n            /* \"#utility.yul\":8375:8431   */\n        tag_191:\n            /* \"#utility.yul\":8455:8493   */\n          tag_193\n            /* \"#utility.yul\":8487:8491   */\n          dup3\n            /* \"#utility.yul\":8481:8492   */\n          sload\n            /* \"#utility.yul\":8455:8493   */\n          tag_68\n          jump\t// in\n        tag_193:\n            /* \"#utility.yul\":8540:8607   */\n          tag_194\n            /* \"#utility.yul\":8600:8606   */\n          dup3\n            /* \"#utility.yul\":8592:8598   */\n          dup3\n            /* \"#utility.yul\":8586:8590   */\n          dup6\n            /* \"#utility.yul\":8540:8607   */\n          tag_80\n          jump\t// in\n        tag_194:\n            /* \"#utility.yul\":8634:8635   */\n          0x00\n            /* \"#utility.yul\":8658:8662   */\n          0x20\n            /* \"#utility.yul\":8645:8662   */\n          swap1\n          pop\n            /* \"#utility.yul\":8690:8692   */\n          0x1f\n            /* \"#utility.yul\":8682:8688   */\n          dup4\n            /* \"#utility.yul\":8679:8693   */\n          gt\n            /* \"#utility.yul\":8707:8708   */\n          0x01\n            /* \"#utility.yul\":8702:9320   */\n          dup2\n          eq\n          tag_196\n          jumpi\n            /* \"#utility.yul\":9364:9365   */\n          0x00\n            /* \"#utility.yul\":9381:9387   */\n          dup5\n            /* \"#utility.yul\":9378:9455   */\n          iszero\n          tag_197\n          jumpi\n            /* \"#utility.yul\":9430:9439   */\n          dup3\n            /* \"#utility.yul\":9425:9428   */\n          dup8\n            /* \"#utility.yul\":9421:9440   */\n          add\n            /* \"#utility.yul\":9415:9441   */\n          mload\n            /* \"#utility.yul\":9406:9441   */\n          swap1\n          pop\n            /* \"#utility.yul\":9378:9455   */\n        tag_197:\n            /* \"#utility.yul\":9481:9548   */\n          tag_198\n            /* \"#utility.yul\":9541:9547   */\n          dup6\n            /* \"#utility.yul\":9534:9539   */\n          dup3\n            /* \"#utility.yul\":9481:9548   */\n          tag_83\n          jump\t// in\n        tag_198:\n            /* \"#utility.yul\":9475:9479   */\n          dup7\n            /* \"#utility.yul\":9468:9549   */\n          sstore\n            /* \"#utility.yul\":9337:9559   */\n          pop\n            /* \"#utility.yul\":8672:9559   */\n          jump(tag_195)\n            /* \"#utility.yul\":8702:9320   */\n        tag_196:\n            /* \"#utility.yul\":8754:8758   */\n          0x1f\n            /* \"#utility.yul\":8750:8759   */\n          not\n            /* \"#utility.yul\":8742:8748   */\n          dup5\n            /* \"#utility.yul\":8738:8760   */\n          and\n            /* \"#utility.yul\":8788:8825   */\n          tag_199\n            /* \"#utility.yul\":8820:8824   */\n          dup7\n            /* \"#utility.yul\":8788:8825   */\n          tag_69\n          jump\t// in\n        tag_199:\n            /* \"#utility.yul\":8847:8848   */\n          0x00\n            /* \"#utility.yul\":8861:9069   */\n        tag_200:\n            /* \"#utility.yul\":8875:8882   */\n          dup3\n            /* \"#utility.yul\":8872:8873   */\n          dup2\n            /* \"#utility.yul\":8869:8883   */\n          lt\n            /* \"#utility.yul\":8861:9069   */\n          iszero\n          tag_202\n          jumpi\n            /* \"#utility.yul\":8954:8963   */\n          dup5\n            /* \"#utility.yul\":8949:8952   */\n          dup10\n            /* \"#utility.yul\":8945:8964   */\n          add\n            /* \"#utility.yul\":8939:8965   */\n          mload\n            /* \"#utility.yul\":8931:8937   */\n          dup3\n            /* \"#utility.yul\":8924:8966   */\n          sstore\n            /* \"#utility.yul\":9005:9006   */\n          0x01\n            /* \"#utility.yul\":8997:9003   */\n          dup3\n            /* \"#utility.yul\":8993:9007   */\n          add\n            /* \"#utility.yul\":8983:9007   */\n          swap2\n          pop\n            /* \"#utility.yul\":9052:9054   */\n          0x20\n            /* \"#utility.yul\":9041:9050   */\n          dup6\n            /* \"#utility.yul\":9037:9055   */\n          add\n            /* \"#utility.yul\":9024:9055   */\n          swap5\n          pop\n            /* \"#utility.yul\":8898:8902   */\n          0x20\n            /* \"#utility.yul\":8895:8896   */\n          dup2\n            /* \"#utility.yul\":8891:8903   */\n          add\n            /* \"#utility.yul\":8886:8903   */\n          swap1\n          pop\n            /* \"#utility.yul\":8861:9069   */\n          jump(tag_200)\n        tag_202:\n            /* \"#utility.yul\":9097:9103   */\n          dup7\n            /* \"#utility.yul\":9088:9095   */\n          dup4\n            /* \"#utility.yul\":9085:9104   */\n          lt\n            /* \"#utility.yul\":9082:9261   */\n          iszero\n          tag_203\n          jumpi\n            /* \"#utility.yul\":9155:9164   */\n          dup5\n            /* \"#utility.yul\":9150:9153   */\n          dup10\n            /* \"#utility.yul\":9146:9165   */\n          add\n            /* \"#utility.yul\":9140:9166   */\n          mload\n            /* \"#utility.yul\":9198:9246   */\n          tag_204\n            /* \"#utility.yul\":9240:9244   */\n          0x1f\n            /* \"#utility.yul\":9232:9238   */\n          dup10\n            /* \"#utility.yul\":9228:9245   */\n          and\n            /* \"#utility.yul\":9217:9226   */\n          dup3\n            /* \"#utility.yul\":9198:9246   */\n          tag_82\n          jump\t// in\n        tag_204:\n            /* \"#utility.yul\":9190:9196   */\n          dup4\n            /* \"#utility.yul\":9183:9247   */\n          sstore\n            /* \"#utility.yul\":9105:9261   */\n          pop\n            /* \"#utility.yul\":9082:9261   */\n        tag_203:\n            /* \"#utility.yul\":9307:9308   */\n          0x01\n            /* \"#utility.yul\":9303:9304   */\n          0x02\n            /* \"#utility.yul\":9295:9301   */\n          dup9\n            /* \"#utility.yul\":9291:9305   */\n          mul\n            /* \"#utility.yul\":9287:9309   */\n          add\n            /* \"#utility.yul\":9281:9285   */\n          dup9\n            /* \"#utility.yul\":9274:9310   */\n          sstore\n            /* \"#utility.yul\":8709:9320   */\n          pop\n          pop\n          pop\n            /* \"#utility.yul\":8672:9559   */\n        tag_195:\n          pop\n            /* \"#utility.yul\":8262:9565   */\n          pop\n          pop\n          pop\n            /* \"#utility.yul\":8170:9565   */\n          pop\n          pop\n          jump\t// out\n            /* \"#utility.yul\":9571:9689   */\n        tag_84:\n            /* \"#utility.yul\":9658:9682   */\n          tag_206\n            /* \"#utility.yul\":9676:9681   */\n          dup2\n            /* \"#utility.yul\":9658:9682   */\n          tag_63\n          jump\t// in\n        tag_206:\n            /* \"#utility.yul\":9653:9656   */\n          dup3\n            /* \"#utility.yul\":9646:9683   */\n          mstore\n            /* \"#utility.yul\":9571:9689   */\n          pop\n          pop\n          jump\t// out\n            /* \"#utility.yul\":9695:9917   */\n        tag_14:\n            /* \"#utility.yul\":9788:9792   */\n          0x00\n            /* \"#utility.yul\":9826:9828   */\n          0x20\n            /* \"#utility.yul\":9815:9824   */\n          dup3\n            /* \"#utility.yul\":9811:9829   */\n          add\n            /* \"#utility.yul\":9803:9829   */\n          swap1\n          pop\n            /* \"#utility.yul\":9839:9910   */\n          tag_208\n            /* \"#utility.yul\":9907:9908   */\n          0x00\n            /* \"#utility.yul\":9896:9905   */\n          dup4\n            /* \"#utility.yul\":9892:9909   */\n          add\n            /* \"#utility.yul\":9883:9889   */\n          dup5\n            /* \"#utility.yul\":9839:9910   */\n          tag_84\n          jump\t// in\n        tag_208:\n            /* \"#utility.yul\":9695:9917   */\n          swap3\n          swap2\n          pop\n          pop\n          jump\t// out\n            /* \"#utility.yul\":9923:10103   */\n        tag_85:\n            /* \"#utility.yul\":9971:10048   */\n          0x4e487b7100000000000000000000000000000000000000000000000000000000\n            /* \"#utility.yul\":9968:9969   */\n          0x00\n            /* \"#utility.yul\":9961:10049   */\n          mstore\n            /* \"#utility.yul\":10068:10072   */\n          0x11\n            /* \"#utility.yul\":10065:10066   */\n          0x04\n            /* \"#utility.yul\":10058:10073   */\n          mstore\n            /* \"#utility.yul\":10092:10096   */\n          0x24\n            /* \"#utility.yul\":10089:10090   */\n          0x00\n            /* \"#utility.yul\":10082:10097   */\n          revert\n            /* \"#utility.yul\":10109:10211   */\n        tag_86:\n            /* \"#utility.yul\":10151:10159   */\n          0x00\n            /* \"#utility.yul\":10198:10203   */\n          dup2\n            /* \"#utility.yul\":10195:10196   */\n          0x01\n            /* \"#utility.yul\":10191:10204   */\n          shr\n            /* \"#utility.yul\":10170:10204   */\n          swap1\n          pop\n            /* \"#utility.yul\":10109:10211   */\n          swap2\n          swap1\n          pop\n          jump\t// out\n            /* \"#utility.yul\":10217:11065   */\n        tag_87:\n            /* \"#utility.yul\":10278:10283   */\n          0x00\n            /* \"#utility.yul\":10285:10289   */\n          0x00\n            /* \"#utility.yul\":10309:10315   */\n          dup3\n            /* \"#utility.yul\":10300:10315   */\n          swap2\n          pop\n            /* \"#utility.yul\":10333:10338   */\n          dup4\n            /* \"#utility.yul\":10324:10338   */\n          swap1\n          pop\n            /* \"#utility.yul\":10347:11059   */\n        tag_212:\n            /* \"#utility.yul\":10368:10369   */\n          0x01\n            /* \"#utility.yul\":10358:10366   */\n          dup6\n            /* \"#utility.yul\":10355:10370   */\n          gt\n            /* \"#utility.yul\":10347:11059   */\n          iszero\n          tag_214\n          jumpi\n            /* \"#utility.yul\":10463:10467   */\n          dup1\n            /* \"#utility.yul\":10458:10461   */\n          dup7\n            /* \"#utility.yul\":10454:10468   */\n          div\n            /* \"#utility.yul\":10448:10452   */\n          dup2\n            /* \"#utility.yul\":10445:10469   */\n          gt\n            /* \"#utility.yul\":10442:10492   */\n          iszero\n          tag_215\n          jumpi\n            /* \"#utility.yul\":10472:10490   */\n          tag_216\n          tag_85\n          jump\t// in\n        tag_216:\n            /* \"#utility.yul\":10442:10492   */\n        tag_215:\n            /* \"#utility.yul\":10522:10523   */\n          0x01\n            /* \"#utility.yul\":10512:10520   */\n          dup6\n            /* \"#utility.yul\":10508:10524   */\n          and\n            /* \"#utility.yul\":10505:10956   */\n          iszero\n          tag_217\n          jumpi\n            /* \"#utility.yul\":10937:10941   */\n          dup1\n            /* \"#utility.yul\":10930:10935   */\n          dup3\n            /* \"#utility.yul\":10926:10942   */\n          mul\n            /* \"#utility.yul\":10917:10942   */\n          swap2\n          pop\n            /* \"#utility.yul\":10505:10956   */\n        tag_217:\n            /* \"#utility.yul\":10987:10991   */\n          dup1\n            /* \"#utility.yul\":10981:10985   */\n          dup2\n            /* \"#utility.yul\":10977:10992   */\n          mul\n            /* \"#utility.yul\":10969:10992   */\n          swap1\n          pop\n            /* \"#utility.yul\":11017:11049   */\n          tag_218\n            /* \"#utility.yul\":11040:11048   */\n          dup6\n            /* \"#utility.yul\":11017:11049   */\n          tag_86\n          jump\t// in\n        tag_218:\n            /* \"#utility.yul\":11005:11049   */\n          swap5\n          pop\n            /* \"#utility.yul\":10347:11059   */\n          jump(tag_212)\n        tag_214:\n            /* \"#utility.yul\":10217:11065   */\n          swap5\n          pop\n          swap5\n          swap3\n          pop\n          pop\n          pop\n          jump\t// out\n            /* \"#utility.yul\":11071:12144   */\n        tag_88:\n            /* \"#utility.yul\":11125:11130   */\n          0x00\n            /* \"#utility.yul\":11316:11324   */\n          dup3\n            /* \"#utility.yul\":11306:11346   */\n          tag_220\n          jumpi\n            /* \"#utility.yul\":11337:11338   */\n          0x01\n            /* \"#utility.yul\":11328:11338   */\n          swap1\n          pop\n            /* \"#utility.yul\":11339:11344   */\n          jump(tag_219)\n            /* \"#utility.yul\":11306:11346   */\n        tag_220:\n            /* \"#utility.yul\":11365:11369   */\n          dup2\n            /* \"#utility.yul\":11355:11391   */\n          tag_221\n          jumpi\n            /* \"#utility.yul\":11382:11383   */\n          0x00\n            /* \"#utility.yul\":11373:11383   */\n          swap1\n          pop\n            /* \"#utility.yul\":11384:11389   */\n          jump(tag_219)\n            /* \"#utility.yul\":11355:11391   */\n        tag_221:\n            /* \"#utility.yul\":11451:11455   */\n          dup2\n            /* \"#utility.yul\":11499:11500   */\n          0x01\n            /* \"#utility.yul\":11494:11521   */\n          dup2\n          eq\n          tag_223\n          jumpi\n            /* \"#utility.yul\":11535:11536   */\n          0x02\n            /* \"#utility.yul\":11530:11721   */\n          dup2\n          eq\n          tag_224\n          jumpi\n            /* \"#utility.yul\":11444:11721   */\n          jump(tag_222)\n            /* \"#utility.yul\":11494:11521   */\n        tag_223:\n            /* \"#utility.yul\":11512:11513   */\n          0x01\n            /* \"#utility.yul\":11503:11513   */\n          swap2\n          pop\n            /* \"#utility.yul\":11514:11519   */\n          pop\n          jump(tag_219)\n            /* \"#utility.yul\":11530:11721   */\n        tag_224:\n            /* \"#utility.yul\":11575:11578   */\n          0xff\n            /* \"#utility.yul\":11565:11573   */\n          dup5\n            /* \"#utility.yul\":11562:11579   */\n          gt\n            /* \"#utility.yul\":11559:11602   */\n          iszero\n          tag_225\n          jumpi\n            /* \"#utility.yul\":11582:11600   */\n          tag_226\n          tag_85\n          jump\t// in\n        tag_226:\n            /* \"#utility.yul\":11559:11602   */\n        tag_225:\n            /* \"#utility.yul\":11631:11639   */\n          dup4\n            /* \"#utility.yul\":11628:11629   */\n          0x02\n            /* \"#utility.yul\":11624:11640   */\n          exp\n            /* \"#utility.yul\":11615:11640   */\n          swap2\n          pop\n            /* \"#utility.yul\":11666:11669   */\n          dup5\n            /* \"#utility.yul\":11659:11664   */\n          dup3\n            /* \"#utility.yul\":11656:11670   */\n          gt\n            /* \"#utility.yul\":11653:11693   */\n          iszero\n          tag_227\n          jumpi\n            /* \"#utility.yul\":11673:11691   */\n          tag_228\n          tag_85\n          jump\t// in\n        tag_228:\n            /* \"#utility.yul\":11653:11693   */\n        tag_227:\n            /* \"#utility.yul\":11706:11711   */\n          pop\n          jump(tag_219)\n            /* \"#utility.yul\":11444:11721   */\n        tag_222:\n          pop\n            /* \"#utility.yul\":11830:11832   */\n          0x20\n            /* \"#utility.yul\":11820:11828   */\n          dup4\n            /* \"#utility.yul\":11817:11833   */\n          lt\n            /* \"#utility.yul\":11811:11814   */\n          0x0133\n            /* \"#utility.yul\":11805:11809   */\n          dup4\n            /* \"#utility.yul\":11802:11815   */\n          lt\n            /* \"#utility.yul\":11798:11834   */\n          and\n            /* \"#utility.yul\":11780:11782   */\n          0x4e\n            /* \"#utility.yul\":11770:11778   */\n          dup5\n            /* \"#utility.yul\":11767:11783   */\n          lt\n            /* \"#utility.yul\":11762:11764   */\n          0x0b\n            /* \"#utility.yul\":11756:11760   */\n          dup5\n            /* \"#utility.yul\":11753:11765   */\n          lt\n            /* \"#utility.yul\":11749:11784   */\n          and\n            /* \"#utility.yul\":11733:11844   */\n          or\n            /* \"#utility.yul\":11730:11976   */\n          iszero\n          tag_229\n          jumpi\n            /* \"#utility.yul\":11886:11894   */\n          dup3\n            /* \"#utility.yul\":11880:11884   */\n          dup3\n            /* \"#utility.yul\":11876:11895   */\n          exp\n            /* \"#utility.yul\":11867:11895   */\n          swap1\n          pop\n            /* \"#utility.yul\":11921:11924   */\n          dup4\n            /* \"#utility.yul\":11914:11919   */\n          dup2\n            /* \"#utility.yul\":11911:11925   */\n          gt\n            /* \"#utility.yul\":11908:11948   */\n          iszero\n          tag_230\n          jumpi\n            /* \"#utility.yul\":11928:11946   */\n          tag_231\n          tag_85\n          jump\t// in\n        tag_231:\n            /* \"#utility.yul\":11908:11948   */\n        tag_230:\n            /* \"#utility.yul\":11961:11966   */\n          jump(tag_219)\n            /* \"#utility.yul\":11730:11976   */\n        tag_229:\n            /* \"#utility.yul\":12001:12043   */\n          tag_232\n            /* \"#utility.yul\":12039:12042   */\n          dup5\n            /* \"#utility.yul\":12029:12037   */\n          dup5\n            /* \"#utility.yul\":12023:12027   */\n          dup5\n            /* \"#utility.yul\":12020:12021   */\n          0x01\n            /* \"#utility.yul\":12001:12043   */\n          tag_87\n          jump\t// in\n        tag_232:\n            /* \"#utility.yul\":11986:12043   */\n          swap3\n          pop\n          swap1\n          pop\n            /* \"#utility.yul\":12075:12079   */\n          dup2\n            /* \"#utility.yul\":12070:12073   */\n          dup5\n            /* \"#utility.yul\":12066:12080   */\n          div\n            /* \"#utility.yul\":12059:12064   */\n          dup2\n            /* \"#utility.yul\":12056:12081   */\n          gt\n            /* \"#utility.yul\":12053:12104   */\n          iszero\n          tag_233\n          jumpi\n            /* \"#utility.yul\":12084:12102   */\n          tag_234\n          tag_85\n          jump\t// in\n        tag_234:\n            /* \"#utility.yul\":12053:12104   */\n        tag_233:\n            /* \"#utility.yul\":12133:12137   */\n          dup2\n            /* \"#utility.yul\":12126:12131   */\n          dup2\n            /* \"#utility.yul\":12122:12138   */\n          mul\n            /* \"#utility.yul\":12113:12138   */\n          swap1\n          pop\n            /* \"#utility.yul\":11071:12144   */\n        tag_219:\n          swap4\n          swap3\n          pop\n          pop\n          pop\n          jump\t// out\n            /* \"#utility.yul\":12150:12236   */\n        tag_89:\n            /* \"#utility.yul\":12185:12192   */\n          0x00\n            /* \"#utility.yul\":12225:12229   */\n          0xff\n            /* \"#utility.yul\":12218:12223   */\n          dup3\n            /* \"#utility.yul\":12214:12230   */\n          and\n            /* \"#utility.yul\":12203:12230   */\n          swap1\n          pop\n            /* \"#utility.yul\":12150:12236   */\n          swap2\n          swap1\n          pop\n          jump\t// out\n            /* \"#utility.yul\":12242:12523   */\n        tag_22:\n            /* \"#utility.yul\":12300:12305   */\n          0x00\n            /* \"#utility.yul\":12324:12347   */\n          tag_237\n            /* \"#utility.yul\":12342:12346   */\n          dup3\n            /* \"#utility.yul\":12324:12347   */\n          tag_59\n          jump\t// in\n        tag_237:\n            /* \"#utility.yul\":12316:12347   */\n          swap2\n          pop\n            /* \"#utility.yul\":12368:12393   */\n          tag_238\n            /* \"#utility.yul\":12384:12392   */\n          dup4\n            /* \"#utility.yul\":12368:12393   */\n          tag_89\n          jump\t// in\n        tag_238:\n            /* \"#utility.yul\":12356:12393   */\n          swap3\n          pop\n            /* \"#utility.yul\":12412:12516   */\n          tag_239\n            /* \"#utility.yul\":12449:12515   */\n          0xffffffffffffffffffffffffffffffffffffffffffffffffffffffffffffffff\n            /* \"#utility.yul\":12439:12447   */\n          dup5\n            /* \"#utility.yul\":12433:12437   */\n          dup5\n            /* \"#utility.yul\":12412:12516   */\n          tag_88\n          jump\t// in\n        tag_239:\n            /* \"#utility.yul\":12403:12516   */\n          swap1\n          pop\n            /* \"#utility.yul\":12242:12523   */\n          swap3\n          swap2\n          pop\n          pop\n          jump\t// out\n            /* \"#utility.yul\":12529:12939   */\n        tag_24:\n            /* \"#utility.yul\":12569:12576   */\n          0x00\n            /* \"#utility.yul\":12592:12612   */\n          tag_241\n            /* \"#utility.yul\":12610:12611   */\n          dup3\n            /* \"#utility.yul\":12592:12612   */\n          tag_59\n          jump\t// in\n        tag_241:\n            /* \"#utility.yul\":12587:12612   */\n          swap2\n          pop\n            /* \"#utility.yul\":12626:12646   */\n          tag_242\n            /* \"#utility.yul\":12644:12645   */\n          dup4\n            /* \"#utility.yul\":12626:12646   */\n          tag_59\n          jump\t// in\n        tag_242:\n            /* \"#utility.yul\":12621:12646   */\n          swap3\n          pop\n            /* \"#utility.yul\":12681:12682   */\n          dup3\n            /* \"#utility.yul\":12678:12679   */\n          dup3\n            /* \"#utility.yul\":12674:12683   */\n          mul\n            /* \"#utility.yul\":12703:12733   */\n          tag_243\n            /* \"#utility.yul\":12721:12732   */\n          dup2\n            /* \"#utility.yul\":12703:12733   */\n          tag_59\n          jump\t// in\n        tag_243:\n            /* \"#utility.yul\":12692:12733   */\n          swap2\n          pop\n            /* \"#utility.yul\":12882:12883   */\n          dup3\n            /* \"#utility.yul\":12873:12880   */\n          dup3\n            /* \"#utility.yul\":12869:12884   */\n          div\n            /* \"#utility.yul\":12866:12867   */\n          dup5\n            /* \"#utility.yul\":12863:12885   */\n          eq\n            /* \"#utility.yul\":12843:12844   */\n          dup4\n            /* \"#utility.yul\":12836:12845   */\n          iszero\n            /* \"#utility.yul\":12816:12899   */\n          or\n            /* \"#utility.yul\":12793:12932   */\n          tag_244\n          jumpi\n            /* \"#utility.yul\":12912:12930   */\n          tag_245\n          tag_85\n          jump\t// in\n        tag_245:\n            /* \"#utility.yul\":12793:12932   */\n        tag_244:\n            /* \"#utility.yul\":12577:12939   */\n          pop\n            /* \"#utility.yul\":12529:12939   */\n          swap3\n          swap2\n          pop\n          pop\n          jump\t// out\n            /* \"#utility.yul\":12945:13136   */\n        tag_37:\n            /* \"#utility.yul\":12985:12988   */\n          0x00\n            /* \"#utility.yul\":13004:13024   */\n          tag_247\n            /* \"#utility.yul\":13022:13023   */\n          dup3\n            /* \"#utility.yul\":13004:13024   */\n          tag_59\n          jump\t// in\n        tag_247:\n            /* \"#utility.yul\":12999:13024   */\n          swap2\n          pop\n            /* \"#utility.yul\":13038:13058   */\n          tag_248\n            /* \"#utility.yul\":13056:13057   */\n          dup4\n            /* \"#utility.yul\":13038:13058   */\n          tag_59\n          jump\t// in\n        tag_248:\n            /* \"#utility.yul\":13033:13058   */\n          swap3\n          pop\n            /* \"#utility.yul\":13081:13082   */\n          dup3\n            /* \"#utility.yul\":13078:13079   */\n          dup3\n            /* \"#utility.yul\":13074:13083   */\n          add\n            /* \"#utility.yul\":13067:13083   */\n          swap1\n          pop\n            /* \"#utility.yul\":13102:13105   */\n          dup1\n            /* \"#utility.yul\":13099:13100   */\n          dup3\n            /* \"#utility.yul\":13096:13106   */\n          gt\n            /* \"#utility.yul\":13093:13129   */\n          iszero\n          tag_249\n          jumpi\n            /* \"#utility.yul\":13109:13127   */\n          tag_250\n          tag_85\n          jump\t// in\n        tag_250:\n            /* \"#utility.yul\":13093:13129   */\n        tag_249:\n            /* \"#utility.yul\":12945:13136   */\n          swap3\n          swap2\n          pop\n          pop\n          jump\t// out\n            /* \"#utility.yul\":13142:13260   */\n        tag_90:\n            /* \"#utility.yul\":13229:13253   */\n          tag_252\n            /* \"#utility.yul\":13247:13252   */\n          dup2\n            /* \"#utility.yul\":13229:13253   */\n          tag_59\n          jump\t// in\n        tag_252:\n            /* \"#utility.yul\":13224:13227   */\n          dup3\n            /* \"#utility.yul\":13217:13254   */\n          mstore\n            /* \"#utility.yul\":13142:13260   */\n          pop\n          pop\n          jump\t// out\n            /* \"#utility.yul\":13266:13708   */\n        tag_41:\n            /* \"#utility.yul\":13415:13419   */\n          0x00\n            /* \"#utility.yul\":13453:13455   */\n          0x60\n            /* \"#utility.yul\":13442:13451   */\n          dup3\n            /* \"#utility.yul\":13438:13456   */\n          add\n            /* \"#utility.yul\":13430:13456   */\n          swap1\n          pop\n            /* \"#utility.yul\":13466:13537   */\n          tag_254\n            /* \"#utility.yul\":13534:13535   */\n          0x00\n            /* \"#utility.yul\":13523:13532   */\n          dup4\n            /* \"#utility.yul\":13519:13536   */\n          add\n            /* \"#utility.yul\":13510:13516   */\n          dup7\n            /* \"#utility.yul\":13466:13537   */\n          tag_84\n          jump\t// in\n        tag_254:\n            /* \"#utility.yul\":13547:13619   */\n          tag_255\n            /* \"#utility.yul\":13615:13617   */\n          0x20\n            /* \"#utility.yul\":13604:13613   */\n          dup4\n            /* \"#utility.yul\":13600:13618   */\n          add\n            /* \"#utility.yul\":13591:13597   */\n          dup6\n            /* \"#utility.yul\":13547:13619   */\n          tag_90\n          jump\t// in\n        tag_255:\n            /* \"#utility.yul\":13629:13701   */\n          tag_256\n            /* \"#utility.yul\":13697:13699   */\n          0x40\n            /* \"#utility.yul\":13686:13695   */\n          dup4\n            /* \"#utility.yul\":13682:13700   */\n          add\n            /* \"#utility.yul\":13673:13679   */\n          dup5\n            /* \"#utility.yul\":13629:13701   */\n          tag_90\n          jump\t// in\n        tag_256:\n            /* \"#utility.yul\":13266:13708   */\n          swap5\n          swap4\n          pop\n          pop\n          pop\n          pop\n          jump\t// out\n            /* \"#utility.yul\":13714:13936   */\n        tag_45:\n            /* \"#utility.yul\":13807:13811   */\n          0x00\n            /* \"#utility.yul\":13845:13847   */\n          0x20\n            /* \"#utility.yul\":13834:13843   */\n          dup3\n            /* \"#utility.yul\":13830:13848   */\n          add\n            /* \"#utility.yul\":13822:13848   */\n          swap1\n          pop\n            /* \"#utility.yul\":13858:13929   */\n          tag_258\n            /* \"#utility.yul\":13926:13927   */\n          0x00\n            /* \"#utility.yul\":13915:13924   */\n          dup4\n            /* \"#utility.yul\":13911:13928   */\n          add\n            /* \"#utility.yul\":13902:13908   */\n          dup5\n            /* \"#utility.yul\":13858:13929   */\n          tag_90\n          jump\t// in\n        tag_258:\n            /* \"#utility.yul\":13714:13936   */\n          swap3\n          swap2\n          pop\n          pop\n          jump\t// out\n            /* \"contracts/Base.sol\":189:523  contract RandomToken is ERC20, Ownable {... */\n        tag_26:\n          dataSize(sub_0)\n          dup1\n          dataOffset(sub_0)\n          0x00\n          codecopy\n          0x00\n          return\n        stop\n\n        sub_0: assembly {\n                /* \"contracts/Base.sol\":189:523  contract RandomToken is ERC20, Ownable {... */\n              mstore(0x40, 0x80)\n              callvalue\n              dup1\n              iszero\n              tag_1\n              jumpi\n              revert(0x00, 0x00)\n            tag_1:\n              pop\n              jumpi(tag_2, lt(calldatasize, 0x04))\n              shr(0xe0, calldataload(0x00))\n              dup1\n              0x715018a6\n              gt\n              tag_15\n              jumpi\n              dup1\n              0x715018a6\n              eq\n              tag_9\n              jumpi\n              dup1\n              0x8da5cb5b\n              eq\n              tag_10\n              jumpi\n              dup1\n              0x95d89b41\n              eq\n              tag_11\n              jumpi\n              dup1\n              0xa9059cbb\n              eq\n              tag_12\n              jumpi\n              dup1\n              0xdd62ed3e\n              eq\n              tag_13\n              jumpi\n              dup1\n              0xf2fde38b\n              eq\n              tag_14\n              jumpi\n              jump(tag_2)\n            tag_15:\n              dup1\n              0x06fdde03\n              eq\n              tag_3\n              jumpi\n              dup1\n              0x095ea7b3\n              eq\n              tag_4\n              jumpi\n              dup1\n              0x18160ddd\n              eq\n              tag_5\n              jumpi\n              dup1\n              0x23b872dd\n              eq\n              tag_6\n              jumpi\n              dup1\n              0x313ce567\n              eq\n              tag_7\n              jumpi\n              dup1\n              0x70a08231\n              eq\n              tag_8\n              jumpi\n            tag_2:\n              revert(0x00, 0x00)\n                /* \"@openzeppelin/contracts/token/ERC20/ERC20.sol\":1760:1849  function name() public view virtual returns (string memory) {... */\n            tag_3:\n              tag_16\n              tag_17\n              jump\t// in\n            tag_16:\n              mload(0x40)\n              tag_18\n              swap2\n              swap1\n              tag_19\n              jump\t// in\n            tag_18:\n              mload(0x40)\n              dup1\n              swap2\n              sub\n              swap1\n              return\n                /* \"@openzeppelin/contracts/token/ERC20/ERC20.sol\":3902:4088  function approve(address spender, uint256 value) public virtual returns (bool) {... */\n            tag_4:\n              tag_20\n              0x04\n              dup1\n              calldatasize\n              sub\n              dup2\n              add\n              swap1\n              tag_21\n              swap2\n              swap1\n              tag_22\n              jump\t// in\n            tag_21:\n              tag_23\n              jump\t// in\n            tag_20:\n              mload(0x40)\n              tag_24\n              swap2\n              swap1\n              tag_25\n              jump\t// in\n            tag_24:\n              mload(0x40)\n              dup1\n              swap2\n              sub\n              swap1\n              return\n                /* \"@openzeppelin/contracts/token/ERC20/ERC20.sol\":2803:2900  function totalSupply() public view virtual returns (uint256) {... */\n            tag_5:\n              tag_26\n              tag_27\n              jump\t// in\n            tag_26:\n              mload(0x40)\n              tag_28\n              swap2\n              swap1\n              tag_29\n              jump\t// in\n            tag_28:\n              mload(0x40)\n              dup1\n              swap2\n              sub\n              swap1\n              return\n                /* \"@openzeppelin/contracts/token/ERC20/ERC20.sol\":4680:4924  function transferFrom(address from, address to, uint256 value) public virtual returns (bool) {... */\n            tag_6:\n              tag_30\n              0x04\n              dup1\n              calldatasize\n              sub\n              dup2\n              add\n              swap1\n              tag_31\n              swap2\n              swap1\n              tag_32\n              jump\t// in\n            tag_31:\n              tag_33\n              jump\t// in\n            tag_30:\n              mload(0x40)\n              tag_34\n              swap2\n              swap1\n              tag_25\n              jump\t// in\n            tag_34:\n              mload(0x40)\n              dup1\n              swap2\n              sub\n              swap1\n              return\n                /* \"@openzeppelin/contracts/token/ERC20/ERC20.sol\":2688:2770  function decimals() public view virtual returns (uint8) {... */\n            tag_7:\n              tag_35\n              tag_36\n              jump\t// in\n            tag_35:\n              mload(0x40)\n              tag_37\n              swap2\n              swap1\n              tag_38\n              jump\t// in\n            tag_37:\n              mload(0x40)\n              dup1\n              swap2\n              sub\n              swap1\n              return\n                /* \"@openzeppelin/contracts/token/ERC20/ERC20.sol\":2933:3049  function balanceOf(address account) public view virtual returns (uint256) {... */\n            tag_8:\n              tag_39\n              0x04\n              dup1\n              calldatasize\n              sub\n              dup2\n              add\n              swap1\n              tag_40\n              swap2\n              swap1\n              tag_41\n              jump\t// in\n            tag_40:\n              tag_42\n              jump\t// in\n            tag_39:\n              mload(0x40)\n              tag_43\n              swap2\n              swap1\n              tag_29\n              jump\t// in\n            tag_43:\n              mload(0x40)\n              dup1\n              swap2\n              sub\n              swap1\n              return\n                /* \"@openzeppelin/contracts/access/Ownable.sol\":2293:2394  function renounceOwnership() public virtual onlyOwner {... */\n            tag_9:\n              tag_44\n              tag_45\n              jump\t// in\n            tag_44:\n              stop\n                /* \"@openzeppelin/contracts/access/Ownable.sol\":1638:1723  function owner() public view virtual returns (address) {... */\n            tag_10:\n              tag_46\n              tag_47\n              jump\t// in\n            tag_46:\n              mload(0x40)\n              tag_48\n              swap2\n              swap1\n              tag_49\n              jump\t// in\n            tag_48:\n              mload(0x40)\n              dup1\n              swap2\n              sub\n              swap1\n              return\n                /* \"@openzeppelin/contracts/token/ERC20/ERC20.sol\":1962:2055  function symbol() public view virtual returns (string memory) {... */\n            tag_11:\n              tag_50\n              tag_51\n              jump\t// in\n            tag_50:\n              mload(0x40)\n              tag_52\n              swap2\n              swap1\n              tag_19\n              jump\t// in\n            tag_52:\n              mload(0x40)\n              dup1\n              swap2\n              sub\n              swap1\n              return\n                /* \"@openzeppelin/contracts/token/ERC20/ERC20.sol\":3244:3422  function transfer(address to, uint256 value) public virtual returns (bool) {... */\n            tag_12:\n              tag_53\n              0x04\n              dup1\n              calldatasize\n              sub\n              dup2\n              add\n              swap1\n              tag_54\n              swap2\n              swap1\n              tag_22\n              jump\t// in\n            tag_54:\n              tag_55\n              jump\t// in\n            tag_53:\n              mload(0x40)\n              tag_56\n              swap2\n              swap1\n              tag_25\n              jump\t// in\n            tag_56:\n              mload(0x40)\n              dup1\n              swap2\n              sub\n              swap1\n              return\n                /* \"@openzeppelin/contracts/token/ERC20/ERC20.sol\":3455:3595  function allowance(address owner, address spender) public view virtual returns (uint256) {... */\n            tag_13:\n              tag_57\n              0x04\n              dup1\n              calldatasize\n              sub\n              dup2\n              add\n              swap1\n              tag_58\n              swap2\n              swap1\n              tag_59\n              jump\t// in\n            tag_58:\n              tag_60\n              jump\t// in\n            tag_57:\n              mload(0x40)\n              tag_61\n              swap2\n              swap1\n              tag_29\n              jump\t// in\n            tag_61:\n              mload(0x40)\n              dup1\n              swap2\n              sub\n              swap1\n              return\n                /* \"@openzeppelin/contracts/access/Ownable.sol\":2543:2758  function transferOwnership(address newOwner) public virtual onlyOwner {... */\n            tag_14:\n              tag_62\n              0x04\n              dup1\n              calldatasize\n              sub\n              dup2\n              add\n              swap1\n              tag_63\n              swap2\n              swap1\n              tag_41\n              jump\t// in\n            tag_63:\n              tag_64\n              jump\t// in\n            tag_62:\n              stop\n                /* \"@openzeppelin/contracts/token/ERC20/ERC20.sol\":1760:1849  function name() public view virtual returns (string memory) {... */\n            tag_17:\n                /* \"@openzeppelin/contracts/token/ERC20/ERC20.sol\":1805:1818  string memory */\n              0x60\n                /* \"@openzeppelin/contracts/token/ERC20/ERC20.sol\":1837:1842  _name */\n              0x03\n                /* \"@openzeppelin/contracts/token/ERC20/ERC20.sol\":1830:1842  return _name */\n              dup1\n              sload\n              tag_66\n              swap1\n              tag_67\n              jump\t// in\n            tag_66:\n              dup1\n              0x1f\n              add\n              0x20\n              dup1\n              swap2\n              div\n              mul\n              0x20\n              add\n              mload(0x40)\n              swap1\n              dup2\n              add\n              0x40\n              mstore\n              dup1\n              swap3\n              swap2\n              swap1\n              dup2\n              dup2\n              mstore\n              0x20\n              add\n              dup3\n              dup1\n              sload\n              tag_68\n              swap1\n              tag_67\n              jump\t// in\n            tag_68:\n              dup1\n              iszero\n              tag_69\n              jumpi\n              dup1\n              0x1f\n              lt\n              tag_70\n              jumpi\n              0x0100\n              dup1\n              dup4\n              sload\n              div\n              mul\n              dup4\n              mstore\n              swap2\n              0x20\n              add\n              swap2\n              jump(tag_69)\n            tag_70:\n              dup3\n              add\n              swap2\n              swap1\n              0x00\n              mstore\n              keccak256(0x00, 0x20)\n              swap1\n            tag_71:\n              dup2\n              sload\n              dup2\n              mstore\n              swap1\n              0x01\n              add\n              swap1\n              0x20\n              add\n              dup1\n              dup4\n              gt\n              tag_71\n              jumpi\n              dup3\n              swap1\n              sub\n              0x1f\n              and\n              dup3\n              add\n              swap2\n            tag_69:\n              pop\n              pop\n              pop\n              pop\n              pop\n              swap1\n              pop\n                /* \"@openzeppelin/contracts/token/ERC20/ERC20.sol\":1760:1849  function name() public view virtual returns (string memory) {... */\n              swap1\n              jump\t// out\n                /* \"@openzeppelin/contracts/token/ERC20/ERC20.sol\":3902:4088  function approve(address spender, uint256 value) public virtual returns (bool) {... */\n            tag_23:\n                /* \"@openzeppelin/contracts/token/ERC20/ERC20.sol\":3975:3979  bool */\n              0x00\n                /* \"@openzeppelin/contracts/token/ERC20/ERC20.sol\":3991:4004  address owner */\n              0x00\n                /* \"@openzeppelin/contracts/token/ERC20/ERC20.sol\":4007:4019  _msgSender() */\n              tag_73\n                /* \"@openzeppelin/contracts/token/ERC20/ERC20.sol\":4007:4017  _msgSender */\n              tag_74\n                /* \"@openzeppelin/contracts/token/ERC20/ERC20.sol\":4007:4019  _msgSender() */\n              jump\t// in\n            tag_73:\n                /* \"@openzeppelin/contracts/token/ERC20/ERC20.sol\":3991:4019  address owner = _msgSender() */\n              swap1\n              pop\n                /* \"@openzeppelin/contracts/token/ERC20/ERC20.sol\":4029:4060  _approve(owner, spender, value) */\n              tag_75\n                /* \"@openzeppelin/contracts/token/ERC20/ERC20.sol\":4038:4043  owner */\n              dup2\n                /* \"@openzeppelin/contracts/token/ERC20/ERC20.sol\":4045:4052  spender */\n              dup6\n                /* \"@openzeppelin/contracts/token/ERC20/ERC20.sol\":4054:4059  value */\n              dup6\n                /* \"@openzeppelin/contracts/token/ERC20/ERC20.sol\":4029:4037  _approve */\n              tag_76\n                /* \"@openzeppelin/contracts/token/ERC20/ERC20.sol\":4029:4060  _approve(owner, spender, value) */\n              jump\t// in\n            tag_75:\n                /* \"@openzeppelin/contracts/token/ERC20/ERC20.sol\":4077:4081  true */\n              0x01\n                /* \"@openzeppelin/contracts/token/ERC20/ERC20.sol\":4070:4081  return true */\n              swap2\n              pop\n              pop\n                /* \"@openzeppelin/contracts/token/ERC20/ERC20.sol\":3902:4088  function approve(address spender, uint256 value) public virtual returns (bool) {... */\n              swap3\n              swap2\n              pop\n              pop\n              jump\t// out\n                /* \"@openzeppelin/contracts/token/ERC20/ERC20.sol\":2803:2900  function totalSupply() public view virtual returns (uint256) {... */\n            tag_27:\n                /* \"@openzeppelin/contracts/token/ERC20/ERC20.sol\":2855:2862  uint256 */\n              0x00\n                /* \"@openzeppelin/contracts/token/ERC20/ERC20.sol\":2881:2893  _totalSupply */\n              sload(0x02)\n                /* \"@openzeppelin/contracts/token/ERC20/ERC20.sol\":2874:2893  return _totalSupply */\n              swap1\n              pop\n                /* \"@openzeppelin/contracts/token/ERC20/ERC20.sol\":2803:2900  function totalSupply() public view virtual returns (uint256) {... */\n              swap1\n              jump\t// out\n                /* \"@openzeppelin/contracts/token/ERC20/ERC20.sol\":4680:4924  function transferFrom(address from, address to, uint256 value) public virtual returns (bool) {... */\n            tag_33:\n                /* \"@openzeppelin/contracts/token/ERC20/ERC20.sol\":4767:4771  bool */\n              0x00\n                /* \"@openzeppelin/contracts/token/ERC20/ERC20.sol\":4783:4798  address spender */\n              0x00\n                /* \"@openzeppelin/contracts/token/ERC20/ERC20.sol\":4801:4813  _msgSender() */\n              tag_79\n                /* \"@openzeppelin/contracts/token/ERC20/ERC20.sol\":4801:4811  _msgSender */\n              tag_74\n                /* \"@openzeppelin/contracts/token/ERC20/ERC20.sol\":4801:4813  _msgSender() */\n              jump\t// in\n            tag_79:\n                /* \"@openzeppelin/contracts/token/ERC20/ERC20.sol\":4783:4813  address spender = _msgSender() */\n              swap1\n              pop\n                /* \"@openzeppelin/contracts/token/ERC20/ERC20.sol\":4823:4860  _spendAllowance(from, spender, value) */\n              tag_80\n                /* \"@openzeppelin/contracts/token/ERC20/ERC20.sol\":4839:4843  from */\n              dup6\n                /* \"@openzeppelin/contracts/token/ERC20/ERC20.sol\":4845:4852  spender */\n              dup3\n                /* \"@openzeppelin/contracts/token/ERC20/ERC20.sol\":4854:4859  value */\n              dup6\n                /* \"@openzeppelin/contracts/token/ERC20/ERC20.sol\":4823:4838  _spendAllowance */\n              tag_81\n                /* \"@openzeppelin/contracts/token/ERC20/ERC20.sol\":4823:4860  _spendAllowance(from, spender, value) */\n              jump\t// in\n            tag_80:\n                /* \"@openzeppelin/contracts/token/ERC20/ERC20.sol\":4870:4896  _transfer(from, to, value) */\n              tag_82\n                /* \"@openzeppelin/contracts/token/ERC20/ERC20.sol\":4880:4884  from */\n              dup6\n                /* \"@openzeppelin/contracts/token/ERC20/ERC20.sol\":4886:4888  to */\n              dup6\n                /* \"@openzeppelin/contracts/token/ERC20/ERC20.sol\":4890:4895  value */\n              dup6\n                /* \"@openzeppelin/contracts/token/ERC20/ERC20.sol\":4870:4879  _transfer */\n              tag_83\n                /* \"@openzeppelin/contracts/token/ERC20/ERC20.sol\":4870:4896  _transfer(from, to, value) */\n              jump\t// in\n            tag_82:\n                /* \"@openzeppelin/contracts/token/ERC20/ERC20.sol\":4913:4917  true */\n              0x01\n                /* \"@openzeppelin/contracts/token/ERC20/ERC20.sol\":4906:4917  return true */\n              swap2\n              pop\n              pop\n                /* \"@openzeppelin/contracts/token/ERC20/ERC20.sol\":4680:4924  function transferFrom(address from, address to, uint256 value) public virtual returns (bool) {... */\n              swap4\n              swap3\n              pop\n              pop\n              pop\n              jump\t// out\n                /* \"@openzeppelin/contracts/token/ERC20/ERC20.sol\":2688:2770  function decimals() public view virtual returns (uint8) {... */\n            tag_36:\n                /* \"@openzeppelin/contracts/token/ERC20/ERC20.sol\":2737:2742  uint8 */\n              0x00\n                /* \"@openzeppelin/contracts/token/ERC20/ERC20.sol\":2761:2763  18 */\n              0x12\n                /* \"@openzeppelin/contracts/token/ERC20/ERC20.sol\":2754:2763  return 18 */\n              swap1\n              pop\n                /* \"@openzeppelin/contracts/token/ERC20/ERC20.sol\":2688:2770  function decimals() public view virtual returns (uint8) {... */\n              swap1\n              jump\t// out\n                /* \"@openzeppelin/contracts/token/ERC20/ERC20.sol\":2933:3049  function balanceOf(address account) public view virtual returns (uint256) {... */\n            tag_42:\n                /* \"@openzeppelin/contracts/token/ERC20/ERC20.sol\":2998:3005  uint256 */\n              0x00\n                /* \"@openzeppelin/contracts/token/ERC20/ERC20.sol\":3024:3033  _balances */\n              0x00\n                /* \"@openzeppelin/contracts/token/ERC20/ERC20.sol\":3024:3042  _balances[account] */\n              0x00\n                /* \"@openzeppelin/contracts/token/ERC20/ERC20.sol\":3034:3041  account */\n              dup4\n                /* \"@openzeppelin/contracts/token/ERC20/ERC20.sol\":3024:3042  _balances[account] */\n              0xffffffffffffffffffffffffffffffffffffffff\n              and\n              0xffffffffffffffffffffffffffffffffffffffff\n              and\n              dup2\n              mstore\n              0x20\n              add\n              swap1\n              dup2\n              mstore\n              0x20\n              add\n              0x00\n              keccak256\n              sload\n                /* \"@openzeppelin/contracts/token/ERC20/ERC20.sol\":3017:3042  return _balances[account] */\n              swap1\n              pop\n                /* \"@openzeppelin/contracts/token/ERC20/ERC20.sol\":2933:3049  function balanceOf(address account) public view virtual returns (uint256) {... */\n              swap2\n              swap1\n              pop\n              jump\t// out\n                /* \"@openzeppelin/contracts/access/Ownable.sol\":2293:2394  function renounceOwnership() public virtual onlyOwner {... */\n            tag_45:\n                /* \"@openzeppelin/contracts/access/Ownable.sol\":1531:1544  _checkOwner() */\n              tag_87\n                /* \"@openzeppelin/contracts/access/Ownable.sol\":1531:1542  _checkOwner */\n              tag_88\n                /* \"@openzeppelin/contracts/access/Ownable.sol\":1531:1544  _checkOwner() */\n              jump\t// in\n            tag_87:\n                /* \"@openzeppelin/contracts/access/Ownable.sol\":2357:2387  _transferOwnership(address(0)) */\n              tag_90\n                /* \"@openzeppelin/contracts/access/Ownable.sol\":2384:2385  0 */\n              0x00\n                /* \"@openzeppelin/contracts/access/Ownable.sol\":2357:2375  _transferOwnership */\n              tag_91\n                /* \"@openzeppelin/contracts/access/Ownable.sol\":2357:2387  _transferOwnership(address(0)) */\n              jump\t// in\n            tag_90:\n                /* \"@openzeppelin/contracts/access/Ownable.sol\":2293:2394  function renounceOwnership() public virtual onlyOwner {... */\n              jump\t// out\n                /* \"@openzeppelin/contracts/access/Ownable.sol\":1638:1723  function owner() public view virtual returns (address) {... */\n            tag_47:\n                /* \"@openzeppelin/contracts/access/Ownable.sol\":1684:1691  address */\n              0x00\n                /* \"@openzeppelin/contracts/access/Ownable.sol\":1710:1716  _owner */\n              0x05\n              0x00\n              swap1\n              sload\n              swap1\n              0x0100\n              exp\n              swap1\n              div\n              0xffffffffffffffffffffffffffffffffffffffff\n              and\n                /* \"@openzeppelin/contracts/access/Ownable.sol\":1703:1716  return _owner */\n              swap1\n              pop\n                /* \"@openzeppelin/contracts/access/Ownable.sol\":1638:1723  function owner() public view virtual returns (address) {... */\n              swap1\n              jump\t// out\n                /* \"@openzeppelin/contracts/token/ERC20/ERC20.sol\":1962:2055  function symbol() public view virtual returns (string memory) {... */\n            tag_51:\n                /* \"@openzeppelin/contracts/token/ERC20/ERC20.sol\":2009:2022  string memory */\n              0x60\n                /* \"@openzeppelin/contracts/token/ERC20/ERC20.sol\":2041:2048  _symbol */\n              0x04\n                /* \"@openzeppelin/contracts/token/ERC20/ERC20.sol\":2034:2048  return _symbol */\n              dup1\n              sload\n              tag_94\n              swap1\n              tag_67\n              jump\t// in\n            tag_94:\n              dup1\n              0x1f\n              add\n              0x20\n              dup1\n              swap2\n              div\n              mul\n              0x20\n              add\n              mload(0x40)\n              swap1\n              dup2\n              add\n              0x40\n              mstore\n              dup1\n              swap3\n              swap2\n              swap1\n              dup2\n              dup2\n              mstore\n              0x20\n              add\n              dup3\n              dup1\n              sload\n              tag_95\n              swap1\n              tag_67\n              jump\t// in\n            tag_95:\n              dup1\n              iszero\n              tag_96\n              jumpi\n              dup1\n              0x1f\n              lt\n              tag_97\n              jumpi\n              0x0100\n              dup1\n              dup4\n              sload\n              div\n              mul\n              dup4\n              mstore\n              swap2\n              0x20\n              add\n              swap2\n              jump(tag_96)\n            tag_97:\n              dup3\n              add\n              swap2\n              swap1\n              0x00\n              mstore\n              keccak256(0x00, 0x20)\n              swap1\n            tag_98:\n              dup2\n              sload\n              dup2\n              mstore\n              swap1\n              0x01\n              add\n              swap1\n              0x20\n              add\n              dup1\n              dup4\n              gt\n              tag_98\n              jumpi\n              dup3\n              swap1\n              sub\n              0x1f\n              and\n              dup3\n              add\n              swap2\n            tag_96:\n              pop\n              pop\n              pop\n              pop\n              pop\n              swap1\n              pop\n                /* \"@openzeppelin/contracts/token/ERC20/ERC20.sol\":1962:2055  function symbol() public view virtual returns (string memory) {... */\n              swap1\n              jump\t// out\n                /* \"@openzeppelin/contracts/token/ERC20/ERC20.sol\":3244:3422  function transfer(address to, uint256 value) public virtual returns (bool) {... */\n            tag_55:\n                /* \"@openzeppelin/contracts/token/ERC20/ERC20.sol\":3313:3317  bool */\n              0x00\n                /* \"@openzeppelin/contracts/token/ERC20/ERC20.sol\":3329:3342  address owner */\n              0x00\n                /* \"@openzeppelin/contracts/token/ERC20/ERC20.sol\":3345:3357  _msgSender() */\n              tag_100\n                /* \"@openzeppelin/contracts/token/ERC20/ERC20.sol\":3345:3355  _msgSender */\n              tag_74\n                /* \"@openzeppelin/contracts/token/ERC20/ERC20.sol\":3345:3357  _msgSender() */\n              jump\t// in\n            tag_100:\n                /* \"@openzeppelin/contracts/token/ERC20/ERC20.sol\":3329:3357  address owner = _msgSender() */\n              swap1\n              pop\n                /* \"@openzeppelin/contracts/token/ERC20/ERC20.sol\":3367:3394  _transfer(owner, to, value) */\n              tag_101\n                /* \"@openzeppelin/contracts/token/ERC20/ERC20.sol\":3377:3382  owner */\n              dup2\n                /* \"@openzeppelin/contracts/token/ERC20/ERC20.sol\":3384:3386  to */\n              dup6\n                /* \"@openzeppelin/contracts/token/ERC20/ERC20.sol\":3388:3393  value */\n              dup6\n                /* \"@openzeppelin/contracts/token/ERC20/ERC20.sol\":3367:3376  _transfer */\n              tag_83\n                /* \"@openzeppelin/contracts/token/ERC20/ERC20.sol\":3367:3394  _transfer(owner, to, value) */\n              jump\t// in\n            tag_101:\n                /* \"@openzeppelin/contracts/token/ERC20/ERC20.sol\":3411:3415  true */\n              0x01\n                /* \"@openzeppelin/contracts/token/ERC20/ERC20.sol\":3404:3415  return true */\n              swap2\n              pop\n              pop\n                /* \"@openzeppelin/contracts/token/ERC20/ERC20.sol\":3244:3422  function transfer(address to, uint256 value) public virtual returns (bool) {... */\n              swap3\n              swap2\n              pop\n              pop\n              jump\t// out\n                /* \"@openzeppelin/contracts/token/ERC20/ERC20.sol\":3455:3595  function allowance(address owner, address spender) public view virtual returns (uint256) {... */\n            tag_60:\n                /* \"@openzeppelin/contracts/token/ERC20/ERC20.sol\":3535:3542  uint256 */\n              0x00\n                /* \"@openzeppelin/contracts/token/ERC20/ERC20.sol\":3561:3572  _allowances */\n              0x01\n                /* \"@openzeppelin/contracts/token/ERC20/ERC20.sol\":3561:3579  _allowances[owner] */\n              0x00\n                /* \"@openzeppelin/contracts/token/ERC20/ERC20.sol\":3573:3578  owner */\n              dup5\n                /* \"@openzeppelin/contracts/token/ERC20/ERC20.sol\":3561:3579  _allowances[owner] */\n              0xffffffffffffffffffffffffffffffffffffffff\n              and\n              0xffffffffffffffffffffffffffffffffffffffff\n              and\n              dup2\n              mstore\n              0x20\n              add\n              swap1\n              dup2\n              mstore\n              0x20\n              add\n              0x00\n              keccak256\n                /* \"@openzeppelin/contracts/token/ERC20/ERC20.sol\":3561:3588  _allowances[owner][spender] */\n              0x00\n                /* \"@openzeppelin/contracts/token/ERC20/ERC20.sol\":3580:3587  spender */\n              dup4\n                /* \"@openzeppelin/contracts/token/ERC20/ERC20.sol\":3561:3588  _allowances[owner][spender] */\n              0xffffffffffffffffffffffffffffffffffffffff\n              and\n              0xffffffffffffffffffffffffffffffffffffffff\n              and\n              dup2\n              mstore\n              0x20\n              add\n              swap1\n              dup2\n              mstore\n              0x20\n              add\n              0x00\n              keccak256\n              sload\n                /* \"@openzeppelin/contracts/token/ERC20/ERC20.sol\":3554:3588  return _allowances[owner][spender] */\n              swap1\n              pop\n                /* \"@openzeppelin/contracts/token/ERC20/ERC20.sol\":3455:3595  function allowance(address owner, address spender) public view virtual returns (uint256) {... */\n              swap3\n              swap2\n              pop\n              pop\n              jump\t// out\n                /* \"@openzeppelin/contracts/access/Ownable.sol\":2543:2758  function transferOwnership(address newOwner) public virtual onlyOwner {... */\n            tag_64:\n                /* \"@openzeppelin/contracts/access/Ownable.sol\":1531:1544  _checkOwner() */\n              tag_104\n                /* \"@openzeppelin/contracts/access/Ownable.sol\":1531:1542  _checkOwner */\n              tag_88\n                /* \"@openzeppelin/contracts/access/Ownable.sol\":1531:1544  _checkOwner() */\n              jump\t// in\n            tag_104:\n                /* \"@openzeppelin/contracts/access/Ownable.sol\":2647:2648  0 */\n              0x00\n                /* \"@openzeppelin/contracts/access/Ownable.sol\":2627:2649  newOwner == address(0) */\n              0xffffffffffffffffffffffffffffffffffffffff\n              and\n                /* \"@openzeppelin/contracts/access/Ownable.sol\":2627:2635  newOwner */\n              dup2\n                /* \"@openzeppelin/contracts/access/Ownable.sol\":2627:2649  newOwner == address(0) */\n              0xffffffffffffffffffffffffffffffffffffffff\n              and\n              sub\n                /* \"@openzeppelin/contracts/access/Ownable.sol\":2623:2714  if (newOwner == address(0)) {... */\n              tag_106\n              jumpi\n                /* \"@openzeppelin/contracts/access/Ownable.sol\":2700:2701  0 */\n              0x00\n                /* \"@openzeppelin/contracts/access/Ownable.sol\":2672:2703  OwnableInvalidOwner(address(0)) */\n              mload(0x40)\n              0x1e4fbdf700000000000000000000000000000000000000000000000000000000\n              dup2\n              mstore\n              0x04\n              add\n              tag_107\n              swap2\n              swap1\n              tag_49\n              jump\t// in\n            tag_107:\n              mload(0x40)\n              dup1\n              swap2\n              sub\n              swap1\n              revert\n                /* \"@openzeppelin/contracts/access/Ownable.sol\":2623:2714  if (newOwner == address(0)) {... */\n            tag_106:\n                /* \"@openzeppelin/contracts/access/Ownable.sol\":2723:2751  _transferOwnership(newOwner) */\n              tag_108\n                /* \"@openzeppelin/contracts/access/Ownable.sol\":2742:2750  newOwner */\n              dup2\n                /* \"@openzeppelin/contracts/access/Ownable.sol\":2723:2741  _transferOwnership */\n              tag_91\n                /* \"@openzeppelin/contracts/access/Ownable.sol\":2723:2751  _transferOwnership(newOwner) */\n              jump\t// in\n            tag_108:\n                /* \"@openzeppelin/contracts/access/Ownable.sol\":2543:2758  function transferOwnership(address newOwner) public virtual onlyOwner {... */\n              pop\n              jump\t// out\n                /* \"@openzeppelin/contracts/utils/Context.sol\":656:752  function _msgSender() internal view virtual returns (address) {... */\n            tag_74:\n                /* \"@openzeppelin/contracts/utils/Context.sol\":709:716  address */\n              0x00\n                /* \"@openzeppelin/contracts/utils/Context.sol\":735:745  msg.sender */\n              caller\n                /* \"@openzeppelin/contracts/utils/Context.sol\":728:745  return msg.sender */\n              swap1\n              pop\n                /* \"@openzeppelin/contracts/utils/Context.sol\":656:752  function _msgSender() internal view virtual returns (address) {... */\n              swap1\n              jump\t// out\n                /* \"@openzeppelin/contracts/token/ERC20/ERC20.sol\":8630:8758  function _approve(address owner, address spender, uint256 value) internal {... */\n            tag_76:\n                /* \"@openzeppelin/contracts/token/ERC20/ERC20.sol\":8714:8751  _approve(owner, spender, value, true) */\n              tag_111\n                /* \"@openzeppelin/contracts/token/ERC20/ERC20.sol\":8723:8728  owner */\n              dup4\n                /* \"@openzeppelin/contracts/token/ERC20/ERC20.sol\":8730:8737  spender */\n              dup4\n                /* \"@openzeppelin/contracts/token/ERC20/ERC20.sol\":8739:8744  value */\n              dup4\n                /* \"@openzeppelin/contracts/token/ERC20/ERC20.sol\":8746:8750  true */\n              0x01\n                /* \"@openzeppelin/contracts/token/ERC20/ERC20.sol\":8714:8722  _approve */\n              tag_112\n                /* \"@openzeppelin/contracts/token/ERC20/ERC20.sol\":8714:8751  _approve(owner, spender, value, true) */\n              jump\t// in\n            tag_111:\n                /* \"@openzeppelin/contracts/token/ERC20/ERC20.sol\":8630:8758  function _approve(address owner, address spender, uint256 value) internal {... */\n              pop\n              pop\n              pop\n              jump\t// out\n                /* \"@openzeppelin/contracts/token/ERC20/ERC20.sol\":10319:10795  function _spendAllowance(address owner, address spender, uint256 value) internal virtual {... */\n            tag_81:\n                /* \"@openzeppelin/contracts/token/ERC20/ERC20.sol\":10418:10442  uint256 currentAllowance */\n              0x00\n                /* \"@openzeppelin/contracts/token/ERC20/ERC20.sol\":10445:10470  allowance(owner, spender) */\n              tag_114\n                /* \"@openzeppelin/contracts/token/ERC20/ERC20.sol\":10455:10460  owner */\n              dup5\n                /* \"@openzeppelin/contracts/token/ERC20/ERC20.sol\":10462:10469  spender */\n              dup5\n                /* \"@openzeppelin/contracts/token/ERC20/ERC20.sol\":10445:10454  allowance */\n              tag_60\n                /* \"@openzeppelin/contracts/token/ERC20/ERC20.sol\":10445:10470  allowance(owner, spender) */\n              jump\t// in\n            tag_114:\n                /* \"@openzeppelin/contracts/token/ERC20/ERC20.sol\":10418:10470  uint256 currentAllowance = allowance(owner, spender) */\n              swap1\n              pop\n                /* \"@openzeppelin/contracts/token/ERC20/ERC20.sol\":10503:10520  type(uint256).max */\n              0xffffffffffffffffffffffffffffffffffffffffffffffffffffffffffffffff\n                /* \"@openzeppelin/contracts/token/ERC20/ERC20.sol\":10484:10500  currentAllowance */\n              dup2\n                /* \"@openzeppelin/contracts/token/ERC20/ERC20.sol\":10484:10520  currentAllowance < type(uint256).max */\n              lt\n                /* \"@openzeppelin/contracts/token/ERC20/ERC20.sol\":10480:10789  if (currentAllowance < type(uint256).max) {... */\n              iszero\n              tag_115\n              jumpi\n                /* \"@openzeppelin/contracts/token/ERC20/ERC20.sol\":10559:10564  value */\n              dup2\n                /* \"@openzeppelin/contracts/token/ERC20/ERC20.sol\":10540:10556  currentAllowance */\n              dup2\n                /* \"@openzeppelin/contracts/token/ERC20/ERC20.sol\":10540:10564  currentAllowance < value */\n              lt\n                /* \"@openzeppelin/contracts/token/ERC20/ERC20.sol\":10536:10666  if (currentAllowance < value) {... */\n              iszero\n              tag_116\n              jumpi\n                /* \"@openzeppelin/contracts/token/ERC20/ERC20.sol\":10618:10625  spender */\n              dup3\n                /* \"@openzeppelin/contracts/token/ERC20/ERC20.sol\":10627:10643  currentAllowance */\n              dup2\n                /* \"@openzeppelin/contracts/token/ERC20/ERC20.sol\":10645:10650  value */\n              dup4\n                /* \"@openzeppelin/contracts/token/ERC20/ERC20.sol\":10591:10651  ERC20InsufficientAllowance(spender, currentAllowance, value) */\n              mload(0x40)\n              0xfb8f41b200000000000000000000000000000000000000000000000000000000\n              dup2\n              mstore\n              0x04\n              add\n              tag_117\n              swap4\n              swap3\n              swap2\n              swap1\n              tag_118\n              jump\t// in\n            tag_117:\n              mload(0x40)\n              dup1\n              swap2\n              sub\n              swap1\n              revert\n                /* \"@openzeppelin/contracts/token/ERC20/ERC20.sol\":10536:10666  if (currentAllowance < value) {... */\n            tag_116:\n                /* \"@openzeppelin/contracts/token/ERC20/ERC20.sol\":10707:10764  _approve(owner, spender, currentAllowance - value, false) */\n              tag_119\n                /* \"@openzeppelin/contracts/token/ERC20/ERC20.sol\":10716:10721  owner */\n              dup5\n                /* \"@openzeppelin/contracts/token/ERC20/ERC20.sol\":10723:10730  spender */\n              dup5\n                /* \"@openzeppelin/contracts/token/ERC20/ERC20.sol\":10751:10756  value */\n              dup5\n                /* \"@openzeppelin/contracts/token/ERC20/ERC20.sol\":10732:10748  currentAllowance */\n              dup5\n                /* \"@openzeppelin/contracts/token/ERC20/ERC20.sol\":10732:10756  currentAllowance - value */\n              sub\n                /* \"@openzeppelin/contracts/token/ERC20/ERC20.sol\":10758:10763  false */\n              0x00\n                /* \"@openzeppelin/contracts/token/ERC20/ERC20.sol\":10707:10715  _approve */\n              tag_112\n                /* \"@openzeppelin/contracts/token/ERC20/ERC20.sol\":10707:10764  _approve(owner, spender, currentAllowance - value, false) */\n              jump\t// in\n            tag_119:\n                /* \"@openzeppelin/contracts/token/ERC20/ERC20.sol\":10480:10789  if (currentAllowance < type(uint256).max) {... */\n            tag_115:\n                /* \"@openzeppelin/contracts/token/ERC20/ERC20.sol\":10408:10795  {... */\n              pop\n                /* \"@openzeppelin/contracts/token/ERC20/ERC20.sol\":10319:10795  function _spendAllowance(address owner, address spender, uint256 value) internal virtual {... */\n              pop\n              pop\n              pop\n              jump\t// out\n                /* \"@openzeppelin/contracts/token/ERC20/ERC20.sol\":5297:5597  function _transfer(address from, address to, uint256 value) internal {... */\n            tag_83:\n                /* \"@openzeppelin/contracts/token/ERC20/ERC20.sol\":5396:5397  0 */\n              0x00\n                /* \"@openzeppelin/contracts/token/ERC20/ERC20.sol\":5380:5398  from == address(0) */\n              0xffffffffffffffffffffffffffffffffffffffff\n              and\n                /* \"@openzeppelin/contracts/token/ERC20/ERC20.sol\":5380:5384  from */\n              dup4\n                /* \"@openzeppelin/contracts/token/ERC20/ERC20.sol\":5380:5398  from == address(0) */\n              0xffffffffffffffffffffffffffffffffffffffff\n              and\n              sub\n                /* \"@openzeppelin/contracts/token/ERC20/ERC20.sol\":5376:5462  if (from == address(0)) {... */\n              tag_121\n              jumpi\n                /* \"@openzeppelin/contracts/token/ERC20/ERC20.sol\":5448:5449  0 */\n              0x00\n                /* \"@openzeppelin/contracts/token/ERC20/ERC20.sol\":5421:5451  ERC20InvalidSender(address(0)) */\n              mload(0x40)\n              0x96c6fd1e00000000000000000000000000000000000000000000000000000000\n              dup2\n              mstore\n              0x04\n              add\n              tag_122\n              swap2\n              swap1\n              tag_49\n              jump\t// in\n            tag_122:\n              mload(0x40)\n              dup1\n              swap2\n              sub\n              swap1\n              revert\n                /* \"@openzeppelin/contracts/token/ERC20/ERC20.sol\":5376:5462  if (from == address(0)) {... */\n            tag_121:\n                /* \"@openzeppelin/contracts/token/ERC20/ERC20.sol\":5489:5490  0 */\n              0x00\n                /* \"@openzeppelin/contracts/token/ERC20/ERC20.sol\":5475:5491  to == address(0) */\n              0xffffffffffffffffffffffffffffffffffffffff\n              and\n                /* \"@openzeppelin/contracts/token/ERC20/ERC20.sol\":5475:5477  to */\n              dup3\n                /* \"@openzeppelin/contracts/token/ERC20/ERC20.sol\":5475:5491  to == address(0) */\n              0xffffffffffffffffffffffffffffffffffffffff\n              and\n              sub\n                /* \"@openzeppelin/contracts/token/ERC20/ERC20.sol\":5471:5557  if (to == address(0)) {... */\n              tag_123\n              jumpi\n                /* \"@openzeppelin/contracts/token/ERC20/ERC20.sol\":5543:5544  0 */\n              0x00\n                /* \"@openzeppelin/contracts/token/ERC20/ERC20.sol\":5514:5546  ERC20InvalidReceiver(address(0)) */\n              mload(0x40)\n              0xec442f0500000000000000000000000000000000000000000000000000000000\n              dup2\n              mstore\n              0x04\n              add\n              tag_124\n              swap2\n              swap1\n              tag_49\n              jump\t// in\n            tag_124:\n              mload(0x40)\n              dup1\n              swap2\n              sub\n              swap1\n              revert\n                /* \"@openzeppelin/contracts/token/ERC20/ERC20.sol\":5471:5557  if (to == address(0)) {... */\n            tag_123:\n                /* \"@openzeppelin/contracts/token/ERC20/ERC20.sol\":5566:5590  _update(from, to, value) */\n              tag_125\n                /* \"@openzeppelin/contracts/token/ERC20/ERC20.sol\":5574:5578  from */\n              dup4\n                /* \"@openzeppelin/contracts/token/ERC20/ERC20.sol\":5580:5582  to */\n              dup4\n                /* \"@openzeppelin/contracts/token/ERC20/ERC20.sol\":5584:5589  value */\n              dup4\n                /* \"@openzeppelin/contracts/token/ERC20/ERC20.sol\":5566:5573  _update */\n              tag_126\n                /* \"@openzeppelin/contracts/token/ERC20/ERC20.sol\":5566:5590  _update(from, to, value) */\n              jump\t// in\n            tag_125:\n                /* \"@openzeppelin/contracts/token/ERC20/ERC20.sol\":5297:5597  function _transfer(address from, address to, uint256 value) internal {... */\n              pop\n              pop\n              pop\n              jump\t// out\n                /* \"@openzeppelin/contracts/access/Ownable.sol\":1796:1958  function _checkOwner() internal view virtual {... */\n            tag_88:\n                /* \"@openzeppelin/contracts/access/Ownable.sol\":1866:1878  _msgSender() */\n              tag_128\n                /* \"@openzeppelin/contracts/access/Ownable.sol\":1866:1876  _msgSender */\n              tag_74\n                /* \"@openzeppelin/contracts/access/Ownable.sol\":1866:1878  _msgSender() */\n              jump\t// in\n            tag_128:\n                /* \"@openzeppelin/contracts/access/Ownable.sol\":1855:1878  owner() != _msgSender() */\n              0xffffffffffffffffffffffffffffffffffffffff\n              and\n                /* \"@openzeppelin/contracts/access/Ownable.sol\":1855:1862  owner() */\n              tag_129\n                /* \"@openzeppelin/contracts/access/Ownable.sol\":1855:1860  owner */\n              tag_47\n                /* \"@openzeppelin/contracts/access/Ownable.sol\":1855:1862  owner() */\n              jump\t// in\n            tag_129:\n                /* \"@openzeppelin/contracts/access/Ownable.sol\":1855:1878  owner() != _msgSender() */\n              0xffffffffffffffffffffffffffffffffffffffff\n              and\n              eq\n                /* \"@openzeppelin/contracts/access/Ownable.sol\":1851:1952  if (owner() != _msgSender()) {... */\n              tag_130\n              jumpi\n                /* \"@openzeppelin/contracts/access/Ownable.sol\":1928:1940  _msgSender() */\n              tag_131\n                /* \"@openzeppelin/contracts/access/Ownable.sol\":1928:1938  _msgSender */\n              tag_74\n                /* \"@openzeppelin/contracts/access/Ownable.sol\":1928:1940  _msgSender() */\n              jump\t// in\n            tag_131:\n                /* \"@openzeppelin/contracts/access/Ownable.sol\":1901:1941  OwnableUnauthorizedAccount(_msgSender()) */\n              mload(0x40)\n              0x118cdaa700000000000000000000000000000000000000000000000000000000\n              dup2\n              mstore\n              0x04\n              add\n              tag_132\n              swap2\n              swap1\n              tag_49\n              jump\t// in\n            tag_132:\n              mload(0x40)\n              dup1\n              swap2\n              sub\n              swap1\n              revert\n                /* \"@openzeppelin/contracts/access/Ownable.sol\":1851:1952  if (owner() != _msgSender()) {... */\n            tag_130:\n                /* \"@openzeppelin/contracts/access/Ownable.sol\":1796:1958  function _checkOwner() internal view virtual {... */\n              jump\t// out\n                /* \"@openzeppelin/contracts/access/Ownable.sol\":2912:3099  function _transferOwnership(address newOwner) internal virtual {... */\n            tag_91:\n                /* \"@openzeppelin/contracts/access/Ownable.sol\":2985:3001  address oldOwner */\n              0x00\n                /* \"@openzeppelin/contracts/access/Ownable.sol\":3004:3010  _owner */\n              0x05\n              0x00\n              swap1\n              sload\n              swap1\n              0x0100\n              exp\n              swap1\n              div\n              0xffffffffffffffffffffffffffffffffffffffff\n              and\n                /* \"@openzeppelin/contracts/access/Ownable.sol\":2985:3010  address oldOwner = _owner */\n              swap1\n              pop\n                /* \"@openzeppelin/contracts/access/Ownable.sol\":3029:3037  newOwner */\n              dup2\n                /* \"@openzeppelin/contracts/access/Ownable.sol\":3020:3026  _owner */\n              0x05\n              0x00\n                /* \"@openzeppelin/contracts/access/Ownable.sol\":3020:3037  _owner = newOwner */\n              0x0100\n              exp\n              dup2\n              sload\n              dup2\n              0xffffffffffffffffffffffffffffffffffffffff\n              mul\n              not\n              and\n              swap1\n              dup4\n              0xffffffffffffffffffffffffffffffffffffffff\n              and\n              mul\n              or\n              swap1\n              sstore\n              pop\n                /* \"@openzeppelin/contracts/access/Ownable.sol\":3083:3091  newOwner */\n              dup2\n                /* \"@openzeppelin/contracts/access/Ownable.sol\":3052:3092  OwnershipTransferred(oldOwner, newOwner) */\n              0xffffffffffffffffffffffffffffffffffffffff\n              and\n                /* \"@openzeppelin/contracts/access/Ownable.sol\":3073:3081  oldOwner */\n              dup2\n                /* \"@openzeppelin/contracts/access/Ownable.sol\":3052:3092  OwnershipTransferred(oldOwner, newOwner) */\n              0xffffffffffffffffffffffffffffffffffffffff\n              and\n              0x8be0079c531659141344cd1fd0a4f28419497f9722a3daafe3b4186f6b6457e0\n              mload(0x40)\n              mload(0x40)\n              dup1\n              swap2\n              sub\n              swap1\n              log3\n                /* \"@openzeppelin/contracts/access/Ownable.sol\":2975:3099  {... */\n              pop\n                /* \"@openzeppelin/contracts/access/Ownable.sol\":2912:3099  function _transferOwnership(address newOwner) internal virtual {... */\n              pop\n              jump\t// out\n                /* \"@openzeppelin/contracts/token/ERC20/ERC20.sol\":9605:10037  function _approve(address owner, address spender, uint256 value, bool emitEvent) internal virtual {... */\n            tag_112:\n                /* \"@openzeppelin/contracts/token/ERC20/ERC20.sol\":9734:9735  0 */\n              0x00\n                /* \"@openzeppelin/contracts/token/ERC20/ERC20.sol\":9717:9736  owner == address(0) */\n              0xffffffffffffffffffffffffffffffffffffffff\n              and\n                /* \"@openzeppelin/contracts/token/ERC20/ERC20.sol\":9717:9722  owner */\n              dup5\n                /* \"@openzeppelin/contracts/token/ERC20/ERC20.sol\":9717:9736  owner == address(0) */\n              0xffffffffffffffffffffffffffffffffffffffff\n              and\n              sub\n                /* \"@openzeppelin/contracts/token/ERC20/ERC20.sol\":9713:9802  if (owner == address(0)) {... */\n              tag_135\n              jumpi\n                /* \"@openzeppelin/contracts/token/ERC20/ERC20.sol\":9788:9789  0 */\n              0x00\n                /* \"@openzeppelin/contracts/token/ERC20/ERC20.sol\":9759:9791  ERC20InvalidApprover(address(0)) */\n              mload(0x40)\n              0xe602df0500000000000000000000000000000000000000000000000000000000\n              dup2\n              mstore\n              0x04\n              add\n              tag_136\n              swap2\n              swap1\n              tag_49\n              jump\t// in\n            tag_136:\n              mload(0x40)\n              dup1\n              swap2\n              sub\n              swap1\n              revert\n                /* \"@openzeppelin/contracts/token/ERC20/ERC20.sol\":9713:9802  if (owner == address(0)) {... */\n            tag_135:\n                /* \"@openzeppelin/contracts/token/ERC20/ERC20.sol\":9834:9835  0 */\n              0x00\n                /* \"@openzeppelin/contracts/token/ERC20/ERC20.sol\":9815:9836  spender == address(0) */\n              0xffffffffffffffffffffffffffffffffffffffff\n              and\n                /* \"@openzeppelin/contracts/token/ERC20/ERC20.sol\":9815:9822  spender */\n              dup4\n                /* \"@openzeppelin/contracts/token/ERC20/ERC20.sol\":9815:9836  spender == address(0) */\n              0xffffffffffffffffffffffffffffffffffffffff\n              and\n              sub\n                /* \"@openzeppelin/contracts/token/ERC20/ERC20.sol\":9811:9901  if (spender == address(0)) {... */\n              tag_137\n              jumpi\n                /* \"@openzeppelin/contracts/token/ERC20/ERC20.sol\":9887:9888  0 */\n              0x00\n                /* \"@openzeppelin/contracts/token/ERC20/ERC20.sol\":9859:9890  ERC20InvalidSpender(address(0)) */\n              mload(0x40)\n              0x94280d6200000000000000000000000000000000000000000000000000000000\n              dup2\n              mstore\n              0x04\n              add\n              tag_138\n              swap2\n              swap1\n              tag_49\n              jump\t// in\n            tag_138:\n              mload(0x40)\n              dup1\n              swap2\n              sub\n              swap1\n              revert\n                /* \"@openzeppelin/contracts/token/ERC20/ERC20.sol\":9811:9901  if (spender == address(0)) {... */\n            tag_137:\n                /* \"@openzeppelin/contracts/token/ERC20/ERC20.sol\":9940:9945  value */\n              dup2\n                /* \"@openzeppelin/contracts/token/ERC20/ERC20.sol\":9910:9921  _allowances */\n              0x01\n                /* \"@openzeppelin/contracts/token/ERC20/ERC20.sol\":9910:9928  _allowances[owner] */\n              0x00\n                /* \"@openzeppelin/contracts/token/ERC20/ERC20.sol\":9922:9927  owner */\n              dup7\n                /* \"@openzeppelin/contracts/token/ERC20/ERC20.sol\":9910:9928  _allowances[owner] */\n              0xffffffffffffffffffffffffffffffffffffffff\n              and\n              0xffffffffffffffffffffffffffffffffffffffff\n              and\n              dup2\n              mstore\n              0x20\n              add\n              swap1\n              dup2\n              mstore\n              0x20\n              add\n              0x00\n              keccak256\n                /* \"@openzeppelin/contracts/token/ERC20/ERC20.sol\":9910:9937  _allowances[owner][spender] */\n              0x00\n                /* \"@openzeppelin/contracts/token/ERC20/ERC20.sol\":9929:9936  spender */\n              dup6\n                /* \"@openzeppelin/contracts/token/ERC20/ERC20.sol\":9910:9937  _allowances[owner][spender] */\n              0xffffffffffffffffffffffffffffffffffffffff\n              and\n              0xffffffffffffffffffffffffffffffffffffffff\n              and\n              dup2\n              mstore\n              0x20\n              add\n              swap1\n              dup2\n              mstore\n              0x20\n              add\n              0x00\n              keccak256\n                /* \"@openzeppelin/contracts/token/ERC20/ERC20.sol\":9910:9945  _allowances[owner][spender] = value */\n              dup2\n              swap1\n              sstore\n              pop\n                /* \"@openzeppelin/contracts/token/ERC20/ERC20.sol\":9959:9968  emitEvent */\n              dup1\n                /* \"@openzeppelin/contracts/token/ERC20/ERC20.sol\":9955:10031  if (emitEvent) {... */\n              iszero\n              tag_139\n              jumpi\n                /* \"@openzeppelin/contracts/token/ERC20/ERC20.sol\":10005:10012  spender */\n              dup3\n                /* \"@openzeppelin/contracts/token/ERC20/ERC20.sol\":9989:10020  Approval(owner, spender, value) */\n              0xffffffffffffffffffffffffffffffffffffffff\n              and\n                /* \"@openzeppelin/contracts/token/ERC20/ERC20.sol\":9998:10003  owner */\n              dup5\n                /* \"@openzeppelin/contracts/token/ERC20/ERC20.sol\":9989:10020  Approval(owner, spender, value) */\n              0xffffffffffffffffffffffffffffffffffffffff\n              and\n              0x8c5be1e5ebec7d5bd14f71427d1e84f3dd0314c0f7b2291e5b200ac8c7c3b925\n                /* \"@openzeppelin/contracts/token/ERC20/ERC20.sol\":10014:10019  value */\n              dup5\n                /* \"@openzeppelin/contracts/token/ERC20/ERC20.sol\":9989:10020  Approval(owner, spender, value) */\n              mload(0x40)\n              tag_140\n              swap2\n              swap1\n              tag_29\n              jump\t// in\n            tag_140:\n              mload(0x40)\n              dup1\n              swap2\n              sub\n              swap1\n              log3\n                /* \"@openzeppelin/contracts/token/ERC20/ERC20.sol\":9955:10031  if (emitEvent) {... */\n            tag_139:\n                /* \"@openzeppelin/contracts/token/ERC20/ERC20.sol\":9605:10037  function _approve(address owner, address spender, uint256 value, bool emitEvent) internal virtual {... */\n              pop\n              pop\n              pop\n              pop\n              jump\t// out\n                /* \"@openzeppelin/contracts/token/ERC20/ERC20.sol\":5912:7019  function _update(address from, address to, uint256 value) internal virtual {... */\n            tag_126:\n                /* \"@openzeppelin/contracts/token/ERC20/ERC20.sol\":6017:6018  0 */\n              0x00\n                /* \"@openzeppelin/contracts/token/ERC20/ERC20.sol\":6001:6019  from == address(0) */\n              0xffffffffffffffffffffffffffffffffffffffff\n              and\n                /* \"@openzeppelin/contracts/token/ERC20/ERC20.sol\":6001:6005  from */\n              dup4\n                /* \"@openzeppelin/contracts/token/ERC20/ERC20.sol\":6001:6019  from == address(0) */\n              0xffffffffffffffffffffffffffffffffffffffff\n              and\n              sub\n                /* \"@openzeppelin/contracts/token/ERC20/ERC20.sol\":5997:6537  if (from == address(0)) {... */\n              tag_142\n              jumpi\n                /* \"@openzeppelin/contracts/token/ERC20/ERC20.sol\":6153:6158  value */\n              dup1\n                /* \"@openzeppelin/contracts/token/ERC20/ERC20.sol\":6137:6149  _totalSupply */\n              0x02\n              0x00\n                /* \"@openzeppelin/contracts/token/ERC20/ERC20.sol\":6137:6158  _totalSupply += value */\n              dup3\n              dup3\n              sload\n              tag_143\n              swap2\n              swap1\n              tag_144\n              jump\t// in\n            tag_143:\n              swap3\n              pop\n              pop\n              dup2\n              swap1\n              sstore\n              pop\n                /* \"@openzeppelin/contracts/token/ERC20/ERC20.sol\":5997:6537  if (from == address(0)) {... */\n              jump(tag_145)\n            tag_142:\n                /* \"@openzeppelin/contracts/token/ERC20/ERC20.sol\":6189:6208  uint256 fromBalance */\n              0x00\n                /* \"@openzeppelin/contracts/token/ERC20/ERC20.sol\":6211:6220  _balances */\n              0x00\n                /* \"@openzeppelin/contracts/token/ERC20/ERC20.sol\":6211:6226  _balances[from] */\n              0x00\n                /* \"@openzeppelin/contracts/token/ERC20/ERC20.sol\":6221:6225  from */\n              dup6\n                /* \"@openzeppelin/contracts/token/ERC20/ERC20.sol\":6211:6226  _balances[from] */\n              0xffffffffffffffffffffffffffffffffffffffff\n              and\n              0xffffffffffffffffffffffffffffffffffffffff\n              and\n              dup2\n              mstore\n              0x20\n              add\n              swap1\n              dup2\n              mstore\n              0x20\n              add\n              0x00\n              keccak256\n              sload\n                /* \"@openzeppelin/contracts/token/ERC20/ERC20.sol\":6189:6226  uint256 fromBalance = _balances[from] */\n              swap1\n              pop\n                /* \"@openzeppelin/contracts/token/ERC20/ERC20.sol\":6258:6263  value */\n              dup2\n                /* \"@openzeppelin/contracts/token/ERC20/ERC20.sol\":6244:6255  fromBalance */\n              dup2\n                /* \"@openzeppelin/contracts/token/ERC20/ERC20.sol\":6244:6263  fromBalance < value */\n              lt\n                /* \"@openzeppelin/contracts/token/ERC20/ERC20.sol\":6240:6355  if (fromBalance < value) {... */\n              iszero\n              tag_146\n              jumpi\n                /* \"@openzeppelin/contracts/token/ERC20/ERC20.sol\":6315:6319  from */\n              dup4\n                /* \"@openzeppelin/contracts/token/ERC20/ERC20.sol\":6321:6332  fromBalance */\n              dup2\n                /* \"@openzeppelin/contracts/token/ERC20/ERC20.sol\":6334:6339  value */\n              dup4\n                /* \"@openzeppelin/contracts/token/ERC20/ERC20.sol\":6290:6340  ERC20InsufficientBalance(from, fromBalance, value) */\n              mload(0x40)\n              0xe450d38c00000000000000000000000000000000000000000000000000000000\n              dup2\n              mstore\n              0x04\n              add\n              tag_147\n              swap4\n              swap3\n              swap2\n              swap1\n              tag_118\n              jump\t// in\n            tag_147:\n              mload(0x40)\n              dup1\n              swap2\n              sub\n              swap1\n              revert\n                /* \"@openzeppelin/contracts/token/ERC20/ERC20.sol\":6240:6355  if (fromBalance < value) {... */\n            tag_146:\n                /* \"@openzeppelin/contracts/token/ERC20/ERC20.sol\":6507:6512  value */\n              dup2\n                /* \"@openzeppelin/contracts/token/ERC20/ERC20.sol\":6493:6504  fromBalance */\n              dup2\n                /* \"@openzeppelin/contracts/token/ERC20/ERC20.sol\":6493:6512  fromBalance - value */\n              sub\n                /* \"@openzeppelin/contracts/token/ERC20/ERC20.sol\":6475:6484  _balances */\n              0x00\n                /* \"@openzeppelin/contracts/token/ERC20/ERC20.sol\":6475:6490  _balances[from] */\n              0x00\n                /* \"@openzeppelin/contracts/token/ERC20/ERC20.sol\":6485:6489  from */\n              dup7\n                /* \"@openzeppelin/contracts/token/ERC20/ERC20.sol\":6475:6490  _balances[from] */\n              0xffffffffffffffffffffffffffffffffffffffff\n              and\n              0xffffffffffffffffffffffffffffffffffffffff\n              and\n              dup2\n              mstore\n              0x20\n              add\n              swap1\n              dup2\n              mstore\n              0x20\n              add\n              0x00\n              keccak256\n                /* \"@openzeppelin/contracts/token/ERC20/ERC20.sol\":6475:6512  _balances[from] = fromBalance - value */\n              dup2\n              swap1\n              sstore\n              pop\n                /* \"@openzeppelin/contracts/token/ERC20/ERC20.sol\":6175:6537  {... */\n              pop\n                /* \"@openzeppelin/contracts/token/ERC20/ERC20.sol\":5997:6537  if (from == address(0)) {... */\n            tag_145:\n                /* \"@openzeppelin/contracts/token/ERC20/ERC20.sol\":6565:6566  0 */\n              0x00\n                /* \"@openzeppelin/contracts/token/ERC20/ERC20.sol\":6551:6567  to == address(0) */\n              0xffffffffffffffffffffffffffffffffffffffff\n              and\n                /* \"@openzeppelin/contracts/token/ERC20/ERC20.sol\":6551:6553  to */\n              dup3\n                /* \"@openzeppelin/contracts/token/ERC20/ERC20.sol\":6551:6567  to == address(0) */\n              0xffffffffffffffffffffffffffffffffffffffff\n              and\n              sub\n                /* \"@openzeppelin/contracts/token/ERC20/ERC20.sol\":6547:6972  if (to == address(0)) {... */\n              tag_148\n              jumpi\n                /* \"@openzeppelin/contracts/token/ERC20/ERC20.sol\":6730:6735  value */\n              dup1\n                /* \"@openzeppelin/contracts/token/ERC20/ERC20.sol\":6714:6726  _totalSupply */\n              0x02\n              0x00\n                /* \"@openzeppelin/contracts/token/ERC20/ERC20.sol\":6714:6735  _totalSupply -= value */\n              dup3\n              dup3\n              sload\n              sub\n              swap3\n              pop\n              pop\n              dup2\n              swap1\n              sstore\n              pop\n                /* \"@openzeppelin/contracts/token/ERC20/ERC20.sol\":6547:6972  if (to == address(0)) {... */\n              jump(tag_149)\n            tag_148:\n                /* \"@openzeppelin/contracts/token/ERC20/ERC20.sol\":6942:6947  value */\n              dup1\n                /* \"@openzeppelin/contracts/token/ERC20/ERC20.sol\":6925:6934  _balances */\n              0x00\n                /* \"@openzeppelin/contracts/token/ERC20/ERC20.sol\":6925:6938  _balances[to] */\n              0x00\n                /* \"@openzeppelin/contracts/token/ERC20/ERC20.sol\":6935:6937  to */\n              dup5\n                /* \"@openzeppelin/contracts/token/ERC20/ERC20.sol\":6925:6938  _balances[to] */\n              0xffffffffffffffffffffffffffffffffffffffff\n              and\n              0xffffffffffffffffffffffffffffffffffffffff\n              and\n              dup2\n              mstore\n              0x20\n              add\n              swap1\n              dup2\n              mstore\n              0x20\n              add\n              0x00\n              keccak256\n              0x00\n                /* \"@openzeppelin/contracts/token/ERC20/ERC20.sol\":6925:6947  _balances[to] += value */\n              dup3\n              dup3\n              sload\n              add\n              swap3\n              pop\n              pop\n              dup2\n              swap1\n              sstore\n              pop\n                /* \"@openzeppelin/contracts/token/ERC20/ERC20.sol\":6547:6972  if (to == address(0)) {... */\n            tag_149:\n                /* \"@openzeppelin/contracts/token/ERC20/ERC20.sol\":7002:7004  to */\n              dup2\n                /* \"@openzeppelin/contracts/token/ERC20/ERC20.sol\":6987:7012  Transfer(from, to, value) */\n              0xffffffffffffffffffffffffffffffffffffffff\n              and\n                /* \"@openzeppelin/contracts/token/ERC20/ERC20.sol\":6996:7000  from */\n              dup4\n                /* \"@openzeppelin/contracts/token/ERC20/ERC20.sol\":6987:7012  Transfer(from, to, value) */\n              0xffffffffffffffffffffffffffffffffffffffff\n              and\n              0xddf252ad1be2c89b69c2b068fc378daa952ba7f163c4a11628f55a4df523b3ef\n                /* \"@openzeppelin/contracts/token/ERC20/ERC20.sol\":7006:7011  value */\n              dup4\n                /* \"@openzeppelin/contracts/token/ERC20/ERC20.sol\":6987:7012  Transfer(from, to, value) */\n              mload(0x40)\n              tag_150\n              swap2\n              swap1\n              tag_29\n              jump\t// in\n            tag_150:\n              mload(0x40)\n              dup1\n              swap2\n              sub\n              swap1\n              log3\n                /* \"@openzeppelin/contracts/token/ERC20/ERC20.sol\":5912:7019  function _update(address from, address to, uint256 value) internal virtual {... */\n              pop\n              pop\n              pop\n              jump\t// out\n                /* \"#utility.yul\":7:106   */\n            tag_151:\n                /* \"#utility.yul\":59:65   */\n              0x00\n                /* \"#utility.yul\":93:98   */\n              dup2\n                /* \"#utility.yul\":87:99   */\n              mload\n                /* \"#utility.yul\":77:99   */\n              swap1\n              pop\n                /* \"#utility.yul\":7:106   */\n              swap2\n              swap1\n              pop\n              jump\t// out\n                /* \"#utility.yul\":112:281   */\n            tag_152:\n                /* \"#utility.yul\":196:207   */\n              0x00\n                /* \"#utility.yul\":230:236   */\n              dup3\n                /* \"#utility.yul\":225:228   */\n              dup3\n                /* \"#utility.yul\":218:237   */\n              mstore\n                /* \"#utility.yul\":270:274   */\n              0x20\n                /* \"#utility.yul\":265:268   */\n              dup3\n                /* \"#utility.yul\":261:275   */\n              add\n                /* \"#utility.yul\":246:275   */\n              swap1\n              pop\n                /* \"#utility.yul\":112:281   */\n              swap3\n              swap2\n              pop\n              pop\n              jump\t// out\n                /* \"#utility.yul\":287:426   */\n            tag_153:\n                /* \"#utility.yul\":376:382   */\n              dup3\n                /* \"#utility.yul\":371:374   */\n              dup2\n                /* \"#utility.yul\":366:369   */\n              dup4\n                /* \"#utility.yul\":360:383   */\n              mcopy\n                /* \"#utility.yul\":417:418   */\n              0x00\n                /* \"#utility.yul\":408:414   */\n              dup4\n                /* \"#utility.yul\":403:406   */\n              dup4\n                /* \"#utility.yul\":399:415   */\n              add\n                /* \"#utility.yul\":392:419   */\n              mstore\n                /* \"#utility.yul\":287:426   */\n              pop\n              pop\n              pop\n              jump\t// out\n                /* \"#utility.yul\":432:534   */\n            tag_154:\n                /* \"#utility.yul\":473:479   */\n              0x00\n                /* \"#utility.yul\":524:526   */\n              0x1f\n                /* \"#utility.yul\":520:527   */\n              not\n                /* \"#utility.yul\":515:517   */\n              0x1f\n                /* \"#utility.yul\":508:513   */\n              dup4\n                /* \"#utility.yul\":504:518   */\n              add\n                /* \"#utility.yul\":500:528   */\n              and\n                /* \"#utility.yul\":490:528   */\n              swap1\n              pop\n                /* \"#utility.yul\":432:534   */\n              swap2\n              swap1\n              pop\n              jump\t// out\n                /* \"#utility.yul\":540:917   */\n            tag_155:\n                /* \"#utility.yul\":628:631   */\n              0x00\n                /* \"#utility.yul\":656:695   */\n              tag_180\n                /* \"#utility.yul\":689:694   */\n              dup3\n                /* \"#utility.yul\":656:695   */\n              tag_151\n              jump\t// in\n            tag_180:\n                /* \"#utility.yul\":711:782   */\n              tag_181\n                /* \"#utility.yul\":775:781   */\n              dup2\n                /* \"#utility.yul\":770:773   */\n              dup6\n                /* \"#utility.yul\":711:782   */\n              tag_152\n              jump\t// in\n            tag_181:\n                /* \"#utility.yul\":704:782   */\n              swap4\n              pop\n                /* \"#utility.yul\":791:856   */\n              tag_182\n                /* \"#utility.yul\":849:855   */\n              dup2\n                /* \"#utility.yul\":844:847   */\n              dup6\n                /* \"#utility.yul\":837:841   */\n              0x20\n                /* \"#utility.yul\":830:835   */\n              dup7\n                /* \"#utility.yul\":826:842   */\n              add\n                /* \"#utility.yul\":791:856   */\n              tag_153\n              jump\t// in\n            tag_182:\n                /* \"#utility.yul\":881:910   */\n              tag_183\n                /* \"#utility.yul\":903:909   */\n              dup2\n                /* \"#utility.yul\":881:910   */\n              tag_154\n              jump\t// in\n            tag_183:\n                /* \"#utility.yul\":876:879   */\n              dup5\n                /* \"#utility.yul\":872:911   */\n              add\n                /* \"#utility.yul\":865:911   */\n              swap2\n              pop\n                /* \"#utility.yul\":632:917   */\n              pop\n                /* \"#utility.yul\":540:917   */\n              swap3\n              swap2\n              pop\n              pop\n              jump\t// out\n                /* \"#utility.yul\":923:1236   */\n            tag_19:\n                /* \"#utility.yul\":1036:1040   */\n              0x00\n                /* \"#utility.yul\":1074:1076   */\n              0x20\n                /* \"#utility.yul\":1063:1072   */\n              dup3\n                /* \"#utility.yul\":1059:1077   */\n              add\n                /* \"#utility.yul\":1051:1077   */\n              swap1\n              pop\n                /* \"#utility.yul\":1123:1132   */\n              dup2\n                /* \"#utility.yul\":1117:1121   */\n              dup2\n                /* \"#utility.yul\":1113:1133   */\n              sub\n                /* \"#utility.yul\":1109:1110   */\n              0x00\n                /* \"#utility.yul\":1098:1107   */\n              dup4\n                /* \"#utility.yul\":1094:1111   */\n              add\n                /* \"#utility.yul\":1087:1134   */\n              mstore\n                /* \"#utility.yul\":1151:1229   */\n              tag_185\n                /* \"#utility.yul\":1224:1228   */\n              dup2\n                /* \"#utility.yul\":1215:1221   */\n              dup5\n                /* \"#utility.yul\":1151:1229   */\n              tag_155\n              jump\t// in\n            tag_185:\n                /* \"#utility.yul\":1143:1229   */\n              swap1\n              pop\n                /* \"#utility.yul\":923:1236   */\n              swap3\n              swap2\n              pop\n              pop\n              jump\t// out\n                /* \"#utility.yul\":1323:1440   */\n            tag_157:\n                /* \"#utility.yul\":1432:1433   */\n              0x00\n                /* \"#utility.yul\":1429:1430   */\n              0x00\n                /* \"#utility.yul\":1422:1434   */\n              revert\n                /* \"#utility.yul\":1569:1695   */\n            tag_159:\n                /* \"#utility.yul\":1606:1613   */\n              0x00\n                /* \"#utility.yul\":1646:1688   */\n              0xffffffffffffffffffffffffffffffffffffffff\n                /* \"#utility.yul\":1639:1644   */\n              dup3\n                /* \"#utility.yul\":1635:1689   */\n              and\n                /* \"#utility.yul\":1624:1689   */\n              swap1\n              pop\n                /* \"#utility.yul\":1569:1695   */\n              swap2\n              swap1\n              pop\n              jump\t// out\n                /* \"#utility.yul\":1701:1797   */\n            tag_160:\n                /* \"#utility.yul\":1738:1745   */\n              0x00\n                /* \"#utility.yul\":1767:1791   */\n              tag_191\n                /* \"#utility.yul\":1785:1790   */\n              dup3\n                /* \"#utility.yul\":1767:1791   */\n              tag_159\n              jump\t// in\n            tag_191:\n                /* \"#utility.yul\":1756:1791   */\n              swap1\n              pop\n                /* \"#utility.yul\":1701:1797   */\n              swap2\n              swap1\n              pop\n              jump\t// out\n                /* \"#utility.yul\":1803:1925   */\n            tag_161:\n                /* \"#utility.yul\":1876:1900   */\n              tag_193\n                /* \"#utility.yul\":1894:1899   */\n              dup2\n                /* \"#utility.yul\":1876:1900   */\n              tag_160\n              jump\t// in\n            tag_193:\n                /* \"#utility.yul\":1869:1874   */\n              dup2\n                /* \"#utility.yul\":1866:1901   */\n              eq\n                /* \"#utility.yul\":1856:1919   */\n              tag_194\n              jumpi\n                /* \"#utility.yul\":1915:1916   */\n              0x00\n                /* \"#utility.yul\":1912:1913   */\n              0x00\n                /* \"#utility.yul\":1905:1917   */\n              revert\n                /* \"#utility.yul\":1856:1919   */\n            tag_194:\n                /* \"#utility.yul\":1803:1925   */\n              pop\n              jump\t// out\n                /* \"#utility.yul\":1931:2070   */\n            tag_162:\n                /* \"#utility.yul\":1977:1982   */\n              0x00\n                /* \"#utility.yul\":2015:2021   */\n              dup2\n                /* \"#utility.yul\":2002:2022   */\n              calldataload\n                /* \"#utility.yul\":1993:2022   */\n              swap1\n              pop\n                /* \"#utility.yul\":2031:2064   */\n              tag_196\n                /* \"#utility.yul\":2058:2063   */\n              dup2\n                /* \"#utility.yul\":2031:2064   */\n              tag_161\n              jump\t// in\n            tag_196:\n                /* \"#utility.yul\":1931:2070   */\n              swap3\n              swap2\n              pop\n              pop\n              jump\t// out\n                /* \"#utility.yul\":2076:2153   */\n            tag_163:\n                /* \"#utility.yul\":2113:2120   */\n              0x00\n                /* \"#utility.yul\":2142:2147   */\n              dup2\n                /* \"#utility.yul\":2131:2147   */\n              swap1\n              pop\n                /* \"#utility.yul\":2076:2153   */\n              swap2\n              swap1\n              pop\n              jump\t// out\n                /* \"#utility.yul\":2159:2281   */\n            tag_164:\n                /* \"#utility.yul\":2232:2256   */\n              tag_199\n                /* \"#utility.yul\":2250:2255   */\n              dup2\n                /* \"#utility.yul\":2232:2256   */\n              tag_163\n              jump\t// in\n            tag_199:\n                /* \"#utility.yul\":2225:2230   */\n              dup2\n                /* \"#utility.yul\":2222:2257   */\n              eq\n                /* \"#utility.yul\":2212:2275   */\n              tag_200\n              jumpi\n                /* \"#utility.yul\":2271:2272   */\n              0x00\n                /* \"#utility.yul\":2268:2269   */\n              0x00\n                /* \"#utility.yul\":2261:2273   */\n              revert\n                /* \"#utility.yul\":2212:2275   */\n            tag_200:\n                /* \"#utility.yul\":2159:2281   */\n              pop\n              jump\t// out\n                /* \"#utility.yul\":2287:2426   */\n            tag_165:\n                /* \"#utility.yul\":2333:2338   */\n              0x00\n                /* \"#utility.yul\":2371:2377   */\n              dup2\n                /* \"#utility.yul\":2358:2378   */\n              calldataload\n                /* \"#utility.yul\":2349:2378   */\n              swap1\n              pop\n                /* \"#utility.yul\":2387:2420   */\n              tag_202\n                /* \"#utility.yul\":2414:2419   */\n              dup2\n                /* \"#utility.yul\":2387:2420   */\n              tag_164\n              jump\t// in\n            tag_202:\n                /* \"#utility.yul\":2287:2426   */\n              swap3\n              swap2\n              pop\n              pop\n              jump\t// out\n                /* \"#utility.yul\":2432:2906   */\n            tag_22:\n                /* \"#utility.yul\":2500:2506   */\n              0x00\n                /* \"#utility.yul\":2508:2514   */\n              0x00\n                /* \"#utility.yul\":2557:2559   */\n              0x40\n                /* \"#utility.yul\":2545:2554   */\n              dup4\n                /* \"#utility.yul\":2536:2543   */\n              dup6\n                /* \"#utility.yul\":2532:2555   */\n              sub\n                /* \"#utility.yul\":2528:2560   */\n              slt\n                /* \"#utility.yul\":2525:2644   */\n              iszero\n              tag_204\n              jumpi\n                /* \"#utility.yul\":2563:2642   */\n              tag_205\n              tag_157\n              jump\t// in\n            tag_205:\n                /* \"#utility.yul\":2525:2644   */\n            tag_204:\n                /* \"#utility.yul\":2683:2684   */\n              0x00\n                /* \"#utility.yul\":2708:2761   */\n              tag_206\n                /* \"#utility.yul\":2753:2760   */\n              dup6\n                /* \"#utility.yul\":2744:2750   */\n              dup3\n                /* \"#utility.yul\":2733:2742   */\n              dup7\n                /* \"#utility.yul\":2729:2751   */\n              add\n                /* \"#utility.yul\":2708:2761   */\n              tag_162\n              jump\t// in\n            tag_206:\n                /* \"#utility.yul\":2698:2761   */\n              swap3\n              pop\n                /* \"#utility.yul\":2654:2771   */\n              pop\n                /* \"#utility.yul\":2810:2812   */\n              0x20\n                /* \"#utility.yul\":2836:2889   */\n              tag_207\n                /* \"#utility.yul\":2881:2888   */\n              dup6\n                /* \"#utility.yul\":2872:2878   */\n              dup3\n                /* \"#utility.yul\":2861:2870   */\n              dup7\n                /* \"#utility.yul\":2857:2879   */\n              add\n                /* \"#utility.yul\":2836:2889   */\n              tag_165\n              jump\t// in\n            tag_207:\n                /* \"#utility.yul\":2826:2889   */\n              swap2\n              pop\n                /* \"#utility.yul\":2781:2899   */\n              pop\n                /* \"#utility.yul\":2432:2906   */\n              swap3\n              pop\n              swap3\n              swap1\n              pop\n              jump\t// out\n                /* \"#utility.yul\":2912:3002   */\n            tag_166:\n                /* \"#utility.yul\":2946:2953   */\n              0x00\n                /* \"#utility.yul\":2989:2994   */\n              dup2\n                /* \"#utility.yul\":2982:2995   */\n              iszero\n                /* \"#utility.yul\":2975:2996   */\n              iszero\n                /* \"#utility.yul\":2964:2996   */\n              swap1\n              pop\n                /* \"#utility.yul\":2912:3002   */\n              swap2\n              swap1\n              pop\n              jump\t// out\n                /* \"#utility.yul\":3008:3117   */\n            tag_167:\n                /* \"#utility.yul\":3089:3110   */\n              tag_210\n                /* \"#utility.yul\":3104:3109   */\n              dup2\n                /* \"#utility.yul\":3089:3110   */\n              tag_166\n              jump\t// in\n            tag_210:\n                /* \"#utility.yul\":3084:3087   */\n              dup3\n                /* \"#utility.yul\":3077:3111   */\n              mstore\n                /* \"#utility.yul\":3008:3117   */\n              pop\n              pop\n              jump\t// out\n                /* \"#utility.yul\":3123:3333   */\n            tag_25:\n                /* \"#utility.yul\":3210:3214   */\n              0x00\n                /* \"#utility.yul\":3248:3250   */\n              0x20\n                /* \"#utility.yul\":3237:3246   */\n              dup3\n                /* \"#utility.yul\":3233:3251   */\n              add\n                /* \"#utility.yul\":3225:3251   */\n              swap1\n              pop\n                /* \"#utility.yul\":3261:3326   */\n              tag_212\n                /* \"#utility.yul\":3323:3324   */\n              0x00\n                /* \"#utility.yul\":3312:3321   */\n              dup4\n                /* \"#utility.yul\":3308:3325   */\n              add\n                /* \"#utility.yul\":3299:3305   */\n              dup5\n                /* \"#utility.yul\":3261:3326   */\n              tag_167\n              jump\t// in\n            tag_212:\n                /* \"#utility.yul\":3123:3333   */\n              swap3\n              swap2\n              pop\n              pop\n              jump\t// out\n                /* \"#utility.yul\":3339:3457   */\n            tag_168:\n                /* \"#utility.yul\":3426:3450   */\n              tag_214\n                /* \"#utility.yul\":3444:3449   */\n              dup2\n                /* \"#utility.yul\":3426:3450   */\n              tag_163\n              jump\t// in\n            tag_214:\n                /* \"#utility.yul\":3421:3424   */\n              dup3\n                /* \"#utility.yul\":3414:3451   */\n              mstore\n                /* \"#utility.yul\":3339:3457   */\n              pop\n              pop\n              jump\t// out\n                /* \"#utility.yul\":3463:3685   */\n            tag_29:\n                /* \"#utility.yul\":3556:3560   */\n              0x00\n                /* \"#utility.yul\":3594:3596   */\n              0x20\n                /* \"#utility.yul\":3583:3592   */\n              dup3\n                /* \"#utility.yul\":3579:3597   */\n              add\n                /* \"#utility.yul\":3571:3597   */\n              swap1\n              pop\n                /* \"#utility.yul\":3607:3678   */\n              tag_216\n                /* \"#utility.yul\":3675:3676   */\n              0x00\n                /* \"#utility.yul\":3664:3673   */\n              dup4\n                /* \"#utility.yul\":3660:3677   */\n              add\n                /* \"#utility.yul\":3651:3657   */\n              dup5\n                /* \"#utility.yul\":3607:3678   */\n              tag_168\n              jump\t// in\n            tag_216:\n                /* \"#utility.yul\":3463:3685   */\n              swap3\n              swap2\n              pop\n              pop\n              jump\t// out\n                /* \"#utility.yul\":3691:4310   */\n            tag_32:\n                /* \"#utility.yul\":3768:3774   */\n              0x00\n                /* \"#utility.yul\":3776:3782   */\n              0x00\n                /* \"#utility.yul\":3784:3790   */\n              0x00\n                /* \"#utility.yul\":3833:3835   */\n              0x60\n                /* \"#utility.yul\":3821:3830   */\n              dup5\n                /* \"#utility.yul\":3812:3819   */\n              dup7\n                /* \"#utility.yul\":3808:3831   */\n              sub\n                /* \"#utility.yul\":3804:3836   */\n              slt\n                /* \"#utility.yul\":3801:3920   */\n              iszero\n              tag_218\n              jumpi\n                /* \"#utility.yul\":3839:3918   */\n              tag_219\n              tag_157\n              jump\t// in\n            tag_219:\n                /* \"#utility.yul\":3801:3920   */\n            tag_218:\n                /* \"#utility.yul\":3959:3960   */\n              0x00\n                /* \"#utility.yul\":3984:4037   */\n              tag_220\n                /* \"#utility.yul\":4029:4036   */\n              dup7\n                /* \"#utility.yul\":4020:4026   */\n              dup3\n                /* \"#utility.yul\":4009:4018   */\n              dup8\n                /* \"#utility.yul\":4005:4027   */\n              add\n                /* \"#utility.yul\":3984:4037   */\n              tag_162\n              jump\t// in\n            tag_220:\n                /* \"#utility.yul\":3974:4037   */\n              swap4\n              pop\n                /* \"#utility.yul\":3930:4047   */\n              pop\n                /* \"#utility.yul\":4086:4088   */\n              0x20\n                /* \"#utility.yul\":4112:4165   */\n              tag_221\n                /* \"#utility.yul\":4157:4164   */\n              dup7\n                /* \"#utility.yul\":4148:4154   */\n              dup3\n                /* \"#utility.yul\":4137:4146   */\n              dup8\n                /* \"#utility.yul\":4133:4155   */\n              add\n                /* \"#utility.yul\":4112:4165   */\n              tag_162\n              jump\t// in\n            tag_221:\n                /* \"#utility.yul\":4102:4165   */\n              swap3\n              pop\n                /* \"#utility.yul\":4057:4175   */\n              pop\n                /* \"#utility.yul\":4214:4216   */\n              0x40\n                /* \"#utility.yul\":4240:4293   */\n              tag_222\n                /* \"#utility.yul\":4285:4292   */\n              dup7\n                /* \"#utility.yul\":4276:4282   */\n              dup3\n                /* \"#utility.yul\":4265:4274   */\n              dup8\n                /* \"#utility.yul\":4261:4283   */\n              add\n                /* \"#utility.yul\":4240:4293   */\n              tag_165\n              jump\t// in\n            tag_222:\n                /* \"#utility.yul\":4230:4293   */\n              swap2\n              pop\n                /* \"#utility.yul\":4185:4303   */\n              pop\n                /* \"#utility.yul\":3691:4310   */\n              swap3\n              pop\n              swap3\n              pop\n              swap3\n              jump\t// out\n                /* \"#utility.yul\":4316:4402   */\n            tag_169:\n                /* \"#utility.yul\":4351:4358   */\n              0x00\n                /* \"#utility.yul\":4391:4395   */\n              0xff\n                /* \"#utility.yul\":4384:4389   */\n              dup3\n                /* \"#utility.yul\":4380:4396   */\n              and\n                /* \"#utility.yul\":4369:4396   */\n              swap1\n              pop\n                /* \"#utility.yul\":4316:4402   */\n              swap2\n              swap1\n              pop\n              jump\t// out\n                /* \"#utility.yul\":4408:4520   */\n            tag_170:\n                /* \"#utility.yul\":4491:4513   */\n              tag_225\n                /* \"#utility.yul\":4507:4512   */\n              dup2\n                /* \"#utility.yul\":4491:4513   */\n              tag_169\n              jump\t// in\n            tag_225:\n                /* \"#utility.yul\":4486:4489   */\n              dup3\n                /* \"#utility.yul\":4479:4514   */\n              mstore\n                /* \"#utility.yul\":4408:4520   */\n              pop\n              pop\n              jump\t// out\n                /* \"#utility.yul\":4526:4740   */\n            tag_38:\n                /* \"#utility.yul\":4615:4619   */\n              0x00\n                /* \"#utility.yul\":4653:4655   */\n              0x20\n                /* \"#utility.yul\":4642:4651   */\n              dup3\n                /* \"#utility.yul\":4638:4656   */\n              add\n                /* \"#utility.yul\":4630:4656   */\n              swap1\n              pop\n                /* \"#utility.yul\":4666:4733   */\n              tag_227\n                /* \"#utility.yul\":4730:4731   */\n              0x00\n                /* \"#utility.yul\":4719:4728   */\n              dup4\n                /* \"#utility.yul\":4715:4732   */\n              add\n                /* \"#utility.yul\":4706:4712   */\n              dup5\n                /* \"#utility.yul\":4666:4733   */\n              tag_170\n              jump\t// in\n            tag_227:\n                /* \"#utility.yul\":4526:4740   */\n              swap3\n              swap2\n              pop\n              pop\n              jump\t// out\n                /* \"#utility.yul\":4746:5075   */\n            tag_41:\n                /* \"#utility.yul\":4805:4811   */\n              0x00\n                /* \"#utility.yul\":4854:4856   */\n              0x20\n                /* \"#utility.yul\":4842:4851   */\n              dup3\n                /* \"#utility.yul\":4833:4840   */\n              dup5\n                /* \"#utility.yul\":4829:4852   */\n              sub\n                /* \"#utility.yul\":4825:4857   */\n              slt\n                /* \"#utility.yul\":4822:4941   */\n              iszero\n              tag_229\n              jumpi\n                /* \"#utility.yul\":4860:4939   */\n              tag_230\n              tag_157\n              jump\t// in\n            tag_230:\n                /* \"#utility.yul\":4822:4941   */\n            tag_229:\n                /* \"#utility.yul\":4980:4981   */\n              0x00\n                /* \"#utility.yul\":5005:5058   */\n              tag_231\n                /* \"#utility.yul\":5050:5057   */\n              dup5\n                /* \"#utility.yul\":5041:5047   */\n              dup3\n                /* \"#utility.yul\":5030:5039   */\n              dup6\n                /* \"#utility.yul\":5026:5048   */\n              add\n                /* \"#utility.yul\":5005:5058   */\n              tag_162\n              jump\t// in\n            tag_231:\n                /* \"#utility.yul\":4995:5058   */\n              swap2\n              pop\n                /* \"#utility.yul\":4951:5068   */\n              pop\n                /* \"#utility.yul\":4746:5075   */\n              swap3\n              swap2\n              pop\n              pop\n              jump\t// out\n                /* \"#utility.yul\":5081:5199   */\n            tag_171:\n                /* \"#utility.yul\":5168:5192   */\n              tag_233\n                /* \"#utility.yul\":5186:5191   */\n              dup2\n                /* \"#utility.yul\":5168:5192   */\n              tag_160\n              jump\t// in\n            tag_233:\n                /* \"#utility.yul\":5163:5166   */\n              dup3\n                /* \"#utility.yul\":5156:5193   */\n              mstore\n                /* \"#utility.yul\":5081:5199   */\n              pop\n              pop\n              jump\t// out\n                /* \"#utility.yul\":5205:5427   */\n            tag_49:\n                /* \"#utility.yul\":5298:5302   */\n              0x00\n                /* \"#utility.yul\":5336:5338   */\n              0x20\n                /* \"#utility.yul\":5325:5334   */\n              dup3\n                /* \"#utility.yul\":5321:5339   */\n              add\n                /* \"#utility.yul\":5313:5339   */\n              swap1\n              pop\n                /* \"#utility.yul\":5349:5420   */\n              tag_235\n                /* \"#utility.yul\":5417:5418   */\n              0x00\n                /* \"#utility.yul\":5406:5415   */\n              dup4\n                /* \"#utility.yul\":5402:5419   */\n              add\n                /* \"#utility.yul\":5393:5399   */\n              dup5\n                /* \"#utility.yul\":5349:5420   */\n              tag_171\n              jump\t// in\n            tag_235:\n                /* \"#utility.yul\":5205:5427   */\n              swap3\n              swap2\n              pop\n              pop\n              jump\t// out\n                /* \"#utility.yul\":5433:5907   */\n            tag_59:\n                /* \"#utility.yul\":5501:5507   */\n              0x00\n                /* \"#utility.yul\":5509:5515   */\n              0x00\n                /* \"#utility.yul\":5558:5560   */\n              0x40\n                /* \"#utility.yul\":5546:5555   */\n              dup4\n                /* \"#utility.yul\":5537:5544   */\n              dup6\n                /* \"#utility.yul\":5533:5556   */\n              sub\n                /* \"#utility.yul\":5529:5561   */\n              slt\n                /* \"#utility.yul\":5526:5645   */\n              iszero\n              tag_237\n              jumpi\n                /* \"#utility.yul\":5564:5643   */\n              tag_238\n              tag_157\n              jump\t// in\n            tag_238:\n                /* \"#utility.yul\":5526:5645   */\n            tag_237:\n                /* \"#utility.yul\":5684:5685   */\n              0x00\n                /* \"#utility.yul\":5709:5762   */\n              tag_239\n                /* \"#utility.yul\":5754:5761   */\n              dup6\n                /* \"#utility.yul\":5745:5751   */\n              dup3\n                /* \"#utility.yul\":5734:5743   */\n              dup7\n                /* \"#utility.yul\":5730:5752   */\n              add\n                /* \"#utility.yul\":5709:5762   */\n              tag_162\n              jump\t// in\n            tag_239:\n                /* \"#utility.yul\":5699:5762   */\n              swap3\n              pop\n                /* \"#utility.yul\":5655:5772   */\n              pop\n                /* \"#utility.yul\":5811:5813   */\n              0x20\n                /* \"#utility.yul\":5837:5890   */\n              tag_240\n                /* \"#utility.yul\":5882:5889   */\n              dup6\n                /* \"#utility.yul\":5873:5879   */\n              dup3\n                /* \"#utility.yul\":5862:5871   */\n              dup7\n                /* \"#utility.yul\":5858:5880   */\n              add\n                /* \"#utility.yul\":5837:5890   */\n              tag_162\n              jump\t// in\n            tag_240:\n                /* \"#utility.yul\":5827:5890   */\n              swap2\n              pop\n                /* \"#utility.yul\":5782:5900   */\n              pop\n                /* \"#utility.yul\":5433:5907   */\n              swap3\n              pop\n              swap3\n              swap1\n              pop\n              jump\t// out\n                /* \"#utility.yul\":5913:6093   */\n            tag_172:\n                /* \"#utility.yul\":5961:6038   */\n              0x4e487b7100000000000000000000000000000000000000000000000000000000\n                /* \"#utility.yul\":5958:5959   */\n              0x00\n                /* \"#utility.yul\":5951:6039   */\n              mstore\n                /* \"#utility.yul\":6058:6062   */\n              0x22\n                /* \"#utility.yul\":6055:6056   */\n              0x04\n                /* \"#utility.yul\":6048:6063   */\n              mstore\n                /* \"#utility.yul\":6082:6086   */\n              0x24\n                /* \"#utility.yul\":6079:6080   */\n              0x00\n                /* \"#utility.yul\":6072:6087   */\n              revert\n                /* \"#utility.yul\":6099:6419   */\n            tag_67:\n                /* \"#utility.yul\":6143:6149   */\n              0x00\n                /* \"#utility.yul\":6180:6181   */\n              0x02\n                /* \"#utility.yul\":6174:6178   */\n              dup3\n                /* \"#utility.yul\":6170:6182   */\n              div\n                /* \"#utility.yul\":6160:6182   */\n              swap1\n              pop\n                /* \"#utility.yul\":6227:6228   */\n              0x01\n                /* \"#utility.yul\":6221:6225   */\n              dup3\n                /* \"#utility.yul\":6217:6229   */\n              and\n                /* \"#utility.yul\":6248:6266   */\n              dup1\n                /* \"#utility.yul\":6238:6319   */\n              tag_243\n              jumpi\n                /* \"#utility.yul\":6304:6308   */\n              0x7f\n                /* \"#utility.yul\":6296:6302   */\n              dup3\n                /* \"#utility.yul\":6292:6309   */\n              and\n                /* \"#utility.yul\":6282:6309   */\n              swap2\n              pop\n                /* \"#utility.yul\":6238:6319   */\n            tag_243:\n                /* \"#utility.yul\":6366:6368   */\n              0x20\n                /* \"#utility.yul\":6358:6364   */\n              dup3\n                /* \"#utility.yul\":6355:6369   */\n              lt\n                /* \"#utility.yul\":6335:6353   */\n              dup2\n                /* \"#utility.yul\":6332:6370   */\n              sub\n                /* \"#utility.yul\":6329:6413   */\n              tag_244\n              jumpi\n                /* \"#utility.yul\":6385:6403   */\n              tag_245\n              tag_172\n              jump\t// in\n            tag_245:\n                /* \"#utility.yul\":6329:6413   */\n            tag_244:\n                /* \"#utility.yul\":6150:6419   */\n              pop\n                /* \"#utility.yul\":6099:6419   */\n              swap2\n              swap1\n              pop\n              jump\t// out\n                /* \"#utility.yul\":6425:6867   */\n            tag_118:\n                /* \"#utility.yul\":6574:6578   */\n              0x00\n                /* \"#utility.yul\":6612:6614   */\n              0x60\n                /* \"#utility.yul\":6601:6610   */\n              dup3\n                /* \"#utility.yul\":6597:6615   */\n              add\n                /* \"#utility.yul\":6589:6615   */\n              swap1\n              pop\n                /* \"#utility.yul\":6625:6696   */\n              tag_247\n                /* \"#utility.yul\":6693:6694   */\n              0x00\n                /* \"#utility.yul\":6682:6691   */\n              dup4\n                /* \"#utility.yul\":6678:6695   */\n              add\n                /* \"#utility.yul\":6669:6675   */\n              dup7\n                /* \"#utility.yul\":6625:6696   */\n              tag_171\n              jump\t// in\n            tag_247:\n                /* \"#utility.yul\":6706:6778   */\n              tag_248\n                /* \"#utility.yul\":6774:6776   */\n              0x20\n                /* \"#utility.yul\":6763:6772   */\n              dup4\n                /* \"#utility.yul\":6759:6777   */\n              add\n                /* \"#utility.yul\":6750:6756   */\n              dup6\n                /* \"#utility.yul\":6706:6778   */\n              tag_168\n              jump\t// in\n            tag_248:\n                /* \"#utility.yul\":6788:6860   */\n              tag_249\n                /* \"#utility.yul\":6856:6858   */\n              0x40\n                /* \"#utility.yul\":6845:6854   */\n              dup4\n                /* \"#utility.yul\":6841:6859   */\n              add\n                /* \"#utility.yul\":6832:6838   */\n              dup5\n                /* \"#utility.yul\":6788:6860   */\n              tag_168\n              jump\t// in\n            tag_249:\n                /* \"#utility.yul\":6425:6867   */\n              swap5\n              swap4\n              pop\n              pop\n              pop\n              pop\n              jump\t// out\n                /* \"#utility.yul\":6873:7053   */\n            tag_173:\n                /* \"#utility.yul\":6921:6998   */\n              0x4e487b7100000000000000000000000000000000000000000000000000000000\n                /* \"#utility.yul\":6918:6919   */\n              0x00\n                /* \"#utility.yul\":6911:6999   */\n              mstore\n                /* \"#utility.yul\":7018:7022   */\n              0x11\n                /* \"#utility.yul\":7015:7016   */\n              0x04\n                /* \"#utility.yul\":7008:7023   */\n              mstore\n                /* \"#utility.yul\":7042:7046   */\n              0x24\n                /* \"#utility.yul\":7039:7040   */\n              0x00\n                /* \"#utility.yul\":7032:7047   */\n              revert\n                /* \"#utility.yul\":7059:7250   */\n            tag_144:\n                /* \"#utility.yul\":7099:7102   */\n              0x00\n                /* \"#utility.yul\":7118:7138   */\n              tag_252\n                /* \"#utility.yul\":7136:7137   */\n              dup3\n                /* \"#utility.yul\":7118:7138   */\n              tag_163\n              jump\t// in\n            tag_252:\n                /* \"#utility.yul\":7113:7138   */\n              swap2\n              pop\n                /* \"#utility.yul\":7152:7172   */\n              tag_253\n                /* \"#utility.yul\":7170:7171   */\n              dup4\n                /* \"#utility.yul\":7152:7172   */\n              tag_163\n              jump\t// in\n            tag_253:\n                /* \"#utility.yul\":7147:7172   */\n              swap3\n              pop\n                /* \"#utility.yul\":7195:7196   */\n              dup3\n                /* \"#utility.yul\":7192:7193   */\n              dup3\n                /* \"#utility.yul\":7188:7197   */\n              add\n                /* \"#utility.yul\":7181:7197   */\n              swap1\n              pop\n                /* \"#utility.yul\":7216:7219   */\n              dup1\n                /* \"#utility.yul\":7213:7214   */\n              dup3\n                /* \"#utility.yul\":7210:7220   */\n              gt\n                /* \"#utility.yul\":7207:7243   */\n              iszero\n              tag_254\n              jumpi\n                /* \"#utility.yul\":7223:7241   */\n              tag_255\n              tag_173\n              jump\t// in\n            tag_255:\n                /* \"#utility.yul\":7207:7243   */\n            tag_254:\n                /* \"#utility.yul\":7059:7250   */\n              swap3\n              swap2\n              pop\n              pop\n              jump\t// out\n\n            auxdata: 0xa2646970667358221220ce196d5a46db8d1d4226f1384241ed6179ce20713db7e65464020f29d047154b64736f6c634300081f0033\n        }\n    }\n\n    auxdata: 0xa264697066735822122030a6ca5b02cbd29f4a829b50acd7fd14c49776259d7dabc87100594b987ffd6164736f6c634300081f0033\n}\n",
				"bytecode": {
					"linkReferences": {},
					"object": "6080604052604051806102e001604052806040518060400160405280600281526020017f414500000000000000000000000000000000000000000000000000000000000081525081526020016040518060400160405280600281526020017f424f00000000000000000000000000000000000000000000000000000000000081525081526020016040518060400160405280600381526020017f435249000000000000000000000000000000000000000000000000000000000081525081526020016040518060400160405280600381526020017f445241000000000000000000000000000000000000000000000000000000000081525081526020016040518060400160405280600281526020017f455800000000000000000000000000000000000000000000000000000000000081525081526020016040518060400160405280600381526020017f46454e000000000000000000000000000000000000000000000000000000000081525081526020016040518060400160405280600381526020017f474f52000000000000000000000000000000000000000000000000000000000081525081526020016040518060400160405280600281526020017f485900000000000000000000000000000000000000000000000000000000000081525081526020016040518060400160405280600281526020017f494e00000000000000000000000000000000000000000000000000000000000081525081526020016040518060400160405280600281526020017f4a4f00000000000000000000000000000000000000000000000000000000000081525081526020016040518060400160405280600281526020017f4b4f00000000000000000000000000000000000000000000000000000000000081525081526020016040518060400160405280600281526020017f4c5500000000000000000000000000000000000000000000000000000000000081525081526020016040518060400160405280600281526020017f4d5900000000000000000000000000000000000000000000000000000000000081525081526020016040518060400160405280600281526020017f4e5900000000000000000000000000000000000000000000000000000000000081525081526020016040518060400160405280600281526020017f4f5200000000000000000000000000000000000000000000000000000000000081525081526020016040518060400160405280600281526020017f505900000000000000000000000000000000000000000000000000000000000081525081526020016040518060400160405280600281526020017f515500000000000000000000000000000000000000000000000000000000000081525081526020016040518060400160405280600281526020017f524100000000000000000000000000000000000000000000000000000000000081525081526020016040518060400160405280600281526020017f535900000000000000000000000000000000000000000000000000000000000081525081526020016040518060400160405280600281526020017f545900000000000000000000000000000000000000000000000000000000000081525081526020016040518060400160405280600281526020017f564500000000000000000000000000000000000000000000000000000000000081525081526020016040518060400160405280600281526020017f584500000000000000000000000000000000000000000000000000000000000081525081526020016040518060400160405280600281526020017f5a450000000000000000000000000000000000000000000000000000000000008152508152505f90601761056a929190610ac4565b506040518061016001604052806040518060400160405280600381526020017f4c414e000000000000000000000000000000000000000000000000000000000081525081526020016040518060400160405280600381526020017f4d4152000000000000000000000000000000000000000000000000000000000081525081526020016040518060400160405280600381526020017f4e4552000000000000000000000000000000000000000000000000000000000081525081526020016040518060400160405280600381526020017f504958000000000000000000000000000000000000000000000000000000000081525081526020016040518060400160405280600381526020017f524f53000000000000000000000000000000000000000000000000000000000081525081526020016040518060400160405280600381526020017f53454e000000000000000000000000000000000000000000000000000000000081525081526020016040518060400160405280600381526020017f544f52000000000000000000000000000000000000000000000000000000000081525081526020016040518060400160405280600381526020017f564953000000000000000000000000000000000000000000000000000000000081525081526020016040518060400160405280600381526020017f57454e000000000000000000000000000000000000000000000000000000000081525081526020016040518060400160405280600381526020017f584952000000000000000000000000000000000000000000000000000000000081525081526020016040518060400160405280600381526020017f5a4f520000000000000000000000000000000000000000000000000000000000815250815250600190600b61080e929190610b1b565b506040518061016001604052806040518060400160405280600181526020017f410000000000000000000000000000000000000000000000000000000000000081525081526020016040518060400160405280600281526020017f415800000000000000000000000000000000000000000000000000000000000081525081526020016040518060400160405280600281526020017f455800000000000000000000000000000000000000000000000000000000000081525081526020016040518060400160405280600281526020017f495800000000000000000000000000000000000000000000000000000000000081525081526020016040518060400160405280600281526020017f4f5800000000000000000000000000000000000000000000000000000000000081525081526020016040518060400160405280600281526020017f555300000000000000000000000000000000000000000000000000000000000081525081526020016040518060400160405280600281526020017f554d00000000000000000000000000000000000000000000000000000000000081525081526020016040518060400160405280600281526020017f494100000000000000000000000000000000000000000000000000000000000081525081526020016040518060400160405280600281526020017f4f4e00000000000000000000000000000000000000000000000000000000000081525081526020016040518060400160405280600281526020017f494f00000000000000000000000000000000000000000000000000000000000081525081526020016040518060400160405280600281526020017f4f52000000000000000000000000000000000000000000000000000000000000815250815250600290600b610ab2929190610b1b565b50348015610abe575f5ffd5b50610ef9565b828054828255905f5260205f20908101928215610b0a579160200282015b82811115610b09578251829081610af99190610e2a565b5091602001919060010190610ae2565b5b509050610b179190610b72565b5090565b828054828255905f5260205f20908101928215610b61579160200282015b82811115610b60578251829081610b509190610e2a565b5091602001919060010190610b39565b5b509050610b6e9190610b72565b5090565b5b80821115610b91575f8181610b889190610b95565b50600101610b73565b5090565b508054610ba190610c51565b5f825580601f10610bb25750610bcf565b601f0160209004905f5260205f2090810190610bce9190610bd2565b5b50565b5b80821115610be9575f815f905550600101610bd3565b5090565b5f81519050919050565b7f4e487b71000000000000000000000000000000000000000000000000000000005f52604160045260245ffd5b7f4e487b71000000000000000000000000000000000000000000000000000000005f52602260045260245ffd5b5f6002820490506001821680610c6857607f821691505b602082108103610c7b57610c7a610c24565b5b50919050565b5f819050815f5260205f209050919050565b5f6020601f8301049050919050565b5f82821b905092915050565b5f60088302610cdd7fffffffffffffffffffffffffffffffffffffffffffffffffffffffffffffffff82610ca2565b610ce78683610ca2565b95508019841693508086168417925050509392505050565b5f819050919050565b5f819050919050565b5f610d2b610d26610d2184610cff565b610d08565b610cff565b9050919050565b5f819050919050565b610d4483610d11565b610d58610d5082610d32565b848454610cae565b825550505050565b5f5f905090565b610d6f610d60565b610d7a818484610d3b565b505050565b5b81811015610d9d57610d925f82610d67565b600181019050610d80565b5050565b601f821115610de257610db381610c81565b610dbc84610c93565b81016020851015610dcb578190505b610ddf610dd785610c93565b830182610d7f565b50505b505050565b5f82821c905092915050565b5f610e025f1984600802610de7565b1980831691505092915050565b5f610e1a8383610df3565b9150826002028217905092915050565b610e3382610bed565b67ffffffffffffffff811115610e4c57610e4b610bf7565b5b610e568254610c51565b610e61828285610da1565b5f60209050601f831160018114610e92575f8415610e80578287015190505b610e8a8582610e0f565b865550610ef1565b601f198416610ea086610c81565b5f5b82811015610ec757848901518255600182019150602085019450602081019050610ea2565b86831015610ee45784890151610ee0601f891682610df3565b8355505b6001600288020188555050505b505050505050565b61262280610f065f395ff3fe608060405234801561000f575f5ffd5b5060043610610029575f3560e01c80632d571cc41461002d575b5f5ffd5b610047600480360381019061004291906104fd565b61005d565b6040516100549190610567565b60405180910390f35b5f5f61006761010e565b90505f610073826103e6565b90505f82828633604051610086906104b9565b61009394939291906105ff565b604051809103905ff0801580156100ac573d5f5f3e3d5ffd5b5090508073ffffffffffffffffffffffffffffffffffffffff167fb7d8fd3c9d56d12c15c8e139bc4e6febd6ad2349b3ebe6a1a91c0a9e7797710d848488336040516100fb94939291906105ff565b60405180910390a2809350505050919050565b60605f424433604051602001610126939291906106b5565b604051602081830303815290604052805190602001205f1c90505f5f5f8054905083610152919061071e565b815481106101635761016261074e565b5b905f5260205f20018054610176906107a8565b80601f01602080910402602001604051908101604052809291908181526020018280546101a2906107a8565b80156101ed5780601f106101c4576101008083540402835291602001916101ed565b820191905f5260205f20905b8154815290600101906020018083116101d057829003601f168201915b505050505090505f6001808054905060028561020991906107d8565b610213919061071e565b815481106102245761022361074e565b5b905f5260205f20018054610237906107a8565b80601f0160208091040260200160405190810160405280929190818152602001828054610263906107a8565b80156102ae5780601f10610285576101008083540402835291602001916102ae565b820191905f5260205f20905b81548152906001019060200180831161029157829003601f168201915b505050505090505f600280805490506003866102ca91906107d8565b6102d4919061071e565b815481106102e5576102e461074e565b5b905f5260205f200180546102f8906107a8565b80601f0160208091040260200160405190810160405280929190818152602001828054610324906107a8565b801561036f5780601f106103465761010080835404028352916020019161036f565b820191905f5260205f20905b81548152906001019060200180831161035257829003601f168201915b505050505090506005600a85610385919061071e565b11156103b857828160405160200161039e929190610842565b6040516020818303038152906040529450505050506103e3565b8282826040516020016103cd93929190610865565b6040516020818303038152906040529450505050505b90565b60605f829050600381511061047a57805f815181106104085761040761074e565b5b602001015160f81c60f81b816001815181106104275761042661074e565b5b602001015160f81c60f81b826002815181106104465761044561074e565b5b602001015160f81c60f81b604051602001610463939291906108e0565b6040516020818303038152906040529150506104b4565b6040518060400160405280600381526020017f524e4400000000000000000000000000000000000000000000000000000000008152509150505b919050565b611cd08061091d83390190565b5f5ffd5b5f819050919050565b6104dc816104ca565b81146104e6575f5ffd5b50565b5f813590506104f7816104d3565b92915050565b5f60208284031215610512576105116104c6565b5b5f61051f848285016104e9565b91505092915050565b5f73ffffffffffffffffffffffffffffffffffffffff82169050919050565b5f61055182610528565b9050919050565b61056181610547565b82525050565b5f60208201905061057a5f830184610558565b92915050565b5f81519050919050565b5f82825260208201905092915050565b8281835e5f83830152505050565b5f601f19601f8301169050919050565b5f6105c282610580565b6105cc818561058a565b93506105dc81856020860161059a565b6105e5816105a8565b840191505092915050565b6105f9816104ca565b82525050565b5f6080820190508181035f83015261061781876105b8565b9050818103602083015261062b81866105b8565b905061063a60408301856105f0565b6106476060830184610558565b95945050505050565b5f819050919050565b61066a610665826104ca565b610650565b82525050565b5f8160601b9050919050565b5f61068682610670565b9050919050565b5f6106978261067c565b9050919050565b6106af6106aa82610547565b61068d565b82525050565b5f6106c08286610659565b6020820191506106d08285610659565b6020820191506106e0828461069e565b601482019150819050949350505050565b7f4e487b71000000000000000000000000000000000000000000000000000000005f52601260045260245ffd5b5f610728826104ca565b9150610733836104ca565b925082610743576107426106f1565b5b828206905092915050565b7f4e487b71000000000000000000000000000000000000000000000000000000005f52603260045260245ffd5b7f4e487b71000000000000000000000000000000000000000000000000000000005f52602260045260245ffd5b5f60028204905060018216806107bf57607f821691505b6020821081036107d2576107d161077b565b5b50919050565b5f6107e2826104ca565b91506107ed836104ca565b9250826107fd576107fc6106f1565b5b828204905092915050565b5f81905092915050565b5f61081c82610580565b6108268185610808565b935061083681856020860161059a565b80840191505092915050565b5f61084d8285610812565b91506108598284610812565b91508190509392505050565b5f6108708286610812565b915061087c8285610812565b91506108888284610812565b9150819050949350505050565b5f7fff0000000000000000000000000000000000000000000000000000000000000082169050919050565b5f819050919050565b6108da6108d582610895565b6108c0565b82525050565b5f6108eb82866108c9565b6001820191506108fb82856108c9565b60018201915061090b82846108c9565b60018201915081905094935050505056fe608060405234801561000f575f5ffd5b50604051611cd0380380611cd083398181016040528101906100319190610656565b808484816003908161004391906108f9565b50806004908161005391906108f9565b5050505f73ffffffffffffffffffffffffffffffffffffffff168173ffffffffffffffffffffffffffffffffffffffff16036100c6575f6040517f1e4fbdf70000000000000000000000000000000000000000000000000000000081526004016100bd91906109d7565b60405180910390fd5b6100d58161011360201b60201c565b5061010a816100e86101d660201b60201c565b600a6100f49190610b58565b846100ff9190610ba2565b6101de60201b60201c565b50505050610c73565b5f60055f9054906101000a900473ffffffffffffffffffffffffffffffffffffffff1690508160055f6101000a81548173ffffffffffffffffffffffffffffffffffffffff021916908373ffffffffffffffffffffffffffffffffffffffff1602179055508173ffffffffffffffffffffffffffffffffffffffff168173ffffffffffffffffffffffffffffffffffffffff167f8be0079c531659141344cd1fd0a4f28419497f9722a3daafe3b4186f6b6457e060405160405180910390a35050565b5f6012905090565b5f73ffffffffffffffffffffffffffffffffffffffff168273ffffffffffffffffffffffffffffffffffffffff160361024e575f6040517fec442f0500000000000000000000000000000000000000000000000000000000815260040161024591906109d7565b60405180910390fd5b61025f5f838361026360201b60201c565b5050565b5f73ffffffffffffffffffffffffffffffffffffffff168373ffffffffffffffffffffffffffffffffffffffff16036102b3578060025f8282546102a79190610be3565b92505081905550610381565b5f5f5f8573ffffffffffffffffffffffffffffffffffffffff1673ffffffffffffffffffffffffffffffffffffffff1681526020019081526020015f205490508181101561033c578381836040517fe450d38c00000000000000000000000000000000000000000000000000000000815260040161033393929190610c25565b60405180910390fd5b8181035f5f8673ffffffffffffffffffffffffffffffffffffffff1673ffffffffffffffffffffffffffffffffffffffff1681526020019081526020015f2081905550505b5f73ffffffffffffffffffffffffffffffffffffffff168273ffffffffffffffffffffffffffffffffffffffff16036103c8578060025f8282540392505081905550610412565b805f5f8473ffffffffffffffffffffffffffffffffffffffff1673ffffffffffffffffffffffffffffffffffffffff1681526020019081526020015f205f82825401925050819055505b8173ffffffffffffffffffffffffffffffffffffffff168373ffffffffffffffffffffffffffffffffffffffff167fddf252ad1be2c89b69c2b068fc378daa952ba7f163c4a11628f55a4df523b3ef8360405161046f9190610c5a565b60405180910390a3505050565b5f604051905090565b5f5ffd5b5f5ffd5b5f5ffd5b5f5ffd5b5f601f19601f8301169050919050565b7f4e487b71000000000000000000000000000000000000000000000000000000005f52604160045260245ffd5b6104db82610495565b810181811067ffffffffffffffff821117156104fa576104f96104a5565b5b80604052505050565b5f61050c61047c565b905061051882826104d2565b919050565b5f67ffffffffffffffff821115610537576105366104a5565b5b61054082610495565b9050602081019050919050565b8281835e5f83830152505050565b5f61056d6105688461051d565b610503565b90508281526020810184848401111561058957610588610491565b5b61059484828561054d565b509392505050565b5f82601f8301126105b0576105af61048d565b5b81516105c084826020860161055b565b91505092915050565b5f819050919050565b6105db816105c9565b81146105e5575f5ffd5b50565b5f815190506105f6816105d2565b92915050565b5f73ffffffffffffffffffffffffffffffffffffffff82169050919050565b5f610625826105fc565b9050919050565b6106358161061b565b811461063f575f5ffd5b50565b5f815190506106508161062c565b92915050565b5f5f5f5f6080858703121561066e5761066d610485565b5b5f85015167ffffffffffffffff81111561068b5761068a610489565b5b6106978782880161059c565b945050602085015167ffffffffffffffff8111156106b8576106b7610489565b5b6106c48782880161059c565b93505060406106d5878288016105e8565b92505060606106e687828801610642565b91505092959194509250565b5f81519050919050565b7f4e487b71000000000000000000000000000000000000000000000000000000005f52602260045260245ffd5b5f600282049050600182168061074057607f821691505b602082108103610753576107526106fc565b5b50919050565b5f819050815f5260205f209050919050565b5f6020601f8301049050919050565b5f82821b905092915050565b5f600883026107b57fffffffffffffffffffffffffffffffffffffffffffffffffffffffffffffffff8261077a565b6107bf868361077a565b95508019841693508086168417925050509392505050565b5f819050919050565b5f6107fa6107f56107f0846105c9565b6107d7565b6105c9565b9050919050565b5f819050919050565b610813836107e0565b61082761081f82610801565b848454610786565b825550505050565b5f5f905090565b61083e61082f565b61084981848461080a565b505050565b5b8181101561086c576108615f82610836565b60018101905061084f565b5050565b601f8211156108b15761088281610759565b61088b8461076b565b8101602085101561089a578190505b6108ae6108a68561076b565b83018261084e565b50505b505050565b5f82821c905092915050565b5f6108d15f19846008026108b6565b1980831691505092915050565b5f6108e983836108c2565b9150826002028217905092915050565b610902826106f2565b67ffffffffffffffff81111561091b5761091a6104a5565b5b6109258254610729565b610930828285610870565b5f60209050601f831160018114610961575f841561094f578287015190505b61095985826108de565b8655506109c0565b601f19841661096f86610759565b5f5b8281101561099657848901518255600182019150602085019450602081019050610971565b868310156109b357848901516109af601f8916826108c2565b8355505b6001600288020188555050505b505050505050565b6109d18161061b565b82525050565b5f6020820190506109ea5f8301846109c8565b92915050565b7f4e487b71000000000000000000000000000000000000000000000000000000005f52601160045260245ffd5b5f8160011c9050919050565b5f5f8291508390505b6001851115610a7257808604811115610a4e57610a4d6109f0565b5b6001851615610a5d5780820291505b8081029050610a6b85610a1d565b9450610a32565b94509492505050565b5f82610a8a5760019050610b45565b81610a97575f9050610b45565b8160018114610aad5760028114610ab757610ae6565b6001915050610b45565b60ff841115610ac957610ac86109f0565b5b8360020a915084821115610ae057610adf6109f0565b5b50610b45565b5060208310610133831016604e8410600b8410161715610b1b5782820a905083811115610b1657610b156109f0565b5b610b45565b610b288484846001610a29565b92509050818404811115610b3f57610b3e6109f0565b5b81810290505b9392505050565b5f60ff82169050919050565b5f610b62826105c9565b9150610b6d83610b4c565b9250610b9a7fffffffffffffffffffffffffffffffffffffffffffffffffffffffffffffffff8484610a7b565b905092915050565b5f610bac826105c9565b9150610bb7836105c9565b9250828202610bc5816105c9565b91508282048414831517610bdc57610bdb6109f0565b5b5092915050565b5f610bed826105c9565b9150610bf8836105c9565b9250828201905080821115610c1057610c0f6109f0565b5b92915050565b610c1f816105c9565b82525050565b5f606082019050610c385f8301866109c8565b610c456020830185610c16565b610c526040830184610c16565b949350505050565b5f602082019050610c6d5f830184610c16565b92915050565b61105080610c805f395ff3fe608060405234801561000f575f5ffd5b50600436106100b2575f3560e01c8063715018a61161006f578063715018a6146101a05780638da5cb5b146101aa57806395d89b41146101c8578063a9059cbb146101e6578063dd62ed3e14610216578063f2fde38b14610246576100b2565b806306fdde03146100b6578063095ea7b3146100d457806318160ddd1461010457806323b872dd14610122578063313ce5671461015257806370a0823114610170575b5f5ffd5b6100be610262565b6040516100cb9190610cc9565b60405180910390f35b6100ee60048036038101906100e99190610d7a565b6102f2565b6040516100fb9190610dd2565b60405180910390f35b61010c610314565b6040516101199190610dfa565b60405180910390f35b61013c60048036038101906101379190610e13565b61031d565b6040516101499190610dd2565b60405180910390f35b61015a61034b565b6040516101679190610e7e565b60405180910390f35b61018a60048036038101906101859190610e97565b610353565b6040516101979190610dfa565b60405180910390f35b6101a8610398565b005b6101b26103ab565b6040516101bf9190610ed1565b60405180910390f35b6101d06103d3565b6040516101dd9190610cc9565b60405180910390f35b61020060048036038101906101fb9190610d7a565b610463565b60405161020d9190610dd2565b60405180910390f35b610230600480360381019061022b9190610eea565b610485565b60405161023d9190610dfa565b60405180910390f35b610260600480360381019061025b9190610e97565b610507565b005b60606003805461027190610f55565b80601f016020809104026020016040519081016040528092919081815260200182805461029d90610f55565b80156102e85780601f106102bf576101008083540402835291602001916102e8565b820191905f5260205f20905b8154815290600101906020018083116102cb57829003601f168201915b5050505050905090565b5f5f6102fc61058b565b9050610309818585610592565b600191505092915050565b5f600254905090565b5f5f61032761058b565b90506103348582856105a4565b61033f858585610637565b60019150509392505050565b5f6012905090565b5f5f5f8373ffffffffffffffffffffffffffffffffffffffff1673ffffffffffffffffffffffffffffffffffffffff1681526020019081526020015f20549050919050565b6103a0610727565b6103a95f6107ae565b565b5f60055f9054906101000a900473ffffffffffffffffffffffffffffffffffffffff16905090565b6060600480546103e290610f55565b80601f016020809104026020016040519081016040528092919081815260200182805461040e90610f55565b80156104595780601f1061043057610100808354040283529160200191610459565b820191905f5260205f20905b81548152906001019060200180831161043c57829003601f168201915b5050505050905090565b5f5f61046d61058b565b905061047a818585610637565b600191505092915050565b5f60015f8473ffffffffffffffffffffffffffffffffffffffff1673ffffffffffffffffffffffffffffffffffffffff1681526020019081526020015f205f8373ffffffffffffffffffffffffffffffffffffffff1673ffffffffffffffffffffffffffffffffffffffff1681526020019081526020015f2054905092915050565b61050f610727565b5f73ffffffffffffffffffffffffffffffffffffffff168173ffffffffffffffffffffffffffffffffffffffff160361057f575f6040517f1e4fbdf70000000000000000000000000000000000000000000000000000000081526004016105769190610ed1565b60405180910390fd5b610588816107ae565b50565b5f33905090565b61059f8383836001610871565b505050565b5f6105af8484610485565b90507fffffffffffffffffffffffffffffffffffffffffffffffffffffffffffffffff8110156106315781811015610622578281836040517ffb8f41b200000000000000000000000000000000000000000000000000000000815260040161061993929190610f85565b60405180910390fd5b61063084848484035f610871565b5b50505050565b5f73ffffffffffffffffffffffffffffffffffffffff168373ffffffffffffffffffffffffffffffffffffffff16036106a7575f6040517f96c6fd1e00000000000000000000000000000000000000000000000000000000815260040161069e9190610ed1565b60405180910390fd5b5f73ffffffffffffffffffffffffffffffffffffffff168273ffffffffffffffffffffffffffffffffffffffff1603610717575f6040517fec442f0500000000000000000000000000000000000000000000000000000000815260040161070e9190610ed1565b60405180910390fd5b610722838383610a40565b505050565b61072f61058b565b73ffffffffffffffffffffffffffffffffffffffff1661074d6103ab565b73ffffffffffffffffffffffffffffffffffffffff16146107ac5761077061058b565b6040517f118cdaa70000000000000000000000000000000000000000000000000000000081526004016107a39190610ed1565b60405180910390fd5b565b5f60055f9054906101000a900473ffffffffffffffffffffffffffffffffffffffff1690508160055f6101000a81548173ffffffffffffffffffffffffffffffffffffffff021916908373ffffffffffffffffffffffffffffffffffffffff1602179055508173ffffffffffffffffffffffffffffffffffffffff168173ffffffffffffffffffffffffffffffffffffffff167f8be0079c531659141344cd1fd0a4f28419497f9722a3daafe3b4186f6b6457e060405160405180910390a35050565b5f73ffffffffffffffffffffffffffffffffffffffff168473ffffffffffffffffffffffffffffffffffffffff16036108e1575f6040517fe602df050000000000000000000000000000000000000000000000000000000081526004016108d89190610ed1565b60405180910390fd5b5f73ffffffffffffffffffffffffffffffffffffffff168373ffffffffffffffffffffffffffffffffffffffff1603610951575f6040517f94280d620000000000000000000000000000000000000000000000000000000081526004016109489190610ed1565b60405180910390fd5b8160015f8673ffffffffffffffffffffffffffffffffffffffff1673ffffffffffffffffffffffffffffffffffffffff1681526020019081526020015f205f8573ffffffffffffffffffffffffffffffffffffffff1673ffffffffffffffffffffffffffffffffffffffff1681526020019081526020015f20819055508015610a3a578273ffffffffffffffffffffffffffffffffffffffff168473ffffffffffffffffffffffffffffffffffffffff167f8c5be1e5ebec7d5bd14f71427d1e84f3dd0314c0f7b2291e5b200ac8c7c3b92584604051610a319190610dfa565b60405180910390a35b50505050565b5f73ffffffffffffffffffffffffffffffffffffffff168373ffffffffffffffffffffffffffffffffffffffff1603610a90578060025f828254610a849190610fe7565b92505081905550610b5e565b5f5f5f8573ffffffffffffffffffffffffffffffffffffffff1673ffffffffffffffffffffffffffffffffffffffff1681526020019081526020015f2054905081811015610b19578381836040517fe450d38c000000000000000000000000000000000000000000000000000000008152600401610b1093929190610f85565b60405180910390fd5b8181035f5f8673ffffffffffffffffffffffffffffffffffffffff1673ffffffffffffffffffffffffffffffffffffffff1681526020019081526020015f2081905550505b5f73ffffffffffffffffffffffffffffffffffffffff168273ffffffffffffffffffffffffffffffffffffffff1603610ba5578060025f8282540392505081905550610bef565b805f5f8473ffffffffffffffffffffffffffffffffffffffff1673ffffffffffffffffffffffffffffffffffffffff1681526020019081526020015f205f82825401925050819055505b8173ffffffffffffffffffffffffffffffffffffffff168373ffffffffffffffffffffffffffffffffffffffff167fddf252ad1be2c89b69c2b068fc378daa952ba7f163c4a11628f55a4df523b3ef83604051610c4c9190610dfa565b60405180910390a3505050565b5f81519050919050565b5f82825260208201905092915050565b8281835e5f83830152505050565b5f601f19601f8301169050919050565b5f610c9b82610c59565b610ca58185610c63565b9350610cb5818560208601610c73565b610cbe81610c81565b840191505092915050565b5f6020820190508181035f830152610ce18184610c91565b905092915050565b5f5ffd5b5f73ffffffffffffffffffffffffffffffffffffffff82169050919050565b5f610d1682610ced565b9050919050565b610d2681610d0c565b8114610d30575f5ffd5b50565b5f81359050610d4181610d1d565b92915050565b5f819050919050565b610d5981610d47565b8114610d63575f5ffd5b50565b5f81359050610d7481610d50565b92915050565b5f5f60408385031215610d9057610d8f610ce9565b5b5f610d9d85828601610d33565b9250506020610dae85828601610d66565b9150509250929050565b5f8115159050919050565b610dcc81610db8565b82525050565b5f602082019050610de55f830184610dc3565b92915050565b610df481610d47565b82525050565b5f602082019050610e0d5f830184610deb565b92915050565b5f5f5f60608486031215610e2a57610e29610ce9565b5b5f610e3786828701610d33565b9350506020610e4886828701610d33565b9250506040610e5986828701610d66565b9150509250925092565b5f60ff82169050919050565b610e7881610e63565b82525050565b5f602082019050610e915f830184610e6f565b92915050565b5f60208284031215610eac57610eab610ce9565b5b5f610eb984828501610d33565b91505092915050565b610ecb81610d0c565b82525050565b5f602082019050610ee45f830184610ec2565b92915050565b5f5f60408385031215610f0057610eff610ce9565b5b5f610f0d85828601610d33565b9250506020610f1e85828601610d33565b9150509250929050565b7f4e487b71000000000000000000000000000000000000000000000000000000005f52602260045260245ffd5b5f6002820490506001821680610f6c57607f821691505b602082108103610f7f57610f7e610f28565b5b50919050565b5f606082019050610f985f830186610ec2565b610fa56020830185610deb565b610fb26040830184610deb565b949350505050565b7f4e487b71000000000000000000000000000000000000000000000000000000005f52601160045260245ffd5b5f610ff182610d47565b9150610ffc83610d47565b925082820190508082111561101457611013610fba565b5b9291505056fea2646970667358221220ce196d5a46db8d1d4226f1384241ed6179ce20713db7e65464020f29d047154b64736f6c634300081f0033a264697066735822122030a6ca5b02cbd29f4a829b50acd7fd14c49776259d7dabc87100594b987ffd6164736f6c634300081f0033",
					"opcodes": "PUSH1 0x80 PUSH1 0x40 MSTORE PUSH1 0x40 MLOAD DUP1 PUSH2 0x2E0 ADD PUSH1 0x40 MSTORE DUP1 PUSH1 0x40 MLOAD DUP1 PUSH1 0x40 ADD PUSH1 0x40 MSTORE DUP1 PUSH1 0x2 DUP2 MSTORE PUSH1 0x20 ADD PUSH32 0x4145000000000000000000000000000000000000000000000000000000000000 DUP2 MSTORE POP DUP2 MSTORE PUSH1 0x20 ADD PUSH1 0x40 MLOAD DUP1 PUSH1 0x40 ADD PUSH1 0x40 MSTORE DUP1 PUSH1 0x2 DUP2 MSTORE PUSH1 0x20 ADD PUSH32 0x424F000000000000000000000000000000000000000000000000000000000000 DUP2 MSTORE POP DUP2 MSTORE PUSH1 0x20 ADD PUSH1 0x40 MLOAD DUP1 PUSH1 0x40 ADD PUSH1 0x40 MSTORE DUP1 PUSH1 0x3 DUP2 MSTORE PUSH1 0x20 ADD PUSH32 0x4352490000000000000000000000000000000000000000000000000000000000 DUP2 MSTORE POP DUP2 MSTORE PUSH1 0x20 ADD PUSH1 0x40 MLOAD DUP1 PUSH1 0x40 ADD PUSH1 0x40 MSTORE DUP1 PUSH1 0x3 DUP2 MSTORE PUSH1 0x20 ADD PUSH32 0x4452410000000000000000000000000000000000000000000000000000000000 DUP2 MSTORE POP DUP2 MSTORE PUSH1 0x20 ADD PUSH1 0x40 MLOAD DUP1 PUSH1 0x40 ADD PUSH1 0x40 MSTORE DUP1 PUSH1 0x2 DUP2 MSTORE PUSH1 0x20 ADD PUSH32 0x4558000000000000000000000000000000000000000000000000000000000000 DUP2 MSTORE POP DUP2 MSTORE PUSH1 0x20 ADD PUSH1 0x40 MLOAD DUP1 PUSH1 0x40 ADD PUSH1 0x40 MSTORE DUP1 PUSH1 0x3 DUP2 MSTORE PUSH1 0x20 ADD PUSH32 0x46454E0000000000000000000000000000000000000000000000000000000000 DUP2 MSTORE POP DUP2 MSTORE PUSH1 0x20 ADD PUSH1 0x40 MLOAD DUP1 PUSH1 0x40 ADD PUSH1 0x40 MSTORE DUP1 PUSH1 0x3 DUP2 MSTORE PUSH1 0x20 ADD PUSH32 0x474F520000000000000000000000000000000000000000000000000000000000 DUP2 MSTORE POP DUP2 MSTORE PUSH1 0x20 ADD PUSH1 0x40 MLOAD DUP1 PUSH1 0x40 ADD PUSH1 0x40 MSTORE DUP1 PUSH1 0x2 DUP2 MSTORE PUSH1 0x20 ADD PUSH32 0x4859000000000000000000000000000000000000000000000000000000000000 DUP2 MSTORE POP DUP2 MSTORE PUSH1 0x20 ADD PUSH1 0x40 MLOAD DUP1 PUSH1 0x40 ADD PUSH1 0x40 MSTORE DUP1 PUSH1 0x2 DUP2 MSTORE PUSH1 0x20 ADD PUSH32 0x494E000000000000000000000000000000000000000000000000000000000000 DUP2 MSTORE POP DUP2 MSTORE PUSH1 0x20 ADD PUSH1 0x40 MLOAD DUP1 PUSH1 0x40 ADD PUSH1 0x40 MSTORE DUP1 PUSH1 0x2 DUP2 MSTORE PUSH1 0x20 ADD PUSH32 0x4A4F000000000000000000000000000000000000000000000000000000000000 DUP2 MSTORE POP DUP2 MSTORE PUSH1 0x20 ADD PUSH1 0x40 MLOAD DUP1 PUSH1 0x40 ADD PUSH1 0x40 MSTORE DUP1 PUSH1 0x2 DUP2 MSTORE PUSH1 0x20 ADD PUSH32 0x4B4F000000000000000000000000000000000000000000000000000000000000 DUP2 MSTORE POP DUP2 MSTORE PUSH1 0x20 ADD PUSH1 0x40 MLOAD DUP1 PUSH1 0x40 ADD PUSH1 0x40 MSTORE DUP1 PUSH1 0x2 DUP2 MSTORE PUSH1 0x20 ADD PUSH32 0x4C55000000000000000000000000000000000000000000000000000000000000 DUP2 MSTORE POP DUP2 MSTORE PUSH1 0x20 ADD PUSH1 0x40 MLOAD DUP1 PUSH1 0x40 ADD PUSH1 0x40 MSTORE DUP1 PUSH1 0x2 DUP2 MSTORE PUSH1 0x20 ADD PUSH32 0x4D59000000000000000000000000000000000000000000000000000000000000 DUP2 MSTORE POP DUP2 MSTORE PUSH1 0x20 ADD PUSH1 0x40 MLOAD DUP1 PUSH1 0x40 ADD PUSH1 0x40 MSTORE DUP1 PUSH1 0x2 DUP2 MSTORE PUSH1 0x20 ADD PUSH32 0x4E59000000000000000000000000000000000000000000000000000000000000 DUP2 MSTORE POP DUP2 MSTORE PUSH1 0x20 ADD PUSH1 0x40 MLOAD DUP1 PUSH1 0x40 ADD PUSH1 0x40 MSTORE DUP1 PUSH1 0x2 DUP2 MSTORE PUSH1 0x20 ADD PUSH32 0x4F52000000000000000000000000000000000000000000000000000000000000 DUP2 MSTORE POP DUP2 MSTORE PUSH1 0x20 ADD PUSH1 0x40 MLOAD DUP1 PUSH1 0x40 ADD PUSH1 0x40 MSTORE DUP1 PUSH1 0x2 DUP2 MSTORE PUSH1 0x20 ADD PUSH32 0x5059000000000000000000000000000000000000000000000000000000000000 DUP2 MSTORE POP DUP2 MSTORE PUSH1 0x20 ADD PUSH1 0x40 MLOAD DUP1 PUSH1 0x40 ADD PUSH1 0x40 MSTORE DUP1 PUSH1 0x2 DUP2 MSTORE PUSH1 0x20 ADD PUSH32 0x5155000000000000000000000000000000000000000000000000000000000000 DUP2 MSTORE POP DUP2 MSTORE PUSH1 0x20 ADD PUSH1 0x40 MLOAD DUP1 PUSH1 0x40 ADD PUSH1 0x40 MSTORE DUP1 PUSH1 0x2 DUP2 MSTORE PUSH1 0x20 ADD PUSH32 0x5241000000000000000000000000000000000000000000000000000000000000 DUP2 MSTORE POP DUP2 MSTORE PUSH1 0x20 ADD PUSH1 0x40 MLOAD DUP1 PUSH1 0x40 ADD PUSH1 0x40 MSTORE DUP1 PUSH1 0x2 DUP2 MSTORE PUSH1 0x20 ADD PUSH32 0x5359000000000000000000000000000000000000000000000000000000000000 DUP2 MSTORE POP DUP2 MSTORE PUSH1 0x20 ADD PUSH1 0x40 MLOAD DUP1 PUSH1 0x40 ADD PUSH1 0x40 MSTORE DUP1 PUSH1 0x2 DUP2 MSTORE PUSH1 0x20 ADD PUSH32 0x5459000000000000000000000000000000000000000000000000000000000000 DUP2 MSTORE POP DUP2 MSTORE PUSH1 0x20 ADD PUSH1 0x40 MLOAD DUP1 PUSH1 0x40 ADD PUSH1 0x40 MSTORE DUP1 PUSH1 0x2 DUP2 MSTORE PUSH1 0x20 ADD PUSH32 0x5645000000000000000000000000000000000000000000000000000000000000 DUP2 MSTORE POP DUP2 MSTORE PUSH1 0x20 ADD PUSH1 0x40 MLOAD DUP1 PUSH1 0x40 ADD PUSH1 0x40 MSTORE DUP1 PUSH1 0x2 DUP2 MSTORE PUSH1 0x20 ADD PUSH32 0x5845000000000000000000000000000000000000000000000000000000000000 DUP2 MSTORE POP DUP2 MSTORE PUSH1 0x20 ADD PUSH1 0x40 MLOAD DUP1 PUSH1 0x40 ADD PUSH1 0x40 MSTORE DUP1 PUSH1 0x2 DUP2 MSTORE PUSH1 0x20 ADD PUSH32 0x5A45000000000000000000000000000000000000000000000000000000000000 DUP2 MSTORE POP DUP2 MSTORE POP PUSH0 SWAP1 PUSH1 0x17 PUSH2 0x56A SWAP3 SWAP2 SWAP1 PUSH2 0xAC4 JUMP JUMPDEST POP PUSH1 0x40 MLOAD DUP1 PUSH2 0x160 ADD PUSH1 0x40 MSTORE DUP1 PUSH1 0x40 MLOAD DUP1 PUSH1 0x40 ADD PUSH1 0x40 MSTORE DUP1 PUSH1 0x3 DUP2 MSTORE PUSH1 0x20 ADD PUSH32 0x4C414E0000000000000000000000000000000000000000000000000000000000 DUP2 MSTORE POP DUP2 MSTORE PUSH1 0x20 ADD PUSH1 0x40 MLOAD DUP1 PUSH1 0x40 ADD PUSH1 0x40 MSTORE DUP1 PUSH1 0x3 DUP2 MSTORE PUSH1 0x20 ADD PUSH32 0x4D41520000000000000000000000000000000000000000000000000000000000 DUP2 MSTORE POP DUP2 MSTORE PUSH1 0x20 ADD PUSH1 0x40 MLOAD DUP1 PUSH1 0x40 ADD PUSH1 0x40 MSTORE DUP1 PUSH1 0x3 DUP2 MSTORE PUSH1 0x20 ADD PUSH32 0x4E45520000000000000000000000000000000000000000000000000000000000 DUP2 MSTORE POP DUP2 MSTORE PUSH1 0x20 ADD PUSH1 0x40 MLOAD DUP1 PUSH1 0x40 ADD PUSH1 0x40 MSTORE DUP1 PUSH1 0x3 DUP2 MSTORE PUSH1 0x20 ADD PUSH32 0x5049580000000000000000000000000000000000000000000000000000000000 DUP2 MSTORE POP DUP2 MSTORE PUSH1 0x20 ADD PUSH1 0x40 MLOAD DUP1 PUSH1 0x40 ADD PUSH1 0x40 MSTORE DUP1 PUSH1 0x3 DUP2 MSTORE PUSH1 0x20 ADD PUSH32 0x524F530000000000000000000000000000000000000000000000000000000000 DUP2 MSTORE POP DUP2 MSTORE PUSH1 0x20 ADD PUSH1 0x40 MLOAD DUP1 PUSH1 0x40 ADD PUSH1 0x40 MSTORE DUP1 PUSH1 0x3 DUP2 MSTORE PUSH1 0x20 ADD PUSH32 0x53454E0000000000000000000000000000000000000000000000000000000000 DUP2 MSTORE POP DUP2 MSTORE PUSH1 0x20 ADD PUSH1 0x40 MLOAD DUP1 PUSH1 0x40 ADD PUSH1 0x40 MSTORE DUP1 PUSH1 0x3 DUP2 MSTORE PUSH1 0x20 ADD PUSH32 0x544F520000000000000000000000000000000000000000000000000000000000 DUP2 MSTORE POP DUP2 MSTORE PUSH1 0x20 ADD PUSH1 0x40 MLOAD DUP1 PUSH1 0x40 ADD PUSH1 0x40 MSTORE DUP1 PUSH1 0x3 DUP2 MSTORE PUSH1 0x20 ADD PUSH32 0x5649530000000000000000000000000000000000000000000000000000000000 DUP2 MSTORE POP DUP2 MSTORE PUSH1 0x20 ADD PUSH1 0x40 MLOAD DUP1 PUSH1 0x40 ADD PUSH1 0x40 MSTORE DUP1 PUSH1 0x3 DUP2 MSTORE PUSH1 0x20 ADD PUSH32 0x57454E0000000000000000000000000000000000000000000000000000000000 DUP2 MSTORE POP DUP2 MSTORE PUSH1 0x20 ADD PUSH1 0x40 MLOAD DUP1 PUSH1 0x40 ADD PUSH1 0x40 MSTORE DUP1 PUSH1 0x3 DUP2 MSTORE PUSH1 0x20 ADD PUSH32 0x5849520000000000000000000000000000000000000000000000000000000000 DUP2 MSTORE POP DUP2 MSTORE PUSH1 0x20 ADD PUSH1 0x40 MLOAD DUP1 PUSH1 0x40 ADD PUSH1 0x40 MSTORE DUP1 PUSH1 0x3 DUP2 MSTORE PUSH1 0x20 ADD PUSH32 0x5A4F520000000000000000000000000000000000000000000000000000000000 DUP2 MSTORE POP DUP2 MSTORE POP PUSH1 0x1 SWAP1 PUSH1 0xB PUSH2 0x80E SWAP3 SWAP2 SWAP1 PUSH2 0xB1B JUMP JUMPDEST POP PUSH1 0x40 MLOAD DUP1 PUSH2 0x160 ADD PUSH1 0x40 MSTORE DUP1 PUSH1 0x40 MLOAD DUP1 PUSH1 0x40 ADD PUSH1 0x40 MSTORE DUP1 PUSH1 0x1 DUP2 MSTORE PUSH1 0x20 ADD PUSH32 0x4100000000000000000000000000000000000000000000000000000000000000 DUP2 MSTORE POP DUP2 MSTORE PUSH1 0x20 ADD PUSH1 0x40 MLOAD DUP1 PUSH1 0x40 ADD PUSH1 0x40 MSTORE DUP1 PUSH1 0x2 DUP2 MSTORE PUSH1 0x20 ADD PUSH32 0x4158000000000000000000000000000000000000000000000000000000000000 DUP2 MSTORE POP DUP2 MSTORE PUSH1 0x20 ADD PUSH1 0x40 MLOAD DUP1 PUSH1 0x40 ADD PUSH1 0x40 MSTORE DUP1 PUSH1 0x2 DUP2 MSTORE PUSH1 0x20 ADD PUSH32 0x4558000000000000000000000000000000000000000000000000000000000000 DUP2 MSTORE POP DUP2 MSTORE PUSH1 0x20 ADD PUSH1 0x40 MLOAD DUP1 PUSH1 0x40 ADD PUSH1 0x40 MSTORE DUP1 PUSH1 0x2 DUP2 MSTORE PUSH1 0x20 ADD PUSH32 0x4958000000000000000000000000000000000000000000000000000000000000 DUP2 MSTORE POP DUP2 MSTORE PUSH1 0x20 ADD PUSH1 0x40 MLOAD DUP1 PUSH1 0x40 ADD PUSH1 0x40 MSTORE DUP1 PUSH1 0x2 DUP2 MSTORE PUSH1 0x20 ADD PUSH32 0x4F58000000000000000000000000000000000000000000000000000000000000 DUP2 MSTORE POP DUP2 MSTORE PUSH1 0x20 ADD PUSH1 0x40 MLOAD DUP1 PUSH1 0x40 ADD PUSH1 0x40 MSTORE DUP1 PUSH1 0x2 DUP2 MSTORE PUSH1 0x20 ADD PUSH32 0x5553000000000000000000000000000000000000000000000000000000000000 DUP2 MSTORE POP DUP2 MSTORE PUSH1 0x20 ADD PUSH1 0x40 MLOAD DUP1 PUSH1 0x40 ADD PUSH1 0x40 MSTORE DUP1 PUSH1 0x2 DUP2 MSTORE PUSH1 0x20 ADD PUSH32 0x554D000000000000000000000000000000000000000000000000000000000000 DUP2 MSTORE POP DUP2 MSTORE PUSH1 0x20 ADD PUSH1 0x40 MLOAD DUP1 PUSH1 0x40 ADD PUSH1 0x40 MSTORE DUP1 PUSH1 0x2 DUP2 MSTORE PUSH1 0x20 ADD PUSH32 0x4941000000000000000000000000000000000000000000000000000000000000 DUP2 MSTORE POP DUP2 MSTORE PUSH1 0x20 ADD PUSH1 0x40 MLOAD DUP1 PUSH1 0x40 ADD PUSH1 0x40 MSTORE DUP1 PUSH1 0x2 DUP2 MSTORE PUSH1 0x20 ADD PUSH32 0x4F4E000000000000000000000000000000000000000000000000000000000000 DUP2 MSTORE POP DUP2 MSTORE PUSH1 0x20 ADD PUSH1 0x40 MLOAD DUP1 PUSH1 0x40 ADD PUSH1 0x40 MSTORE DUP1 PUSH1 0x2 DUP2 MSTORE PUSH1 0x20 ADD PUSH32 0x494F000000000000000000000000000000000000000000000000000000000000 DUP2 MSTORE POP DUP2 MSTORE PUSH1 0x20 ADD PUSH1 0x40 MLOAD DUP1 PUSH1 0x40 ADD PUSH1 0x40 MSTORE DUP1 PUSH1 0x2 DUP2 MSTORE PUSH1 0x20 ADD PUSH32 0x4F52000000000000000000000000000000000000000000000000000000000000 DUP2 MSTORE POP DUP2 MSTORE POP PUSH1 0x2 SWAP1 PUSH1 0xB PUSH2 0xAB2 SWAP3 SWAP2 SWAP1 PUSH2 0xB1B JUMP JUMPDEST POP CALLVALUE DUP1 ISZERO PUSH2 0xABE JUMPI PUSH0 PUSH0 REVERT JUMPDEST POP PUSH2 0xEF9 JUMP JUMPDEST DUP3 DUP1 SLOAD DUP3 DUP3 SSTORE SWAP1 PUSH0 MSTORE PUSH1 0x20 PUSH0 KECCAK256 SWAP1 DUP2 ADD SWAP3 DUP3 ISZERO PUSH2 0xB0A JUMPI SWAP2 PUSH1 0x20 MUL DUP3 ADD JUMPDEST DUP3 DUP2 GT ISZERO PUSH2 0xB09 JUMPI DUP3 MLOAD DUP3 SWAP1 DUP2 PUSH2 0xAF9 SWAP2 SWAP1 PUSH2 0xE2A JUMP JUMPDEST POP SWAP2 PUSH1 0x20 ADD SWAP2 SWAP1 PUSH1 0x1 ADD SWAP1 PUSH2 0xAE2 JUMP JUMPDEST JUMPDEST POP SWAP1 POP PUSH2 0xB17 SWAP2 SWAP1 PUSH2 0xB72 JUMP JUMPDEST POP SWAP1 JUMP JUMPDEST DUP3 DUP1 SLOAD DUP3 DUP3 SSTORE SWAP1 PUSH0 MSTORE PUSH1 0x20 PUSH0 KECCAK256 SWAP1 DUP2 ADD SWAP3 DUP3 ISZERO PUSH2 0xB61 JUMPI SWAP2 PUSH1 0x20 MUL DUP3 ADD JUMPDEST DUP3 DUP2 GT ISZERO PUSH2 0xB60 JUMPI DUP3 MLOAD DUP3 SWAP1 DUP2 PUSH2 0xB50 SWAP2 SWAP1 PUSH2 0xE2A JUMP JUMPDEST POP SWAP2 PUSH1 0x20 ADD SWAP2 SWAP1 PUSH1 0x1 ADD SWAP1 PUSH2 0xB39 JUMP JUMPDEST JUMPDEST POP SWAP1 POP PUSH2 0xB6E SWAP2 SWAP1 PUSH2 0xB72 JUMP JUMPDEST POP SWAP1 JUMP JUMPDEST JUMPDEST DUP1 DUP3 GT ISZERO PUSH2 0xB91 JUMPI PUSH0 DUP2 DUP2 PUSH2 0xB88 SWAP2 SWAP1 PUSH2 0xB95 JUMP JUMPDEST POP PUSH1 0x1 ADD PUSH2 0xB73 JUMP JUMPDEST POP SWAP1 JUMP JUMPDEST POP DUP1 SLOAD PUSH2 0xBA1 SWAP1 PUSH2 0xC51 JUMP JUMPDEST PUSH0 DUP3 SSTORE DUP1 PUSH1 0x1F LT PUSH2 0xBB2 JUMPI POP PUSH2 0xBCF JUMP JUMPDEST PUSH1 0x1F ADD PUSH1 0x20 SWAP1 DIV SWAP1 PUSH0 MSTORE PUSH1 0x20 PUSH0 KECCAK256 SWAP1 DUP2 ADD SWAP1 PUSH2 0xBCE SWAP2 SWAP1 PUSH2 0xBD2 JUMP JUMPDEST JUMPDEST POP JUMP JUMPDEST JUMPDEST DUP1 DUP3 GT ISZERO PUSH2 0xBE9 JUMPI PUSH0 DUP2 PUSH0 SWAP1 SSTORE POP PUSH1 0x1 ADD PUSH2 0xBD3 JUMP JUMPDEST POP SWAP1 JUMP JUMPDEST PUSH0 DUP2 MLOAD SWAP1 POP SWAP2 SWAP1 POP JUMP JUMPDEST PUSH32 0x4E487B7100000000000000000000000000000000000000000000000000000000 PUSH0 MSTORE PUSH1 0x41 PUSH1 0x4 MSTORE PUSH1 0x24 PUSH0 REVERT JUMPDEST PUSH32 0x4E487B7100000000000000000000000000000000000000000000000000000000 PUSH0 MSTORE PUSH1 0x22 PUSH1 0x4 MSTORE PUSH1 0x24 PUSH0 REVERT JUMPDEST PUSH0 PUSH1 0x2 DUP3 DIV SWAP1 POP PUSH1 0x1 DUP3 AND DUP1 PUSH2 0xC68 JUMPI PUSH1 0x7F DUP3 AND SWAP2 POP JUMPDEST PUSH1 0x20 DUP3 LT DUP2 SUB PUSH2 0xC7B JUMPI PUSH2 0xC7A PUSH2 0xC24 JUMP JUMPDEST JUMPDEST POP SWAP2 SWAP1 POP JUMP JUMPDEST PUSH0 DUP2 SWAP1 POP DUP2 PUSH0 MSTORE PUSH1 0x20 PUSH0 KECCAK256 SWAP1 POP SWAP2 SWAP1 POP JUMP JUMPDEST PUSH0 PUSH1 0x20 PUSH1 0x1F DUP4 ADD DIV SWAP1 POP SWAP2 SWAP1 POP JUMP JUMPDEST PUSH0 DUP3 DUP3 SHL SWAP1 POP SWAP3 SWAP2 POP POP JUMP JUMPDEST PUSH0 PUSH1 0x8 DUP4 MUL PUSH2 0xCDD PUSH32 0xFFFFFFFFFFFFFFFFFFFFFFFFFFFFFFFFFFFFFFFFFFFFFFFFFFFFFFFFFFFFFFFF DUP3 PUSH2 0xCA2 JUMP JUMPDEST PUSH2 0xCE7 DUP7 DUP4 PUSH2 0xCA2 JUMP JUMPDEST SWAP6 POP DUP1 NOT DUP5 AND SWAP4 POP DUP1 DUP7 AND DUP5 OR SWAP3 POP POP POP SWAP4 SWAP3 POP POP POP JUMP JUMPDEST PUSH0 DUP2 SWAP1 POP SWAP2 SWAP1 POP JUMP JUMPDEST PUSH0 DUP2 SWAP1 POP SWAP2 SWAP1 POP JUMP JUMPDEST PUSH0 PUSH2 0xD2B PUSH2 0xD26 PUSH2 0xD21 DUP5 PUSH2 0xCFF JUMP JUMPDEST PUSH2 0xD08 JUMP JUMPDEST PUSH2 0xCFF JUMP JUMPDEST SWAP1 POP SWAP2 SWAP1 POP JUMP JUMPDEST PUSH0 DUP2 SWAP1 POP SWAP2 SWAP1 POP JUMP JUMPDEST PUSH2 0xD44 DUP4 PUSH2 0xD11 JUMP JUMPDEST PUSH2 0xD58 PUSH2 0xD50 DUP3 PUSH2 0xD32 JUMP JUMPDEST DUP5 DUP5 SLOAD PUSH2 0xCAE JUMP JUMPDEST DUP3 SSTORE POP POP POP POP JUMP JUMPDEST PUSH0 PUSH0 SWAP1 POP SWAP1 JUMP JUMPDEST PUSH2 0xD6F PUSH2 0xD60 JUMP JUMPDEST PUSH2 0xD7A DUP2 DUP5 DUP5 PUSH2 0xD3B JUMP JUMPDEST POP POP POP JUMP JUMPDEST JUMPDEST DUP2 DUP2 LT ISZERO PUSH2 0xD9D JUMPI PUSH2 0xD92 PUSH0 DUP3 PUSH2 0xD67 JUMP JUMPDEST PUSH1 0x1 DUP2 ADD SWAP1 POP PUSH2 0xD80 JUMP JUMPDEST POP POP JUMP JUMPDEST PUSH1 0x1F DUP3 GT ISZERO PUSH2 0xDE2 JUMPI PUSH2 0xDB3 DUP2 PUSH2 0xC81 JUMP JUMPDEST PUSH2 0xDBC DUP5 PUSH2 0xC93 JUMP JUMPDEST DUP2 ADD PUSH1 0x20 DUP6 LT ISZERO PUSH2 0xDCB JUMPI DUP2 SWAP1 POP JUMPDEST PUSH2 0xDDF PUSH2 0xDD7 DUP6 PUSH2 0xC93 JUMP JUMPDEST DUP4 ADD DUP3 PUSH2 0xD7F JUMP JUMPDEST POP POP JUMPDEST POP POP POP JUMP JUMPDEST PUSH0 DUP3 DUP3 SHR SWAP1 POP SWAP3 SWAP2 POP POP JUMP JUMPDEST PUSH0 PUSH2 0xE02 PUSH0 NOT DUP5 PUSH1 0x8 MUL PUSH2 0xDE7 JUMP JUMPDEST NOT DUP1 DUP4 AND SWAP2 POP POP SWAP3 SWAP2 POP POP JUMP JUMPDEST PUSH0 PUSH2 0xE1A DUP4 DUP4 PUSH2 0xDF3 JUMP JUMPDEST SWAP2 POP DUP3 PUSH1 0x2 MUL DUP3 OR SWAP1 POP SWAP3 SWAP2 POP POP JUMP JUMPDEST PUSH2 0xE33 DUP3 PUSH2 0xBED JUMP JUMPDEST PUSH8 0xFFFFFFFFFFFFFFFF DUP2 GT ISZERO PUSH2 0xE4C JUMPI PUSH2 0xE4B PUSH2 0xBF7 JUMP JUMPDEST JUMPDEST PUSH2 0xE56 DUP3 SLOAD PUSH2 0xC51 JUMP JUMPDEST PUSH2 0xE61 DUP3 DUP3 DUP6 PUSH2 0xDA1 JUMP JUMPDEST PUSH0 PUSH1 0x20 SWAP1 POP PUSH1 0x1F DUP4 GT PUSH1 0x1 DUP2 EQ PUSH2 0xE92 JUMPI PUSH0 DUP5 ISZERO PUSH2 0xE80 JUMPI DUP3 DUP8 ADD MLOAD SWAP1 POP JUMPDEST PUSH2 0xE8A DUP6 DUP3 PUSH2 0xE0F JUMP JUMPDEST DUP7 SSTORE POP PUSH2 0xEF1 JUMP JUMPDEST PUSH1 0x1F NOT DUP5 AND PUSH2 0xEA0 DUP7 PUSH2 0xC81 JUMP JUMPDEST PUSH0 JUMPDEST DUP3 DUP2 LT ISZERO PUSH2 0xEC7 JUMPI DUP5 DUP10 ADD MLOAD DUP3 SSTORE PUSH1 0x1 DUP3 ADD SWAP2 POP PUSH1 0x20 DUP6 ADD SWAP5 POP PUSH1 0x20 DUP2 ADD SWAP1 POP PUSH2 0xEA2 JUMP JUMPDEST DUP7 DUP4 LT ISZERO PUSH2 0xEE4 JUMPI DUP5 DUP10 ADD MLOAD PUSH2 0xEE0 PUSH1 0x1F DUP10 AND DUP3 PUSH2 0xDF3 JUMP JUMPDEST DUP4 SSTORE POP JUMPDEST PUSH1 0x1 PUSH1 0x2 DUP9 MUL ADD DUP9 SSTORE POP POP POP JUMPDEST POP POP POP POP POP POP JUMP JUMPDEST PUSH2 0x2622 DUP1 PUSH2 0xF06 PUSH0 CODECOPY PUSH0 RETURN INVALID PUSH1 0x80 PUSH1 0x40 MSTORE CALLVALUE DUP1 ISZERO PUSH2 0xF JUMPI PUSH0 PUSH0 REVERT JUMPDEST POP PUSH1 0x4 CALLDATASIZE LT PUSH2 0x29 JUMPI PUSH0 CALLDATALOAD PUSH1 0xE0 SHR DUP1 PUSH4 0x2D571CC4 EQ PUSH2 0x2D JUMPI JUMPDEST PUSH0 PUSH0 REVERT JUMPDEST PUSH2 0x47 PUSH1 0x4 DUP1 CALLDATASIZE SUB DUP2 ADD SWAP1 PUSH2 0x42 SWAP2 SWAP1 PUSH2 0x4FD JUMP JUMPDEST PUSH2 0x5D JUMP JUMPDEST PUSH1 0x40 MLOAD PUSH2 0x54 SWAP2 SWAP1 PUSH2 0x567 JUMP JUMPDEST PUSH1 0x40 MLOAD DUP1 SWAP2 SUB SWAP1 RETURN JUMPDEST PUSH0 PUSH0 PUSH2 0x67 PUSH2 0x10E JUMP JUMPDEST SWAP1 POP PUSH0 PUSH2 0x73 DUP3 PUSH2 0x3E6 JUMP JUMPDEST SWAP1 POP PUSH0 DUP3 DUP3 DUP7 CALLER PUSH1 0x40 MLOAD PUSH2 0x86 SWAP1 PUSH2 0x4B9 JUMP JUMPDEST PUSH2 0x93 SWAP5 SWAP4 SWAP3 SWAP2 SWAP1 PUSH2 0x5FF JUMP JUMPDEST PUSH1 0x40 MLOAD DUP1 SWAP2 SUB SWAP1 PUSH0 CREATE DUP1 ISZERO DUP1 ISZERO PUSH2 0xAC JUMPI RETURNDATASIZE PUSH0 PUSH0 RETURNDATACOPY RETURNDATASIZE PUSH0 REVERT JUMPDEST POP SWAP1 POP DUP1 PUSH20 0xFFFFFFFFFFFFFFFFFFFFFFFFFFFFFFFFFFFFFFFF AND PUSH32 0xB7D8FD3C9D56D12C15C8E139BC4E6FEBD6AD2349B3EBE6A1A91C0A9E7797710D DUP5 DUP5 DUP9 CALLER PUSH1 0x40 MLOAD PUSH2 0xFB SWAP5 SWAP4 SWAP3 SWAP2 SWAP1 PUSH2 0x5FF JUMP JUMPDEST PUSH1 0x40 MLOAD DUP1 SWAP2 SUB SWAP1 LOG2 DUP1 SWAP4 POP POP POP POP SWAP2 SWAP1 POP JUMP JUMPDEST PUSH1 0x60 PUSH0 TIMESTAMP PREVRANDAO CALLER PUSH1 0x40 MLOAD PUSH1 0x20 ADD PUSH2 0x126 SWAP4 SWAP3 SWAP2 SWAP1 PUSH2 0x6B5 JUMP JUMPDEST PUSH1 0x40 MLOAD PUSH1 0x20 DUP2 DUP4 SUB SUB DUP2 MSTORE SWAP1 PUSH1 0x40 MSTORE DUP1 MLOAD SWAP1 PUSH1 0x20 ADD KECCAK256 PUSH0 SHR SWAP1 POP PUSH0 PUSH0 PUSH0 DUP1 SLOAD SWAP1 POP DUP4 PUSH2 0x152 SWAP2 SWAP1 PUSH2 0x71E JUMP JUMPDEST DUP2 SLOAD DUP2 LT PUSH2 0x163 JUMPI PUSH2 0x162 PUSH2 0x74E JUMP JUMPDEST JUMPDEST SWAP1 PUSH0 MSTORE PUSH1 0x20 PUSH0 KECCAK256 ADD DUP1 SLOAD PUSH2 0x176 SWAP1 PUSH2 0x7A8 JUMP JUMPDEST DUP1 PUSH1 0x1F ADD PUSH1 0x20 DUP1 SWAP2 DIV MUL PUSH1 0x20 ADD PUSH1 0x40 MLOAD SWAP1 DUP2 ADD PUSH1 0x40 MSTORE DUP1 SWAP3 SWAP2 SWAP1 DUP2 DUP2 MSTORE PUSH1 0x20 ADD DUP3 DUP1 SLOAD PUSH2 0x1A2 SWAP1 PUSH2 0x7A8 JUMP JUMPDEST DUP1 ISZERO PUSH2 0x1ED JUMPI DUP1 PUSH1 0x1F LT PUSH2 0x1C4 JUMPI PUSH2 0x100 DUP1 DUP4 SLOAD DIV MUL DUP4 MSTORE SWAP2 PUSH1 0x20 ADD SWAP2 PUSH2 0x1ED JUMP JUMPDEST DUP3 ADD SWAP2 SWAP1 PUSH0 MSTORE PUSH1 0x20 PUSH0 KECCAK256 SWAP1 JUMPDEST DUP2 SLOAD DUP2 MSTORE SWAP1 PUSH1 0x1 ADD SWAP1 PUSH1 0x20 ADD DUP1 DUP4 GT PUSH2 0x1D0 JUMPI DUP3 SWAP1 SUB PUSH1 0x1F AND DUP3 ADD SWAP2 JUMPDEST POP POP POP POP POP SWAP1 POP PUSH0 PUSH1 0x1 DUP1 DUP1 SLOAD SWAP1 POP PUSH1 0x2 DUP6 PUSH2 0x209 SWAP2 SWAP1 PUSH2 0x7D8 JUMP JUMPDEST PUSH2 0x213 SWAP2 SWAP1 PUSH2 0x71E JUMP JUMPDEST DUP2 SLOAD DUP2 LT PUSH2 0x224 JUMPI PUSH2 0x223 PUSH2 0x74E JUMP JUMPDEST JUMPDEST SWAP1 PUSH0 MSTORE PUSH1 0x20 PUSH0 KECCAK256 ADD DUP1 SLOAD PUSH2 0x237 SWAP1 PUSH2 0x7A8 JUMP JUMPDEST DUP1 PUSH1 0x1F ADD PUSH1 0x20 DUP1 SWAP2 DIV MUL PUSH1 0x20 ADD PUSH1 0x40 MLOAD SWAP1 DUP2 ADD PUSH1 0x40 MSTORE DUP1 SWAP3 SWAP2 SWAP1 DUP2 DUP2 MSTORE PUSH1 0x20 ADD DUP3 DUP1 SLOAD PUSH2 0x263 SWAP1 PUSH2 0x7A8 JUMP JUMPDEST DUP1 ISZERO PUSH2 0x2AE JUMPI DUP1 PUSH1 0x1F LT PUSH2 0x285 JUMPI PUSH2 0x100 DUP1 DUP4 SLOAD DIV MUL DUP4 MSTORE SWAP2 PUSH1 0x20 ADD SWAP2 PUSH2 0x2AE JUMP JUMPDEST DUP3 ADD SWAP2 SWAP1 PUSH0 MSTORE PUSH1 0x20 PUSH0 KECCAK256 SWAP1 JUMPDEST DUP2 SLOAD DUP2 MSTORE SWAP1 PUSH1 0x1 ADD SWAP1 PUSH1 0x20 ADD DUP1 DUP4 GT PUSH2 0x291 JUMPI DUP3 SWAP1 SUB PUSH1 0x1F AND DUP3 ADD SWAP2 JUMPDEST POP POP POP POP POP SWAP1 POP PUSH0 PUSH1 0x2 DUP1 DUP1 SLOAD SWAP1 POP PUSH1 0x3 DUP7 PUSH2 0x2CA SWAP2 SWAP1 PUSH2 0x7D8 JUMP JUMPDEST PUSH2 0x2D4 SWAP2 SWAP1 PUSH2 0x71E JUMP JUMPDEST DUP2 SLOAD DUP2 LT PUSH2 0x2E5 JUMPI PUSH2 0x2E4 PUSH2 0x74E JUMP JUMPDEST JUMPDEST SWAP1 PUSH0 MSTORE PUSH1 0x20 PUSH0 KECCAK256 ADD DUP1 SLOAD PUSH2 0x2F8 SWAP1 PUSH2 0x7A8 JUMP JUMPDEST DUP1 PUSH1 0x1F ADD PUSH1 0x20 DUP1 SWAP2 DIV MUL PUSH1 0x20 ADD PUSH1 0x40 MLOAD SWAP1 DUP2 ADD PUSH1 0x40 MSTORE DUP1 SWAP3 SWAP2 SWAP1 DUP2 DUP2 MSTORE PUSH1 0x20 ADD DUP3 DUP1 SLOAD PUSH2 0x324 SWAP1 PUSH2 0x7A8 JUMP JUMPDEST DUP1 ISZERO PUSH2 0x36F JUMPI DUP1 PUSH1 0x1F LT PUSH2 0x346 JUMPI PUSH2 0x100 DUP1 DUP4 SLOAD DIV MUL DUP4 MSTORE SWAP2 PUSH1 0x20 ADD SWAP2 PUSH2 0x36F JUMP JUMPDEST DUP3 ADD SWAP2 SWAP1 PUSH0 MSTORE PUSH1 0x20 PUSH0 KECCAK256 SWAP1 JUMPDEST DUP2 SLOAD DUP2 MSTORE SWAP1 PUSH1 0x1 ADD SWAP1 PUSH1 0x20 ADD DUP1 DUP4 GT PUSH2 0x352 JUMPI DUP3 SWAP1 SUB PUSH1 0x1F AND DUP3 ADD SWAP2 JUMPDEST POP POP POP POP POP SWAP1 POP PUSH1 0x5 PUSH1 0xA DUP6 PUSH2 0x385 SWAP2 SWAP1 PUSH2 0x71E JUMP JUMPDEST GT ISZERO PUSH2 0x3B8 JUMPI DUP3 DUP2 PUSH1 0x40 MLOAD PUSH1 0x20 ADD PUSH2 0x39E SWAP3 SWAP2 SWAP1 PUSH2 0x842 JUMP JUMPDEST PUSH1 0x40 MLOAD PUSH1 0x20 DUP2 DUP4 SUB SUB DUP2 MSTORE SWAP1 PUSH1 0x40 MSTORE SWAP5 POP POP POP POP POP PUSH2 0x3E3 JUMP JUMPDEST DUP3 DUP3 DUP3 PUSH1 0x40 MLOAD PUSH1 0x20 ADD PUSH2 0x3CD SWAP4 SWAP3 SWAP2 SWAP1 PUSH2 0x865 JUMP JUMPDEST PUSH1 0x40 MLOAD PUSH1 0x20 DUP2 DUP4 SUB SUB DUP2 MSTORE SWAP1 PUSH1 0x40 MSTORE SWAP5 POP POP POP POP POP JUMPDEST SWAP1 JUMP JUMPDEST PUSH1 0x60 PUSH0 DUP3 SWAP1 POP PUSH1 0x3 DUP2 MLOAD LT PUSH2 0x47A JUMPI DUP1 PUSH0 DUP2 MLOAD DUP2 LT PUSH2 0x408 JUMPI PUSH2 0x407 PUSH2 0x74E JUMP JUMPDEST JUMPDEST PUSH1 0x20 ADD ADD MLOAD PUSH1 0xF8 SHR PUSH1 0xF8 SHL DUP2 PUSH1 0x1 DUP2 MLOAD DUP2 LT PUSH2 0x427 JUMPI PUSH2 0x426 PUSH2 0x74E JUMP JUMPDEST JUMPDEST PUSH1 0x20 ADD ADD MLOAD PUSH1 0xF8 SHR PUSH1 0xF8 SHL DUP3 PUSH1 0x2 DUP2 MLOAD DUP2 LT PUSH2 0x446 JUMPI PUSH2 0x445 PUSH2 0x74E JUMP JUMPDEST JUMPDEST PUSH1 0x20 ADD ADD MLOAD PUSH1 0xF8 SHR PUSH1 0xF8 SHL PUSH1 0x40 MLOAD PUSH1 0x20 ADD PUSH2 0x463 SWAP4 SWAP3 SWAP2 SWAP1 PUSH2 0x8E0 JUMP JUMPDEST PUSH1 0x40 MLOAD PUSH1 0x20 DUP2 DUP4 SUB SUB DUP2 MSTORE SWAP1 PUSH1 0x40 MSTORE SWAP2 POP POP PUSH2 0x4B4 JUMP JUMPDEST PUSH1 0x40 MLOAD DUP1 PUSH1 0x40 ADD PUSH1 0x40 MSTORE DUP1 PUSH1 0x3 DUP2 MSTORE PUSH1 0x20 ADD PUSH32 0x524E440000000000000000000000000000000000000000000000000000000000 DUP2 MSTORE POP SWAP2 POP POP JUMPDEST SWAP2 SWAP1 POP JUMP JUMPDEST PUSH2 0x1CD0 DUP1 PUSH2 0x91D DUP4 CODECOPY ADD SWAP1 JUMP JUMPDEST PUSH0 PUSH0 REVERT JUMPDEST PUSH0 DUP2 SWAP1 POP SWAP2 SWAP1 POP JUMP JUMPDEST PUSH2 0x4DC DUP2 PUSH2 0x4CA JUMP JUMPDEST DUP2 EQ PUSH2 0x4E6 JUMPI PUSH0 PUSH0 REVERT JUMPDEST POP JUMP JUMPDEST PUSH0 DUP2 CALLDATALOAD SWAP1 POP PUSH2 0x4F7 DUP2 PUSH2 0x4D3 JUMP JUMPDEST SWAP3 SWAP2 POP POP JUMP JUMPDEST PUSH0 PUSH1 0x20 DUP3 DUP5 SUB SLT ISZERO PUSH2 0x512 JUMPI PUSH2 0x511 PUSH2 0x4C6 JUMP JUMPDEST JUMPDEST PUSH0 PUSH2 0x51F DUP5 DUP3 DUP6 ADD PUSH2 0x4E9 JUMP JUMPDEST SWAP2 POP POP SWAP3 SWAP2 POP POP JUMP JUMPDEST PUSH0 PUSH20 0xFFFFFFFFFFFFFFFFFFFFFFFFFFFFFFFFFFFFFFFF DUP3 AND SWAP1 POP SWAP2 SWAP1 POP JUMP JUMPDEST PUSH0 PUSH2 0x551 DUP3 PUSH2 0x528 JUMP JUMPDEST SWAP1 POP SWAP2 SWAP1 POP JUMP JUMPDEST PUSH2 0x561 DUP2 PUSH2 0x547 JUMP JUMPDEST DUP3 MSTORE POP POP JUMP JUMPDEST PUSH0 PUSH1 0x20 DUP3 ADD SWAP1 POP PUSH2 0x57A PUSH0 DUP4 ADD DUP5 PUSH2 0x558 JUMP JUMPDEST SWAP3 SWAP2 POP POP JUMP JUMPDEST PUSH0 DUP2 MLOAD SWAP1 POP SWAP2 SWAP1 POP JUMP JUMPDEST PUSH0 DUP3 DUP3 MSTORE PUSH1 0x20 DUP3 ADD SWAP1 POP SWAP3 SWAP2 POP POP JUMP JUMPDEST DUP3 DUP2 DUP4 MCOPY PUSH0 DUP4 DUP4 ADD MSTORE POP POP POP JUMP JUMPDEST PUSH0 PUSH1 0x1F NOT PUSH1 0x1F DUP4 ADD AND SWAP1 POP SWAP2 SWAP1 POP JUMP JUMPDEST PUSH0 PUSH2 0x5C2 DUP3 PUSH2 0x580 JUMP JUMPDEST PUSH2 0x5CC DUP2 DUP6 PUSH2 0x58A JUMP JUMPDEST SWAP4 POP PUSH2 0x5DC DUP2 DUP6 PUSH1 0x20 DUP7 ADD PUSH2 0x59A JUMP JUMPDEST PUSH2 0x5E5 DUP2 PUSH2 0x5A8 JUMP JUMPDEST DUP5 ADD SWAP2 POP POP SWAP3 SWAP2 POP POP JUMP JUMPDEST PUSH2 0x5F9 DUP2 PUSH2 0x4CA JUMP JUMPDEST DUP3 MSTORE POP POP JUMP JUMPDEST PUSH0 PUSH1 0x80 DUP3 ADD SWAP1 POP DUP2 DUP2 SUB PUSH0 DUP4 ADD MSTORE PUSH2 0x617 DUP2 DUP8 PUSH2 0x5B8 JUMP JUMPDEST SWAP1 POP DUP2 DUP2 SUB PUSH1 0x20 DUP4 ADD MSTORE PUSH2 0x62B DUP2 DUP7 PUSH2 0x5B8 JUMP JUMPDEST SWAP1 POP PUSH2 0x63A PUSH1 0x40 DUP4 ADD DUP6 PUSH2 0x5F0 JUMP JUMPDEST PUSH2 0x647 PUSH1 0x60 DUP4 ADD DUP5 PUSH2 0x558 JUMP JUMPDEST SWAP6 SWAP5 POP POP POP POP POP JUMP JUMPDEST PUSH0 DUP2 SWAP1 POP SWAP2 SWAP1 POP JUMP JUMPDEST PUSH2 0x66A PUSH2 0x665 DUP3 PUSH2 0x4CA JUMP JUMPDEST PUSH2 0x650 JUMP JUMPDEST DUP3 MSTORE POP POP JUMP JUMPDEST PUSH0 DUP2 PUSH1 0x60 SHL SWAP1 POP SWAP2 SWAP1 POP JUMP JUMPDEST PUSH0 PUSH2 0x686 DUP3 PUSH2 0x670 JUMP JUMPDEST SWAP1 POP SWAP2 SWAP1 POP JUMP JUMPDEST PUSH0 PUSH2 0x697 DUP3 PUSH2 0x67C JUMP JUMPDEST SWAP1 POP SWAP2 SWAP1 POP JUMP JUMPDEST PUSH2 0x6AF PUSH2 0x6AA DUP3 PUSH2 0x547 JUMP JUMPDEST PUSH2 0x68D JUMP JUMPDEST DUP3 MSTORE POP POP JUMP JUMPDEST PUSH0 PUSH2 0x6C0 DUP3 DUP7 PUSH2 0x659 JUMP JUMPDEST PUSH1 0x20 DUP3 ADD SWAP2 POP PUSH2 0x6D0 DUP3 DUP6 PUSH2 0x659 JUMP JUMPDEST PUSH1 0x20 DUP3 ADD SWAP2 POP PUSH2 0x6E0 DUP3 DUP5 PUSH2 0x69E JUMP JUMPDEST PUSH1 0x14 DUP3 ADD SWAP2 POP DUP2 SWAP1 POP SWAP5 SWAP4 POP POP POP POP JUMP JUMPDEST PUSH32 0x4E487B7100000000000000000000000000000000000000000000000000000000 PUSH0 MSTORE PUSH1 0x12 PUSH1 0x4 MSTORE PUSH1 0x24 PUSH0 REVERT JUMPDEST PUSH0 PUSH2 0x728 DUP3 PUSH2 0x4CA JUMP JUMPDEST SWAP2 POP PUSH2 0x733 DUP4 PUSH2 0x4CA JUMP JUMPDEST SWAP3 POP DUP3 PUSH2 0x743 JUMPI PUSH2 0x742 PUSH2 0x6F1 JUMP JUMPDEST JUMPDEST DUP3 DUP3 MOD SWAP1 POP SWAP3 SWAP2 POP POP JUMP JUMPDEST PUSH32 0x4E487B7100000000000000000000000000000000000000000000000000000000 PUSH0 MSTORE PUSH1 0x32 PUSH1 0x4 MSTORE PUSH1 0x24 PUSH0 REVERT JUMPDEST PUSH32 0x4E487B7100000000000000000000000000000000000000000000000000000000 PUSH0 MSTORE PUSH1 0x22 PUSH1 0x4 MSTORE PUSH1 0x24 PUSH0 REVERT JUMPDEST PUSH0 PUSH1 0x2 DUP3 DIV SWAP1 POP PUSH1 0x1 DUP3 AND DUP1 PUSH2 0x7BF JUMPI PUSH1 0x7F DUP3 AND SWAP2 POP JUMPDEST PUSH1 0x20 DUP3 LT DUP2 SUB PUSH2 0x7D2 JUMPI PUSH2 0x7D1 PUSH2 0x77B JUMP JUMPDEST JUMPDEST POP SWAP2 SWAP1 POP JUMP JUMPDEST PUSH0 PUSH2 0x7E2 DUP3 PUSH2 0x4CA JUMP JUMPDEST SWAP2 POP PUSH2 0x7ED DUP4 PUSH2 0x4CA JUMP JUMPDEST SWAP3 POP DUP3 PUSH2 0x7FD JUMPI PUSH2 0x7FC PUSH2 0x6F1 JUMP JUMPDEST JUMPDEST DUP3 DUP3 DIV SWAP1 POP SWAP3 SWAP2 POP POP JUMP JUMPDEST PUSH0 DUP2 SWAP1 POP SWAP3 SWAP2 POP POP JUMP JUMPDEST PUSH0 PUSH2 0x81C DUP3 PUSH2 0x580 JUMP JUMPDEST PUSH2 0x826 DUP2 DUP6 PUSH2 0x808 JUMP JUMPDEST SWAP4 POP PUSH2 0x836 DUP2 DUP6 PUSH1 0x20 DUP7 ADD PUSH2 0x59A JUMP JUMPDEST DUP1 DUP5 ADD SWAP2 POP POP SWAP3 SWAP2 POP POP JUMP JUMPDEST PUSH0 PUSH2 0x84D DUP3 DUP6 PUSH2 0x812 JUMP JUMPDEST SWAP2 POP PUSH2 0x859 DUP3 DUP5 PUSH2 0x812 JUMP JUMPDEST SWAP2 POP DUP2 SWAP1 POP SWAP4 SWAP3 POP POP POP JUMP JUMPDEST PUSH0 PUSH2 0x870 DUP3 DUP7 PUSH2 0x812 JUMP JUMPDEST SWAP2 POP PUSH2 0x87C DUP3 DUP6 PUSH2 0x812 JUMP JUMPDEST SWAP2 POP PUSH2 0x888 DUP3 DUP5 PUSH2 0x812 JUMP JUMPDEST SWAP2 POP DUP2 SWAP1 POP SWAP5 SWAP4 POP POP POP POP JUMP JUMPDEST PUSH0 PUSH32 0xFF00000000000000000000000000000000000000000000000000000000000000 DUP3 AND SWAP1 POP SWAP2 SWAP1 POP JUMP JUMPDEST PUSH0 DUP2 SWAP1 POP SWAP2 SWAP1 POP JUMP JUMPDEST PUSH2 0x8DA PUSH2 0x8D5 DUP3 PUSH2 0x895 JUMP JUMPDEST PUSH2 0x8C0 JUMP JUMPDEST DUP3 MSTORE POP POP JUMP JUMPDEST PUSH0 PUSH2 0x8EB DUP3 DUP7 PUSH2 0x8C9 JUMP JUMPDEST PUSH1 0x1 DUP3 ADD SWAP2 POP PUSH2 0x8FB DUP3 DUP6 PUSH2 0x8C9 JUMP JUMPDEST PUSH1 0x1 DUP3 ADD SWAP2 POP PUSH2 0x90B DUP3 DUP5 PUSH2 0x8C9 JUMP JUMPDEST PUSH1 0x1 DUP3 ADD SWAP2 POP DUP2 SWAP1 POP SWAP5 SWAP4 POP POP POP POP JUMP INVALID PUSH1 0x80 PUSH1 0x40 MSTORE CALLVALUE DUP1 ISZERO PUSH2 0xF JUMPI PUSH0 PUSH0 REVERT JUMPDEST POP PUSH1 0x40 MLOAD PUSH2 0x1CD0 CODESIZE SUB DUP1 PUSH2 0x1CD0 DUP4 CODECOPY DUP2 DUP2 ADD PUSH1 0x40 MSTORE DUP2 ADD SWAP1 PUSH2 0x31 SWAP2 SWAP1 PUSH2 0x656 JUMP JUMPDEST DUP1 DUP5 DUP5 DUP2 PUSH1 0x3 SWAP1 DUP2 PUSH2 0x43 SWAP2 SWAP1 PUSH2 0x8F9 JUMP JUMPDEST POP DUP1 PUSH1 0x4 SWAP1 DUP2 PUSH2 0x53 SWAP2 SWAP1 PUSH2 0x8F9 JUMP JUMPDEST POP POP POP PUSH0 PUSH20 0xFFFFFFFFFFFFFFFFFFFFFFFFFFFFFFFFFFFFFFFF AND DUP2 PUSH20 0xFFFFFFFFFFFFFFFFFFFFFFFFFFFFFFFFFFFFFFFF AND SUB PUSH2 0xC6 JUMPI PUSH0 PUSH1 0x40 MLOAD PUSH32 0x1E4FBDF700000000000000000000000000000000000000000000000000000000 DUP2 MSTORE PUSH1 0x4 ADD PUSH2 0xBD SWAP2 SWAP1 PUSH2 0x9D7 JUMP JUMPDEST PUSH1 0x40 MLOAD DUP1 SWAP2 SUB SWAP1 REVERT JUMPDEST PUSH2 0xD5 DUP2 PUSH2 0x113 PUSH1 0x20 SHL PUSH1 0x20 SHR JUMP JUMPDEST POP PUSH2 0x10A DUP2 PUSH2 0xE8 PUSH2 0x1D6 PUSH1 0x20 SHL PUSH1 0x20 SHR JUMP JUMPDEST PUSH1 0xA PUSH2 0xF4 SWAP2 SWAP1 PUSH2 0xB58 JUMP JUMPDEST DUP5 PUSH2 0xFF SWAP2 SWAP1 PUSH2 0xBA2 JUMP JUMPDEST PUSH2 0x1DE PUSH1 0x20 SHL PUSH1 0x20 SHR JUMP JUMPDEST POP POP POP POP PUSH2 0xC73 JUMP JUMPDEST PUSH0 PUSH1 0x5 PUSH0 SWAP1 SLOAD SWAP1 PUSH2 0x100 EXP SWAP1 DIV PUSH20 0xFFFFFFFFFFFFFFFFFFFFFFFFFFFFFFFFFFFFFFFF AND SWAP1 POP DUP2 PUSH1 0x5 PUSH0 PUSH2 0x100 EXP DUP2 SLOAD DUP2 PUSH20 0xFFFFFFFFFFFFFFFFFFFFFFFFFFFFFFFFFFFFFFFF MUL NOT AND SWAP1 DUP4 PUSH20 0xFFFFFFFFFFFFFFFFFFFFFFFFFFFFFFFFFFFFFFFF AND MUL OR SWAP1 SSTORE POP DUP2 PUSH20 0xFFFFFFFFFFFFFFFFFFFFFFFFFFFFFFFFFFFFFFFF AND DUP2 PUSH20 0xFFFFFFFFFFFFFFFFFFFFFFFFFFFFFFFFFFFFFFFF AND PUSH32 0x8BE0079C531659141344CD1FD0A4F28419497F9722A3DAAFE3B4186F6B6457E0 PUSH1 0x40 MLOAD PUSH1 0x40 MLOAD DUP1 SWAP2 SUB SWAP1 LOG3 POP POP JUMP JUMPDEST PUSH0 PUSH1 0x12 SWAP1 POP SWAP1 JUMP JUMPDEST PUSH0 PUSH20 0xFFFFFFFFFFFFFFFFFFFFFFFFFFFFFFFFFFFFFFFF AND DUP3 PUSH20 0xFFFFFFFFFFFFFFFFFFFFFFFFFFFFFFFFFFFFFFFF AND SUB PUSH2 0x24E JUMPI PUSH0 PUSH1 0x40 MLOAD PUSH32 0xEC442F0500000000000000000000000000000000000000000000000000000000 DUP2 MSTORE PUSH1 0x4 ADD PUSH2 0x245 SWAP2 SWAP1 PUSH2 0x9D7 JUMP JUMPDEST PUSH1 0x40 MLOAD DUP1 SWAP2 SUB SWAP1 REVERT JUMPDEST PUSH2 0x25F PUSH0 DUP4 DUP4 PUSH2 0x263 PUSH1 0x20 SHL PUSH1 0x20 SHR JUMP JUMPDEST POP POP JUMP JUMPDEST PUSH0 PUSH20 0xFFFFFFFFFFFFFFFFFFFFFFFFFFFFFFFFFFFFFFFF AND DUP4 PUSH20 0xFFFFFFFFFFFFFFFFFFFFFFFFFFFFFFFFFFFFFFFF AND SUB PUSH2 0x2B3 JUMPI DUP1 PUSH1 0x2 PUSH0 DUP3 DUP3 SLOAD PUSH2 0x2A7 SWAP2 SWAP1 PUSH2 0xBE3 JUMP JUMPDEST SWAP3 POP POP DUP2 SWAP1 SSTORE POP PUSH2 0x381 JUMP JUMPDEST PUSH0 PUSH0 PUSH0 DUP6 PUSH20 0xFFFFFFFFFFFFFFFFFFFFFFFFFFFFFFFFFFFFFFFF AND PUSH20 0xFFFFFFFFFFFFFFFFFFFFFFFFFFFFFFFFFFFFFFFF AND DUP2 MSTORE PUSH1 0x20 ADD SWAP1 DUP2 MSTORE PUSH1 0x20 ADD PUSH0 KECCAK256 SLOAD SWAP1 POP DUP2 DUP2 LT ISZERO PUSH2 0x33C JUMPI DUP4 DUP2 DUP4 PUSH1 0x40 MLOAD PUSH32 0xE450D38C00000000000000000000000000000000000000000000000000000000 DUP2 MSTORE PUSH1 0x4 ADD PUSH2 0x333 SWAP4 SWAP3 SWAP2 SWAP1 PUSH2 0xC25 JUMP JUMPDEST PUSH1 0x40 MLOAD DUP1 SWAP2 SUB SWAP1 REVERT JUMPDEST DUP2 DUP2 SUB PUSH0 PUSH0 DUP7 PUSH20 0xFFFFFFFFFFFFFFFFFFFFFFFFFFFFFFFFFFFFFFFF AND PUSH20 0xFFFFFFFFFFFFFFFFFFFFFFFFFFFFFFFFFFFFFFFF AND DUP2 MSTORE PUSH1 0x20 ADD SWAP1 DUP2 MSTORE PUSH1 0x20 ADD PUSH0 KECCAK256 DUP2 SWAP1 SSTORE POP POP JUMPDEST PUSH0 PUSH20 0xFFFFFFFFFFFFFFFFFFFFFFFFFFFFFFFFFFFFFFFF AND DUP3 PUSH20 0xFFFFFFFFFFFFFFFFFFFFFFFFFFFFFFFFFFFFFFFF AND SUB PUSH2 0x3C8 JUMPI DUP1 PUSH1 0x2 PUSH0 DUP3 DUP3 SLOAD SUB SWAP3 POP POP DUP2 SWAP1 SSTORE POP PUSH2 0x412 JUMP JUMPDEST DUP1 PUSH0 PUSH0 DUP5 PUSH20 0xFFFFFFFFFFFFFFFFFFFFFFFFFFFFFFFFFFFFFFFF AND PUSH20 0xFFFFFFFFFFFFFFFFFFFFFFFFFFFFFFFFFFFFFFFF AND DUP2 MSTORE PUSH1 0x20 ADD SWAP1 DUP2 MSTORE PUSH1 0x20 ADD PUSH0 KECCAK256 PUSH0 DUP3 DUP3 SLOAD ADD SWAP3 POP POP DUP2 SWAP1 SSTORE POP JUMPDEST DUP2 PUSH20 0xFFFFFFFFFFFFFFFFFFFFFFFFFFFFFFFFFFFFFFFF AND DUP4 PUSH20 0xFFFFFFFFFFFFFFFFFFFFFFFFFFFFFFFFFFFFFFFF AND PUSH32 0xDDF252AD1BE2C89B69C2B068FC378DAA952BA7F163C4A11628F55A4DF523B3EF DUP4 PUSH1 0x40 MLOAD PUSH2 0x46F SWAP2 SWAP1 PUSH2 0xC5A JUMP JUMPDEST PUSH1 0x40 MLOAD DUP1 SWAP2 SUB SWAP1 LOG3 POP POP POP JUMP JUMPDEST PUSH0 PUSH1 0x40 MLOAD SWAP1 POP SWAP1 JUMP JUMPDEST PUSH0 PUSH0 REVERT JUMPDEST PUSH0 PUSH0 REVERT JUMPDEST PUSH0 PUSH0 REVERT JUMPDEST PUSH0 PUSH0 REVERT JUMPDEST PUSH0 PUSH1 0x1F NOT PUSH1 0x1F DUP4 ADD AND SWAP1 POP SWAP2 SWAP1 POP JUMP JUMPDEST PUSH32 0x4E487B7100000000000000000000000000000000000000000000000000000000 PUSH0 MSTORE PUSH1 0x41 PUSH1 0x4 MSTORE PUSH1 0x24 PUSH0 REVERT JUMPDEST PUSH2 0x4DB DUP3 PUSH2 0x495 JUMP JUMPDEST DUP2 ADD DUP2 DUP2 LT PUSH8 0xFFFFFFFFFFFFFFFF DUP3 GT OR ISZERO PUSH2 0x4FA JUMPI PUSH2 0x4F9 PUSH2 0x4A5 JUMP JUMPDEST JUMPDEST DUP1 PUSH1 0x40 MSTORE POP POP POP JUMP JUMPDEST PUSH0 PUSH2 0x50C PUSH2 0x47C JUMP JUMPDEST SWAP1 POP PUSH2 0x518 DUP3 DUP3 PUSH2 0x4D2 JUMP JUMPDEST SWAP2 SWAP1 POP JUMP JUMPDEST PUSH0 PUSH8 0xFFFFFFFFFFFFFFFF DUP3 GT ISZERO PUSH2 0x537 JUMPI PUSH2 0x536 PUSH2 0x4A5 JUMP JUMPDEST JUMPDEST PUSH2 0x540 DUP3 PUSH2 0x495 JUMP JUMPDEST SWAP1 POP PUSH1 0x20 DUP2 ADD SWAP1 POP SWAP2 SWAP1 POP JUMP JUMPDEST DUP3 DUP2 DUP4 MCOPY PUSH0 DUP4 DUP4 ADD MSTORE POP POP POP JUMP JUMPDEST PUSH0 PUSH2 0x56D PUSH2 0x568 DUP5 PUSH2 0x51D JUMP JUMPDEST PUSH2 0x503 JUMP JUMPDEST SWAP1 POP DUP3 DUP2 MSTORE PUSH1 0x20 DUP2 ADD DUP5 DUP5 DUP5 ADD GT ISZERO PUSH2 0x589 JUMPI PUSH2 0x588 PUSH2 0x491 JUMP JUMPDEST JUMPDEST PUSH2 0x594 DUP5 DUP3 DUP6 PUSH2 0x54D JUMP JUMPDEST POP SWAP4 SWAP3 POP POP POP JUMP JUMPDEST PUSH0 DUP3 PUSH1 0x1F DUP4 ADD SLT PUSH2 0x5B0 JUMPI PUSH2 0x5AF PUSH2 0x48D JUMP JUMPDEST JUMPDEST DUP2 MLOAD PUSH2 0x5C0 DUP5 DUP3 PUSH1 0x20 DUP7 ADD PUSH2 0x55B JUMP JUMPDEST SWAP2 POP POP SWAP3 SWAP2 POP POP JUMP JUMPDEST PUSH0 DUP2 SWAP1 POP SWAP2 SWAP1 POP JUMP JUMPDEST PUSH2 0x5DB DUP2 PUSH2 0x5C9 JUMP JUMPDEST DUP2 EQ PUSH2 0x5E5 JUMPI PUSH0 PUSH0 REVERT JUMPDEST POP JUMP JUMPDEST PUSH0 DUP2 MLOAD SWAP1 POP PUSH2 0x5F6 DUP2 PUSH2 0x5D2 JUMP JUMPDEST SWAP3 SWAP2 POP POP JUMP JUMPDEST PUSH0 PUSH20 0xFFFFFFFFFFFFFFFFFFFFFFFFFFFFFFFFFFFFFFFF DUP3 AND SWAP1 POP SWAP2 SWAP1 POP JUMP JUMPDEST PUSH0 PUSH2 0x625 DUP3 PUSH2 0x5FC JUMP JUMPDEST SWAP1 POP SWAP2 SWAP1 POP JUMP JUMPDEST PUSH2 0x635 DUP2 PUSH2 0x61B JUMP JUMPDEST DUP2 EQ PUSH2 0x63F JUMPI PUSH0 PUSH0 REVERT JUMPDEST POP JUMP JUMPDEST PUSH0 DUP2 MLOAD SWAP1 POP PUSH2 0x650 DUP2 PUSH2 0x62C JUMP JUMPDEST SWAP3 SWAP2 POP POP JUMP JUMPDEST PUSH0 PUSH0 PUSH0 PUSH0 PUSH1 0x80 DUP6 DUP8 SUB SLT ISZERO PUSH2 0x66E JUMPI PUSH2 0x66D PUSH2 0x485 JUMP JUMPDEST JUMPDEST PUSH0 DUP6 ADD MLOAD PUSH8 0xFFFFFFFFFFFFFFFF DUP2 GT ISZERO PUSH2 0x68B JUMPI PUSH2 0x68A PUSH2 0x489 JUMP JUMPDEST JUMPDEST PUSH2 0x697 DUP8 DUP3 DUP9 ADD PUSH2 0x59C JUMP JUMPDEST SWAP5 POP POP PUSH1 0x20 DUP6 ADD MLOAD PUSH8 0xFFFFFFFFFFFFFFFF DUP2 GT ISZERO PUSH2 0x6B8 JUMPI PUSH2 0x6B7 PUSH2 0x489 JUMP JUMPDEST JUMPDEST PUSH2 0x6C4 DUP8 DUP3 DUP9 ADD PUSH2 0x59C JUMP JUMPDEST SWAP4 POP POP PUSH1 0x40 PUSH2 0x6D5 DUP8 DUP3 DUP9 ADD PUSH2 0x5E8 JUMP JUMPDEST SWAP3 POP POP PUSH1 0x60 PUSH2 0x6E6 DUP8 DUP3 DUP9 ADD PUSH2 0x642 JUMP JUMPDEST SWAP2 POP POP SWAP3 SWAP6 SWAP2 SWAP5 POP SWAP3 POP JUMP JUMPDEST PUSH0 DUP2 MLOAD SWAP1 POP SWAP2 SWAP1 POP JUMP JUMPDEST PUSH32 0x4E487B7100000000000000000000000000000000000000000000000000000000 PUSH0 MSTORE PUSH1 0x22 PUSH1 0x4 MSTORE PUSH1 0x24 PUSH0 REVERT JUMPDEST PUSH0 PUSH1 0x2 DUP3 DIV SWAP1 POP PUSH1 0x1 DUP3 AND DUP1 PUSH2 0x740 JUMPI PUSH1 0x7F DUP3 AND SWAP2 POP JUMPDEST PUSH1 0x20 DUP3 LT DUP2 SUB PUSH2 0x753 JUMPI PUSH2 0x752 PUSH2 0x6FC JUMP JUMPDEST JUMPDEST POP SWAP2 SWAP1 POP JUMP JUMPDEST PUSH0 DUP2 SWAP1 POP DUP2 PUSH0 MSTORE PUSH1 0x20 PUSH0 KECCAK256 SWAP1 POP SWAP2 SWAP1 POP JUMP JUMPDEST PUSH0 PUSH1 0x20 PUSH1 0x1F DUP4 ADD DIV SWAP1 POP SWAP2 SWAP1 POP JUMP JUMPDEST PUSH0 DUP3 DUP3 SHL SWAP1 POP SWAP3 SWAP2 POP POP JUMP JUMPDEST PUSH0 PUSH1 0x8 DUP4 MUL PUSH2 0x7B5 PUSH32 0xFFFFFFFFFFFFFFFFFFFFFFFFFFFFFFFFFFFFFFFFFFFFFFFFFFFFFFFFFFFFFFFF DUP3 PUSH2 0x77A JUMP JUMPDEST PUSH2 0x7BF DUP7 DUP4 PUSH2 0x77A JUMP JUMPDEST SWAP6 POP DUP1 NOT DUP5 AND SWAP4 POP DUP1 DUP7 AND DUP5 OR SWAP3 POP POP POP SWAP4 SWAP3 POP POP POP JUMP JUMPDEST PUSH0 DUP2 SWAP1 POP SWAP2 SWAP1 POP JUMP JUMPDEST PUSH0 PUSH2 0x7FA PUSH2 0x7F5 PUSH2 0x7F0 DUP5 PUSH2 0x5C9 JUMP JUMPDEST PUSH2 0x7D7 JUMP JUMPDEST PUSH2 0x5C9 JUMP JUMPDEST SWAP1 POP SWAP2 SWAP1 POP JUMP JUMPDEST PUSH0 DUP2 SWAP1 POP SWAP2 SWAP1 POP JUMP JUMPDEST PUSH2 0x813 DUP4 PUSH2 0x7E0 JUMP JUMPDEST PUSH2 0x827 PUSH2 0x81F DUP3 PUSH2 0x801 JUMP JUMPDEST DUP5 DUP5 SLOAD PUSH2 0x786 JUMP JUMPDEST DUP3 SSTORE POP POP POP POP JUMP JUMPDEST PUSH0 PUSH0 SWAP1 POP SWAP1 JUMP JUMPDEST PUSH2 0x83E PUSH2 0x82F JUMP JUMPDEST PUSH2 0x849 DUP2 DUP5 DUP5 PUSH2 0x80A JUMP JUMPDEST POP POP POP JUMP JUMPDEST JUMPDEST DUP2 DUP2 LT ISZERO PUSH2 0x86C JUMPI PUSH2 0x861 PUSH0 DUP3 PUSH2 0x836 JUMP JUMPDEST PUSH1 0x1 DUP2 ADD SWAP1 POP PUSH2 0x84F JUMP JUMPDEST POP POP JUMP JUMPDEST PUSH1 0x1F DUP3 GT ISZERO PUSH2 0x8B1 JUMPI PUSH2 0x882 DUP2 PUSH2 0x759 JUMP JUMPDEST PUSH2 0x88B DUP5 PUSH2 0x76B JUMP JUMPDEST DUP2 ADD PUSH1 0x20 DUP6 LT ISZERO PUSH2 0x89A JUMPI DUP2 SWAP1 POP JUMPDEST PUSH2 0x8AE PUSH2 0x8A6 DUP6 PUSH2 0x76B JUMP JUMPDEST DUP4 ADD DUP3 PUSH2 0x84E JUMP JUMPDEST POP POP JUMPDEST POP POP POP JUMP JUMPDEST PUSH0 DUP3 DUP3 SHR SWAP1 POP SWAP3 SWAP2 POP POP JUMP JUMPDEST PUSH0 PUSH2 0x8D1 PUSH0 NOT DUP5 PUSH1 0x8 MUL PUSH2 0x8B6 JUMP JUMPDEST NOT DUP1 DUP4 AND SWAP2 POP POP SWAP3 SWAP2 POP POP JUMP JUMPDEST PUSH0 PUSH2 0x8E9 DUP4 DUP4 PUSH2 0x8C2 JUMP JUMPDEST SWAP2 POP DUP3 PUSH1 0x2 MUL DUP3 OR SWAP1 POP SWAP3 SWAP2 POP POP JUMP JUMPDEST PUSH2 0x902 DUP3 PUSH2 0x6F2 JUMP JUMPDEST PUSH8 0xFFFFFFFFFFFFFFFF DUP2 GT ISZERO PUSH2 0x91B JUMPI PUSH2 0x91A PUSH2 0x4A5 JUMP JUMPDEST JUMPDEST PUSH2 0x925 DUP3 SLOAD PUSH2 0x729 JUMP JUMPDEST PUSH2 0x930 DUP3 DUP3 DUP6 PUSH2 0x870 JUMP JUMPDEST PUSH0 PUSH1 0x20 SWAP1 POP PUSH1 0x1F DUP4 GT PUSH1 0x1 DUP2 EQ PUSH2 0x961 JUMPI PUSH0 DUP5 ISZERO PUSH2 0x94F JUMPI DUP3 DUP8 ADD MLOAD SWAP1 POP JUMPDEST PUSH2 0x959 DUP6 DUP3 PUSH2 0x8DE JUMP JUMPDEST DUP7 SSTORE POP PUSH2 0x9C0 JUMP JUMPDEST PUSH1 0x1F NOT DUP5 AND PUSH2 0x96F DUP7 PUSH2 0x759 JUMP JUMPDEST PUSH0 JUMPDEST DUP3 DUP2 LT ISZERO PUSH2 0x996 JUMPI DUP5 DUP10 ADD MLOAD DUP3 SSTORE PUSH1 0x1 DUP3 ADD SWAP2 POP PUSH1 0x20 DUP6 ADD SWAP5 POP PUSH1 0x20 DUP2 ADD SWAP1 POP PUSH2 0x971 JUMP JUMPDEST DUP7 DUP4 LT ISZERO PUSH2 0x9B3 JUMPI DUP5 DUP10 ADD MLOAD PUSH2 0x9AF PUSH1 0x1F DUP10 AND DUP3 PUSH2 0x8C2 JUMP JUMPDEST DUP4 SSTORE POP JUMPDEST PUSH1 0x1 PUSH1 0x2 DUP9 MUL ADD DUP9 SSTORE POP POP POP JUMPDEST POP POP POP POP POP POP JUMP JUMPDEST PUSH2 0x9D1 DUP2 PUSH2 0x61B JUMP JUMPDEST DUP3 MSTORE POP POP JUMP JUMPDEST PUSH0 PUSH1 0x20 DUP3 ADD SWAP1 POP PUSH2 0x9EA PUSH0 DUP4 ADD DUP5 PUSH2 0x9C8 JUMP JUMPDEST SWAP3 SWAP2 POP POP JUMP JUMPDEST PUSH32 0x4E487B7100000000000000000000000000000000000000000000000000000000 PUSH0 MSTORE PUSH1 0x11 PUSH1 0x4 MSTORE PUSH1 0x24 PUSH0 REVERT JUMPDEST PUSH0 DUP2 PUSH1 0x1 SHR SWAP1 POP SWAP2 SWAP1 POP JUMP JUMPDEST PUSH0 PUSH0 DUP3 SWAP2 POP DUP4 SWAP1 POP JUMPDEST PUSH1 0x1 DUP6 GT ISZERO PUSH2 0xA72 JUMPI DUP1 DUP7 DIV DUP2 GT ISZERO PUSH2 0xA4E JUMPI PUSH2 0xA4D PUSH2 0x9F0 JUMP JUMPDEST JUMPDEST PUSH1 0x1 DUP6 AND ISZERO PUSH2 0xA5D JUMPI DUP1 DUP3 MUL SWAP2 POP JUMPDEST DUP1 DUP2 MUL SWAP1 POP PUSH2 0xA6B DUP6 PUSH2 0xA1D JUMP JUMPDEST SWAP5 POP PUSH2 0xA32 JUMP JUMPDEST SWAP5 POP SWAP5 SWAP3 POP POP POP JUMP JUMPDEST PUSH0 DUP3 PUSH2 0xA8A JUMPI PUSH1 0x1 SWAP1 POP PUSH2 0xB45 JUMP JUMPDEST DUP2 PUSH2 0xA97 JUMPI PUSH0 SWAP1 POP PUSH2 0xB45 JUMP JUMPDEST DUP2 PUSH1 0x1 DUP2 EQ PUSH2 0xAAD JUMPI PUSH1 0x2 DUP2 EQ PUSH2 0xAB7 JUMPI PUSH2 0xAE6 JUMP JUMPDEST PUSH1 0x1 SWAP2 POP POP PUSH2 0xB45 JUMP JUMPDEST PUSH1 0xFF DUP5 GT ISZERO PUSH2 0xAC9 JUMPI PUSH2 0xAC8 PUSH2 0x9F0 JUMP JUMPDEST JUMPDEST DUP4 PUSH1 0x2 EXP SWAP2 POP DUP5 DUP3 GT ISZERO PUSH2 0xAE0 JUMPI PUSH2 0xADF PUSH2 0x9F0 JUMP JUMPDEST JUMPDEST POP PUSH2 0xB45 JUMP JUMPDEST POP PUSH1 0x20 DUP4 LT PUSH2 0x133 DUP4 LT AND PUSH1 0x4E DUP5 LT PUSH1 0xB DUP5 LT AND OR ISZERO PUSH2 0xB1B JUMPI DUP3 DUP3 EXP SWAP1 POP DUP4 DUP2 GT ISZERO PUSH2 0xB16 JUMPI PUSH2 0xB15 PUSH2 0x9F0 JUMP JUMPDEST JUMPDEST PUSH2 0xB45 JUMP JUMPDEST PUSH2 0xB28 DUP5 DUP5 DUP5 PUSH1 0x1 PUSH2 0xA29 JUMP JUMPDEST SWAP3 POP SWAP1 POP DUP2 DUP5 DIV DUP2 GT ISZERO PUSH2 0xB3F JUMPI PUSH2 0xB3E PUSH2 0x9F0 JUMP JUMPDEST JUMPDEST DUP2 DUP2 MUL SWAP1 POP JUMPDEST SWAP4 SWAP3 POP POP POP JUMP JUMPDEST PUSH0 PUSH1 0xFF DUP3 AND SWAP1 POP SWAP2 SWAP1 POP JUMP JUMPDEST PUSH0 PUSH2 0xB62 DUP3 PUSH2 0x5C9 JUMP JUMPDEST SWAP2 POP PUSH2 0xB6D DUP4 PUSH2 0xB4C JUMP JUMPDEST SWAP3 POP PUSH2 0xB9A PUSH32 0xFFFFFFFFFFFFFFFFFFFFFFFFFFFFFFFFFFFFFFFFFFFFFFFFFFFFFFFFFFFFFFFF DUP5 DUP5 PUSH2 0xA7B JUMP JUMPDEST SWAP1 POP SWAP3 SWAP2 POP POP JUMP JUMPDEST PUSH0 PUSH2 0xBAC DUP3 PUSH2 0x5C9 JUMP JUMPDEST SWAP2 POP PUSH2 0xBB7 DUP4 PUSH2 0x5C9 JUMP JUMPDEST SWAP3 POP DUP3 DUP3 MUL PUSH2 0xBC5 DUP2 PUSH2 0x5C9 JUMP JUMPDEST SWAP2 POP DUP3 DUP3 DIV DUP5 EQ DUP4 ISZERO OR PUSH2 0xBDC JUMPI PUSH2 0xBDB PUSH2 0x9F0 JUMP JUMPDEST JUMPDEST POP SWAP3 SWAP2 POP POP JUMP JUMPDEST PUSH0 PUSH2 0xBED DUP3 PUSH2 0x5C9 JUMP JUMPDEST SWAP2 POP PUSH2 0xBF8 DUP4 PUSH2 0x5C9 JUMP JUMPDEST SWAP3 POP DUP3 DUP3 ADD SWAP1 POP DUP1 DUP3 GT ISZERO PUSH2 0xC10 JUMPI PUSH2 0xC0F PUSH2 0x9F0 JUMP JUMPDEST JUMPDEST SWAP3 SWAP2 POP POP JUMP JUMPDEST PUSH2 0xC1F DUP2 PUSH2 0x5C9 JUMP JUMPDEST DUP3 MSTORE POP POP JUMP JUMPDEST PUSH0 PUSH1 0x60 DUP3 ADD SWAP1 POP PUSH2 0xC38 PUSH0 DUP4 ADD DUP7 PUSH2 0x9C8 JUMP JUMPDEST PUSH2 0xC45 PUSH1 0x20 DUP4 ADD DUP6 PUSH2 0xC16 JUMP JUMPDEST PUSH2 0xC52 PUSH1 0x40 DUP4 ADD DUP5 PUSH2 0xC16 JUMP JUMPDEST SWAP5 SWAP4 POP POP POP POP JUMP JUMPDEST PUSH0 PUSH1 0x20 DUP3 ADD SWAP1 POP PUSH2 0xC6D PUSH0 DUP4 ADD DUP5 PUSH2 0xC16 JUMP JUMPDEST SWAP3 SWAP2 POP POP JUMP JUMPDEST PUSH2 0x1050 DUP1 PUSH2 0xC80 PUSH0 CODECOPY PUSH0 RETURN INVALID PUSH1 0x80 PUSH1 0x40 MSTORE CALLVALUE DUP1 ISZERO PUSH2 0xF JUMPI PUSH0 PUSH0 REVERT JUMPDEST POP PUSH1 0x4 CALLDATASIZE LT PUSH2 0xB2 JUMPI PUSH0 CALLDATALOAD PUSH1 0xE0 SHR DUP1 PUSH4 0x715018A6 GT PUSH2 0x6F JUMPI DUP1 PUSH4 0x715018A6 EQ PUSH2 0x1A0 JUMPI DUP1 PUSH4 0x8DA5CB5B EQ PUSH2 0x1AA JUMPI DUP1 PUSH4 0x95D89B41 EQ PUSH2 0x1C8 JUMPI DUP1 PUSH4 0xA9059CBB EQ PUSH2 0x1E6 JUMPI DUP1 PUSH4 0xDD62ED3E EQ PUSH2 0x216 JUMPI DUP1 PUSH4 0xF2FDE38B EQ PUSH2 0x246 JUMPI PUSH2 0xB2 JUMP JUMPDEST DUP1 PUSH4 0x6FDDE03 EQ PUSH2 0xB6 JUMPI DUP1 PUSH4 0x95EA7B3 EQ PUSH2 0xD4 JUMPI DUP1 PUSH4 0x18160DDD EQ PUSH2 0x104 JUMPI DUP1 PUSH4 0x23B872DD EQ PUSH2 0x122 JUMPI DUP1 PUSH4 0x313CE567 EQ PUSH2 0x152 JUMPI DUP1 PUSH4 0x70A08231 EQ PUSH2 0x170 JUMPI JUMPDEST PUSH0 PUSH0 REVERT JUMPDEST PUSH2 0xBE PUSH2 0x262 JUMP JUMPDEST PUSH1 0x40 MLOAD PUSH2 0xCB SWAP2 SWAP1 PUSH2 0xCC9 JUMP JUMPDEST PUSH1 0x40 MLOAD DUP1 SWAP2 SUB SWAP1 RETURN JUMPDEST PUSH2 0xEE PUSH1 0x4 DUP1 CALLDATASIZE SUB DUP2 ADD SWAP1 PUSH2 0xE9 SWAP2 SWAP1 PUSH2 0xD7A JUMP JUMPDEST PUSH2 0x2F2 JUMP JUMPDEST PUSH1 0x40 MLOAD PUSH2 0xFB SWAP2 SWAP1 PUSH2 0xDD2 JUMP JUMPDEST PUSH1 0x40 MLOAD DUP1 SWAP2 SUB SWAP1 RETURN JUMPDEST PUSH2 0x10C PUSH2 0x314 JUMP JUMPDEST PUSH1 0x40 MLOAD PUSH2 0x119 SWAP2 SWAP1 PUSH2 0xDFA JUMP JUMPDEST PUSH1 0x40 MLOAD DUP1 SWAP2 SUB SWAP1 RETURN JUMPDEST PUSH2 0x13C PUSH1 0x4 DUP1 CALLDATASIZE SUB DUP2 ADD SWAP1 PUSH2 0x137 SWAP2 SWAP1 PUSH2 0xE13 JUMP JUMPDEST PUSH2 0x31D JUMP JUMPDEST PUSH1 0x40 MLOAD PUSH2 0x149 SWAP2 SWAP1 PUSH2 0xDD2 JUMP JUMPDEST PUSH1 0x40 MLOAD DUP1 SWAP2 SUB SWAP1 RETURN JUMPDEST PUSH2 0x15A PUSH2 0x34B JUMP JUMPDEST PUSH1 0x40 MLOAD PUSH2 0x167 SWAP2 SWAP1 PUSH2 0xE7E JUMP JUMPDEST PUSH1 0x40 MLOAD DUP1 SWAP2 SUB SWAP1 RETURN JUMPDEST PUSH2 0x18A PUSH1 0x4 DUP1 CALLDATASIZE SUB DUP2 ADD SWAP1 PUSH2 0x185 SWAP2 SWAP1 PUSH2 0xE97 JUMP JUMPDEST PUSH2 0x353 JUMP JUMPDEST PUSH1 0x40 MLOAD PUSH2 0x197 SWAP2 SWAP1 PUSH2 0xDFA JUMP JUMPDEST PUSH1 0x40 MLOAD DUP1 SWAP2 SUB SWAP1 RETURN JUMPDEST PUSH2 0x1A8 PUSH2 0x398 JUMP JUMPDEST STOP JUMPDEST PUSH2 0x1B2 PUSH2 0x3AB JUMP JUMPDEST PUSH1 0x40 MLOAD PUSH2 0x1BF SWAP2 SWAP1 PUSH2 0xED1 JUMP JUMPDEST PUSH1 0x40 MLOAD DUP1 SWAP2 SUB SWAP1 RETURN JUMPDEST PUSH2 0x1D0 PUSH2 0x3D3 JUMP JUMPDEST PUSH1 0x40 MLOAD PUSH2 0x1DD SWAP2 SWAP1 PUSH2 0xCC9 JUMP JUMPDEST PUSH1 0x40 MLOAD DUP1 SWAP2 SUB SWAP1 RETURN JUMPDEST PUSH2 0x200 PUSH1 0x4 DUP1 CALLDATASIZE SUB DUP2 ADD SWAP1 PUSH2 0x1FB SWAP2 SWAP1 PUSH2 0xD7A JUMP JUMPDEST PUSH2 0x463 JUMP JUMPDEST PUSH1 0x40 MLOAD PUSH2 0x20D SWAP2 SWAP1 PUSH2 0xDD2 JUMP JUMPDEST PUSH1 0x40 MLOAD DUP1 SWAP2 SUB SWAP1 RETURN JUMPDEST PUSH2 0x230 PUSH1 0x4 DUP1 CALLDATASIZE SUB DUP2 ADD SWAP1 PUSH2 0x22B SWAP2 SWAP1 PUSH2 0xEEA JUMP JUMPDEST PUSH2 0x485 JUMP JUMPDEST PUSH1 0x40 MLOAD PUSH2 0x23D SWAP2 SWAP1 PUSH2 0xDFA JUMP JUMPDEST PUSH1 0x40 MLOAD DUP1 SWAP2 SUB SWAP1 RETURN JUMPDEST PUSH2 0x260 PUSH1 0x4 DUP1 CALLDATASIZE SUB DUP2 ADD SWAP1 PUSH2 0x25B SWAP2 SWAP1 PUSH2 0xE97 JUMP JUMPDEST PUSH2 0x507 JUMP JUMPDEST STOP JUMPDEST PUSH1 0x60 PUSH1 0x3 DUP1 SLOAD PUSH2 0x271 SWAP1 PUSH2 0xF55 JUMP JUMPDEST DUP1 PUSH1 0x1F ADD PUSH1 0x20 DUP1 SWAP2 DIV MUL PUSH1 0x20 ADD PUSH1 0x40 MLOAD SWAP1 DUP2 ADD PUSH1 0x40 MSTORE DUP1 SWAP3 SWAP2 SWAP1 DUP2 DUP2 MSTORE PUSH1 0x20 ADD DUP3 DUP1 SLOAD PUSH2 0x29D SWAP1 PUSH2 0xF55 JUMP JUMPDEST DUP1 ISZERO PUSH2 0x2E8 JUMPI DUP1 PUSH1 0x1F LT PUSH2 0x2BF JUMPI PUSH2 0x100 DUP1 DUP4 SLOAD DIV MUL DUP4 MSTORE SWAP2 PUSH1 0x20 ADD SWAP2 PUSH2 0x2E8 JUMP JUMPDEST DUP3 ADD SWAP2 SWAP1 PUSH0 MSTORE PUSH1 0x20 PUSH0 KECCAK256 SWAP1 JUMPDEST DUP2 SLOAD DUP2 MSTORE SWAP1 PUSH1 0x1 ADD SWAP1 PUSH1 0x20 ADD DUP1 DUP4 GT PUSH2 0x2CB JUMPI DUP3 SWAP1 SUB PUSH1 0x1F AND DUP3 ADD SWAP2 JUMPDEST POP POP POP POP POP SWAP1 POP SWAP1 JUMP JUMPDEST PUSH0 PUSH0 PUSH2 0x2FC PUSH2 0x58B JUMP JUMPDEST SWAP1 POP PUSH2 0x309 DUP2 DUP6 DUP6 PUSH2 0x592 JUMP JUMPDEST PUSH1 0x1 SWAP2 POP POP SWAP3 SWAP2 POP POP JUMP JUMPDEST PUSH0 PUSH1 0x2 SLOAD SWAP1 POP SWAP1 JUMP JUMPDEST PUSH0 PUSH0 PUSH2 0x327 PUSH2 0x58B JUMP JUMPDEST SWAP1 POP PUSH2 0x334 DUP6 DUP3 DUP6 PUSH2 0x5A4 JUMP JUMPDEST PUSH2 0x33F DUP6 DUP6 DUP6 PUSH2 0x637 JUMP JUMPDEST PUSH1 0x1 SWAP2 POP POP SWAP4 SWAP3 POP POP POP JUMP JUMPDEST PUSH0 PUSH1 0x12 SWAP1 POP SWAP1 JUMP JUMPDEST PUSH0 PUSH0 PUSH0 DUP4 PUSH20 0xFFFFFFFFFFFFFFFFFFFFFFFFFFFFFFFFFFFFFFFF AND PUSH20 0xFFFFFFFFFFFFFFFFFFFFFFFFFFFFFFFFFFFFFFFF AND DUP2 MSTORE PUSH1 0x20 ADD SWAP1 DUP2 MSTORE PUSH1 0x20 ADD PUSH0 KECCAK256 SLOAD SWAP1 POP SWAP2 SWAP1 POP JUMP JUMPDEST PUSH2 0x3A0 PUSH2 0x727 JUMP JUMPDEST PUSH2 0x3A9 PUSH0 PUSH2 0x7AE JUMP JUMPDEST JUMP JUMPDEST PUSH0 PUSH1 0x5 PUSH0 SWAP1 SLOAD SWAP1 PUSH2 0x100 EXP SWAP1 DIV PUSH20 0xFFFFFFFFFFFFFFFFFFFFFFFFFFFFFFFFFFFFFFFF AND SWAP1 POP SWAP1 JUMP JUMPDEST PUSH1 0x60 PUSH1 0x4 DUP1 SLOAD PUSH2 0x3E2 SWAP1 PUSH2 0xF55 JUMP JUMPDEST DUP1 PUSH1 0x1F ADD PUSH1 0x20 DUP1 SWAP2 DIV MUL PUSH1 0x20 ADD PUSH1 0x40 MLOAD SWAP1 DUP2 ADD PUSH1 0x40 MSTORE DUP1 SWAP3 SWAP2 SWAP1 DUP2 DUP2 MSTORE PUSH1 0x20 ADD DUP3 DUP1 SLOAD PUSH2 0x40E SWAP1 PUSH2 0xF55 JUMP JUMPDEST DUP1 ISZERO PUSH2 0x459 JUMPI DUP1 PUSH1 0x1F LT PUSH2 0x430 JUMPI PUSH2 0x100 DUP1 DUP4 SLOAD DIV MUL DUP4 MSTORE SWAP2 PUSH1 0x20 ADD SWAP2 PUSH2 0x459 JUMP JUMPDEST DUP3 ADD SWAP2 SWAP1 PUSH0 MSTORE PUSH1 0x20 PUSH0 KECCAK256 SWAP1 JUMPDEST DUP2 SLOAD DUP2 MSTORE SWAP1 PUSH1 0x1 ADD SWAP1 PUSH1 0x20 ADD DUP1 DUP4 GT PUSH2 0x43C JUMPI DUP3 SWAP1 SUB PUSH1 0x1F AND DUP3 ADD SWAP2 JUMPDEST POP POP POP POP POP SWAP1 POP SWAP1 JUMP JUMPDEST PUSH0 PUSH0 PUSH2 0x46D PUSH2 0x58B JUMP JUMPDEST SWAP1 POP PUSH2 0x47A DUP2 DUP6 DUP6 PUSH2 0x637 JUMP JUMPDEST PUSH1 0x1 SWAP2 POP POP SWAP3 SWAP2 POP POP JUMP JUMPDEST PUSH0 PUSH1 0x1 PUSH0 DUP5 PUSH20 0xFFFFFFFFFFFFFFFFFFFFFFFFFFFFFFFFFFFFFFFF AND PUSH20 0xFFFFFFFFFFFFFFFFFFFFFFFFFFFFFFFFFFFFFFFF AND DUP2 MSTORE PUSH1 0x20 ADD SWAP1 DUP2 MSTORE PUSH1 0x20 ADD PUSH0 KECCAK256 PUSH0 DUP4 PUSH20 0xFFFFFFFFFFFFFFFFFFFFFFFFFFFFFFFFFFFFFFFF AND PUSH20 0xFFFFFFFFFFFFFFFFFFFFFFFFFFFFFFFFFFFFFFFF AND DUP2 MSTORE PUSH1 0x20 ADD SWAP1 DUP2 MSTORE PUSH1 0x20 ADD PUSH0 KECCAK256 SLOAD SWAP1 POP SWAP3 SWAP2 POP POP JUMP JUMPDEST PUSH2 0x50F PUSH2 0x727 JUMP JUMPDEST PUSH0 PUSH20 0xFFFFFFFFFFFFFFFFFFFFFFFFFFFFFFFFFFFFFFFF AND DUP2 PUSH20 0xFFFFFFFFFFFFFFFFFFFFFFFFFFFFFFFFFFFFFFFF AND SUB PUSH2 0x57F JUMPI PUSH0 PUSH1 0x40 MLOAD PUSH32 0x1E4FBDF700000000000000000000000000000000000000000000000000000000 DUP2 MSTORE PUSH1 0x4 ADD PUSH2 0x576 SWAP2 SWAP1 PUSH2 0xED1 JUMP JUMPDEST PUSH1 0x40 MLOAD DUP1 SWAP2 SUB SWAP1 REVERT JUMPDEST PUSH2 0x588 DUP2 PUSH2 0x7AE JUMP JUMPDEST POP JUMP JUMPDEST PUSH0 CALLER SWAP1 POP SWAP1 JUMP JUMPDEST PUSH2 0x59F DUP4 DUP4 DUP4 PUSH1 0x1 PUSH2 0x871 JUMP JUMPDEST POP POP POP JUMP JUMPDEST PUSH0 PUSH2 0x5AF DUP5 DUP5 PUSH2 0x485 JUMP JUMPDEST SWAP1 POP PUSH32 0xFFFFFFFFFFFFFFFFFFFFFFFFFFFFFFFFFFFFFFFFFFFFFFFFFFFFFFFFFFFFFFFF DUP2 LT ISZERO PUSH2 0x631 JUMPI DUP2 DUP2 LT ISZERO PUSH2 0x622 JUMPI DUP3 DUP2 DUP4 PUSH1 0x40 MLOAD PUSH32 0xFB8F41B200000000000000000000000000000000000000000000000000000000 DUP2 MSTORE PUSH1 0x4 ADD PUSH2 0x619 SWAP4 SWAP3 SWAP2 SWAP1 PUSH2 0xF85 JUMP JUMPDEST PUSH1 0x40 MLOAD DUP1 SWAP2 SUB SWAP1 REVERT JUMPDEST PUSH2 0x630 DUP5 DUP5 DUP5 DUP5 SUB PUSH0 PUSH2 0x871 JUMP JUMPDEST JUMPDEST POP POP POP POP JUMP JUMPDEST PUSH0 PUSH20 0xFFFFFFFFFFFFFFFFFFFFFFFFFFFFFFFFFFFFFFFF AND DUP4 PUSH20 0xFFFFFFFFFFFFFFFFFFFFFFFFFFFFFFFFFFFFFFFF AND SUB PUSH2 0x6A7 JUMPI PUSH0 PUSH1 0x40 MLOAD PUSH32 0x96C6FD1E00000000000000000000000000000000000000000000000000000000 DUP2 MSTORE PUSH1 0x4 ADD PUSH2 0x69E SWAP2 SWAP1 PUSH2 0xED1 JUMP JUMPDEST PUSH1 0x40 MLOAD DUP1 SWAP2 SUB SWAP1 REVERT JUMPDEST PUSH0 PUSH20 0xFFFFFFFFFFFFFFFFFFFFFFFFFFFFFFFFFFFFFFFF AND DUP3 PUSH20 0xFFFFFFFFFFFFFFFFFFFFFFFFFFFFFFFFFFFFFFFF AND SUB PUSH2 0x717 JUMPI PUSH0 PUSH1 0x40 MLOAD PUSH32 0xEC442F0500000000000000000000000000000000000000000000000000000000 DUP2 MSTORE PUSH1 0x4 ADD PUSH2 0x70E SWAP2 SWAP1 PUSH2 0xED1 JUMP JUMPDEST PUSH1 0x40 MLOAD DUP1 SWAP2 SUB SWAP1 REVERT JUMPDEST PUSH2 0x722 DUP4 DUP4 DUP4 PUSH2 0xA40 JUMP JUMPDEST POP POP POP JUMP JUMPDEST PUSH2 0x72F PUSH2 0x58B JUMP JUMPDEST PUSH20 0xFFFFFFFFFFFFFFFFFFFFFFFFFFFFFFFFFFFFFFFF AND PUSH2 0x74D PUSH2 0x3AB JUMP JUMPDEST PUSH20 0xFFFFFFFFFFFFFFFFFFFFFFFFFFFFFFFFFFFFFFFF AND EQ PUSH2 0x7AC JUMPI PUSH2 0x770 PUSH2 0x58B JUMP JUMPDEST PUSH1 0x40 MLOAD PUSH32 0x118CDAA700000000000000000000000000000000000000000000000000000000 DUP2 MSTORE PUSH1 0x4 ADD PUSH2 0x7A3 SWAP2 SWAP1 PUSH2 0xED1 JUMP JUMPDEST PUSH1 0x40 MLOAD DUP1 SWAP2 SUB SWAP1 REVERT JUMPDEST JUMP JUMPDEST PUSH0 PUSH1 0x5 PUSH0 SWAP1 SLOAD SWAP1 PUSH2 0x100 EXP SWAP1 DIV PUSH20 0xFFFFFFFFFFFFFFFFFFFFFFFFFFFFFFFFFFFFFFFF AND SWAP1 POP DUP2 PUSH1 0x5 PUSH0 PUSH2 0x100 EXP DUP2 SLOAD DUP2 PUSH20 0xFFFFFFFFFFFFFFFFFFFFFFFFFFFFFFFFFFFFFFFF MUL NOT AND SWAP1 DUP4 PUSH20 0xFFFFFFFFFFFFFFFFFFFFFFFFFFFFFFFFFFFFFFFF AND MUL OR SWAP1 SSTORE POP DUP2 PUSH20 0xFFFFFFFFFFFFFFFFFFFFFFFFFFFFFFFFFFFFFFFF AND DUP2 PUSH20 0xFFFFFFFFFFFFFFFFFFFFFFFFFFFFFFFFFFFFFFFF AND PUSH32 0x8BE0079C531659141344CD1FD0A4F28419497F9722A3DAAFE3B4186F6B6457E0 PUSH1 0x40 MLOAD PUSH1 0x40 MLOAD DUP1 SWAP2 SUB SWAP1 LOG3 POP POP JUMP JUMPDEST PUSH0 PUSH20 0xFFFFFFFFFFFFFFFFFFFFFFFFFFFFFFFFFFFFFFFF AND DUP5 PUSH20 0xFFFFFFFFFFFFFFFFFFFFFFFFFFFFFFFFFFFFFFFF AND SUB PUSH2 0x8E1 JUMPI PUSH0 PUSH1 0x40 MLOAD PUSH32 0xE602DF0500000000000000000000000000000000000000000000000000000000 DUP2 MSTORE PUSH1 0x4 ADD PUSH2 0x8D8 SWAP2 SWAP1 PUSH2 0xED1 JUMP JUMPDEST PUSH1 0x40 MLOAD DUP1 SWAP2 SUB SWAP1 REVERT JUMPDEST PUSH0 PUSH20 0xFFFFFFFFFFFFFFFFFFFFFFFFFFFFFFFFFFFFFFFF AND DUP4 PUSH20 0xFFFFFFFFFFFFFFFFFFFFFFFFFFFFFFFFFFFFFFFF AND SUB PUSH2 0x951 JUMPI PUSH0 PUSH1 0x40 MLOAD PUSH32 0x94280D6200000000000000000000000000000000000000000000000000000000 DUP2 MSTORE PUSH1 0x4 ADD PUSH2 0x948 SWAP2 SWAP1 PUSH2 0xED1 JUMP JUMPDEST PUSH1 0x40 MLOAD DUP1 SWAP2 SUB SWAP1 REVERT JUMPDEST DUP2 PUSH1 0x1 PUSH0 DUP7 PUSH20 0xFFFFFFFFFFFFFFFFFFFFFFFFFFFFFFFFFFFFFFFF AND PUSH20 0xFFFFFFFFFFFFFFFFFFFFFFFFFFFFFFFFFFFFFFFF AND DUP2 MSTORE PUSH1 0x20 ADD SWAP1 DUP2 MSTORE PUSH1 0x20 ADD PUSH0 KECCAK256 PUSH0 DUP6 PUSH20 0xFFFFFFFFFFFFFFFFFFFFFFFFFFFFFFFFFFFFFFFF AND PUSH20 0xFFFFFFFFFFFFFFFFFFFFFFFFFFFFFFFFFFFFFFFF AND DUP2 MSTORE PUSH1 0x20 ADD SWAP1 DUP2 MSTORE PUSH1 0x20 ADD PUSH0 KECCAK256 DUP2 SWAP1 SSTORE POP DUP1 ISZERO PUSH2 0xA3A JUMPI DUP3 PUSH20 0xFFFFFFFFFFFFFFFFFFFFFFFFFFFFFFFFFFFFFFFF AND DUP5 PUSH20 0xFFFFFFFFFFFFFFFFFFFFFFFFFFFFFFFFFFFFFFFF AND PUSH32 0x8C5BE1E5EBEC7D5BD14F71427D1E84F3DD0314C0F7B2291E5B200AC8C7C3B925 DUP5 PUSH1 0x40 MLOAD PUSH2 0xA31 SWAP2 SWAP1 PUSH2 0xDFA JUMP JUMPDEST PUSH1 0x40 MLOAD DUP1 SWAP2 SUB SWAP1 LOG3 JUMPDEST POP POP POP POP JUMP JUMPDEST PUSH0 PUSH20 0xFFFFFFFFFFFFFFFFFFFFFFFFFFFFFFFFFFFFFFFF AND DUP4 PUSH20 0xFFFFFFFFFFFFFFFFFFFFFFFFFFFFFFFFFFFFFFFF AND SUB PUSH2 0xA90 JUMPI DUP1 PUSH1 0x2 PUSH0 DUP3 DUP3 SLOAD PUSH2 0xA84 SWAP2 SWAP1 PUSH2 0xFE7 JUMP JUMPDEST SWAP3 POP POP DUP2 SWAP1 SSTORE POP PUSH2 0xB5E JUMP JUMPDEST PUSH0 PUSH0 PUSH0 DUP6 PUSH20 0xFFFFFFFFFFFFFFFFFFFFFFFFFFFFFFFFFFFFFFFF AND PUSH20 0xFFFFFFFFFFFFFFFFFFFFFFFFFFFFFFFFFFFFFFFF AND DUP2 MSTORE PUSH1 0x20 ADD SWAP1 DUP2 MSTORE PUSH1 0x20 ADD PUSH0 KECCAK256 SLOAD SWAP1 POP DUP2 DUP2 LT ISZERO PUSH2 0xB19 JUMPI DUP4 DUP2 DUP4 PUSH1 0x40 MLOAD PUSH32 0xE450D38C00000000000000000000000000000000000000000000000000000000 DUP2 MSTORE PUSH1 0x4 ADD PUSH2 0xB10 SWAP4 SWAP3 SWAP2 SWAP1 PUSH2 0xF85 JUMP JUMPDEST PUSH1 0x40 MLOAD DUP1 SWAP2 SUB SWAP1 REVERT JUMPDEST DUP2 DUP2 SUB PUSH0 PUSH0 DUP7 PUSH20 0xFFFFFFFFFFFFFFFFFFFFFFFFFFFFFFFFFFFFFFFF AND PUSH20 0xFFFFFFFFFFFFFFFFFFFFFFFFFFFFFFFFFFFFFFFF AND DUP2 MSTORE PUSH1 0x20 ADD SWAP1 DUP2 MSTORE PUSH1 0x20 ADD PUSH0 KECCAK256 DUP2 SWAP1 SSTORE POP POP JUMPDEST PUSH0 PUSH20 0xFFFFFFFFFFFFFFFFFFFFFFFFFFFFFFFFFFFFFFFF AND DUP3 PUSH20 0xFFFFFFFFFFFFFFFFFFFFFFFFFFFFFFFFFFFFFFFF AND SUB PUSH2 0xBA5 JUMPI DUP1 PUSH1 0x2 PUSH0 DUP3 DUP3 SLOAD SUB SWAP3 POP POP DUP2 SWAP1 SSTORE POP PUSH2 0xBEF JUMP JUMPDEST DUP1 PUSH0 PUSH0 DUP5 PUSH20 0xFFFFFFFFFFFFFFFFFFFFFFFFFFFFFFFFFFFFFFFF AND PUSH20 0xFFFFFFFFFFFFFFFFFFFFFFFFFFFFFFFFFFFFFFFF AND DUP2 MSTORE PUSH1 0x20 ADD SWAP1 DUP2 MSTORE PUSH1 0x20 ADD PUSH0 KECCAK256 PUSH0 DUP3 DUP3 SLOAD ADD SWAP3 POP POP DUP2 SWAP1 SSTORE POP JUMPDEST DUP2 PUSH20 0xFFFFFFFFFFFFFFFFFFFFFFFFFFFFFFFFFFFFFFFF AND DUP4 PUSH20 0xFFFFFFFFFFFFFFFFFFFFFFFFFFFFFFFFFFFFFFFF AND PUSH32 0xDDF252AD1BE2C89B69C2B068FC378DAA952BA7F163C4A11628F55A4DF523B3EF DUP4 PUSH1 0x40 MLOAD PUSH2 0xC4C SWAP2 SWAP1 PUSH2 0xDFA JUMP JUMPDEST PUSH1 0x40 MLOAD DUP1 SWAP2 SUB SWAP1 LOG3 POP POP POP JUMP JUMPDEST PUSH0 DUP2 MLOAD SWAP1 POP SWAP2 SWAP1 POP JUMP JUMPDEST PUSH0 DUP3 DUP3 MSTORE PUSH1 0x20 DUP3 ADD SWAP1 POP SWAP3 SWAP2 POP POP JUMP JUMPDEST DUP3 DUP2 DUP4 MCOPY PUSH0 DUP4 DUP4 ADD MSTORE POP POP POP JUMP JUMPDEST PUSH0 PUSH1 0x1F NOT PUSH1 0x1F DUP4 ADD AND SWAP1 POP SWAP2 SWAP1 POP JUMP JUMPDEST PUSH0 PUSH2 0xC9B DUP3 PUSH2 0xC59 JUMP JUMPDEST PUSH2 0xCA5 DUP2 DUP6 PUSH2 0xC63 JUMP JUMPDEST SWAP4 POP PUSH2 0xCB5 DUP2 DUP6 PUSH1 0x20 DUP7 ADD PUSH2 0xC73 JUMP JUMPDEST PUSH2 0xCBE DUP2 PUSH2 0xC81 JUMP JUMPDEST DUP5 ADD SWAP2 POP POP SWAP3 SWAP2 POP POP JUMP JUMPDEST PUSH0 PUSH1 0x20 DUP3 ADD SWAP1 POP DUP2 DUP2 SUB PUSH0 DUP4 ADD MSTORE PUSH2 0xCE1 DUP2 DUP5 PUSH2 0xC91 JUMP JUMPDEST SWAP1 POP SWAP3 SWAP2 POP POP JUMP JUMPDEST PUSH0 PUSH0 REVERT JUMPDEST PUSH0 PUSH20 0xFFFFFFFFFFFFFFFFFFFFFFFFFFFFFFFFFFFFFFFF DUP3 AND SWAP1 POP SWAP2 SWAP1 POP JUMP JUMPDEST PUSH0 PUSH2 0xD16 DUP3 PUSH2 0xCED JUMP JUMPDEST SWAP1 POP SWAP2 SWAP1 POP JUMP JUMPDEST PUSH2 0xD26 DUP2 PUSH2 0xD0C JUMP JUMPDEST DUP2 EQ PUSH2 0xD30 JUMPI PUSH0 PUSH0 REVERT JUMPDEST POP JUMP JUMPDEST PUSH0 DUP2 CALLDATALOAD SWAP1 POP PUSH2 0xD41 DUP2 PUSH2 0xD1D JUMP JUMPDEST SWAP3 SWAP2 POP POP JUMP JUMPDEST PUSH0 DUP2 SWAP1 POP SWAP2 SWAP1 POP JUMP JUMPDEST PUSH2 0xD59 DUP2 PUSH2 0xD47 JUMP JUMPDEST DUP2 EQ PUSH2 0xD63 JUMPI PUSH0 PUSH0 REVERT JUMPDEST POP JUMP JUMPDEST PUSH0 DUP2 CALLDATALOAD SWAP1 POP PUSH2 0xD74 DUP2 PUSH2 0xD50 JUMP JUMPDEST SWAP3 SWAP2 POP POP JUMP JUMPDEST PUSH0 PUSH0 PUSH1 0x40 DUP4 DUP6 SUB SLT ISZERO PUSH2 0xD90 JUMPI PUSH2 0xD8F PUSH2 0xCE9 JUMP JUMPDEST JUMPDEST PUSH0 PUSH2 0xD9D DUP6 DUP3 DUP7 ADD PUSH2 0xD33 JUMP JUMPDEST SWAP3 POP POP PUSH1 0x20 PUSH2 0xDAE DUP6 DUP3 DUP7 ADD PUSH2 0xD66 JUMP JUMPDEST SWAP2 POP POP SWAP3 POP SWAP3 SWAP1 POP JUMP JUMPDEST PUSH0 DUP2 ISZERO ISZERO SWAP1 POP SWAP2 SWAP1 POP JUMP JUMPDEST PUSH2 0xDCC DUP2 PUSH2 0xDB8 JUMP JUMPDEST DUP3 MSTORE POP POP JUMP JUMPDEST PUSH0 PUSH1 0x20 DUP3 ADD SWAP1 POP PUSH2 0xDE5 PUSH0 DUP4 ADD DUP5 PUSH2 0xDC3 JUMP JUMPDEST SWAP3 SWAP2 POP POP JUMP JUMPDEST PUSH2 0xDF4 DUP2 PUSH2 0xD47 JUMP JUMPDEST DUP3 MSTORE POP POP JUMP JUMPDEST PUSH0 PUSH1 0x20 DUP3 ADD SWAP1 POP PUSH2 0xE0D PUSH0 DUP4 ADD DUP5 PUSH2 0xDEB JUMP JUMPDEST SWAP3 SWAP2 POP POP JUMP JUMPDEST PUSH0 PUSH0 PUSH0 PUSH1 0x60 DUP5 DUP7 SUB SLT ISZERO PUSH2 0xE2A JUMPI PUSH2 0xE29 PUSH2 0xCE9 JUMP JUMPDEST JUMPDEST PUSH0 PUSH2 0xE37 DUP7 DUP3 DUP8 ADD PUSH2 0xD33 JUMP JUMPDEST SWAP4 POP POP PUSH1 0x20 PUSH2 0xE48 DUP7 DUP3 DUP8 ADD PUSH2 0xD33 JUMP JUMPDEST SWAP3 POP POP PUSH1 0x40 PUSH2 0xE59 DUP7 DUP3 DUP8 ADD PUSH2 0xD66 JUMP JUMPDEST SWAP2 POP POP SWAP3 POP SWAP3 POP SWAP3 JUMP JUMPDEST PUSH0 PUSH1 0xFF DUP3 AND SWAP1 POP SWAP2 SWAP1 POP JUMP JUMPDEST PUSH2 0xE78 DUP2 PUSH2 0xE63 JUMP JUMPDEST DUP3 MSTORE POP POP JUMP JUMPDEST PUSH0 PUSH1 0x20 DUP3 ADD SWAP1 POP PUSH2 0xE91 PUSH0 DUP4 ADD DUP5 PUSH2 0xE6F JUMP JUMPDEST SWAP3 SWAP2 POP POP JUMP JUMPDEST PUSH0 PUSH1 0x20 DUP3 DUP5 SUB SLT ISZERO PUSH2 0xEAC JUMPI PUSH2 0xEAB PUSH2 0xCE9 JUMP JUMPDEST JUMPDEST PUSH0 PUSH2 0xEB9 DUP5 DUP3 DUP6 ADD PUSH2 0xD33 JUMP JUMPDEST SWAP2 POP POP SWAP3 SWAP2 POP POP JUMP JUMPDEST PUSH2 0xECB DUP2 PUSH2 0xD0C JUMP JUMPDEST DUP3 MSTORE POP POP JUMP JUMPDEST PUSH0 PUSH1 0x20 DUP3 ADD SWAP1 POP PUSH2 0xEE4 PUSH0 DUP4 ADD DUP5 PUSH2 0xEC2 JUMP JUMPDEST SWAP3 SWAP2 POP POP JUMP JUMPDEST PUSH0 PUSH0 PUSH1 0x40 DUP4 DUP6 SUB SLT ISZERO PUSH2 0xF00 JUMPI PUSH2 0xEFF PUSH2 0xCE9 JUMP JUMPDEST JUMPDEST PUSH0 PUSH2 0xF0D DUP6 DUP3 DUP7 ADD PUSH2 0xD33 JUMP JUMPDEST SWAP3 POP POP PUSH1 0x20 PUSH2 0xF1E DUP6 DUP3 DUP7 ADD PUSH2 0xD33 JUMP JUMPDEST SWAP2 POP POP SWAP3 POP SWAP3 SWAP1 POP JUMP JUMPDEST PUSH32 0x4E487B7100000000000000000000000000000000000000000000000000000000 PUSH0 MSTORE PUSH1 0x22 PUSH1 0x4 MSTORE PUSH1 0x24 PUSH0 REVERT JUMPDEST PUSH0 PUSH1 0x2 DUP3 DIV SWAP1 POP PUSH1 0x1 DUP3 AND DUP1 PUSH2 0xF6C JUMPI PUSH1 0x7F DUP3 AND SWAP2 POP JUMPDEST PUSH1 0x20 DUP3 LT DUP2 SUB PUSH2 0xF7F JUMPI PUSH2 0xF7E PUSH2 0xF28 JUMP JUMPDEST JUMPDEST POP SWAP2 SWAP1 POP JUMP JUMPDEST PUSH0 PUSH1 0x60 DUP3 ADD SWAP1 POP PUSH2 0xF98 PUSH0 DUP4 ADD DUP7 PUSH2 0xEC2 JUMP JUMPDEST PUSH2 0xFA5 PUSH1 0x20 DUP4 ADD DUP6 PUSH2 0xDEB JUMP JUMPDEST PUSH2 0xFB2 PUSH1 0x40 DUP4 ADD DUP5 PUSH2 0xDEB JUMP JUMPDEST SWAP5 SWAP4 POP POP POP POP JUMP JUMPDEST PUSH32 0x4E487B7100000000000000000000000000000000000000000000000000000000 PUSH0 MSTORE PUSH1 0x11 PUSH1 0x4 MSTORE PUSH1 0x24 PUSH0 REVERT JUMPDEST PUSH0 PUSH2 0xFF1 DUP3 PUSH2 0xD47 JUMP JUMPDEST SWAP2 POP PUSH2 0xFFC DUP4 PUSH2 0xD47 JUMP JUMPDEST SWAP3 POP DUP3 DUP3 ADD SWAP1 POP DUP1 DUP3 GT ISZERO PUSH2 0x1014 JUMPI PUSH2 0x1013 PUSH2 0xFBA JUMP JUMPDEST JUMPDEST SWAP3 SWAP2 POP POP JUMP INVALID LOG2 PUSH5 0x6970667358 0x22 SLT KECCAK256 0xCE NOT PUSH14 0x5A46DB8D1D4226F1384241ED6179 0xCE KECCAK256 PUSH18 0x3DB7E65464020F29D047154B64736F6C6343 STOP ADDMOD 0x1F STOP CALLER LOG2 PUSH5 0x6970667358 0x22 SLT KECCAK256 ADDRESS 0xA6 0xCA JUMPDEST MUL 0xCB 0xD2 SWAP16 BLOBBASEFEE DUP3 SWAP12 POP 0xAC 0xD7 REVERT EQ 0xC4 SWAP8 PUSH23 0x259D7DABC87100594B987FFD6164736F6C634300081F00 CALLER "
				},
				"gasEstimates": {
					"creation": {
						"codeDepositCost": "1952400",
						"executionCost": "infinite",
						"totalCost": "infinite"
					},
					"external": {
						"createToken(uint256)": "infinite"
					},
					"internal": {
						"generateRandomName()": "infinite",
						"generateSymbol(string memory)": "infinite"
					}
				},
				"methodIdentifiers": {
					"createToken(uint256)": "2d571cc4"
				}
			},
			"storageLayout": {
				"storage": [
					{
						"astId": 998,
						"contract": "contracts/Base.sol:TokenFactory",
						"label": "prefixes",
						"offset": 0,
						"slot": "0",
						"type": "t_array(t_string_storage)dyn_storage"
					},
					{
						"astId": 1013,
						"contract": "contracts/Base.sol:TokenFactory",
						"label": "middles",
						"offset": 0,
						"slot": "1",
						"type": "t_array(t_string_storage)dyn_storage"
					},
					{
						"astId": 1028,
						"contract": "contracts/Base.sol:TokenFactory",
						"label": "suffixes",
						"offset": 0,
						"slot": "2",
						"type": "t_array(t_string_storage)dyn_storage"
					}
				],
				"types": {
					"t_array(t_string_storage)dyn_storage": {
						"base": "t_string_storage",
						"encoding": "dynamic_array",
						"label": "string[]",
						"numberOfBytes": "32"
					},
					"t_string_storage": {
						"encoding": "bytes",
						"label": "string",
						"numberOfBytes": "32"
					}
				}
			},
			"userdoc": {
				"kind": "user",
				"methods": {},
				"version": 1
			}
		}
	}
}